{"contracts/AteayaWhitelist.sol":{"AteayaWhitelist":{"abi":[{"inputs":[{"internalType":"address","name":"admin","type":"address"},{"internalType":"address","name":"operator","type":"address"}],"stateMutability":"nonpayable","type":"constructor"},{"inputs":[],"name":"AccessControlBadConfirmation","type":"error"},{"inputs":[{"internalType":"address","name":"account","type":"address"},{"internalType":"bytes32","name":"neededRole","type":"bytes32"}],"name":"AccessControlUnauthorizedAccount","type":"error"},{"inputs":[],"name":"EnforcedPause","type":"error"},{"inputs":[],"name":"ExpectedPause","type":"error"},{"anonymous":false,"inputs":[{"indexed":false,"internalType":"address","name":"account","type":"address"}],"name":"Paused","type":"event"},{"anonymous":false,"inputs":[{"indexed":true,"internalType":"bytes32","name":"role","type":"bytes32"},{"indexed":true,"internalType":"bytes32","name":"previousAdminRole","type":"bytes32"},{"indexed":true,"internalType":"bytes32","name":"newAdminRole","type":"bytes32"}],"name":"RoleAdminChanged","type":"event"},{"anonymous":false,"inputs":[{"indexed":true,"internalType":"bytes32","name":"role","type":"bytes32"},{"indexed":true,"internalType":"address","name":"account","type":"address"},{"indexed":true,"internalType":"address","name":"sender","type":"address"}],"name":"RoleGranted","type":"event"},{"anonymous":false,"inputs":[{"indexed":true,"internalType":"bytes32","name":"role","type":"bytes32"},{"indexed":true,"internalType":"address","name":"account","type":"address"},{"indexed":true,"internalType":"address","name":"sender","type":"address"}],"name":"RoleRevoked","type":"event"},{"anonymous":false,"inputs":[{"indexed":false,"internalType":"address","name":"account","type":"address"}],"name":"Unpaused","type":"event"},{"anonymous":false,"inputs":[{"indexed":false,"internalType":"uint256","name":"hash","type":"uint256"},{"indexed":false,"internalType":"bool","name":"enabled","type":"bool"}],"name":"Updated","type":"event"},{"inputs":[],"name":"DEFAULT_ADMIN_ROLE","outputs":[{"internalType":"bytes32","name":"","type":"bytes32"}],"stateMutability":"view","type":"function"},{"inputs":[{"internalType":"bytes32","name":"role","type":"bytes32"}],"name":"getRoleAdmin","outputs":[{"internalType":"bytes32","name":"","type":"bytes32"}],"stateMutability":"view","type":"function"},{"inputs":[{"internalType":"bytes32","name":"role","type":"bytes32"},{"internalType":"address","name":"account","type":"address"}],"name":"grantRole","outputs":[],"stateMutability":"nonpayable","type":"function"},{"inputs":[{"internalType":"bytes32","name":"role","type":"bytes32"},{"internalType":"address","name":"account","type":"address"}],"name":"hasRole","outputs":[{"internalType":"bool","name":"","type":"bool"}],"stateMutability":"view","type":"function"},{"inputs":[{"internalType":"uint256","name":"hash","type":"uint256"}],"name":"isWhitelisted","outputs":[{"internalType":"bool","name":"","type":"bool"}],"stateMutability":"view","type":"function"},{"inputs":[],"name":"pause","outputs":[],"stateMutability":"nonpayable","type":"function"},{"inputs":[],"name":"paused","outputs":[{"internalType":"bool","name":"","type":"bool"}],"stateMutability":"view","type":"function"},{"inputs":[{"internalType":"bytes32","name":"role","type":"bytes32"},{"internalType":"address","name":"callerConfirmation","type":"address"}],"name":"renounceRole","outputs":[],"stateMutability":"nonpayable","type":"function"},{"inputs":[{"internalType":"bytes32","name":"role","type":"bytes32"},{"internalType":"address","name":"account","type":"address"}],"name":"revokeRole","outputs":[],"stateMutability":"nonpayable","type":"function"},{"inputs":[{"internalType":"bytes4","name":"interfaceId","type":"bytes4"}],"name":"supportsInterface","outputs":[{"internalType":"bool","name":"","type":"bool"}],"stateMutability":"view","type":"function"},{"inputs":[],"name":"unpause","outputs":[],"stateMutability":"nonpayable","type":"function"},{"inputs":[{"internalType":"uint256","name":"hash","type":"uint256"},{"internalType":"bool","name":"whitelist","type":"bool"}],"name":"update","outputs":[],"stateMutability":"nonpayable","type":"function"},{"inputs":[{"internalType":"uint256[]","name":"hashes","type":"uint256[]"},{"internalType":"bool","name":"whitelist","type":"bool"}],"name":"updateMulti","outputs":[],"stateMutability":"nonpayable","type":"function"}],"evm":{"bytecode":{"linkReferences":{},"object":"608060405234801561000f575f80fd5b50604051610a18380380610a1883398101604081905261002e916101a2565b5f805460ff1916905561004e5f805160206109f8833981519152836100a9565b506100665f805160206109d8833981519152826100a9565b5061007e5f805160206109f88339815191528061013b565b6100a25f805160206109d88339815191525f805160206109f883398151915261013b565b50506101d3565b5f8281526001602090815260408083206001600160a01b038516845290915281205460ff16610132575f8381526001602081815260408084206001600160a01b0387168086529252808420805460ff19169093179092559051339286917f2f8788117e7eff1d82e926ec794901d17c78024a50270940304540a733656f0d9190a4506001610135565b505f5b92915050565b5f828152600160208190526040808320909101805490849055905190918391839186917fbd79b86ffe0ab8e8776151514217cd7cacd52c909f66475c3af44e129f0b00ff9190a4505050565b80516001600160a01b038116811461019d575f80fd5b919050565b5f80604083850312156101b3575f80fd5b6101bc83610187565b91506101ca60208401610187565b90509250929050565b6107f8806101e05f395ff3fe608060405234801561000f575f80fd5b50600436106100cb575f3560e01c80635c975abb1161008857806391d148541161006357806391d148541461019f578063a217fddf146101b2578063b60d5704146101b9578063d547741f146101cc575f80fd5b80635c975abb1461016b578063751b02c2146101755780638456cb5914610197575f80fd5b806301ffc9a7146100cf578063248a9ca3146100f75780632f2ff15d1461012857806336568abe1461013d5780633f4ba83a1461015057806348284b6214610158575b5f80fd5b6100e26100dd3660046105ef565b6101df565b60405190151581526020015b60405180910390f35b61011a61010536600461061d565b5f908152600160208190526040909120015490565b6040519081526020016100ee565b61013b610136366004610634565b610215565b005b61013b61014b366004610634565b610240565b61013b610278565b61013b610166366004610681565b6102ad565b5f5460ff166100e2565b6100e261018336600461061d565b60026020525f908152604090205460ff1681565b61013b610330565b6100e26101ad366004610634565b610362565b61011a5f81565b61013b6101c73660046106bf565b61038c565b61013b6101da366004610634565b6103ca565b5f6001600160e01b03198216637965db0b60e01b148061020f57506301ffc9a760e01b6001600160e01b03198316145b92915050565b5f8281526001602081905260409091200154610230816103ef565b61023a83836103f9565b50505050565b6001600160a01b03811633146102695760405163334bd91960e11b815260040160405180910390fd5b610273828261046f565b505050565b7fa49807205ce4d355092ef5a8a18f56e8913cf4a201fbe287825b095693c217756102a2816103ef565b6102aa6104da565b50565b7f97667070c54ef182b0f5858b034beac1b6f3089aa2d3188bb1e8929f4fa9b9296102d7816103ef565b5f83815260026020908152604091829020805460ff19168515159081179091558251868152918201527f88b8a458de0aaf94fb69c2a85e2aa8cc40b1a0f59a18ba817a570bb88a06a726910160405180910390a1505050565b7fa49807205ce4d355092ef5a8a18f56e8913cf4a201fbe287825b095693c2177561035a816103ef565b6102aa61052b565b5f9182526001602090815260408084206001600160a01b0393909316845291905290205460ff1690565b5f5b8251811015610273576103ba8382815181106103ac576103ac61078a565b6020026020010151836102ad565b6103c38161079e565b905061038e565b5f82815260016020819052604090912001546103e5816103ef565b61023a838361046f565b6102aa8133610567565b5f6104048383610362565b610468575f8381526001602081815260408084206001600160a01b0387168086529252808420805460ff19169093179092559051339286917f2f8788117e7eff1d82e926ec794901d17c78024a50270940304540a733656f0d9190a450600161020f565b505f61020f565b5f61047a8383610362565b15610468575f8381526001602090815260408083206001600160a01b0386168085529252808320805460ff1916905551339286917ff6391f5c32d9c69d2a47ea670b442974b53935d1edc7fd64eb21e047a839171b9190a450600161020f565b6104e26105a8565b5f805460ff191690557f5db9ee0a495bf2e6ff9c91a7834c1ba4fdd244a5e8aa4e537bd38aeae4b073aa335b6040516001600160a01b03909116815260200160405180910390a1565b6105336105cc565b5f805460ff191660011790557f62e78cea01bee320cd4e420270b5ea74000d11b0c9f74754ebdbfc544b05a25861050e3390565b6105718282610362565b6105a45760405163e2517d3f60e01b81526001600160a01b03821660048201526024810183905260440160405180910390fd5b5050565b5f5460ff166105ca57604051638dfc202b60e01b815260040160405180910390fd5b565b5f5460ff16156105ca5760405163d93c066560e01b815260040160405180910390fd5b5f602082840312156105ff575f80fd5b81356001600160e01b031981168114610616575f80fd5b9392505050565b5f6020828403121561062d575f80fd5b5035919050565b5f8060408385031215610645575f80fd5b8235915060208301356001600160a01b0381168114610662575f80fd5b809150509250929050565b8035801515811461067c575f80fd5b919050565b5f8060408385031215610692575f80fd5b823591506106a26020840161066d565b90509250929050565b634e487b7160e01b5f52604160045260245ffd5b5f80604083850312156106d0575f80fd5b823567ffffffffffffffff808211156106e7575f80fd5b818501915085601f8301126106fa575f80fd5b813560208282111561070e5761070e6106ab565b8160051b604051601f19603f83011681018181108682111715610733576107336106ab565b604052928352818301935084810182019289841115610750575f80fd5b948201945b8386101561076e57853585529482019493820193610755565b965061077d905087820161066d565b9450505050509250929050565b634e487b7160e01b5f52603260045260245ffd5b5f600182016107bb57634e487b7160e01b5f52601160045260245ffd5b506001019056fea264697066735822122052d5b321262d268cb4e14c202fc98dbb3defcf68764fd41b0095ff19c288a03264736f6c6343000814003397667070c54ef182b0f5858b034beac1b6f3089aa2d3188bb1e8929f4fa9b929a49807205ce4d355092ef5a8a18f56e8913cf4a201fbe287825b095693c21775","opcodes":"PUSH1 0x80 PUSH1 0x40 MSTORE CALLVALUE DUP1 ISZERO PUSH2 0xF JUMPI PUSH0 DUP1 REVERT JUMPDEST POP PUSH1 0x40 MLOAD PUSH2 0xA18 CODESIZE SUB DUP1 PUSH2 0xA18 DUP4 CODECOPY DUP2 ADD PUSH1 0x40 DUP2 SWAP1 MSTORE PUSH2 0x2E SWAP2 PUSH2 0x1A2 JUMP JUMPDEST PUSH0 DUP1 SLOAD PUSH1 0xFF NOT AND SWAP1 SSTORE PUSH2 0x4E PUSH0 DUP1 MLOAD PUSH1 0x20 PUSH2 0x9F8 DUP4 CODECOPY DUP2 MLOAD SWAP2 MSTORE DUP4 PUSH2 0xA9 JUMP JUMPDEST POP PUSH2 0x66 PUSH0 DUP1 MLOAD PUSH1 0x20 PUSH2 0x9D8 DUP4 CODECOPY DUP2 MLOAD SWAP2 MSTORE DUP3 PUSH2 0xA9 JUMP JUMPDEST POP PUSH2 0x7E PUSH0 DUP1 MLOAD PUSH1 0x20 PUSH2 0x9F8 DUP4 CODECOPY DUP2 MLOAD SWAP2 MSTORE DUP1 PUSH2 0x13B JUMP JUMPDEST PUSH2 0xA2 PUSH0 DUP1 MLOAD PUSH1 0x20 PUSH2 0x9D8 DUP4 CODECOPY DUP2 MLOAD SWAP2 MSTORE PUSH0 DUP1 MLOAD PUSH1 0x20 PUSH2 0x9F8 DUP4 CODECOPY DUP2 MLOAD SWAP2 MSTORE PUSH2 0x13B JUMP JUMPDEST POP POP PUSH2 0x1D3 JUMP JUMPDEST PUSH0 DUP3 DUP2 MSTORE PUSH1 0x1 PUSH1 0x20 SWAP1 DUP2 MSTORE PUSH1 0x40 DUP1 DUP4 KECCAK256 PUSH1 0x1 PUSH1 0x1 PUSH1 0xA0 SHL SUB DUP6 AND DUP5 MSTORE SWAP1 SWAP2 MSTORE DUP2 KECCAK256 SLOAD PUSH1 0xFF AND PUSH2 0x132 JUMPI PUSH0 DUP4 DUP2 MSTORE PUSH1 0x1 PUSH1 0x20 DUP2 DUP2 MSTORE PUSH1 0x40 DUP1 DUP5 KECCAK256 PUSH1 0x1 PUSH1 0x1 PUSH1 0xA0 SHL SUB DUP8 AND DUP1 DUP7 MSTORE SWAP3 MSTORE DUP1 DUP5 KECCAK256 DUP1 SLOAD PUSH1 0xFF NOT AND SWAP1 SWAP4 OR SWAP1 SWAP3 SSTORE SWAP1 MLOAD CALLER SWAP3 DUP7 SWAP2 PUSH32 0x2F8788117E7EFF1D82E926EC794901D17C78024A50270940304540A733656F0D SWAP2 SWAP1 LOG4 POP PUSH1 0x1 PUSH2 0x135 JUMP JUMPDEST POP PUSH0 JUMPDEST SWAP3 SWAP2 POP POP JUMP JUMPDEST PUSH0 DUP3 DUP2 MSTORE PUSH1 0x1 PUSH1 0x20 DUP2 SWAP1 MSTORE PUSH1 0x40 DUP1 DUP4 KECCAK256 SWAP1 SWAP2 ADD DUP1 SLOAD SWAP1 DUP5 SWAP1 SSTORE SWAP1 MLOAD SWAP1 SWAP2 DUP4 SWAP2 DUP4 SWAP2 DUP7 SWAP2 PUSH32 0xBD79B86FFE0AB8E8776151514217CD7CACD52C909F66475C3AF44E129F0B00FF SWAP2 SWAP1 LOG4 POP POP POP JUMP JUMPDEST DUP1 MLOAD PUSH1 0x1 PUSH1 0x1 PUSH1 0xA0 SHL SUB DUP2 AND DUP2 EQ PUSH2 0x19D JUMPI PUSH0 DUP1 REVERT JUMPDEST SWAP2 SWAP1 POP JUMP JUMPDEST PUSH0 DUP1 PUSH1 0x40 DUP4 DUP6 SUB SLT ISZERO PUSH2 0x1B3 JUMPI PUSH0 DUP1 REVERT JUMPDEST PUSH2 0x1BC DUP4 PUSH2 0x187 JUMP JUMPDEST SWAP2 POP PUSH2 0x1CA PUSH1 0x20 DUP5 ADD PUSH2 0x187 JUMP JUMPDEST SWAP1 POP SWAP3 POP SWAP3 SWAP1 POP JUMP JUMPDEST PUSH2 0x7F8 DUP1 PUSH2 0x1E0 PUSH0 CODECOPY PUSH0 RETURN INVALID PUSH1 0x80 PUSH1 0x40 MSTORE CALLVALUE DUP1 ISZERO PUSH2 0xF JUMPI PUSH0 DUP1 REVERT JUMPDEST POP PUSH1 0x4 CALLDATASIZE LT PUSH2 0xCB JUMPI PUSH0 CALLDATALOAD PUSH1 0xE0 SHR DUP1 PUSH4 0x5C975ABB GT PUSH2 0x88 JUMPI DUP1 PUSH4 0x91D14854 GT PUSH2 0x63 JUMPI DUP1 PUSH4 0x91D14854 EQ PUSH2 0x19F JUMPI DUP1 PUSH4 0xA217FDDF EQ PUSH2 0x1B2 JUMPI DUP1 PUSH4 0xB60D5704 EQ PUSH2 0x1B9 JUMPI DUP1 PUSH4 0xD547741F EQ PUSH2 0x1CC JUMPI PUSH0 DUP1 REVERT JUMPDEST DUP1 PUSH4 0x5C975ABB EQ PUSH2 0x16B JUMPI DUP1 PUSH4 0x751B02C2 EQ PUSH2 0x175 JUMPI DUP1 PUSH4 0x8456CB59 EQ PUSH2 0x197 JUMPI PUSH0 DUP1 REVERT JUMPDEST DUP1 PUSH4 0x1FFC9A7 EQ PUSH2 0xCF JUMPI DUP1 PUSH4 0x248A9CA3 EQ PUSH2 0xF7 JUMPI DUP1 PUSH4 0x2F2FF15D EQ PUSH2 0x128 JUMPI DUP1 PUSH4 0x36568ABE EQ PUSH2 0x13D JUMPI DUP1 PUSH4 0x3F4BA83A EQ PUSH2 0x150 JUMPI DUP1 PUSH4 0x48284B62 EQ PUSH2 0x158 JUMPI JUMPDEST PUSH0 DUP1 REVERT JUMPDEST PUSH2 0xE2 PUSH2 0xDD CALLDATASIZE PUSH1 0x4 PUSH2 0x5EF JUMP JUMPDEST PUSH2 0x1DF JUMP JUMPDEST PUSH1 0x40 MLOAD SWAP1 ISZERO ISZERO DUP2 MSTORE PUSH1 0x20 ADD JUMPDEST PUSH1 0x40 MLOAD DUP1 SWAP2 SUB SWAP1 RETURN JUMPDEST PUSH2 0x11A PUSH2 0x105 CALLDATASIZE PUSH1 0x4 PUSH2 0x61D JUMP JUMPDEST PUSH0 SWAP1 DUP2 MSTORE PUSH1 0x1 PUSH1 0x20 DUP2 SWAP1 MSTORE PUSH1 0x40 SWAP1 SWAP2 KECCAK256 ADD SLOAD SWAP1 JUMP JUMPDEST PUSH1 0x40 MLOAD SWAP1 DUP2 MSTORE PUSH1 0x20 ADD PUSH2 0xEE JUMP JUMPDEST PUSH2 0x13B PUSH2 0x136 CALLDATASIZE PUSH1 0x4 PUSH2 0x634 JUMP JUMPDEST PUSH2 0x215 JUMP JUMPDEST STOP JUMPDEST PUSH2 0x13B PUSH2 0x14B CALLDATASIZE PUSH1 0x4 PUSH2 0x634 JUMP JUMPDEST PUSH2 0x240 JUMP JUMPDEST PUSH2 0x13B PUSH2 0x278 JUMP JUMPDEST PUSH2 0x13B PUSH2 0x166 CALLDATASIZE PUSH1 0x4 PUSH2 0x681 JUMP JUMPDEST PUSH2 0x2AD JUMP JUMPDEST PUSH0 SLOAD PUSH1 0xFF AND PUSH2 0xE2 JUMP JUMPDEST PUSH2 0xE2 PUSH2 0x183 CALLDATASIZE PUSH1 0x4 PUSH2 0x61D JUMP JUMPDEST PUSH1 0x2 PUSH1 0x20 MSTORE PUSH0 SWAP1 DUP2 MSTORE PUSH1 0x40 SWAP1 KECCAK256 SLOAD PUSH1 0xFF AND DUP2 JUMP JUMPDEST PUSH2 0x13B PUSH2 0x330 JUMP JUMPDEST PUSH2 0xE2 PUSH2 0x1AD CALLDATASIZE PUSH1 0x4 PUSH2 0x634 JUMP JUMPDEST PUSH2 0x362 JUMP JUMPDEST PUSH2 0x11A PUSH0 DUP2 JUMP JUMPDEST PUSH2 0x13B PUSH2 0x1C7 CALLDATASIZE PUSH1 0x4 PUSH2 0x6BF JUMP JUMPDEST PUSH2 0x38C JUMP JUMPDEST PUSH2 0x13B PUSH2 0x1DA CALLDATASIZE PUSH1 0x4 PUSH2 0x634 JUMP JUMPDEST PUSH2 0x3CA JUMP JUMPDEST PUSH0 PUSH1 0x1 PUSH1 0x1 PUSH1 0xE0 SHL SUB NOT DUP3 AND PUSH4 0x7965DB0B PUSH1 0xE0 SHL EQ DUP1 PUSH2 0x20F JUMPI POP PUSH4 0x1FFC9A7 PUSH1 0xE0 SHL PUSH1 0x1 PUSH1 0x1 PUSH1 0xE0 SHL SUB NOT DUP4 AND EQ JUMPDEST SWAP3 SWAP2 POP POP JUMP JUMPDEST PUSH0 DUP3 DUP2 MSTORE PUSH1 0x1 PUSH1 0x20 DUP2 SWAP1 MSTORE PUSH1 0x40 SWAP1 SWAP2 KECCAK256 ADD SLOAD PUSH2 0x230 DUP2 PUSH2 0x3EF JUMP JUMPDEST PUSH2 0x23A DUP4 DUP4 PUSH2 0x3F9 JUMP JUMPDEST POP POP POP POP JUMP JUMPDEST PUSH1 0x1 PUSH1 0x1 PUSH1 0xA0 SHL SUB DUP2 AND CALLER EQ PUSH2 0x269 JUMPI PUSH1 0x40 MLOAD PUSH4 0x334BD919 PUSH1 0xE1 SHL DUP2 MSTORE PUSH1 0x4 ADD PUSH1 0x40 MLOAD DUP1 SWAP2 SUB SWAP1 REVERT JUMPDEST PUSH2 0x273 DUP3 DUP3 PUSH2 0x46F JUMP JUMPDEST POP POP POP JUMP JUMPDEST PUSH32 0xA49807205CE4D355092EF5A8A18F56E8913CF4A201FBE287825B095693C21775 PUSH2 0x2A2 DUP2 PUSH2 0x3EF JUMP JUMPDEST PUSH2 0x2AA PUSH2 0x4DA JUMP JUMPDEST POP JUMP JUMPDEST PUSH32 0x97667070C54EF182B0F5858B034BEAC1B6F3089AA2D3188BB1E8929F4FA9B929 PUSH2 0x2D7 DUP2 PUSH2 0x3EF JUMP JUMPDEST PUSH0 DUP4 DUP2 MSTORE PUSH1 0x2 PUSH1 0x20 SWAP1 DUP2 MSTORE PUSH1 0x40 SWAP2 DUP3 SWAP1 KECCAK256 DUP1 SLOAD PUSH1 0xFF NOT AND DUP6 ISZERO ISZERO SWAP1 DUP2 OR SWAP1 SWAP2 SSTORE DUP3 MLOAD DUP7 DUP2 MSTORE SWAP2 DUP3 ADD MSTORE PUSH32 0x88B8A458DE0AAF94FB69C2A85E2AA8CC40B1A0F59A18BA817A570BB88A06A726 SWAP2 ADD PUSH1 0x40 MLOAD DUP1 SWAP2 SUB SWAP1 LOG1 POP POP POP JUMP JUMPDEST PUSH32 0xA49807205CE4D355092EF5A8A18F56E8913CF4A201FBE287825B095693C21775 PUSH2 0x35A DUP2 PUSH2 0x3EF JUMP JUMPDEST PUSH2 0x2AA PUSH2 0x52B JUMP JUMPDEST PUSH0 SWAP2 DUP3 MSTORE PUSH1 0x1 PUSH1 0x20 SWAP1 DUP2 MSTORE PUSH1 0x40 DUP1 DUP5 KECCAK256 PUSH1 0x1 PUSH1 0x1 PUSH1 0xA0 SHL SUB SWAP4 SWAP1 SWAP4 AND DUP5 MSTORE SWAP2 SWAP1 MSTORE SWAP1 KECCAK256 SLOAD PUSH1 0xFF AND SWAP1 JUMP JUMPDEST PUSH0 JUMPDEST DUP3 MLOAD DUP2 LT ISZERO PUSH2 0x273 JUMPI PUSH2 0x3BA DUP4 DUP3 DUP2 MLOAD DUP2 LT PUSH2 0x3AC JUMPI PUSH2 0x3AC PUSH2 0x78A JUMP JUMPDEST PUSH1 0x20 MUL PUSH1 0x20 ADD ADD MLOAD DUP4 PUSH2 0x2AD JUMP JUMPDEST PUSH2 0x3C3 DUP2 PUSH2 0x79E JUMP JUMPDEST SWAP1 POP PUSH2 0x38E JUMP JUMPDEST PUSH0 DUP3 DUP2 MSTORE PUSH1 0x1 PUSH1 0x20 DUP2 SWAP1 MSTORE PUSH1 0x40 SWAP1 SWAP2 KECCAK256 ADD SLOAD PUSH2 0x3E5 DUP2 PUSH2 0x3EF JUMP JUMPDEST PUSH2 0x23A DUP4 DUP4 PUSH2 0x46F JUMP JUMPDEST PUSH2 0x2AA DUP2 CALLER PUSH2 0x567 JUMP JUMPDEST PUSH0 PUSH2 0x404 DUP4 DUP4 PUSH2 0x362 JUMP JUMPDEST PUSH2 0x468 JUMPI PUSH0 DUP4 DUP2 MSTORE PUSH1 0x1 PUSH1 0x20 DUP2 DUP2 MSTORE PUSH1 0x40 DUP1 DUP5 KECCAK256 PUSH1 0x1 PUSH1 0x1 PUSH1 0xA0 SHL SUB DUP8 AND DUP1 DUP7 MSTORE SWAP3 MSTORE DUP1 DUP5 KECCAK256 DUP1 SLOAD PUSH1 0xFF NOT AND SWAP1 SWAP4 OR SWAP1 SWAP3 SSTORE SWAP1 MLOAD CALLER SWAP3 DUP7 SWAP2 PUSH32 0x2F8788117E7EFF1D82E926EC794901D17C78024A50270940304540A733656F0D SWAP2 SWAP1 LOG4 POP PUSH1 0x1 PUSH2 0x20F JUMP JUMPDEST POP PUSH0 PUSH2 0x20F JUMP JUMPDEST PUSH0 PUSH2 0x47A DUP4 DUP4 PUSH2 0x362 JUMP JUMPDEST ISZERO PUSH2 0x468 JUMPI PUSH0 DUP4 DUP2 MSTORE PUSH1 0x1 PUSH1 0x20 SWAP1 DUP2 MSTORE PUSH1 0x40 DUP1 DUP4 KECCAK256 PUSH1 0x1 PUSH1 0x1 PUSH1 0xA0 SHL SUB DUP7 AND DUP1 DUP6 MSTORE SWAP3 MSTORE DUP1 DUP4 KECCAK256 DUP1 SLOAD PUSH1 0xFF NOT AND SWAP1 SSTORE MLOAD CALLER SWAP3 DUP7 SWAP2 PUSH32 0xF6391F5C32D9C69D2A47EA670B442974B53935D1EDC7FD64EB21E047A839171B SWAP2 SWAP1 LOG4 POP PUSH1 0x1 PUSH2 0x20F JUMP JUMPDEST PUSH2 0x4E2 PUSH2 0x5A8 JUMP JUMPDEST PUSH0 DUP1 SLOAD PUSH1 0xFF NOT AND SWAP1 SSTORE PUSH32 0x5DB9EE0A495BF2E6FF9C91A7834C1BA4FDD244A5E8AA4E537BD38AEAE4B073AA CALLER JUMPDEST PUSH1 0x40 MLOAD PUSH1 0x1 PUSH1 0x1 PUSH1 0xA0 SHL SUB SWAP1 SWAP2 AND DUP2 MSTORE PUSH1 0x20 ADD PUSH1 0x40 MLOAD DUP1 SWAP2 SUB SWAP1 LOG1 JUMP JUMPDEST PUSH2 0x533 PUSH2 0x5CC JUMP JUMPDEST PUSH0 DUP1 SLOAD PUSH1 0xFF NOT AND PUSH1 0x1 OR SWAP1 SSTORE PUSH32 0x62E78CEA01BEE320CD4E420270B5EA74000D11B0C9F74754EBDBFC544B05A258 PUSH2 0x50E CALLER SWAP1 JUMP JUMPDEST PUSH2 0x571 DUP3 DUP3 PUSH2 0x362 JUMP JUMPDEST PUSH2 0x5A4 JUMPI PUSH1 0x40 MLOAD PUSH4 0xE2517D3F PUSH1 0xE0 SHL DUP2 MSTORE PUSH1 0x1 PUSH1 0x1 PUSH1 0xA0 SHL SUB DUP3 AND PUSH1 0x4 DUP3 ADD MSTORE PUSH1 0x24 DUP2 ADD DUP4 SWAP1 MSTORE PUSH1 0x44 ADD PUSH1 0x40 MLOAD DUP1 SWAP2 SUB SWAP1 REVERT JUMPDEST POP POP JUMP JUMPDEST PUSH0 SLOAD PUSH1 0xFF AND PUSH2 0x5CA JUMPI PUSH1 0x40 MLOAD PUSH4 0x8DFC202B PUSH1 0xE0 SHL DUP2 MSTORE PUSH1 0x4 ADD PUSH1 0x40 MLOAD DUP1 SWAP2 SUB SWAP1 REVERT JUMPDEST JUMP JUMPDEST PUSH0 SLOAD PUSH1 0xFF AND ISZERO PUSH2 0x5CA JUMPI PUSH1 0x40 MLOAD PUSH4 0xD93C0665 PUSH1 0xE0 SHL DUP2 MSTORE PUSH1 0x4 ADD PUSH1 0x40 MLOAD DUP1 SWAP2 SUB SWAP1 REVERT JUMPDEST PUSH0 PUSH1 0x20 DUP3 DUP5 SUB SLT ISZERO PUSH2 0x5FF JUMPI PUSH0 DUP1 REVERT JUMPDEST DUP2 CALLDATALOAD PUSH1 0x1 PUSH1 0x1 PUSH1 0xE0 SHL SUB NOT DUP2 AND DUP2 EQ PUSH2 0x616 JUMPI PUSH0 DUP1 REVERT JUMPDEST SWAP4 SWAP3 POP POP POP JUMP JUMPDEST PUSH0 PUSH1 0x20 DUP3 DUP5 SUB SLT ISZERO PUSH2 0x62D JUMPI PUSH0 DUP1 REVERT JUMPDEST POP CALLDATALOAD SWAP2 SWAP1 POP JUMP JUMPDEST PUSH0 DUP1 PUSH1 0x40 DUP4 DUP6 SUB SLT ISZERO PUSH2 0x645 JUMPI PUSH0 DUP1 REVERT JUMPDEST DUP3 CALLDATALOAD SWAP2 POP PUSH1 0x20 DUP4 ADD CALLDATALOAD PUSH1 0x1 PUSH1 0x1 PUSH1 0xA0 SHL SUB DUP2 AND DUP2 EQ PUSH2 0x662 JUMPI PUSH0 DUP1 REVERT JUMPDEST DUP1 SWAP2 POP POP SWAP3 POP SWAP3 SWAP1 POP JUMP JUMPDEST DUP1 CALLDATALOAD DUP1 ISZERO ISZERO DUP2 EQ PUSH2 0x67C JUMPI PUSH0 DUP1 REVERT JUMPDEST SWAP2 SWAP1 POP JUMP JUMPDEST PUSH0 DUP1 PUSH1 0x40 DUP4 DUP6 SUB SLT ISZERO PUSH2 0x692 JUMPI PUSH0 DUP1 REVERT JUMPDEST DUP3 CALLDATALOAD SWAP2 POP PUSH2 0x6A2 PUSH1 0x20 DUP5 ADD PUSH2 0x66D JUMP JUMPDEST SWAP1 POP SWAP3 POP SWAP3 SWAP1 POP JUMP JUMPDEST PUSH4 0x4E487B71 PUSH1 0xE0 SHL PUSH0 MSTORE PUSH1 0x41 PUSH1 0x4 MSTORE PUSH1 0x24 PUSH0 REVERT JUMPDEST PUSH0 DUP1 PUSH1 0x40 DUP4 DUP6 SUB SLT ISZERO PUSH2 0x6D0 JUMPI PUSH0 DUP1 REVERT JUMPDEST DUP3 CALLDATALOAD PUSH8 0xFFFFFFFFFFFFFFFF DUP1 DUP3 GT ISZERO PUSH2 0x6E7 JUMPI PUSH0 DUP1 REVERT JUMPDEST DUP2 DUP6 ADD SWAP2 POP DUP6 PUSH1 0x1F DUP4 ADD SLT PUSH2 0x6FA JUMPI PUSH0 DUP1 REVERT JUMPDEST DUP2 CALLDATALOAD PUSH1 0x20 DUP3 DUP3 GT ISZERO PUSH2 0x70E JUMPI PUSH2 0x70E PUSH2 0x6AB JUMP JUMPDEST DUP2 PUSH1 0x5 SHL PUSH1 0x40 MLOAD PUSH1 0x1F NOT PUSH1 0x3F DUP4 ADD AND DUP2 ADD DUP2 DUP2 LT DUP7 DUP3 GT OR ISZERO PUSH2 0x733 JUMPI PUSH2 0x733 PUSH2 0x6AB JUMP JUMPDEST PUSH1 0x40 MSTORE SWAP3 DUP4 MSTORE DUP2 DUP4 ADD SWAP4 POP DUP5 DUP2 ADD DUP3 ADD SWAP3 DUP10 DUP5 GT ISZERO PUSH2 0x750 JUMPI PUSH0 DUP1 REVERT JUMPDEST SWAP5 DUP3 ADD SWAP5 JUMPDEST DUP4 DUP7 LT ISZERO PUSH2 0x76E JUMPI DUP6 CALLDATALOAD DUP6 MSTORE SWAP5 DUP3 ADD SWAP5 SWAP4 DUP3 ADD SWAP4 PUSH2 0x755 JUMP JUMPDEST SWAP7 POP PUSH2 0x77D SWAP1 POP DUP8 DUP3 ADD PUSH2 0x66D JUMP JUMPDEST SWAP5 POP POP POP POP POP SWAP3 POP SWAP3 SWAP1 POP JUMP JUMPDEST PUSH4 0x4E487B71 PUSH1 0xE0 SHL PUSH0 MSTORE PUSH1 0x32 PUSH1 0x4 MSTORE PUSH1 0x24 PUSH0 REVERT JUMPDEST PUSH0 PUSH1 0x1 DUP3 ADD PUSH2 0x7BB JUMPI PUSH4 0x4E487B71 PUSH1 0xE0 SHL PUSH0 MSTORE PUSH1 0x11 PUSH1 0x4 MSTORE PUSH1 0x24 PUSH0 REVERT JUMPDEST POP PUSH1 0x1 ADD SWAP1 JUMP INVALID LOG2 PUSH5 0x6970667358 0x22 SLT KECCAK256 MSTORE 0xD5 0xB3 0x21 0x26 0x2D 0x26 DUP13 0xB4 0xE1 0x4C KECCAK256 0x2F 0xC9 DUP14 0xBB RETURNDATASIZE 0xEF 0xCF PUSH9 0x764FD41B0095FF19C2 DUP9 LOG0 ORIGIN PUSH5 0x736F6C6343 STOP ADDMOD EQ STOP CALLER SWAP8 PUSH7 0x7070C54EF182B0 CREATE2 DUP6 DUP12 SUB 0x4B 0xEA 0xC1 0xB6 RETURN ADDMOD SWAP11 LOG2 0xD3 XOR DUP12 0xB1 0xE8 SWAP3 SWAP16 0x4F 0xA9 0xB9 0x29 LOG4 SWAP9 SMOD KECCAK256 0x5C 0xE4 0xD3 SSTORE MULMOD 0x2E CREATE2 0xA8 LOG1 DUP16 JUMP 0xE8 SWAP2 EXTCODECOPY DELEGATECALL LOG2 ADD 0xFB 0xE2 DUP8 DUP3 JUMPDEST MULMOD JUMP SWAP4 0xC2 OR PUSH22 0x0 "},"methodIdentifiers":{"DEFAULT_ADMIN_ROLE()":"a217fddf","getRoleAdmin(bytes32)":"248a9ca3","grantRole(bytes32,address)":"2f2ff15d","hasRole(bytes32,address)":"91d14854","isWhitelisted(uint256)":"751b02c2","pause()":"8456cb59","paused()":"5c975abb","renounceRole(bytes32,address)":"36568abe","revokeRole(bytes32,address)":"d547741f","supportsInterface(bytes4)":"01ffc9a7","unpause()":"3f4ba83a","update(uint256,bool)":"48284b62","updateMulti(uint256[],bool)":"b60d5704"}},"storageLayout":{"storage":[{"astId":3222,"contract":"contracts/AteayaWhitelist.sol:AteayaWhitelist","label":"_paused","offset":0,"slot":"0","type":"t_bool"},{"astId":26,"contract":"contracts/AteayaWhitelist.sol:AteayaWhitelist","label":"_roles","offset":0,"slot":"1","type":"t_mapping(t_bytes32,t_struct(RoleData)21_storage)"},{"astId":4809,"contract":"contracts/AteayaWhitelist.sol:AteayaWhitelist","label":"isWhitelisted","offset":0,"slot":"2","type":"t_mapping(t_uint256,t_bool)"}],"types":{"t_address":{"encoding":"inplace","label":"address","numberOfBytes":"20"},"t_bool":{"encoding":"inplace","label":"bool","numberOfBytes":"1"},"t_bytes32":{"encoding":"inplace","label":"bytes32","numberOfBytes":"32"},"t_mapping(t_address,t_bool)":{"encoding":"mapping","key":"t_address","label":"mapping(address => bool)","numberOfBytes":"32","value":"t_bool"},"t_mapping(t_bytes32,t_struct(RoleData)21_storage)":{"encoding":"mapping","key":"t_bytes32","label":"mapping(bytes32 => struct AccessControl.RoleData)","numberOfBytes":"32","value":"t_struct(RoleData)21_storage"},"t_mapping(t_uint256,t_bool)":{"encoding":"mapping","key":"t_uint256","label":"mapping(uint256 => bool)","numberOfBytes":"32","value":"t_bool"},"t_struct(RoleData)21_storage":{"encoding":"inplace","label":"struct AccessControl.RoleData","members":[{"astId":18,"contract":"contracts/AteayaWhitelist.sol:AteayaWhitelist","label":"hasRole","offset":0,"slot":"0","type":"t_mapping(t_address,t_bool)"},{"astId":20,"contract":"contracts/AteayaWhitelist.sol:AteayaWhitelist","label":"adminRole","offset":0,"slot":"1","type":"t_bytes32"}],"numberOfBytes":"64"},"t_uint256":{"encoding":"inplace","label":"uint256","numberOfBytes":"32"}}}}}}