{"contracts/KratosX.sol":{"KratosX":{"abi":[{"inputs":[{"internalType":"address","name":"token","type":"address"}],"stateMutability":"nonpayable","type":"constructor"},{"inputs":[{"internalType":"address","name":"target","type":"address"}],"name":"AddressEmptyCode","type":"error"},{"inputs":[{"internalType":"address","name":"account","type":"address"}],"name":"AddressInsufficientBalance","type":"error"},{"inputs":[{"internalType":"uint256","name":"id","type":"uint256"}],"name":"DepositNotFound","type":"error"},{"inputs":[],"name":"EnforcedPause","type":"error"},{"inputs":[],"name":"ExpectedPause","type":"error"},{"inputs":[],"name":"FailedInnerCall","type":"error"},{"inputs":[],"name":"InvalidLockPeriod","type":"error"},{"inputs":[],"name":"NotDepositOwner","type":"error"},{"inputs":[],"name":"NotEnoughAllowance","type":"error"},{"inputs":[],"name":"NotEnoughBalance","type":"error"},{"inputs":[],"name":"NotEnoughFundsToWithdraw","type":"error"},{"inputs":[],"name":"NotEnoughSlotsAvailable","type":"error"},{"inputs":[{"internalType":"address","name":"owner","type":"address"}],"name":"OwnableInvalidOwner","type":"error"},{"inputs":[{"internalType":"address","name":"account","type":"address"}],"name":"OwnableUnauthorizedAccount","type":"error"},{"inputs":[{"internalType":"address","name":"token","type":"address"}],"name":"SafeERC20FailedOperation","type":"error"},{"anonymous":false,"inputs":[{"indexed":false,"internalType":"address","name":"owner","type":"address"},{"indexed":false,"internalType":"uint256","name":"id","type":"uint256"}],"name":"DepositApproved","type":"event"},{"anonymous":false,"inputs":[{"indexed":false,"internalType":"address","name":"depositor","type":"address"}],"name":"DepositRejected","type":"event"},{"anonymous":false,"inputs":[{"indexed":false,"internalType":"uint256","name":"id","type":"uint256"},{"indexed":false,"internalType":"address","name":"from","type":"address"}],"name":"DepositRequested","type":"event"},{"anonymous":false,"inputs":[{"indexed":false,"internalType":"address","name":"owner","type":"address"}],"name":"DepositsApproved","type":"event"},{"anonymous":false,"inputs":[{"indexed":false,"internalType":"uint256[]","name":"id","type":"uint256[]"}],"name":"MultipleWithdrawalsExecuted","type":"event"},{"anonymous":false,"inputs":[{"indexed":false,"internalType":"uint256[]","name":"ids","type":"uint256[]"},{"indexed":false,"internalType":"uint256","name":"estimatedAmount","type":"uint256"}],"name":"MultipleWithdrawalsRequested","type":"event"},{"anonymous":false,"inputs":[{"indexed":true,"internalType":"address","name":"previousOwner","type":"address"},{"indexed":true,"internalType":"address","name":"newOwner","type":"address"}],"name":"OwnershipTransferred","type":"event"},{"anonymous":false,"inputs":[{"indexed":false,"internalType":"address","name":"account","type":"address"}],"name":"Paused","type":"event"},{"anonymous":false,"inputs":[{"indexed":false,"internalType":"address","name":"account","type":"address"}],"name":"Unpaused","type":"event"},{"anonymous":false,"inputs":[{"indexed":false,"internalType":"uint256","name":"id","type":"uint256"},{"indexed":false,"internalType":"uint256","name":"calculatedAmount","type":"uint256"}],"name":"WithdrawalExecuted","type":"event"},{"anonymous":false,"inputs":[{"indexed":false,"internalType":"uint256","name":"id","type":"uint256"},{"indexed":false,"internalType":"uint256","name":"estimatedAmount","type":"uint256"}],"name":"WithdrawalRequested","type":"event"},{"inputs":[{"internalType":"address","name":"depositor","type":"address"},{"internalType":"enum KratosX.LockPeriod","name":"lockPeriod","type":"uint8"}],"name":"approveDeposit","outputs":[],"stateMutability":"nonpayable","type":"function"},{"inputs":[{"internalType":"address","name":"depositor","type":"address"},{"internalType":"enum KratosX.LockPeriod","name":"lockPeriod","type":"uint8"}],"name":"approveDeposits","outputs":[],"stateMutability":"nonpayable","type":"function"},{"inputs":[{"internalType":"uint256","name":"dayCount","type":"uint256"},{"internalType":"bool","name":"hasEarlyAdoptBonus","type":"bool"},{"internalType":"bool","name":"hasExtendBonus","type":"bool"}],"name":"calculateYield","outputs":[{"internalType":"uint256","name":"","type":"uint256"}],"stateMutability":"pure","type":"function"},{"inputs":[{"internalType":"uint256","name":"","type":"uint256"}],"name":"deposits","outputs":[{"internalType":"uint16","name":"id","type":"uint16"},{"internalType":"address","name":"owner","type":"address"},{"internalType":"uint32","name":"approveTimestamp","type":"uint32"},{"internalType":"enum KratosX.LockPeriod","name":"lockPeriod","type":"uint8"},{"internalType":"bool","name":"hasEarlyAdoptBonus","type":"bool"},{"internalType":"bool","name":"hasExtendPeriodBonus","type":"bool"}],"stateMutability":"view","type":"function"},{"inputs":[{"internalType":"uint256","name":"id","type":"uint256"}],"name":"executeWithdrawal","outputs":[],"stateMutability":"nonpayable","type":"function"},{"inputs":[{"internalType":"uint256[]","name":"ids","type":"uint256[]"}],"name":"executeWithdrawals","outputs":[],"stateMutability":"nonpayable","type":"function"},{"inputs":[{"internalType":"uint256","name":"id","type":"uint256"},{"internalType":"enum KratosX.LockPeriod","name":"lockPeriod","type":"uint8"}],"name":"extendLockPeriod","outputs":[],"stateMutability":"nonpayable","type":"function"},{"inputs":[],"name":"getAvailableSlotCount","outputs":[{"internalType":"uint256","name":"","type":"uint256"}],"stateMutability":"view","type":"function"},{"inputs":[],"name":"getSlotValue","outputs":[{"internalType":"uint256","name":"","type":"uint256"}],"stateMutability":"pure","type":"function"},{"inputs":[],"name":"getUsedSlots","outputs":[{"components":[{"internalType":"uint16","name":"id","type":"uint16"},{"internalType":"address","name":"owner","type":"address"},{"internalType":"uint32","name":"approveTimestamp","type":"uint32"},{"internalType":"enum KratosX.LockPeriod","name":"lockPeriod","type":"uint8"},{"internalType":"bool","name":"hasEarlyAdoptBonus","type":"bool"},{"internalType":"bool","name":"hasExtendPeriodBonus","type":"bool"}],"internalType":"struct KratosX.Deposit[]","name":"","type":"tuple[]"}],"stateMutability":"view","type":"function"},{"inputs":[],"name":"owner","outputs":[{"internalType":"address","name":"","type":"address"}],"stateMutability":"view","type":"function"},{"inputs":[],"name":"pause","outputs":[],"stateMutability":"nonpayable","type":"function"},{"inputs":[],"name":"paused","outputs":[{"internalType":"bool","name":"","type":"bool"}],"stateMutability":"view","type":"function"},{"inputs":[{"internalType":"address","name":"depositor","type":"address"}],"name":"rejectDeposit","outputs":[],"stateMutability":"nonpayable","type":"function"},{"inputs":[],"name":"renounceOwnership","outputs":[],"stateMutability":"nonpayable","type":"function"},{"inputs":[{"internalType":"uint256","name":"id","type":"uint256"}],"name":"requestWithdrawal","outputs":[],"stateMutability":"nonpayable","type":"function"},{"inputs":[{"internalType":"uint256[]","name":"ids","type":"uint256[]"}],"name":"requestWithdrawals","outputs":[],"stateMutability":"nonpayable","type":"function"},{"inputs":[{"internalType":"uint8","name":"slots","type":"uint8"}],"name":"setEarlyAdoptSlots","outputs":[],"stateMutability":"nonpayable","type":"function"},{"inputs":[{"internalType":"uint32","name":"timestamp","type":"uint32"}],"name":"setExtendLockPeriodBonus","outputs":[],"stateMutability":"nonpayable","type":"function"},{"inputs":[{"internalType":"address","name":"newOwner","type":"address"}],"name":"transferOwnership","outputs":[],"stateMutability":"nonpayable","type":"function"},{"inputs":[],"name":"unpause","outputs":[],"stateMutability":"nonpayable","type":"function"}],"evm":{"bytecode":{"linkReferences":{},"object":"60a060405234801562000010575f80fd5b5060405162001f6938038062001f69833981016040819052620000339162000121565b5f805460ff1916905533806200006257604051631e4fbdf760e01b81525f600482015260240160405180910390fd5b6200006d81620000c9565b506001600160a01b0381166080525f805466ffff00000000ff60a81b1916600360a81b179055620000a3426301e1338062000150565b5f60166101000a81548163ffffffff021916908363ffffffff1602179055505062000176565b5f80546001600160a01b03838116610100818102610100600160a81b0319851617855560405193049190911692909183917f8be0079c531659141344cd1fd0a4f28419497f9722a3daafe3b4186f6b6457e091a35050565b5f6020828403121562000132575f80fd5b81516001600160a01b038116811462000149575f80fd5b9392505050565b808201808211156200017057634e487b7160e01b5f52601160045260245ffd5b92915050565b608051611db7620001b25f395f818161062001528181610d0601528181610db601528181610faa0152818161111d01526113780152611db75ff3fe608060405234801561000f575f80fd5b5060043610610132575f3560e01c80638c395ef4116100b4578063b02c43d011610079578063b02c43d014610255578063d479220d1461027a578063e61d22201461028d578063f07bfcb7146102a0578063f2fde38b146102b3578063f8bb2414146102c6575f80fd5b80638c395ef4146101df5780638da5cb5b146101f25780639ee679e81461021a578063a871bd631461022d578063a8aa4b8714610240575f80fd5b806360395088116100fa57806360395088146101935780636220e819146101a9578063715018a6146101bc57806373e22c54146101c45780638456cb59146101d7575f80fd5b806313522198146101365780632244e1c71461014b57806324f13a761461015e5780633f4ba83a146101715780635c975abb14610179575b5f80fd5b6101496101443660046119b2565b6102d1565b005b6101496101593660046119f0565b610306565b61014961016c366004611a09565b61034d565b610149610688565b5f5460ff1660405190151581526020015b60405180910390f35b61019b61069a565b60405190815260200161018a565b6101496101b7366004611a2e565b6106af565b6101496109a4565b6101496101d2366004611a58565b6109b5565b610149610a05565b6101496101ed366004611a58565b610a15565b5f5461010090046001600160a01b03166040516001600160a01b03909116815260200161018a565b610149610228366004611a09565b610a58565b61014961023b366004611ac7565b610b2a565b610248610b59565b60405161018a9190611b1b565b610268610263366004611a09565b610c47565b60405161018a96959493929190611bb3565b610149610288366004611bff565b610ca8565b61019b61029b366004611c34565b611021565b6101496102ae366004611bff565b6110e6565b6101496102c13660046119f0565b6113d9565b64012a05f20061019b565b6102d961141b565b6102e161144d565b5f805463ffffffff909216600160b01b0263ffffffff60b01b19909216919091179055565b61030e61141b565b6040516001600160a01b03821681527f9252f673a302383d6d82c79d6d2d359ef0eb704b0f92f240bf386db0327998f79060200160405180910390a150565b61035561141b565b61035d61144d565b5f6001805480602002602001604051908101604052809291908181526020015f905b82821015610441575f8481526020908190206040805160c081018252918501805461ffff811684526201000081046001600160a01b031694840194909452600160b01b840463ffffffff169183019190915290916060830190600160d01b900460ff1660058111156103f3576103f3611ae7565b600581111561040457610404611ae7565b8152905460ff600160d81b820481161515602080850191909152600160e01b9092041615156040909201919091529082526001909201910161037f565b5050505090505f6104528284611470565b90505f82828151811061046757610467611c73565b602002602001015190505f6104a2610493836040015163ffffffff164261048e9190611c9b565b6114d5565b83608001518460a00151611021565b6104b19064012a05f200611cae565b905083600185516104c29190611c9b565b815181106104d2576104d2611c73565b6020026020010151600184815481106104ed576104ed611c73565b5f91825260209182902083519101805492840151604085015163ffffffff16600160b01b0263ffffffff60b01b196001600160a01b0390921662010000026001600160b01b031990951661ffff909416939093179390931792831682178155606084015190929091839160ff60d01b1990911664ffffffffff60b01b1990911617600160d01b83600581111561058557610585611ae7565b02179055506080820151815460a0909301511515600160e01b0260ff60e01b19911515600160d81b029190911661ffff60d81b199093169290921791909117905560018054806105d7576105d7611cc1565b5f8281526020902081015f1990810180546001600160e81b03191690550190556106486106115f546001600160a01b036101009091041690565b60208401516001600160a01b037f0000000000000000000000000000000000000000000000000000000000000000169190846114e3565b60408051868152602081018390527f31d3fb496634645407643eb204dae990bd803a7289718931990377e69fe48ce9910160405180910390a15050505050565b61069061141b565b610698611543565b565b6001545f906106aa906064611c9b565b905090565b6106b761144d565b5f8160058111156106ca576106ca611ae7565b116106e857604051632a82a34f60e01b815260040160405180910390fd5b5f6001805480602002602001604051908101604052809291908181526020015f905b828210156107cc575f8481526020908190206040805160c081018252918501805461ffff811684526201000081046001600160a01b031694840194909452600160b01b840463ffffffff169183019190915290916060830190600160d01b900460ff16600581111561077e5761077e611ae7565b600581111561078f5761078f611ae7565b8152905460ff600160d81b820481161515602080850191909152600160e01b9092041615156040909201919091529082526001909201910161070a565b5050505090505f6107dd8285611470565b90505f8282815181106107f2576107f2611c73565b602002602001015190508060600151600581111561081257610812611ae7565b84600581111561082457610824611ae7565b101561084357604051632a82a34f60e01b815260040160405180910390fd5b5f5442600160b01b90910463ffffffff161080159061087657505f8160600151600581111561087457610874611ae7565b145b1561088357600160a08201525b6060810184600581111561089957610899611ae7565b908160058111156108ac576108ac611ae7565b8152505080600183815481106108c4576108c4611c73565b5f91825260209182902083519101805492840151604085015163ffffffff16600160b01b0263ffffffff60b01b196001600160a01b0390921662010000026001600160b01b031990951661ffff909416939093179390931792831682178155606084015190929091839160ff60d01b1990911664ffffffffff60b01b1990911617600160d01b83600581111561095c5761095c611ae7565b02179055506080820151815460a0909301511515600160e01b0260ff60e01b19911515600160d81b029190911661ffff60d81b19909316929092179190911790555050505050565b6109ac61141b565b6106985f611594565b6109bd61141b565b6109c561144d565b5f5b81811015610a00576109f08383838181106109e4576109e4611c73565b9050602002013561034d565b6109f981611cd5565b90506109c7565b505050565b610a0d61141b565b6106986115ec565b610a1d61144d565b5f5b81811015610a0057610a48838383818110610a3c57610a3c611c73565b90506020020135610a58565b610a5181611cd5565b9050610a1f565b610a6061144d565b5f610a6a82611628565b60208101519091506001600160a01b03163314610a9a5760405163c74ecfa160e01b815260040160405180910390fd5b5f610ac2826040015163ffffffff164262093a80610ab89190611cae565b61048e9190611c9b565b90505f610ad88284608001518560a00151611021565b90507f6b19bb08027e5bee64cbe3f99bbbfb671c0e134643993f0ad046fd01d020b34284610b0b8364012a05f200611cae565b604080519283526020830191909152015b60405180910390a150505050565b610b3261141b565b610b3a61144d565b5f805460ff909216600160a81b0260ff60a81b19909216919091179055565b60606001805480602002602001604051908101604052809291908181526020015f905b82821015610c3e575f8481526020908190206040805160c081018252918501805461ffff811684526201000081046001600160a01b031694840194909452600160b01b840463ffffffff169183019190915290916060830190600160d01b900460ff166005811115610bf057610bf0611ae7565b6005811115610c0157610c01611ae7565b8152905460ff600160d81b820481161515602080850191909152600160e01b90920416151560409092019190915290825260019092019101610b7c565b50505050905090565b60018181548110610c56575f80fd5b5f9182526020909120015461ffff811691506001600160a01b03620100008204169063ffffffff600160b01b8204169060ff600160d01b8204811691600160d81b8104821691600160e01b9091041686565b610cb061141b565b610cb861144d565b600154606411610cda5760405162e7d56b60e11b815260040160405180910390fd5b604051636eb1769f60e11b81526001600160a01b03838116600483015230602483015264012a05f200917f00000000000000000000000000000000000000000000000000000000000000009091169063dd62ed3e90604401602060405180830381865afa158015610d4d573d5f803e3d5ffd5b505050506040513d601f19601f82011682018060405250810190610d719190611ced565b1015610d9057604051634fd3af0760e01b815260040160405180910390fd5b6040516370a0823160e01b81526001600160a01b03838116600483015264012a05f200917f0000000000000000000000000000000000000000000000000000000000000000909116906370a0823190602401602060405180830381865afa158015610dfd573d5f803e3d5ffd5b505050506040513d601f19601f82011682018060405250810190610e219190611ced565b1015610e405760405163569d45cf60e11b815260040160405180910390fd5b5f610e496117bd565b905060016040518060c001604052808361ffff168152602001856001600160a01b031681526020014263ffffffff168152602001846005811115610e8f57610e8f611ae7565b8152602001610e9c6117ed565b151581525f6020918201819052835460018101855593815281902082519301805491830151604084015163ffffffff16600160b01b0263ffffffff60b01b196001600160a01b0390921662010000026001600160b01b031990941661ffff90961695909517929092179182168417815560608301519293909291839160ff60d01b191664ffffffffff60b01b1990911617600160d01b836005811115610f4457610f44611ae7565b02179055506080820151815460a0909301511515600160e01b0260ff60e01b19911515600160d81b029190911661ffff60d81b1990931692909217919091179055610fd783610fa05f546001600160a01b036101009091041690565b6001600160a01b037f000000000000000000000000000000000000000000000000000000000000000016919064012a05f2006114e3565b604080516001600160a01b038516815261ffff831660208201527f79000773ac921e1702f7f3d9d7416dfe1f2b07606ee63066874ac05a6a42973e910160405180910390a1505050565b5f8060b48511611034575f9150506110df565b61016d851161104557506005611092565b6102da851161105657506005611092565b610447851161106757506006611092565b6105b4851161107857506007611092565b610721851161108957506008611092565b50610721935060095b831561109c576001015b8280156110ab575061016d8510155b156110b4576001015b618e94856110c78364012a05f200611d04565b6110d19190611d04565b6110db9190611d1b565b9150505b9392505050565b6110ee61141b565b6110f661144d565b604051636eb1769f60e11b81526001600160a01b0383811660048301523060248301525f917f00000000000000000000000000000000000000000000000000000000000000009091169063dd62ed3e90604401602060405180830381865afa158015611164573d5f803e3d5ffd5b505050506040513d601f19601f820116820180604052508101906111889190611ced565b90505f61119a64012a05f20083611d1b565b9050805f036111bc57604051634fd3af0760e01b815260040160405180910390fd5b6111c461069a565b8111156111e35760405162e7d56b60e11b815260040160405180910390fd5b5f5b81811015611343575f6111f66117bd565b905060016040518060c001604052808361ffff168152602001886001600160a01b031681526020014263ffffffff16815260200187600581111561123c5761123c611ae7565b81526020016112496117ed565b151581525f6020918201819052835460018101855593815281902082519301805491830151604084015163ffffffff16600160b01b0263ffffffff60b01b196001600160a01b0390921662010000026001600160b01b031990941661ffff90961695909517929092179182168417815560608301519293909291839160ff60d01b191664ffffffffff60b01b1990911617600160d01b8360058111156112f1576112f1611ae7565b02179055506080820151815460a0909301511515600160e01b0260ff60e01b19911515600160d81b029190911661ffff60d81b19909316929092179190911790555061133c81611cd5565b90506111e5565b506113a08461135f5f546001600160a01b036101009091041690565b61136e64012a05f20085611d04565b6001600160a01b037f0000000000000000000000000000000000000000000000000000000000000000169291906114e3565b6040516001600160a01b03851681527fb6f7b064071ea7b1dc8d327ef5e519931e7e4933ed9ed3156c42fce7b4be323a90602001610b1c565b6113e161141b565b6001600160a01b03811661140f57604051631e4fbdf760e01b81525f60048201526024015b60405180910390fd5b61141881611594565b50565b5f546001600160a01b036101009091041633146106985760405163118cdaa760e01b8152336004820152602401611406565b5f5460ff16156106985760405163d93c066560e01b815260040160405180910390fd5b5f805b83518110156114b2578284828151811061148f5761148f611c73565b60200260200101515f015161ffff16036114aa5790506114cf565b600101611473565b50604051631585bdab60e31b815260048101839052602401611406565b92915050565b5f6114cf6201518083611d1b565b604080516001600160a01b0385811660248301528416604482015260648082018490528251808303909101815260849091019091526020810180516001600160e01b03166323b872dd60e01b17905261153d90859061182d565b50505050565b61154b61188e565b5f805460ff191690557f5db9ee0a495bf2e6ff9c91a7834c1ba4fdd244a5e8aa4e537bd38aeae4b073aa335b6040516001600160a01b03909116815260200160405180910390a1565b5f80546001600160a01b03838116610100818102610100600160a81b0319851617855560405193049190911692909183917f8be0079c531659141344cd1fd0a4f28419497f9722a3daafe3b4186f6b6457e091a35050565b6115f461144d565b5f805460ff191660011790557f62e78cea01bee320cd4e420270b5ea74000d11b0c9f74754ebdbfc544b05a2586115773390565b6040805160c0810182525f80825260208201819052918101829052606081018290526080810182905260a08101919091525f6001805480602002602001604051908101604052809291908181526020015f905b8282101561173d575f8481526020908190206040805160c081018252918501805461ffff811684526201000081046001600160a01b031694840194909452600160b01b840463ffffffff169183019190915290916060830190600160d01b900460ff1660058111156116ef576116ef611ae7565b600581111561170057611700611ae7565b8152905460ff600160d81b820481161515602080850191909152600160e01b9092041615156040909201919091529082526001909201910161167b565b5050505090505f5b81518110156117a0578382828151811061176157611761611c73565b60200260200101515f015161ffff16036117985781818151811061178757611787611c73565b602002602001015192505050919050565b600101611745565b50604051631585bdab60e31b815260048101849052602401611406565b5f805461ffff60d01b198116600160d01b9182900461ffff90811660010181168302919091179283905591041690565b5f8054600160a81b900460ff161561182857505f80545f1960ff600160a81b808404821692909201160260ff60a81b19909116179055600190565b505f90565b5f6118416001600160a01b038416836118b0565b905080515f141580156118655750808060200190518101906118639190611d3a565b155b15610a0057604051635274afe760e01b81526001600160a01b0384166004820152602401611406565b5f5460ff1661069857604051638dfc202b60e01b815260040160405180910390fd5b60606110df83835f845f80856001600160a01b031684866040516118d49190611d55565b5f6040518083038185875af1925050503d805f811461190e576040519150601f19603f3d011682016040523d82523d5f602084013e611913565b606091505b509150915061192386838361192d565b9695505050505050565b6060826119425761193d82611989565b6110df565b815115801561195957506001600160a01b0384163b155b1561198257604051639996b31560e01b81526001600160a01b0385166004820152602401611406565b50806110df565b8051156119995780518082602001fd5b604051630a12f52160e11b815260040160405180910390fd5b5f602082840312156119c2575f80fd5b813563ffffffff811681146110df575f80fd5b80356001600160a01b03811681146119eb575f80fd5b919050565b5f60208284031215611a00575f80fd5b6110df826119d5565b5f60208284031215611a19575f80fd5b5035919050565b8035600681106119eb575f80fd5b5f8060408385031215611a3f575f80fd5b82359150611a4f60208401611a20565b90509250929050565b5f8060208385031215611a69575f80fd5b823567ffffffffffffffff80821115611a80575f80fd5b818501915085601f830112611a93575f80fd5b813581811115611aa1575f80fd5b8660208260051b8501011115611ab5575f80fd5b60209290920196919550909350505050565b5f60208284031215611ad7575f80fd5b813560ff811681146110df575f80fd5b634e487b7160e01b5f52602160045260245ffd5b60068110611b1757634e487b7160e01b5f52602160045260245ffd5b9052565b602080825282518282018190525f919060409081850190868401855b82811015611ba6578151805161ffff168552868101516001600160a01b0316878601528581015163ffffffff1686860152606080820151611b7a82880182611afb565b505060808181015115159086015260a09081015115159085015260c09093019290850190600101611b37565b5091979650505050505050565b61ffff871681526001600160a01b038616602082015263ffffffff8516604082015260c08101611be66060830186611afb565b921515608082015290151560a090910152949350505050565b5f8060408385031215611c10575f80fd5b611c19836119d5565b9150611a4f60208401611a20565b8015158114611418575f80fd5b5f805f60608486031215611c46575f80fd5b833592506020840135611c5881611c27565b91506040840135611c6881611c27565b809150509250925092565b634e487b7160e01b5f52603260045260245ffd5b634e487b7160e01b5f52601160045260245ffd5b818103818111156114cf576114cf611c87565b808201808211156114cf576114cf611c87565b634e487b7160e01b5f52603160045260245ffd5b5f60018201611ce657611ce6611c87565b5060010190565b5f60208284031215611cfd575f80fd5b5051919050565b80820281158282048414176114cf576114cf611c87565b5f82611d3557634e487b7160e01b5f52601260045260245ffd5b500490565b5f60208284031215611d4a575f80fd5b81516110df81611c27565b5f82515f5b81811015611d745760208186018101518583015201611d5a565b505f92019182525091905056fea264697066735822122086d95db3622314d3a6c5453e88ed33d634b7849d87c564b7743a9cca2adb9ca364736f6c63430008140033","opcodes":"PUSH1 0xA0 PUSH1 0x40 MSTORE CALLVALUE DUP1 ISZERO PUSH3 0x10 JUMPI PUSH0 DUP1 REVERT JUMPDEST POP PUSH1 0x40 MLOAD PUSH3 0x1F69 CODESIZE SUB DUP1 PUSH3 0x1F69 DUP4 CODECOPY DUP2 ADD PUSH1 0x40 DUP2 SWAP1 MSTORE PUSH3 0x33 SWAP2 PUSH3 0x121 JUMP JUMPDEST PUSH0 DUP1 SLOAD PUSH1 0xFF NOT AND SWAP1 SSTORE CALLER DUP1 PUSH3 0x62 JUMPI PUSH1 0x40 MLOAD PUSH4 0x1E4FBDF7 PUSH1 0xE0 SHL DUP2 MSTORE PUSH0 PUSH1 0x4 DUP3 ADD MSTORE PUSH1 0x24 ADD PUSH1 0x40 MLOAD DUP1 SWAP2 SUB SWAP1 REVERT JUMPDEST PUSH3 0x6D DUP2 PUSH3 0xC9 JUMP JUMPDEST POP PUSH1 0x1 PUSH1 0x1 PUSH1 0xA0 SHL SUB DUP2 AND PUSH1 0x80 MSTORE PUSH0 DUP1 SLOAD PUSH7 0xFFFF00000000FF PUSH1 0xA8 SHL NOT AND PUSH1 0x3 PUSH1 0xA8 SHL OR SWAP1 SSTORE PUSH3 0xA3 TIMESTAMP PUSH4 0x1E13380 PUSH3 0x150 JUMP JUMPDEST PUSH0 PUSH1 0x16 PUSH2 0x100 EXP DUP2 SLOAD DUP2 PUSH4 0xFFFFFFFF MUL NOT AND SWAP1 DUP4 PUSH4 0xFFFFFFFF AND MUL OR SWAP1 SSTORE POP POP PUSH3 0x176 JUMP JUMPDEST PUSH0 DUP1 SLOAD PUSH1 0x1 PUSH1 0x1 PUSH1 0xA0 SHL SUB DUP4 DUP2 AND PUSH2 0x100 DUP2 DUP2 MUL PUSH2 0x100 PUSH1 0x1 PUSH1 0xA8 SHL SUB NOT DUP6 AND OR DUP6 SSTORE PUSH1 0x40 MLOAD SWAP4 DIV SWAP2 SWAP1 SWAP2 AND SWAP3 SWAP1 SWAP2 DUP4 SWAP2 PUSH32 0x8BE0079C531659141344CD1FD0A4F28419497F9722A3DAAFE3B4186F6B6457E0 SWAP2 LOG3 POP POP JUMP JUMPDEST PUSH0 PUSH1 0x20 DUP3 DUP5 SUB SLT ISZERO PUSH3 0x132 JUMPI PUSH0 DUP1 REVERT JUMPDEST DUP2 MLOAD PUSH1 0x1 PUSH1 0x1 PUSH1 0xA0 SHL SUB DUP2 AND DUP2 EQ PUSH3 0x149 JUMPI PUSH0 DUP1 REVERT JUMPDEST SWAP4 SWAP3 POP POP POP JUMP JUMPDEST DUP1 DUP3 ADD DUP1 DUP3 GT ISZERO PUSH3 0x170 JUMPI PUSH4 0x4E487B71 PUSH1 0xE0 SHL PUSH0 MSTORE PUSH1 0x11 PUSH1 0x4 MSTORE PUSH1 0x24 PUSH0 REVERT JUMPDEST SWAP3 SWAP2 POP POP JUMP JUMPDEST PUSH1 0x80 MLOAD PUSH2 0x1DB7 PUSH3 0x1B2 PUSH0 CODECOPY PUSH0 DUP2 DUP2 PUSH2 0x620 ADD MSTORE DUP2 DUP2 PUSH2 0xD06 ADD MSTORE DUP2 DUP2 PUSH2 0xDB6 ADD MSTORE DUP2 DUP2 PUSH2 0xFAA ADD MSTORE DUP2 DUP2 PUSH2 0x111D ADD MSTORE PUSH2 0x1378 ADD MSTORE PUSH2 0x1DB7 PUSH0 RETURN INVALID PUSH1 0x80 PUSH1 0x40 MSTORE CALLVALUE DUP1 ISZERO PUSH2 0xF JUMPI PUSH0 DUP1 REVERT JUMPDEST POP PUSH1 0x4 CALLDATASIZE LT PUSH2 0x132 JUMPI PUSH0 CALLDATALOAD PUSH1 0xE0 SHR DUP1 PUSH4 0x8C395EF4 GT PUSH2 0xB4 JUMPI DUP1 PUSH4 0xB02C43D0 GT PUSH2 0x79 JUMPI DUP1 PUSH4 0xB02C43D0 EQ PUSH2 0x255 JUMPI DUP1 PUSH4 0xD479220D EQ PUSH2 0x27A JUMPI DUP1 PUSH4 0xE61D2220 EQ PUSH2 0x28D JUMPI DUP1 PUSH4 0xF07BFCB7 EQ PUSH2 0x2A0 JUMPI DUP1 PUSH4 0xF2FDE38B EQ PUSH2 0x2B3 JUMPI DUP1 PUSH4 0xF8BB2414 EQ PUSH2 0x2C6 JUMPI PUSH0 DUP1 REVERT JUMPDEST DUP1 PUSH4 0x8C395EF4 EQ PUSH2 0x1DF JUMPI DUP1 PUSH4 0x8DA5CB5B EQ PUSH2 0x1F2 JUMPI DUP1 PUSH4 0x9EE679E8 EQ PUSH2 0x21A JUMPI DUP1 PUSH4 0xA871BD63 EQ PUSH2 0x22D JUMPI DUP1 PUSH4 0xA8AA4B87 EQ PUSH2 0x240 JUMPI PUSH0 DUP1 REVERT JUMPDEST DUP1 PUSH4 0x60395088 GT PUSH2 0xFA JUMPI DUP1 PUSH4 0x60395088 EQ PUSH2 0x193 JUMPI DUP1 PUSH4 0x6220E819 EQ PUSH2 0x1A9 JUMPI DUP1 PUSH4 0x715018A6 EQ PUSH2 0x1BC JUMPI DUP1 PUSH4 0x73E22C54 EQ PUSH2 0x1C4 JUMPI DUP1 PUSH4 0x8456CB59 EQ PUSH2 0x1D7 JUMPI PUSH0 DUP1 REVERT JUMPDEST DUP1 PUSH4 0x13522198 EQ PUSH2 0x136 JUMPI DUP1 PUSH4 0x2244E1C7 EQ PUSH2 0x14B JUMPI DUP1 PUSH4 0x24F13A76 EQ PUSH2 0x15E JUMPI DUP1 PUSH4 0x3F4BA83A EQ PUSH2 0x171 JUMPI DUP1 PUSH4 0x5C975ABB EQ PUSH2 0x179 JUMPI JUMPDEST PUSH0 DUP1 REVERT JUMPDEST PUSH2 0x149 PUSH2 0x144 CALLDATASIZE PUSH1 0x4 PUSH2 0x19B2 JUMP JUMPDEST PUSH2 0x2D1 JUMP JUMPDEST STOP JUMPDEST PUSH2 0x149 PUSH2 0x159 CALLDATASIZE PUSH1 0x4 PUSH2 0x19F0 JUMP JUMPDEST PUSH2 0x306 JUMP JUMPDEST PUSH2 0x149 PUSH2 0x16C CALLDATASIZE PUSH1 0x4 PUSH2 0x1A09 JUMP JUMPDEST PUSH2 0x34D JUMP JUMPDEST PUSH2 0x149 PUSH2 0x688 JUMP JUMPDEST PUSH0 SLOAD PUSH1 0xFF AND PUSH1 0x40 MLOAD SWAP1 ISZERO ISZERO DUP2 MSTORE PUSH1 0x20 ADD JUMPDEST PUSH1 0x40 MLOAD DUP1 SWAP2 SUB SWAP1 RETURN JUMPDEST PUSH2 0x19B PUSH2 0x69A JUMP JUMPDEST PUSH1 0x40 MLOAD SWAP1 DUP2 MSTORE PUSH1 0x20 ADD PUSH2 0x18A JUMP JUMPDEST PUSH2 0x149 PUSH2 0x1B7 CALLDATASIZE PUSH1 0x4 PUSH2 0x1A2E JUMP JUMPDEST PUSH2 0x6AF JUMP JUMPDEST PUSH2 0x149 PUSH2 0x9A4 JUMP JUMPDEST PUSH2 0x149 PUSH2 0x1D2 CALLDATASIZE PUSH1 0x4 PUSH2 0x1A58 JUMP JUMPDEST PUSH2 0x9B5 JUMP JUMPDEST PUSH2 0x149 PUSH2 0xA05 JUMP JUMPDEST PUSH2 0x149 PUSH2 0x1ED CALLDATASIZE PUSH1 0x4 PUSH2 0x1A58 JUMP JUMPDEST PUSH2 0xA15 JUMP JUMPDEST PUSH0 SLOAD PUSH2 0x100 SWAP1 DIV PUSH1 0x1 PUSH1 0x1 PUSH1 0xA0 SHL SUB AND PUSH1 0x40 MLOAD PUSH1 0x1 PUSH1 0x1 PUSH1 0xA0 SHL SUB SWAP1 SWAP2 AND DUP2 MSTORE PUSH1 0x20 ADD PUSH2 0x18A JUMP JUMPDEST PUSH2 0x149 PUSH2 0x228 CALLDATASIZE PUSH1 0x4 PUSH2 0x1A09 JUMP JUMPDEST PUSH2 0xA58 JUMP JUMPDEST PUSH2 0x149 PUSH2 0x23B CALLDATASIZE PUSH1 0x4 PUSH2 0x1AC7 JUMP JUMPDEST PUSH2 0xB2A JUMP JUMPDEST PUSH2 0x248 PUSH2 0xB59 JUMP JUMPDEST PUSH1 0x40 MLOAD PUSH2 0x18A SWAP2 SWAP1 PUSH2 0x1B1B JUMP JUMPDEST PUSH2 0x268 PUSH2 0x263 CALLDATASIZE PUSH1 0x4 PUSH2 0x1A09 JUMP JUMPDEST PUSH2 0xC47 JUMP JUMPDEST PUSH1 0x40 MLOAD PUSH2 0x18A SWAP7 SWAP6 SWAP5 SWAP4 SWAP3 SWAP2 SWAP1 PUSH2 0x1BB3 JUMP JUMPDEST PUSH2 0x149 PUSH2 0x288 CALLDATASIZE PUSH1 0x4 PUSH2 0x1BFF JUMP JUMPDEST PUSH2 0xCA8 JUMP JUMPDEST PUSH2 0x19B PUSH2 0x29B CALLDATASIZE PUSH1 0x4 PUSH2 0x1C34 JUMP JUMPDEST PUSH2 0x1021 JUMP JUMPDEST PUSH2 0x149 PUSH2 0x2AE CALLDATASIZE PUSH1 0x4 PUSH2 0x1BFF JUMP JUMPDEST PUSH2 0x10E6 JUMP JUMPDEST PUSH2 0x149 PUSH2 0x2C1 CALLDATASIZE PUSH1 0x4 PUSH2 0x19F0 JUMP JUMPDEST PUSH2 0x13D9 JUMP JUMPDEST PUSH5 0x12A05F200 PUSH2 0x19B JUMP JUMPDEST PUSH2 0x2D9 PUSH2 0x141B JUMP JUMPDEST PUSH2 0x2E1 PUSH2 0x144D JUMP JUMPDEST PUSH0 DUP1 SLOAD PUSH4 0xFFFFFFFF SWAP1 SWAP3 AND PUSH1 0x1 PUSH1 0xB0 SHL MUL PUSH4 0xFFFFFFFF PUSH1 0xB0 SHL NOT SWAP1 SWAP3 AND SWAP2 SWAP1 SWAP2 OR SWAP1 SSTORE JUMP JUMPDEST PUSH2 0x30E PUSH2 0x141B JUMP JUMPDEST PUSH1 0x40 MLOAD PUSH1 0x1 PUSH1 0x1 PUSH1 0xA0 SHL SUB DUP3 AND DUP2 MSTORE PUSH32 0x9252F673A302383D6D82C79D6D2D359EF0EB704B0F92F240BF386DB0327998F7 SWAP1 PUSH1 0x20 ADD PUSH1 0x40 MLOAD DUP1 SWAP2 SUB SWAP1 LOG1 POP JUMP JUMPDEST PUSH2 0x355 PUSH2 0x141B JUMP JUMPDEST PUSH2 0x35D PUSH2 0x144D JUMP JUMPDEST PUSH0 PUSH1 0x1 DUP1 SLOAD DUP1 PUSH1 0x20 MUL PUSH1 0x20 ADD PUSH1 0x40 MLOAD SWAP1 DUP2 ADD PUSH1 0x40 MSTORE DUP1 SWAP3 SWAP2 SWAP1 DUP2 DUP2 MSTORE PUSH1 0x20 ADD PUSH0 SWAP1 JUMPDEST DUP3 DUP3 LT ISZERO PUSH2 0x441 JUMPI PUSH0 DUP5 DUP2 MSTORE PUSH1 0x20 SWAP1 DUP2 SWAP1 KECCAK256 PUSH1 0x40 DUP1 MLOAD PUSH1 0xC0 DUP2 ADD DUP3 MSTORE SWAP2 DUP6 ADD DUP1 SLOAD PUSH2 0xFFFF DUP2 AND DUP5 MSTORE PUSH3 0x10000 DUP2 DIV PUSH1 0x1 PUSH1 0x1 PUSH1 0xA0 SHL SUB AND SWAP5 DUP5 ADD SWAP5 SWAP1 SWAP5 MSTORE PUSH1 0x1 PUSH1 0xB0 SHL DUP5 DIV PUSH4 0xFFFFFFFF AND SWAP2 DUP4 ADD SWAP2 SWAP1 SWAP2 MSTORE SWAP1 SWAP2 PUSH1 0x60 DUP4 ADD SWAP1 PUSH1 0x1 PUSH1 0xD0 SHL SWAP1 DIV PUSH1 0xFF AND PUSH1 0x5 DUP2 GT ISZERO PUSH2 0x3F3 JUMPI PUSH2 0x3F3 PUSH2 0x1AE7 JUMP JUMPDEST PUSH1 0x5 DUP2 GT ISZERO PUSH2 0x404 JUMPI PUSH2 0x404 PUSH2 0x1AE7 JUMP JUMPDEST DUP2 MSTORE SWAP1 SLOAD PUSH1 0xFF PUSH1 0x1 PUSH1 0xD8 SHL DUP3 DIV DUP2 AND ISZERO ISZERO PUSH1 0x20 DUP1 DUP6 ADD SWAP2 SWAP1 SWAP2 MSTORE PUSH1 0x1 PUSH1 0xE0 SHL SWAP1 SWAP3 DIV AND ISZERO ISZERO PUSH1 0x40 SWAP1 SWAP3 ADD SWAP2 SWAP1 SWAP2 MSTORE SWAP1 DUP3 MSTORE PUSH1 0x1 SWAP1 SWAP3 ADD SWAP2 ADD PUSH2 0x37F JUMP JUMPDEST POP POP POP POP SWAP1 POP PUSH0 PUSH2 0x452 DUP3 DUP5 PUSH2 0x1470 JUMP JUMPDEST SWAP1 POP PUSH0 DUP3 DUP3 DUP2 MLOAD DUP2 LT PUSH2 0x467 JUMPI PUSH2 0x467 PUSH2 0x1C73 JUMP JUMPDEST PUSH1 0x20 MUL PUSH1 0x20 ADD ADD MLOAD SWAP1 POP PUSH0 PUSH2 0x4A2 PUSH2 0x493 DUP4 PUSH1 0x40 ADD MLOAD PUSH4 0xFFFFFFFF AND TIMESTAMP PUSH2 0x48E SWAP2 SWAP1 PUSH2 0x1C9B JUMP JUMPDEST PUSH2 0x14D5 JUMP JUMPDEST DUP4 PUSH1 0x80 ADD MLOAD DUP5 PUSH1 0xA0 ADD MLOAD PUSH2 0x1021 JUMP JUMPDEST PUSH2 0x4B1 SWAP1 PUSH5 0x12A05F200 PUSH2 0x1CAE JUMP JUMPDEST SWAP1 POP DUP4 PUSH1 0x1 DUP6 MLOAD PUSH2 0x4C2 SWAP2 SWAP1 PUSH2 0x1C9B JUMP JUMPDEST DUP2 MLOAD DUP2 LT PUSH2 0x4D2 JUMPI PUSH2 0x4D2 PUSH2 0x1C73 JUMP JUMPDEST PUSH1 0x20 MUL PUSH1 0x20 ADD ADD MLOAD PUSH1 0x1 DUP5 DUP2 SLOAD DUP2 LT PUSH2 0x4ED JUMPI PUSH2 0x4ED PUSH2 0x1C73 JUMP JUMPDEST PUSH0 SWAP2 DUP3 MSTORE PUSH1 0x20 SWAP2 DUP3 SWAP1 KECCAK256 DUP4 MLOAD SWAP2 ADD DUP1 SLOAD SWAP3 DUP5 ADD MLOAD PUSH1 0x40 DUP6 ADD MLOAD PUSH4 0xFFFFFFFF AND PUSH1 0x1 PUSH1 0xB0 SHL MUL PUSH4 0xFFFFFFFF PUSH1 0xB0 SHL NOT PUSH1 0x1 PUSH1 0x1 PUSH1 0xA0 SHL SUB SWAP1 SWAP3 AND PUSH3 0x10000 MUL PUSH1 0x1 PUSH1 0x1 PUSH1 0xB0 SHL SUB NOT SWAP1 SWAP6 AND PUSH2 0xFFFF SWAP1 SWAP5 AND SWAP4 SWAP1 SWAP4 OR SWAP4 SWAP1 SWAP4 OR SWAP3 DUP4 AND DUP3 OR DUP2 SSTORE PUSH1 0x60 DUP5 ADD MLOAD SWAP1 SWAP3 SWAP1 SWAP2 DUP4 SWAP2 PUSH1 0xFF PUSH1 0xD0 SHL NOT SWAP1 SWAP2 AND PUSH5 0xFFFFFFFFFF PUSH1 0xB0 SHL NOT SWAP1 SWAP2 AND OR PUSH1 0x1 PUSH1 0xD0 SHL DUP4 PUSH1 0x5 DUP2 GT ISZERO PUSH2 0x585 JUMPI PUSH2 0x585 PUSH2 0x1AE7 JUMP JUMPDEST MUL OR SWAP1 SSTORE POP PUSH1 0x80 DUP3 ADD MLOAD DUP2 SLOAD PUSH1 0xA0 SWAP1 SWAP4 ADD MLOAD ISZERO ISZERO PUSH1 0x1 PUSH1 0xE0 SHL MUL PUSH1 0xFF PUSH1 0xE0 SHL NOT SWAP2 ISZERO ISZERO PUSH1 0x1 PUSH1 0xD8 SHL MUL SWAP2 SWAP1 SWAP2 AND PUSH2 0xFFFF PUSH1 0xD8 SHL NOT SWAP1 SWAP4 AND SWAP3 SWAP1 SWAP3 OR SWAP2 SWAP1 SWAP2 OR SWAP1 SSTORE PUSH1 0x1 DUP1 SLOAD DUP1 PUSH2 0x5D7 JUMPI PUSH2 0x5D7 PUSH2 0x1CC1 JUMP JUMPDEST PUSH0 DUP3 DUP2 MSTORE PUSH1 0x20 SWAP1 KECCAK256 DUP2 ADD PUSH0 NOT SWAP1 DUP2 ADD DUP1 SLOAD PUSH1 0x1 PUSH1 0x1 PUSH1 0xE8 SHL SUB NOT AND SWAP1 SSTORE ADD SWAP1 SSTORE PUSH2 0x648 PUSH2 0x611 PUSH0 SLOAD PUSH1 0x1 PUSH1 0x1 PUSH1 0xA0 SHL SUB PUSH2 0x100 SWAP1 SWAP2 DIV AND SWAP1 JUMP JUMPDEST PUSH1 0x20 DUP5 ADD MLOAD PUSH1 0x1 PUSH1 0x1 PUSH1 0xA0 SHL SUB PUSH32 0x0 AND SWAP2 SWAP1 DUP5 PUSH2 0x14E3 JUMP JUMPDEST PUSH1 0x40 DUP1 MLOAD DUP7 DUP2 MSTORE PUSH1 0x20 DUP2 ADD DUP4 SWAP1 MSTORE PUSH32 0x31D3FB496634645407643EB204DAE990BD803A7289718931990377E69FE48CE9 SWAP2 ADD PUSH1 0x40 MLOAD DUP1 SWAP2 SUB SWAP1 LOG1 POP POP POP POP POP JUMP JUMPDEST PUSH2 0x690 PUSH2 0x141B JUMP JUMPDEST PUSH2 0x698 PUSH2 0x1543 JUMP JUMPDEST JUMP JUMPDEST PUSH1 0x1 SLOAD PUSH0 SWAP1 PUSH2 0x6AA SWAP1 PUSH1 0x64 PUSH2 0x1C9B JUMP JUMPDEST SWAP1 POP SWAP1 JUMP JUMPDEST PUSH2 0x6B7 PUSH2 0x144D JUMP JUMPDEST PUSH0 DUP2 PUSH1 0x5 DUP2 GT ISZERO PUSH2 0x6CA JUMPI PUSH2 0x6CA PUSH2 0x1AE7 JUMP JUMPDEST GT PUSH2 0x6E8 JUMPI PUSH1 0x40 MLOAD PUSH4 0x2A82A34F PUSH1 0xE0 SHL DUP2 MSTORE PUSH1 0x4 ADD PUSH1 0x40 MLOAD DUP1 SWAP2 SUB SWAP1 REVERT JUMPDEST PUSH0 PUSH1 0x1 DUP1 SLOAD DUP1 PUSH1 0x20 MUL PUSH1 0x20 ADD PUSH1 0x40 MLOAD SWAP1 DUP2 ADD PUSH1 0x40 MSTORE DUP1 SWAP3 SWAP2 SWAP1 DUP2 DUP2 MSTORE PUSH1 0x20 ADD PUSH0 SWAP1 JUMPDEST DUP3 DUP3 LT ISZERO PUSH2 0x7CC JUMPI PUSH0 DUP5 DUP2 MSTORE PUSH1 0x20 SWAP1 DUP2 SWAP1 KECCAK256 PUSH1 0x40 DUP1 MLOAD PUSH1 0xC0 DUP2 ADD DUP3 MSTORE SWAP2 DUP6 ADD DUP1 SLOAD PUSH2 0xFFFF DUP2 AND DUP5 MSTORE PUSH3 0x10000 DUP2 DIV PUSH1 0x1 PUSH1 0x1 PUSH1 0xA0 SHL SUB AND SWAP5 DUP5 ADD SWAP5 SWAP1 SWAP5 MSTORE PUSH1 0x1 PUSH1 0xB0 SHL DUP5 DIV PUSH4 0xFFFFFFFF AND SWAP2 DUP4 ADD SWAP2 SWAP1 SWAP2 MSTORE SWAP1 SWAP2 PUSH1 0x60 DUP4 ADD SWAP1 PUSH1 0x1 PUSH1 0xD0 SHL SWAP1 DIV PUSH1 0xFF AND PUSH1 0x5 DUP2 GT ISZERO PUSH2 0x77E JUMPI PUSH2 0x77E PUSH2 0x1AE7 JUMP JUMPDEST PUSH1 0x5 DUP2 GT ISZERO PUSH2 0x78F JUMPI PUSH2 0x78F PUSH2 0x1AE7 JUMP JUMPDEST DUP2 MSTORE SWAP1 SLOAD PUSH1 0xFF PUSH1 0x1 PUSH1 0xD8 SHL DUP3 DIV DUP2 AND ISZERO ISZERO PUSH1 0x20 DUP1 DUP6 ADD SWAP2 SWAP1 SWAP2 MSTORE PUSH1 0x1 PUSH1 0xE0 SHL SWAP1 SWAP3 DIV AND ISZERO ISZERO PUSH1 0x40 SWAP1 SWAP3 ADD SWAP2 SWAP1 SWAP2 MSTORE SWAP1 DUP3 MSTORE PUSH1 0x1 SWAP1 SWAP3 ADD SWAP2 ADD PUSH2 0x70A JUMP JUMPDEST POP POP POP POP SWAP1 POP PUSH0 PUSH2 0x7DD DUP3 DUP6 PUSH2 0x1470 JUMP JUMPDEST SWAP1 POP PUSH0 DUP3 DUP3 DUP2 MLOAD DUP2 LT PUSH2 0x7F2 JUMPI PUSH2 0x7F2 PUSH2 0x1C73 JUMP JUMPDEST PUSH1 0x20 MUL PUSH1 0x20 ADD ADD MLOAD SWAP1 POP DUP1 PUSH1 0x60 ADD MLOAD PUSH1 0x5 DUP2 GT ISZERO PUSH2 0x812 JUMPI PUSH2 0x812 PUSH2 0x1AE7 JUMP JUMPDEST DUP5 PUSH1 0x5 DUP2 GT ISZERO PUSH2 0x824 JUMPI PUSH2 0x824 PUSH2 0x1AE7 JUMP JUMPDEST LT ISZERO PUSH2 0x843 JUMPI PUSH1 0x40 MLOAD PUSH4 0x2A82A34F PUSH1 0xE0 SHL DUP2 MSTORE PUSH1 0x4 ADD PUSH1 0x40 MLOAD DUP1 SWAP2 SUB SWAP1 REVERT JUMPDEST PUSH0 SLOAD TIMESTAMP PUSH1 0x1 PUSH1 0xB0 SHL SWAP1 SWAP2 DIV PUSH4 0xFFFFFFFF AND LT DUP1 ISZERO SWAP1 PUSH2 0x876 JUMPI POP PUSH0 DUP2 PUSH1 0x60 ADD MLOAD PUSH1 0x5 DUP2 GT ISZERO PUSH2 0x874 JUMPI PUSH2 0x874 PUSH2 0x1AE7 JUMP JUMPDEST EQ JUMPDEST ISZERO PUSH2 0x883 JUMPI PUSH1 0x1 PUSH1 0xA0 DUP3 ADD MSTORE JUMPDEST PUSH1 0x60 DUP2 ADD DUP5 PUSH1 0x5 DUP2 GT ISZERO PUSH2 0x899 JUMPI PUSH2 0x899 PUSH2 0x1AE7 JUMP JUMPDEST SWAP1 DUP2 PUSH1 0x5 DUP2 GT ISZERO PUSH2 0x8AC JUMPI PUSH2 0x8AC PUSH2 0x1AE7 JUMP JUMPDEST DUP2 MSTORE POP POP DUP1 PUSH1 0x1 DUP4 DUP2 SLOAD DUP2 LT PUSH2 0x8C4 JUMPI PUSH2 0x8C4 PUSH2 0x1C73 JUMP JUMPDEST PUSH0 SWAP2 DUP3 MSTORE PUSH1 0x20 SWAP2 DUP3 SWAP1 KECCAK256 DUP4 MLOAD SWAP2 ADD DUP1 SLOAD SWAP3 DUP5 ADD MLOAD PUSH1 0x40 DUP6 ADD MLOAD PUSH4 0xFFFFFFFF AND PUSH1 0x1 PUSH1 0xB0 SHL MUL PUSH4 0xFFFFFFFF PUSH1 0xB0 SHL NOT PUSH1 0x1 PUSH1 0x1 PUSH1 0xA0 SHL SUB SWAP1 SWAP3 AND PUSH3 0x10000 MUL PUSH1 0x1 PUSH1 0x1 PUSH1 0xB0 SHL SUB NOT SWAP1 SWAP6 AND PUSH2 0xFFFF SWAP1 SWAP5 AND SWAP4 SWAP1 SWAP4 OR SWAP4 SWAP1 SWAP4 OR SWAP3 DUP4 AND DUP3 OR DUP2 SSTORE PUSH1 0x60 DUP5 ADD MLOAD SWAP1 SWAP3 SWAP1 SWAP2 DUP4 SWAP2 PUSH1 0xFF PUSH1 0xD0 SHL NOT SWAP1 SWAP2 AND PUSH5 0xFFFFFFFFFF PUSH1 0xB0 SHL NOT SWAP1 SWAP2 AND OR PUSH1 0x1 PUSH1 0xD0 SHL DUP4 PUSH1 0x5 DUP2 GT ISZERO PUSH2 0x95C JUMPI PUSH2 0x95C PUSH2 0x1AE7 JUMP JUMPDEST MUL OR SWAP1 SSTORE POP PUSH1 0x80 DUP3 ADD MLOAD DUP2 SLOAD PUSH1 0xA0 SWAP1 SWAP4 ADD MLOAD ISZERO ISZERO PUSH1 0x1 PUSH1 0xE0 SHL MUL PUSH1 0xFF PUSH1 0xE0 SHL NOT SWAP2 ISZERO ISZERO PUSH1 0x1 PUSH1 0xD8 SHL MUL SWAP2 SWAP1 SWAP2 AND PUSH2 0xFFFF PUSH1 0xD8 SHL NOT SWAP1 SWAP4 AND SWAP3 SWAP1 SWAP3 OR SWAP2 SWAP1 SWAP2 OR SWAP1 SSTORE POP POP POP POP POP JUMP JUMPDEST PUSH2 0x9AC PUSH2 0x141B JUMP JUMPDEST PUSH2 0x698 PUSH0 PUSH2 0x1594 JUMP JUMPDEST PUSH2 0x9BD PUSH2 0x141B JUMP JUMPDEST PUSH2 0x9C5 PUSH2 0x144D JUMP JUMPDEST PUSH0 JUMPDEST DUP2 DUP2 LT ISZERO PUSH2 0xA00 JUMPI PUSH2 0x9F0 DUP4 DUP4 DUP4 DUP2 DUP2 LT PUSH2 0x9E4 JUMPI PUSH2 0x9E4 PUSH2 0x1C73 JUMP JUMPDEST SWAP1 POP PUSH1 0x20 MUL ADD CALLDATALOAD PUSH2 0x34D JUMP JUMPDEST PUSH2 0x9F9 DUP2 PUSH2 0x1CD5 JUMP JUMPDEST SWAP1 POP PUSH2 0x9C7 JUMP JUMPDEST POP POP POP JUMP JUMPDEST PUSH2 0xA0D PUSH2 0x141B JUMP JUMPDEST PUSH2 0x698 PUSH2 0x15EC JUMP JUMPDEST PUSH2 0xA1D PUSH2 0x144D JUMP JUMPDEST PUSH0 JUMPDEST DUP2 DUP2 LT ISZERO PUSH2 0xA00 JUMPI PUSH2 0xA48 DUP4 DUP4 DUP4 DUP2 DUP2 LT PUSH2 0xA3C JUMPI PUSH2 0xA3C PUSH2 0x1C73 JUMP JUMPDEST SWAP1 POP PUSH1 0x20 MUL ADD CALLDATALOAD PUSH2 0xA58 JUMP JUMPDEST PUSH2 0xA51 DUP2 PUSH2 0x1CD5 JUMP JUMPDEST SWAP1 POP PUSH2 0xA1F JUMP JUMPDEST PUSH2 0xA60 PUSH2 0x144D JUMP JUMPDEST PUSH0 PUSH2 0xA6A DUP3 PUSH2 0x1628 JUMP JUMPDEST PUSH1 0x20 DUP2 ADD MLOAD SWAP1 SWAP2 POP PUSH1 0x1 PUSH1 0x1 PUSH1 0xA0 SHL SUB AND CALLER EQ PUSH2 0xA9A JUMPI PUSH1 0x40 MLOAD PUSH4 0xC74ECFA1 PUSH1 0xE0 SHL DUP2 MSTORE PUSH1 0x4 ADD PUSH1 0x40 MLOAD DUP1 SWAP2 SUB SWAP1 REVERT JUMPDEST PUSH0 PUSH2 0xAC2 DUP3 PUSH1 0x40 ADD MLOAD PUSH4 0xFFFFFFFF AND TIMESTAMP PUSH3 0x93A80 PUSH2 0xAB8 SWAP2 SWAP1 PUSH2 0x1CAE JUMP JUMPDEST PUSH2 0x48E SWAP2 SWAP1 PUSH2 0x1C9B JUMP JUMPDEST SWAP1 POP PUSH0 PUSH2 0xAD8 DUP3 DUP5 PUSH1 0x80 ADD MLOAD DUP6 PUSH1 0xA0 ADD MLOAD PUSH2 0x1021 JUMP JUMPDEST SWAP1 POP PUSH32 0x6B19BB08027E5BEE64CBE3F99BBBFB671C0E134643993F0AD046FD01D020B342 DUP5 PUSH2 0xB0B DUP4 PUSH5 0x12A05F200 PUSH2 0x1CAE JUMP JUMPDEST PUSH1 0x40 DUP1 MLOAD SWAP3 DUP4 MSTORE PUSH1 0x20 DUP4 ADD SWAP2 SWAP1 SWAP2 MSTORE ADD JUMPDEST PUSH1 0x40 MLOAD DUP1 SWAP2 SUB SWAP1 LOG1 POP POP POP POP JUMP JUMPDEST PUSH2 0xB32 PUSH2 0x141B JUMP JUMPDEST PUSH2 0xB3A PUSH2 0x144D JUMP JUMPDEST PUSH0 DUP1 SLOAD PUSH1 0xFF SWAP1 SWAP3 AND PUSH1 0x1 PUSH1 0xA8 SHL MUL PUSH1 0xFF PUSH1 0xA8 SHL NOT SWAP1 SWAP3 AND SWAP2 SWAP1 SWAP2 OR SWAP1 SSTORE JUMP JUMPDEST PUSH1 0x60 PUSH1 0x1 DUP1 SLOAD DUP1 PUSH1 0x20 MUL PUSH1 0x20 ADD PUSH1 0x40 MLOAD SWAP1 DUP2 ADD PUSH1 0x40 MSTORE DUP1 SWAP3 SWAP2 SWAP1 DUP2 DUP2 MSTORE PUSH1 0x20 ADD PUSH0 SWAP1 JUMPDEST DUP3 DUP3 LT ISZERO PUSH2 0xC3E JUMPI PUSH0 DUP5 DUP2 MSTORE PUSH1 0x20 SWAP1 DUP2 SWAP1 KECCAK256 PUSH1 0x40 DUP1 MLOAD PUSH1 0xC0 DUP2 ADD DUP3 MSTORE SWAP2 DUP6 ADD DUP1 SLOAD PUSH2 0xFFFF DUP2 AND DUP5 MSTORE PUSH3 0x10000 DUP2 DIV PUSH1 0x1 PUSH1 0x1 PUSH1 0xA0 SHL SUB AND SWAP5 DUP5 ADD SWAP5 SWAP1 SWAP5 MSTORE PUSH1 0x1 PUSH1 0xB0 SHL DUP5 DIV PUSH4 0xFFFFFFFF AND SWAP2 DUP4 ADD SWAP2 SWAP1 SWAP2 MSTORE SWAP1 SWAP2 PUSH1 0x60 DUP4 ADD SWAP1 PUSH1 0x1 PUSH1 0xD0 SHL SWAP1 DIV PUSH1 0xFF AND PUSH1 0x5 DUP2 GT ISZERO PUSH2 0xBF0 JUMPI PUSH2 0xBF0 PUSH2 0x1AE7 JUMP JUMPDEST PUSH1 0x5 DUP2 GT ISZERO PUSH2 0xC01 JUMPI PUSH2 0xC01 PUSH2 0x1AE7 JUMP JUMPDEST DUP2 MSTORE SWAP1 SLOAD PUSH1 0xFF PUSH1 0x1 PUSH1 0xD8 SHL DUP3 DIV DUP2 AND ISZERO ISZERO PUSH1 0x20 DUP1 DUP6 ADD SWAP2 SWAP1 SWAP2 MSTORE PUSH1 0x1 PUSH1 0xE0 SHL SWAP1 SWAP3 DIV AND ISZERO ISZERO PUSH1 0x40 SWAP1 SWAP3 ADD SWAP2 SWAP1 SWAP2 MSTORE SWAP1 DUP3 MSTORE PUSH1 0x1 SWAP1 SWAP3 ADD SWAP2 ADD PUSH2 0xB7C JUMP JUMPDEST POP POP POP POP SWAP1 POP SWAP1 JUMP JUMPDEST PUSH1 0x1 DUP2 DUP2 SLOAD DUP2 LT PUSH2 0xC56 JUMPI PUSH0 DUP1 REVERT JUMPDEST PUSH0 SWAP2 DUP3 MSTORE PUSH1 0x20 SWAP1 SWAP2 KECCAK256 ADD SLOAD PUSH2 0xFFFF DUP2 AND SWAP2 POP PUSH1 0x1 PUSH1 0x1 PUSH1 0xA0 SHL SUB PUSH3 0x10000 DUP3 DIV AND SWAP1 PUSH4 0xFFFFFFFF PUSH1 0x1 PUSH1 0xB0 SHL DUP3 DIV AND SWAP1 PUSH1 0xFF PUSH1 0x1 PUSH1 0xD0 SHL DUP3 DIV DUP2 AND SWAP2 PUSH1 0x1 PUSH1 0xD8 SHL DUP2 DIV DUP3 AND SWAP2 PUSH1 0x1 PUSH1 0xE0 SHL SWAP1 SWAP2 DIV AND DUP7 JUMP JUMPDEST PUSH2 0xCB0 PUSH2 0x141B JUMP JUMPDEST PUSH2 0xCB8 PUSH2 0x144D JUMP JUMPDEST PUSH1 0x1 SLOAD PUSH1 0x64 GT PUSH2 0xCDA JUMPI PUSH1 0x40 MLOAD PUSH3 0xE7D56B PUSH1 0xE1 SHL DUP2 MSTORE PUSH1 0x4 ADD PUSH1 0x40 MLOAD DUP1 SWAP2 SUB SWAP1 REVERT JUMPDEST PUSH1 0x40 MLOAD PUSH4 0x6EB1769F PUSH1 0xE1 SHL DUP2 MSTORE PUSH1 0x1 PUSH1 0x1 PUSH1 0xA0 SHL SUB DUP4 DUP2 AND PUSH1 0x4 DUP4 ADD MSTORE ADDRESS PUSH1 0x24 DUP4 ADD MSTORE PUSH5 0x12A05F200 SWAP2 PUSH32 0x0 SWAP1 SWAP2 AND SWAP1 PUSH4 0xDD62ED3E SWAP1 PUSH1 0x44 ADD PUSH1 0x20 PUSH1 0x40 MLOAD DUP1 DUP4 SUB DUP2 DUP7 GAS STATICCALL ISZERO DUP1 ISZERO PUSH2 0xD4D JUMPI RETURNDATASIZE PUSH0 DUP1 RETURNDATACOPY RETURNDATASIZE PUSH0 REVERT JUMPDEST POP POP POP POP PUSH1 0x40 MLOAD RETURNDATASIZE PUSH1 0x1F NOT PUSH1 0x1F DUP3 ADD AND DUP3 ADD DUP1 PUSH1 0x40 MSTORE POP DUP2 ADD SWAP1 PUSH2 0xD71 SWAP2 SWAP1 PUSH2 0x1CED JUMP JUMPDEST LT ISZERO PUSH2 0xD90 JUMPI PUSH1 0x40 MLOAD PUSH4 0x4FD3AF07 PUSH1 0xE0 SHL DUP2 MSTORE PUSH1 0x4 ADD PUSH1 0x40 MLOAD DUP1 SWAP2 SUB SWAP1 REVERT JUMPDEST PUSH1 0x40 MLOAD PUSH4 0x70A08231 PUSH1 0xE0 SHL DUP2 MSTORE PUSH1 0x1 PUSH1 0x1 PUSH1 0xA0 SHL SUB DUP4 DUP2 AND PUSH1 0x4 DUP4 ADD MSTORE PUSH5 0x12A05F200 SWAP2 PUSH32 0x0 SWAP1 SWAP2 AND SWAP1 PUSH4 0x70A08231 SWAP1 PUSH1 0x24 ADD PUSH1 0x20 PUSH1 0x40 MLOAD DUP1 DUP4 SUB DUP2 DUP7 GAS STATICCALL ISZERO DUP1 ISZERO PUSH2 0xDFD JUMPI RETURNDATASIZE PUSH0 DUP1 RETURNDATACOPY RETURNDATASIZE PUSH0 REVERT JUMPDEST POP POP POP POP PUSH1 0x40 MLOAD RETURNDATASIZE PUSH1 0x1F NOT PUSH1 0x1F DUP3 ADD AND DUP3 ADD DUP1 PUSH1 0x40 MSTORE POP DUP2 ADD SWAP1 PUSH2 0xE21 SWAP2 SWAP1 PUSH2 0x1CED JUMP JUMPDEST LT ISZERO PUSH2 0xE40 JUMPI PUSH1 0x40 MLOAD PUSH4 0x569D45CF PUSH1 0xE1 SHL DUP2 MSTORE PUSH1 0x4 ADD PUSH1 0x40 MLOAD DUP1 SWAP2 SUB SWAP1 REVERT JUMPDEST PUSH0 PUSH2 0xE49 PUSH2 0x17BD JUMP JUMPDEST SWAP1 POP PUSH1 0x1 PUSH1 0x40 MLOAD DUP1 PUSH1 0xC0 ADD PUSH1 0x40 MSTORE DUP1 DUP4 PUSH2 0xFFFF AND DUP2 MSTORE PUSH1 0x20 ADD DUP6 PUSH1 0x1 PUSH1 0x1 PUSH1 0xA0 SHL SUB AND DUP2 MSTORE PUSH1 0x20 ADD TIMESTAMP PUSH4 0xFFFFFFFF AND DUP2 MSTORE PUSH1 0x20 ADD DUP5 PUSH1 0x5 DUP2 GT ISZERO PUSH2 0xE8F JUMPI PUSH2 0xE8F PUSH2 0x1AE7 JUMP JUMPDEST DUP2 MSTORE PUSH1 0x20 ADD PUSH2 0xE9C PUSH2 0x17ED JUMP JUMPDEST ISZERO ISZERO DUP2 MSTORE PUSH0 PUSH1 0x20 SWAP2 DUP3 ADD DUP2 SWAP1 MSTORE DUP4 SLOAD PUSH1 0x1 DUP2 ADD DUP6 SSTORE SWAP4 DUP2 MSTORE DUP2 SWAP1 KECCAK256 DUP3 MLOAD SWAP4 ADD DUP1 SLOAD SWAP2 DUP4 ADD MLOAD PUSH1 0x40 DUP5 ADD MLOAD PUSH4 0xFFFFFFFF AND PUSH1 0x1 PUSH1 0xB0 SHL MUL PUSH4 0xFFFFFFFF PUSH1 0xB0 SHL NOT PUSH1 0x1 PUSH1 0x1 PUSH1 0xA0 SHL SUB SWAP1 SWAP3 AND PUSH3 0x10000 MUL PUSH1 0x1 PUSH1 0x1 PUSH1 0xB0 SHL SUB NOT SWAP1 SWAP5 AND PUSH2 0xFFFF SWAP1 SWAP7 AND SWAP6 SWAP1 SWAP6 OR SWAP3 SWAP1 SWAP3 OR SWAP2 DUP3 AND DUP5 OR DUP2 SSTORE PUSH1 0x60 DUP4 ADD MLOAD SWAP3 SWAP4 SWAP1 SWAP3 SWAP2 DUP4 SWAP2 PUSH1 0xFF PUSH1 0xD0 SHL NOT AND PUSH5 0xFFFFFFFFFF PUSH1 0xB0 SHL NOT SWAP1 SWAP2 AND OR PUSH1 0x1 PUSH1 0xD0 SHL DUP4 PUSH1 0x5 DUP2 GT ISZERO PUSH2 0xF44 JUMPI PUSH2 0xF44 PUSH2 0x1AE7 JUMP JUMPDEST MUL OR SWAP1 SSTORE POP PUSH1 0x80 DUP3 ADD MLOAD DUP2 SLOAD PUSH1 0xA0 SWAP1 SWAP4 ADD MLOAD ISZERO ISZERO PUSH1 0x1 PUSH1 0xE0 SHL MUL PUSH1 0xFF PUSH1 0xE0 SHL NOT SWAP2 ISZERO ISZERO PUSH1 0x1 PUSH1 0xD8 SHL MUL SWAP2 SWAP1 SWAP2 AND PUSH2 0xFFFF PUSH1 0xD8 SHL NOT SWAP1 SWAP4 AND SWAP3 SWAP1 SWAP3 OR SWAP2 SWAP1 SWAP2 OR SWAP1 SSTORE PUSH2 0xFD7 DUP4 PUSH2 0xFA0 PUSH0 SLOAD PUSH1 0x1 PUSH1 0x1 PUSH1 0xA0 SHL SUB PUSH2 0x100 SWAP1 SWAP2 DIV AND SWAP1 JUMP JUMPDEST PUSH1 0x1 PUSH1 0x1 PUSH1 0xA0 SHL SUB PUSH32 0x0 AND SWAP2 SWAP1 PUSH5 0x12A05F200 PUSH2 0x14E3 JUMP JUMPDEST PUSH1 0x40 DUP1 MLOAD PUSH1 0x1 PUSH1 0x1 PUSH1 0xA0 SHL SUB DUP6 AND DUP2 MSTORE PUSH2 0xFFFF DUP4 AND PUSH1 0x20 DUP3 ADD MSTORE PUSH32 0x79000773AC921E1702F7F3D9D7416DFE1F2B07606EE63066874AC05A6A42973E SWAP2 ADD PUSH1 0x40 MLOAD DUP1 SWAP2 SUB SWAP1 LOG1 POP POP POP JUMP JUMPDEST PUSH0 DUP1 PUSH1 0xB4 DUP6 GT PUSH2 0x1034 JUMPI PUSH0 SWAP2 POP POP PUSH2 0x10DF JUMP JUMPDEST PUSH2 0x16D DUP6 GT PUSH2 0x1045 JUMPI POP PUSH1 0x5 PUSH2 0x1092 JUMP JUMPDEST PUSH2 0x2DA DUP6 GT PUSH2 0x1056 JUMPI POP PUSH1 0x5 PUSH2 0x1092 JUMP JUMPDEST PUSH2 0x447 DUP6 GT PUSH2 0x1067 JUMPI POP PUSH1 0x6 PUSH2 0x1092 JUMP JUMPDEST PUSH2 0x5B4 DUP6 GT PUSH2 0x1078 JUMPI POP PUSH1 0x7 PUSH2 0x1092 JUMP JUMPDEST PUSH2 0x721 DUP6 GT PUSH2 0x1089 JUMPI POP PUSH1 0x8 PUSH2 0x1092 JUMP JUMPDEST POP PUSH2 0x721 SWAP4 POP PUSH1 0x9 JUMPDEST DUP4 ISZERO PUSH2 0x109C JUMPI PUSH1 0x1 ADD JUMPDEST DUP3 DUP1 ISZERO PUSH2 0x10AB JUMPI POP PUSH2 0x16D DUP6 LT ISZERO JUMPDEST ISZERO PUSH2 0x10B4 JUMPI PUSH1 0x1 ADD JUMPDEST PUSH2 0x8E94 DUP6 PUSH2 0x10C7 DUP4 PUSH5 0x12A05F200 PUSH2 0x1D04 JUMP JUMPDEST PUSH2 0x10D1 SWAP2 SWAP1 PUSH2 0x1D04 JUMP JUMPDEST PUSH2 0x10DB SWAP2 SWAP1 PUSH2 0x1D1B JUMP JUMPDEST SWAP2 POP POP JUMPDEST SWAP4 SWAP3 POP POP POP JUMP JUMPDEST PUSH2 0x10EE PUSH2 0x141B JUMP JUMPDEST PUSH2 0x10F6 PUSH2 0x144D JUMP JUMPDEST PUSH1 0x40 MLOAD PUSH4 0x6EB1769F PUSH1 0xE1 SHL DUP2 MSTORE PUSH1 0x1 PUSH1 0x1 PUSH1 0xA0 SHL SUB DUP4 DUP2 AND PUSH1 0x4 DUP4 ADD MSTORE ADDRESS PUSH1 0x24 DUP4 ADD MSTORE PUSH0 SWAP2 PUSH32 0x0 SWAP1 SWAP2 AND SWAP1 PUSH4 0xDD62ED3E SWAP1 PUSH1 0x44 ADD PUSH1 0x20 PUSH1 0x40 MLOAD DUP1 DUP4 SUB DUP2 DUP7 GAS STATICCALL ISZERO DUP1 ISZERO PUSH2 0x1164 JUMPI RETURNDATASIZE PUSH0 DUP1 RETURNDATACOPY RETURNDATASIZE PUSH0 REVERT JUMPDEST POP POP POP POP PUSH1 0x40 MLOAD RETURNDATASIZE PUSH1 0x1F NOT PUSH1 0x1F DUP3 ADD AND DUP3 ADD DUP1 PUSH1 0x40 MSTORE POP DUP2 ADD SWAP1 PUSH2 0x1188 SWAP2 SWAP1 PUSH2 0x1CED JUMP JUMPDEST SWAP1 POP PUSH0 PUSH2 0x119A PUSH5 0x12A05F200 DUP4 PUSH2 0x1D1B JUMP JUMPDEST SWAP1 POP DUP1 PUSH0 SUB PUSH2 0x11BC JUMPI PUSH1 0x40 MLOAD PUSH4 0x4FD3AF07 PUSH1 0xE0 SHL DUP2 MSTORE PUSH1 0x4 ADD PUSH1 0x40 MLOAD DUP1 SWAP2 SUB SWAP1 REVERT JUMPDEST PUSH2 0x11C4 PUSH2 0x69A JUMP JUMPDEST DUP2 GT ISZERO PUSH2 0x11E3 JUMPI PUSH1 0x40 MLOAD PUSH3 0xE7D56B PUSH1 0xE1 SHL DUP2 MSTORE PUSH1 0x4 ADD PUSH1 0x40 MLOAD DUP1 SWAP2 SUB SWAP1 REVERT JUMPDEST PUSH0 JUMPDEST DUP2 DUP2 LT ISZERO PUSH2 0x1343 JUMPI PUSH0 PUSH2 0x11F6 PUSH2 0x17BD JUMP JUMPDEST SWAP1 POP PUSH1 0x1 PUSH1 0x40 MLOAD DUP1 PUSH1 0xC0 ADD PUSH1 0x40 MSTORE DUP1 DUP4 PUSH2 0xFFFF AND DUP2 MSTORE PUSH1 0x20 ADD DUP9 PUSH1 0x1 PUSH1 0x1 PUSH1 0xA0 SHL SUB AND DUP2 MSTORE PUSH1 0x20 ADD TIMESTAMP PUSH4 0xFFFFFFFF AND DUP2 MSTORE PUSH1 0x20 ADD DUP8 PUSH1 0x5 DUP2 GT ISZERO PUSH2 0x123C JUMPI PUSH2 0x123C PUSH2 0x1AE7 JUMP JUMPDEST DUP2 MSTORE PUSH1 0x20 ADD PUSH2 0x1249 PUSH2 0x17ED JUMP JUMPDEST ISZERO ISZERO DUP2 MSTORE PUSH0 PUSH1 0x20 SWAP2 DUP3 ADD DUP2 SWAP1 MSTORE DUP4 SLOAD PUSH1 0x1 DUP2 ADD DUP6 SSTORE SWAP4 DUP2 MSTORE DUP2 SWAP1 KECCAK256 DUP3 MLOAD SWAP4 ADD DUP1 SLOAD SWAP2 DUP4 ADD MLOAD PUSH1 0x40 DUP5 ADD MLOAD PUSH4 0xFFFFFFFF AND PUSH1 0x1 PUSH1 0xB0 SHL MUL PUSH4 0xFFFFFFFF PUSH1 0xB0 SHL NOT PUSH1 0x1 PUSH1 0x1 PUSH1 0xA0 SHL SUB SWAP1 SWAP3 AND PUSH3 0x10000 MUL PUSH1 0x1 PUSH1 0x1 PUSH1 0xB0 SHL SUB NOT SWAP1 SWAP5 AND PUSH2 0xFFFF SWAP1 SWAP7 AND SWAP6 SWAP1 SWAP6 OR SWAP3 SWAP1 SWAP3 OR SWAP2 DUP3 AND DUP5 OR DUP2 SSTORE PUSH1 0x60 DUP4 ADD MLOAD SWAP3 SWAP4 SWAP1 SWAP3 SWAP2 DUP4 SWAP2 PUSH1 0xFF PUSH1 0xD0 SHL NOT AND PUSH5 0xFFFFFFFFFF PUSH1 0xB0 SHL NOT SWAP1 SWAP2 AND OR PUSH1 0x1 PUSH1 0xD0 SHL DUP4 PUSH1 0x5 DUP2 GT ISZERO PUSH2 0x12F1 JUMPI PUSH2 0x12F1 PUSH2 0x1AE7 JUMP JUMPDEST MUL OR SWAP1 SSTORE POP PUSH1 0x80 DUP3 ADD MLOAD DUP2 SLOAD PUSH1 0xA0 SWAP1 SWAP4 ADD MLOAD ISZERO ISZERO PUSH1 0x1 PUSH1 0xE0 SHL MUL PUSH1 0xFF PUSH1 0xE0 SHL NOT SWAP2 ISZERO ISZERO PUSH1 0x1 PUSH1 0xD8 SHL MUL SWAP2 SWAP1 SWAP2 AND PUSH2 0xFFFF PUSH1 0xD8 SHL NOT SWAP1 SWAP4 AND SWAP3 SWAP1 SWAP3 OR SWAP2 SWAP1 SWAP2 OR SWAP1 SSTORE POP PUSH2 0x133C DUP2 PUSH2 0x1CD5 JUMP JUMPDEST SWAP1 POP PUSH2 0x11E5 JUMP JUMPDEST POP PUSH2 0x13A0 DUP5 PUSH2 0x135F PUSH0 SLOAD PUSH1 0x1 PUSH1 0x1 PUSH1 0xA0 SHL SUB PUSH2 0x100 SWAP1 SWAP2 DIV AND SWAP1 JUMP JUMPDEST PUSH2 0x136E PUSH5 0x12A05F200 DUP6 PUSH2 0x1D04 JUMP JUMPDEST PUSH1 0x1 PUSH1 0x1 PUSH1 0xA0 SHL SUB PUSH32 0x0 AND SWAP3 SWAP2 SWAP1 PUSH2 0x14E3 JUMP JUMPDEST PUSH1 0x40 MLOAD PUSH1 0x1 PUSH1 0x1 PUSH1 0xA0 SHL SUB DUP6 AND DUP2 MSTORE PUSH32 0xB6F7B064071EA7B1DC8D327EF5E519931E7E4933ED9ED3156C42FCE7B4BE323A SWAP1 PUSH1 0x20 ADD PUSH2 0xB1C JUMP JUMPDEST PUSH2 0x13E1 PUSH2 0x141B JUMP JUMPDEST PUSH1 0x1 PUSH1 0x1 PUSH1 0xA0 SHL SUB DUP2 AND PUSH2 0x140F JUMPI PUSH1 0x40 MLOAD PUSH4 0x1E4FBDF7 PUSH1 0xE0 SHL DUP2 MSTORE PUSH0 PUSH1 0x4 DUP3 ADD MSTORE PUSH1 0x24 ADD JUMPDEST PUSH1 0x40 MLOAD DUP1 SWAP2 SUB SWAP1 REVERT JUMPDEST PUSH2 0x1418 DUP2 PUSH2 0x1594 JUMP JUMPDEST POP JUMP JUMPDEST PUSH0 SLOAD PUSH1 0x1 PUSH1 0x1 PUSH1 0xA0 SHL SUB PUSH2 0x100 SWAP1 SWAP2 DIV AND CALLER EQ PUSH2 0x698 JUMPI PUSH1 0x40 MLOAD PUSH4 0x118CDAA7 PUSH1 0xE0 SHL DUP2 MSTORE CALLER PUSH1 0x4 DUP3 ADD MSTORE PUSH1 0x24 ADD PUSH2 0x1406 JUMP JUMPDEST PUSH0 SLOAD PUSH1 0xFF AND ISZERO PUSH2 0x698 JUMPI PUSH1 0x40 MLOAD PUSH4 0xD93C0665 PUSH1 0xE0 SHL DUP2 MSTORE PUSH1 0x4 ADD PUSH1 0x40 MLOAD DUP1 SWAP2 SUB SWAP1 REVERT JUMPDEST PUSH0 DUP1 JUMPDEST DUP4 MLOAD DUP2 LT ISZERO PUSH2 0x14B2 JUMPI DUP3 DUP5 DUP3 DUP2 MLOAD DUP2 LT PUSH2 0x148F JUMPI PUSH2 0x148F PUSH2 0x1C73 JUMP JUMPDEST PUSH1 0x20 MUL PUSH1 0x20 ADD ADD MLOAD PUSH0 ADD MLOAD PUSH2 0xFFFF AND SUB PUSH2 0x14AA JUMPI SWAP1 POP PUSH2 0x14CF JUMP JUMPDEST PUSH1 0x1 ADD PUSH2 0x1473 JUMP JUMPDEST POP PUSH1 0x40 MLOAD PUSH4 0x1585BDAB PUSH1 0xE3 SHL DUP2 MSTORE PUSH1 0x4 DUP2 ADD DUP4 SWAP1 MSTORE PUSH1 0x24 ADD PUSH2 0x1406 JUMP JUMPDEST SWAP3 SWAP2 POP POP JUMP JUMPDEST PUSH0 PUSH2 0x14CF PUSH3 0x15180 DUP4 PUSH2 0x1D1B JUMP JUMPDEST PUSH1 0x40 DUP1 MLOAD PUSH1 0x1 PUSH1 0x1 PUSH1 0xA0 SHL SUB DUP6 DUP2 AND PUSH1 0x24 DUP4 ADD MSTORE DUP5 AND PUSH1 0x44 DUP3 ADD MSTORE PUSH1 0x64 DUP1 DUP3 ADD DUP5 SWAP1 MSTORE DUP3 MLOAD DUP1 DUP4 SUB SWAP1 SWAP2 ADD DUP2 MSTORE PUSH1 0x84 SWAP1 SWAP2 ADD SWAP1 SWAP2 MSTORE PUSH1 0x20 DUP2 ADD DUP1 MLOAD PUSH1 0x1 PUSH1 0x1 PUSH1 0xE0 SHL SUB AND PUSH4 0x23B872DD PUSH1 0xE0 SHL OR SWAP1 MSTORE PUSH2 0x153D SWAP1 DUP6 SWAP1 PUSH2 0x182D JUMP JUMPDEST POP POP POP POP JUMP JUMPDEST PUSH2 0x154B PUSH2 0x188E JUMP JUMPDEST PUSH0 DUP1 SLOAD PUSH1 0xFF NOT AND SWAP1 SSTORE PUSH32 0x5DB9EE0A495BF2E6FF9C91A7834C1BA4FDD244A5E8AA4E537BD38AEAE4B073AA CALLER JUMPDEST PUSH1 0x40 MLOAD PUSH1 0x1 PUSH1 0x1 PUSH1 0xA0 SHL SUB SWAP1 SWAP2 AND DUP2 MSTORE PUSH1 0x20 ADD PUSH1 0x40 MLOAD DUP1 SWAP2 SUB SWAP1 LOG1 JUMP JUMPDEST PUSH0 DUP1 SLOAD PUSH1 0x1 PUSH1 0x1 PUSH1 0xA0 SHL SUB DUP4 DUP2 AND PUSH2 0x100 DUP2 DUP2 MUL PUSH2 0x100 PUSH1 0x1 PUSH1 0xA8 SHL SUB NOT DUP6 AND OR DUP6 SSTORE PUSH1 0x40 MLOAD SWAP4 DIV SWAP2 SWAP1 SWAP2 AND SWAP3 SWAP1 SWAP2 DUP4 SWAP2 PUSH32 0x8BE0079C531659141344CD1FD0A4F28419497F9722A3DAAFE3B4186F6B6457E0 SWAP2 LOG3 POP POP JUMP JUMPDEST PUSH2 0x15F4 PUSH2 0x144D JUMP JUMPDEST PUSH0 DUP1 SLOAD PUSH1 0xFF NOT AND PUSH1 0x1 OR SWAP1 SSTORE PUSH32 0x62E78CEA01BEE320CD4E420270B5EA74000D11B0C9F74754EBDBFC544B05A258 PUSH2 0x1577 CALLER SWAP1 JUMP JUMPDEST PUSH1 0x40 DUP1 MLOAD PUSH1 0xC0 DUP2 ADD DUP3 MSTORE PUSH0 DUP1 DUP3 MSTORE PUSH1 0x20 DUP3 ADD DUP2 SWAP1 MSTORE SWAP2 DUP2 ADD DUP3 SWAP1 MSTORE PUSH1 0x60 DUP2 ADD DUP3 SWAP1 MSTORE PUSH1 0x80 DUP2 ADD DUP3 SWAP1 MSTORE PUSH1 0xA0 DUP2 ADD SWAP2 SWAP1 SWAP2 MSTORE PUSH0 PUSH1 0x1 DUP1 SLOAD DUP1 PUSH1 0x20 MUL PUSH1 0x20 ADD PUSH1 0x40 MLOAD SWAP1 DUP2 ADD PUSH1 0x40 MSTORE DUP1 SWAP3 SWAP2 SWAP1 DUP2 DUP2 MSTORE PUSH1 0x20 ADD PUSH0 SWAP1 JUMPDEST DUP3 DUP3 LT ISZERO PUSH2 0x173D JUMPI PUSH0 DUP5 DUP2 MSTORE PUSH1 0x20 SWAP1 DUP2 SWAP1 KECCAK256 PUSH1 0x40 DUP1 MLOAD PUSH1 0xC0 DUP2 ADD DUP3 MSTORE SWAP2 DUP6 ADD DUP1 SLOAD PUSH2 0xFFFF DUP2 AND DUP5 MSTORE PUSH3 0x10000 DUP2 DIV PUSH1 0x1 PUSH1 0x1 PUSH1 0xA0 SHL SUB AND SWAP5 DUP5 ADD SWAP5 SWAP1 SWAP5 MSTORE PUSH1 0x1 PUSH1 0xB0 SHL DUP5 DIV PUSH4 0xFFFFFFFF AND SWAP2 DUP4 ADD SWAP2 SWAP1 SWAP2 MSTORE SWAP1 SWAP2 PUSH1 0x60 DUP4 ADD SWAP1 PUSH1 0x1 PUSH1 0xD0 SHL SWAP1 DIV PUSH1 0xFF AND PUSH1 0x5 DUP2 GT ISZERO PUSH2 0x16EF JUMPI PUSH2 0x16EF PUSH2 0x1AE7 JUMP JUMPDEST PUSH1 0x5 DUP2 GT ISZERO PUSH2 0x1700 JUMPI PUSH2 0x1700 PUSH2 0x1AE7 JUMP JUMPDEST DUP2 MSTORE SWAP1 SLOAD PUSH1 0xFF PUSH1 0x1 PUSH1 0xD8 SHL DUP3 DIV DUP2 AND ISZERO ISZERO PUSH1 0x20 DUP1 DUP6 ADD SWAP2 SWAP1 SWAP2 MSTORE PUSH1 0x1 PUSH1 0xE0 SHL SWAP1 SWAP3 DIV AND ISZERO ISZERO PUSH1 0x40 SWAP1 SWAP3 ADD SWAP2 SWAP1 SWAP2 MSTORE SWAP1 DUP3 MSTORE PUSH1 0x1 SWAP1 SWAP3 ADD SWAP2 ADD PUSH2 0x167B JUMP JUMPDEST POP POP POP POP SWAP1 POP PUSH0 JUMPDEST DUP2 MLOAD DUP2 LT ISZERO PUSH2 0x17A0 JUMPI DUP4 DUP3 DUP3 DUP2 MLOAD DUP2 LT PUSH2 0x1761 JUMPI PUSH2 0x1761 PUSH2 0x1C73 JUMP JUMPDEST PUSH1 0x20 MUL PUSH1 0x20 ADD ADD MLOAD PUSH0 ADD MLOAD PUSH2 0xFFFF AND SUB PUSH2 0x1798 JUMPI DUP2 DUP2 DUP2 MLOAD DUP2 LT PUSH2 0x1787 JUMPI PUSH2 0x1787 PUSH2 0x1C73 JUMP JUMPDEST PUSH1 0x20 MUL PUSH1 0x20 ADD ADD MLOAD SWAP3 POP POP POP SWAP2 SWAP1 POP JUMP JUMPDEST PUSH1 0x1 ADD PUSH2 0x1745 JUMP JUMPDEST POP PUSH1 0x40 MLOAD PUSH4 0x1585BDAB PUSH1 0xE3 SHL DUP2 MSTORE PUSH1 0x4 DUP2 ADD DUP5 SWAP1 MSTORE PUSH1 0x24 ADD PUSH2 0x1406 JUMP JUMPDEST PUSH0 DUP1 SLOAD PUSH2 0xFFFF PUSH1 0xD0 SHL NOT DUP2 AND PUSH1 0x1 PUSH1 0xD0 SHL SWAP2 DUP3 SWAP1 DIV PUSH2 0xFFFF SWAP1 DUP2 AND PUSH1 0x1 ADD DUP2 AND DUP4 MUL SWAP2 SWAP1 SWAP2 OR SWAP3 DUP4 SWAP1 SSTORE SWAP2 DIV AND SWAP1 JUMP JUMPDEST PUSH0 DUP1 SLOAD PUSH1 0x1 PUSH1 0xA8 SHL SWAP1 DIV PUSH1 0xFF AND ISZERO PUSH2 0x1828 JUMPI POP PUSH0 DUP1 SLOAD PUSH0 NOT PUSH1 0xFF PUSH1 0x1 PUSH1 0xA8 SHL DUP1 DUP5 DIV DUP3 AND SWAP3 SWAP1 SWAP3 ADD AND MUL PUSH1 0xFF PUSH1 0xA8 SHL NOT SWAP1 SWAP2 AND OR SWAP1 SSTORE PUSH1 0x1 SWAP1 JUMP JUMPDEST POP PUSH0 SWAP1 JUMP JUMPDEST PUSH0 PUSH2 0x1841 PUSH1 0x1 PUSH1 0x1 PUSH1 0xA0 SHL SUB DUP5 AND DUP4 PUSH2 0x18B0 JUMP JUMPDEST SWAP1 POP DUP1 MLOAD PUSH0 EQ ISZERO DUP1 ISZERO PUSH2 0x1865 JUMPI POP DUP1 DUP1 PUSH1 0x20 ADD SWAP1 MLOAD DUP2 ADD SWAP1 PUSH2 0x1863 SWAP2 SWAP1 PUSH2 0x1D3A JUMP JUMPDEST ISZERO JUMPDEST ISZERO PUSH2 0xA00 JUMPI PUSH1 0x40 MLOAD PUSH4 0x5274AFE7 PUSH1 0xE0 SHL DUP2 MSTORE PUSH1 0x1 PUSH1 0x1 PUSH1 0xA0 SHL SUB DUP5 AND PUSH1 0x4 DUP3 ADD MSTORE PUSH1 0x24 ADD PUSH2 0x1406 JUMP JUMPDEST PUSH0 SLOAD PUSH1 0xFF AND PUSH2 0x698 JUMPI PUSH1 0x40 MLOAD PUSH4 0x8DFC202B PUSH1 0xE0 SHL DUP2 MSTORE PUSH1 0x4 ADD PUSH1 0x40 MLOAD DUP1 SWAP2 SUB SWAP1 REVERT JUMPDEST PUSH1 0x60 PUSH2 0x10DF DUP4 DUP4 PUSH0 DUP5 PUSH0 DUP1 DUP6 PUSH1 0x1 PUSH1 0x1 PUSH1 0xA0 SHL SUB AND DUP5 DUP7 PUSH1 0x40 MLOAD PUSH2 0x18D4 SWAP2 SWAP1 PUSH2 0x1D55 JUMP JUMPDEST PUSH0 PUSH1 0x40 MLOAD DUP1 DUP4 SUB DUP2 DUP6 DUP8 GAS CALL SWAP3 POP POP POP RETURNDATASIZE DUP1 PUSH0 DUP2 EQ PUSH2 0x190E JUMPI PUSH1 0x40 MLOAD SWAP2 POP PUSH1 0x1F NOT PUSH1 0x3F RETURNDATASIZE ADD AND DUP3 ADD PUSH1 0x40 MSTORE RETURNDATASIZE DUP3 MSTORE RETURNDATASIZE PUSH0 PUSH1 0x20 DUP5 ADD RETURNDATACOPY PUSH2 0x1913 JUMP JUMPDEST PUSH1 0x60 SWAP2 POP JUMPDEST POP SWAP2 POP SWAP2 POP PUSH2 0x1923 DUP7 DUP4 DUP4 PUSH2 0x192D JUMP JUMPDEST SWAP7 SWAP6 POP POP POP POP POP POP JUMP JUMPDEST PUSH1 0x60 DUP3 PUSH2 0x1942 JUMPI PUSH2 0x193D DUP3 PUSH2 0x1989 JUMP JUMPDEST PUSH2 0x10DF JUMP JUMPDEST DUP2 MLOAD ISZERO DUP1 ISZERO PUSH2 0x1959 JUMPI POP PUSH1 0x1 PUSH1 0x1 PUSH1 0xA0 SHL SUB DUP5 AND EXTCODESIZE ISZERO JUMPDEST ISZERO PUSH2 0x1982 JUMPI PUSH1 0x40 MLOAD PUSH4 0x9996B315 PUSH1 0xE0 SHL DUP2 MSTORE PUSH1 0x1 PUSH1 0x1 PUSH1 0xA0 SHL SUB DUP6 AND PUSH1 0x4 DUP3 ADD MSTORE PUSH1 0x24 ADD PUSH2 0x1406 JUMP JUMPDEST POP DUP1 PUSH2 0x10DF JUMP JUMPDEST DUP1 MLOAD ISZERO PUSH2 0x1999 JUMPI DUP1 MLOAD DUP1 DUP3 PUSH1 0x20 ADD REVERT JUMPDEST PUSH1 0x40 MLOAD PUSH4 0xA12F521 PUSH1 0xE1 SHL DUP2 MSTORE PUSH1 0x4 ADD PUSH1 0x40 MLOAD DUP1 SWAP2 SUB SWAP1 REVERT JUMPDEST PUSH0 PUSH1 0x20 DUP3 DUP5 SUB SLT ISZERO PUSH2 0x19C2 JUMPI PUSH0 DUP1 REVERT JUMPDEST DUP2 CALLDATALOAD PUSH4 0xFFFFFFFF DUP2 AND DUP2 EQ PUSH2 0x10DF JUMPI PUSH0 DUP1 REVERT JUMPDEST DUP1 CALLDATALOAD PUSH1 0x1 PUSH1 0x1 PUSH1 0xA0 SHL SUB DUP2 AND DUP2 EQ PUSH2 0x19EB JUMPI PUSH0 DUP1 REVERT JUMPDEST SWAP2 SWAP1 POP JUMP JUMPDEST PUSH0 PUSH1 0x20 DUP3 DUP5 SUB SLT ISZERO PUSH2 0x1A00 JUMPI PUSH0 DUP1 REVERT JUMPDEST PUSH2 0x10DF DUP3 PUSH2 0x19D5 JUMP JUMPDEST PUSH0 PUSH1 0x20 DUP3 DUP5 SUB SLT ISZERO PUSH2 0x1A19 JUMPI PUSH0 DUP1 REVERT JUMPDEST POP CALLDATALOAD SWAP2 SWAP1 POP JUMP JUMPDEST DUP1 CALLDATALOAD PUSH1 0x6 DUP2 LT PUSH2 0x19EB JUMPI PUSH0 DUP1 REVERT JUMPDEST PUSH0 DUP1 PUSH1 0x40 DUP4 DUP6 SUB SLT ISZERO PUSH2 0x1A3F JUMPI PUSH0 DUP1 REVERT JUMPDEST DUP3 CALLDATALOAD SWAP2 POP PUSH2 0x1A4F PUSH1 0x20 DUP5 ADD PUSH2 0x1A20 JUMP JUMPDEST SWAP1 POP SWAP3 POP SWAP3 SWAP1 POP JUMP JUMPDEST PUSH0 DUP1 PUSH1 0x20 DUP4 DUP6 SUB SLT ISZERO PUSH2 0x1A69 JUMPI PUSH0 DUP1 REVERT JUMPDEST DUP3 CALLDATALOAD PUSH8 0xFFFFFFFFFFFFFFFF DUP1 DUP3 GT ISZERO PUSH2 0x1A80 JUMPI PUSH0 DUP1 REVERT JUMPDEST DUP2 DUP6 ADD SWAP2 POP DUP6 PUSH1 0x1F DUP4 ADD SLT PUSH2 0x1A93 JUMPI PUSH0 DUP1 REVERT JUMPDEST DUP2 CALLDATALOAD DUP2 DUP2 GT ISZERO PUSH2 0x1AA1 JUMPI PUSH0 DUP1 REVERT JUMPDEST DUP7 PUSH1 0x20 DUP3 PUSH1 0x5 SHL DUP6 ADD ADD GT ISZERO PUSH2 0x1AB5 JUMPI PUSH0 DUP1 REVERT JUMPDEST PUSH1 0x20 SWAP3 SWAP1 SWAP3 ADD SWAP7 SWAP2 SWAP6 POP SWAP1 SWAP4 POP POP POP POP JUMP JUMPDEST PUSH0 PUSH1 0x20 DUP3 DUP5 SUB SLT ISZERO PUSH2 0x1AD7 JUMPI PUSH0 DUP1 REVERT JUMPDEST DUP2 CALLDATALOAD PUSH1 0xFF DUP2 AND DUP2 EQ PUSH2 0x10DF JUMPI PUSH0 DUP1 REVERT JUMPDEST PUSH4 0x4E487B71 PUSH1 0xE0 SHL PUSH0 MSTORE PUSH1 0x21 PUSH1 0x4 MSTORE PUSH1 0x24 PUSH0 REVERT JUMPDEST PUSH1 0x6 DUP2 LT PUSH2 0x1B17 JUMPI PUSH4 0x4E487B71 PUSH1 0xE0 SHL PUSH0 MSTORE PUSH1 0x21 PUSH1 0x4 MSTORE PUSH1 0x24 PUSH0 REVERT JUMPDEST SWAP1 MSTORE JUMP JUMPDEST PUSH1 0x20 DUP1 DUP3 MSTORE DUP3 MLOAD DUP3 DUP3 ADD DUP2 SWAP1 MSTORE PUSH0 SWAP2 SWAP1 PUSH1 0x40 SWAP1 DUP2 DUP6 ADD SWAP1 DUP7 DUP5 ADD DUP6 JUMPDEST DUP3 DUP2 LT ISZERO PUSH2 0x1BA6 JUMPI DUP2 MLOAD DUP1 MLOAD PUSH2 0xFFFF AND DUP6 MSTORE DUP7 DUP2 ADD MLOAD PUSH1 0x1 PUSH1 0x1 PUSH1 0xA0 SHL SUB AND DUP8 DUP7 ADD MSTORE DUP6 DUP2 ADD MLOAD PUSH4 0xFFFFFFFF AND DUP7 DUP7 ADD MSTORE PUSH1 0x60 DUP1 DUP3 ADD MLOAD PUSH2 0x1B7A DUP3 DUP9 ADD DUP3 PUSH2 0x1AFB JUMP JUMPDEST POP POP PUSH1 0x80 DUP2 DUP2 ADD MLOAD ISZERO ISZERO SWAP1 DUP7 ADD MSTORE PUSH1 0xA0 SWAP1 DUP2 ADD MLOAD ISZERO ISZERO SWAP1 DUP6 ADD MSTORE PUSH1 0xC0 SWAP1 SWAP4 ADD SWAP3 SWAP1 DUP6 ADD SWAP1 PUSH1 0x1 ADD PUSH2 0x1B37 JUMP JUMPDEST POP SWAP2 SWAP8 SWAP7 POP POP POP POP POP POP POP JUMP JUMPDEST PUSH2 0xFFFF DUP8 AND DUP2 MSTORE PUSH1 0x1 PUSH1 0x1 PUSH1 0xA0 SHL SUB DUP7 AND PUSH1 0x20 DUP3 ADD MSTORE PUSH4 0xFFFFFFFF DUP6 AND PUSH1 0x40 DUP3 ADD MSTORE PUSH1 0xC0 DUP2 ADD PUSH2 0x1BE6 PUSH1 0x60 DUP4 ADD DUP7 PUSH2 0x1AFB JUMP JUMPDEST SWAP3 ISZERO ISZERO PUSH1 0x80 DUP3 ADD MSTORE SWAP1 ISZERO ISZERO PUSH1 0xA0 SWAP1 SWAP2 ADD MSTORE SWAP5 SWAP4 POP POP POP POP JUMP JUMPDEST PUSH0 DUP1 PUSH1 0x40 DUP4 DUP6 SUB SLT ISZERO PUSH2 0x1C10 JUMPI PUSH0 DUP1 REVERT JUMPDEST PUSH2 0x1C19 DUP4 PUSH2 0x19D5 JUMP JUMPDEST SWAP2 POP PUSH2 0x1A4F PUSH1 0x20 DUP5 ADD PUSH2 0x1A20 JUMP JUMPDEST DUP1 ISZERO ISZERO DUP2 EQ PUSH2 0x1418 JUMPI PUSH0 DUP1 REVERT JUMPDEST PUSH0 DUP1 PUSH0 PUSH1 0x60 DUP5 DUP7 SUB SLT ISZERO PUSH2 0x1C46 JUMPI PUSH0 DUP1 REVERT JUMPDEST DUP4 CALLDATALOAD SWAP3 POP PUSH1 0x20 DUP5 ADD CALLDATALOAD PUSH2 0x1C58 DUP2 PUSH2 0x1C27 JUMP JUMPDEST SWAP2 POP PUSH1 0x40 DUP5 ADD CALLDATALOAD PUSH2 0x1C68 DUP2 PUSH2 0x1C27 JUMP JUMPDEST DUP1 SWAP2 POP POP SWAP3 POP SWAP3 POP SWAP3 JUMP JUMPDEST PUSH4 0x4E487B71 PUSH1 0xE0 SHL PUSH0 MSTORE PUSH1 0x32 PUSH1 0x4 MSTORE PUSH1 0x24 PUSH0 REVERT JUMPDEST PUSH4 0x4E487B71 PUSH1 0xE0 SHL PUSH0 MSTORE PUSH1 0x11 PUSH1 0x4 MSTORE PUSH1 0x24 PUSH0 REVERT JUMPDEST DUP2 DUP2 SUB DUP2 DUP2 GT ISZERO PUSH2 0x14CF JUMPI PUSH2 0x14CF PUSH2 0x1C87 JUMP JUMPDEST DUP1 DUP3 ADD DUP1 DUP3 GT ISZERO PUSH2 0x14CF JUMPI PUSH2 0x14CF PUSH2 0x1C87 JUMP JUMPDEST PUSH4 0x4E487B71 PUSH1 0xE0 SHL PUSH0 MSTORE PUSH1 0x31 PUSH1 0x4 MSTORE PUSH1 0x24 PUSH0 REVERT JUMPDEST PUSH0 PUSH1 0x1 DUP3 ADD PUSH2 0x1CE6 JUMPI PUSH2 0x1CE6 PUSH2 0x1C87 JUMP JUMPDEST POP PUSH1 0x1 ADD SWAP1 JUMP JUMPDEST PUSH0 PUSH1 0x20 DUP3 DUP5 SUB SLT ISZERO PUSH2 0x1CFD JUMPI PUSH0 DUP1 REVERT JUMPDEST POP MLOAD SWAP2 SWAP1 POP JUMP JUMPDEST DUP1 DUP3 MUL DUP2 ISZERO DUP3 DUP3 DIV DUP5 EQ OR PUSH2 0x14CF JUMPI PUSH2 0x14CF PUSH2 0x1C87 JUMP JUMPDEST PUSH0 DUP3 PUSH2 0x1D35 JUMPI PUSH4 0x4E487B71 PUSH1 0xE0 SHL PUSH0 MSTORE PUSH1 0x12 PUSH1 0x4 MSTORE PUSH1 0x24 PUSH0 REVERT JUMPDEST POP DIV SWAP1 JUMP JUMPDEST PUSH0 PUSH1 0x20 DUP3 DUP5 SUB SLT ISZERO PUSH2 0x1D4A JUMPI PUSH0 DUP1 REVERT JUMPDEST DUP2 MLOAD PUSH2 0x10DF DUP2 PUSH2 0x1C27 JUMP JUMPDEST PUSH0 DUP3 MLOAD PUSH0 JUMPDEST DUP2 DUP2 LT ISZERO PUSH2 0x1D74 JUMPI PUSH1 0x20 DUP2 DUP7 ADD DUP2 ADD MLOAD DUP6 DUP4 ADD MSTORE ADD PUSH2 0x1D5A JUMP JUMPDEST POP PUSH0 SWAP3 ADD SWAP2 DUP3 MSTORE POP SWAP2 SWAP1 POP JUMP INVALID LOG2 PUSH5 0x6970667358 0x22 SLT KECCAK256 DUP7 0xD9 0x5D 0xB3 PUSH3 0x2314D3 0xA6 0xC5 GASLIMIT RETURNDATACOPY DUP9 0xED CALLER 0xD6 CALLVALUE 0xB7 DUP5 SWAP14 DUP8 0xC5 PUSH5 0xB7743A9CCA 0x2A 0xDB SWAP13 LOG3 PUSH5 0x736F6C6343 STOP ADDMOD EQ STOP CALLER "},"methodIdentifiers":{"approveDeposit(address,uint8)":"d479220d","approveDeposits(address,uint8)":"f07bfcb7","calculateYield(uint256,bool,bool)":"e61d2220","deposits(uint256)":"b02c43d0","executeWithdrawal(uint256)":"24f13a76","executeWithdrawals(uint256[])":"73e22c54","extendLockPeriod(uint256,uint8)":"6220e819","getAvailableSlotCount()":"60395088","getSlotValue()":"f8bb2414","getUsedSlots()":"a8aa4b87","owner()":"8da5cb5b","pause()":"8456cb59","paused()":"5c975abb","rejectDeposit(address)":"2244e1c7","renounceOwnership()":"715018a6","requestWithdrawal(uint256)":"9ee679e8","requestWithdrawals(uint256[])":"8c395ef4","setEarlyAdoptSlots(uint8)":"a871bd63","setExtendLockPeriodBonus(uint32)":"13522198","transferOwnership(address)":"f2fde38b","unpause()":"3f4ba83a"}},"storageLayout":{"storage":[{"astId":3222,"contract":"contracts/KratosX.sol:KratosX","label":"_paused","offset":0,"slot":"0","type":"t_bool"},{"astId":387,"contract":"contracts/KratosX.sol:KratosX","label":"_owner","offset":1,"slot":"0","type":"t_address"},{"astId":5033,"contract":"contracts/KratosX.sol:KratosX","label":"earlyAdoptBonus","offset":21,"slot":"0","type":"t_uint8"},{"astId":5035,"contract":"contracts/KratosX.sol:KratosX","label":"extendLockPeriodBonusLimit","offset":22,"slot":"0","type":"t_uint32"},{"astId":5037,"contract":"contracts/KratosX.sol:KratosX","label":"autoIncrementedId","offset":26,"slot":"0","type":"t_uint16"},{"astId":5041,"contract":"contracts/KratosX.sol:KratosX","label":"deposits","offset":0,"slot":"1","type":"t_array(t_struct(Deposit)5022_storage)dyn_storage"}],"types":{"t_address":{"encoding":"inplace","label":"address","numberOfBytes":"20"},"t_array(t_struct(Deposit)5022_storage)dyn_storage":{"base":"t_struct(Deposit)5022_storage","encoding":"dynamic_array","label":"struct KratosX.Deposit[]","numberOfBytes":"32"},"t_bool":{"encoding":"inplace","label":"bool","numberOfBytes":"1"},"t_enum(LockPeriod)4948":{"encoding":"inplace","label":"enum KratosX.LockPeriod","numberOfBytes":"1"},"t_struct(Deposit)5022_storage":{"encoding":"inplace","label":"struct KratosX.Deposit","members":[{"astId":5010,"contract":"contracts/KratosX.sol:KratosX","label":"id","offset":0,"slot":"0","type":"t_uint16"},{"astId":5012,"contract":"contracts/KratosX.sol:KratosX","label":"owner","offset":2,"slot":"0","type":"t_address"},{"astId":5014,"contract":"contracts/KratosX.sol:KratosX","label":"approveTimestamp","offset":22,"slot":"0","type":"t_uint32"},{"astId":5017,"contract":"contracts/KratosX.sol:KratosX","label":"lockPeriod","offset":26,"slot":"0","type":"t_enum(LockPeriod)4948"},{"astId":5019,"contract":"contracts/KratosX.sol:KratosX","label":"hasEarlyAdoptBonus","offset":27,"slot":"0","type":"t_bool"},{"astId":5021,"contract":"contracts/KratosX.sol:KratosX","label":"hasExtendPeriodBonus","offset":28,"slot":"0","type":"t_bool"}],"numberOfBytes":"32"},"t_uint16":{"encoding":"inplace","label":"uint16","numberOfBytes":"2"},"t_uint32":{"encoding":"inplace","label":"uint32","numberOfBytes":"4"},"t_uint8":{"encoding":"inplace","label":"uint8","numberOfBytes":"1"}}}}}}