{"contracts/KratosX.sol":{"KratosX":{"abi":[{"inputs":[{"internalType":"address","name":"token","type":"address"}],"stateMutability":"nonpayable","type":"constructor"},{"inputs":[{"internalType":"uint256","name":"id","type":"uint256"}],"name":"DepositNotFound","type":"error"},{"anonymous":false,"inputs":[{"indexed":false,"internalType":"address","name":"owner","type":"address"},{"indexed":false,"internalType":"uint256","name":"id","type":"uint256"}],"name":"DepositApproved","type":"event"},{"anonymous":false,"inputs":[{"indexed":false,"internalType":"address","name":"depositor","type":"address"}],"name":"DepositRejected","type":"event"},{"anonymous":false,"inputs":[{"indexed":false,"internalType":"uint256","name":"id","type":"uint256"},{"indexed":false,"internalType":"address","name":"from","type":"address"}],"name":"DepositRequested","type":"event"},{"anonymous":false,"inputs":[{"indexed":true,"internalType":"address","name":"previousOwner","type":"address"},{"indexed":true,"internalType":"address","name":"newOwner","type":"address"}],"name":"OwnershipTransferred","type":"event"},{"anonymous":false,"inputs":[{"indexed":false,"internalType":"address","name":"account","type":"address"}],"name":"Paused","type":"event"},{"anonymous":false,"inputs":[{"indexed":false,"internalType":"address","name":"account","type":"address"}],"name":"Unpaused","type":"event"},{"anonymous":false,"inputs":[{"indexed":false,"internalType":"uint256","name":"id","type":"uint256"},{"indexed":false,"internalType":"uint256","name":"calculatedAmount","type":"uint256"}],"name":"WithdrawExecuted","type":"event"},{"anonymous":false,"inputs":[{"indexed":false,"internalType":"uint256","name":"id","type":"uint256"},{"indexed":false,"internalType":"uint256","name":"estimatedAmount","type":"uint256"}],"name":"WithdrawRequested","type":"event"},{"inputs":[{"internalType":"address","name":"depositor","type":"address"},{"internalType":"uint256","name":"lockPeriod","type":"uint256"}],"name":"approveDeposit","outputs":[],"stateMutability":"nonpayable","type":"function"},{"inputs":[{"internalType":"uint256","name":"dayCount","type":"uint256"},{"internalType":"bool","name":"hasEarlyAdoptBonus","type":"bool"},{"internalType":"bool","name":"hasExtendBonus","type":"bool"}],"name":"calculateYield","outputs":[{"internalType":"uint256","name":"","type":"uint256"}],"stateMutability":"pure","type":"function"},{"inputs":[{"internalType":"uint256","name":"","type":"uint256"}],"name":"deposits","outputs":[{"internalType":"uint16","name":"id","type":"uint16"},{"internalType":"address","name":"owner","type":"address"},{"internalType":"uint32","name":"approveTimestamp","type":"uint32"},{"internalType":"uint32","name":"lockingPeriod","type":"uint32"},{"internalType":"bool","name":"hasEarlyAdoptBonus","type":"bool"},{"internalType":"bool","name":"hasExtendPeriodBonus","type":"bool"}],"stateMutability":"view","type":"function"},{"inputs":[{"internalType":"uint256","name":"id","type":"uint256"}],"name":"executeWithdraw","outputs":[],"stateMutability":"nonpayable","type":"function"},{"inputs":[],"name":"getAvailableSlotCount","outputs":[{"internalType":"uint256","name":"","type":"uint256"}],"stateMutability":"view","type":"function"},{"inputs":[],"name":"getSlotValue","outputs":[{"internalType":"uint256","name":"","type":"uint256"}],"stateMutability":"pure","type":"function"},{"inputs":[],"name":"getUsedSlots","outputs":[{"components":[{"internalType":"uint16","name":"id","type":"uint16"},{"internalType":"address","name":"owner","type":"address"},{"internalType":"uint32","name":"approveTimestamp","type":"uint32"},{"internalType":"uint32","name":"lockingPeriod","type":"uint32"},{"internalType":"bool","name":"hasEarlyAdoptBonus","type":"bool"},{"internalType":"bool","name":"hasExtendPeriodBonus","type":"bool"}],"internalType":"struct KratosX.Deposit[]","name":"","type":"tuple[]"}],"stateMutability":"view","type":"function"},{"inputs":[],"name":"owner","outputs":[{"internalType":"address","name":"","type":"address"}],"stateMutability":"view","type":"function"},{"inputs":[],"name":"pause","outputs":[],"stateMutability":"nonpayable","type":"function"},{"inputs":[],"name":"paused","outputs":[{"internalType":"bool","name":"","type":"bool"}],"stateMutability":"view","type":"function"},{"inputs":[{"internalType":"address","name":"depositor","type":"address"}],"name":"rejectDeposit","outputs":[],"stateMutability":"nonpayable","type":"function"},{"inputs":[],"name":"renounceOwnership","outputs":[],"stateMutability":"nonpayable","type":"function"},{"inputs":[{"internalType":"uint256","name":"id","type":"uint256"}],"name":"requestWithdrawal","outputs":[],"stateMutability":"nonpayable","type":"function"},{"inputs":[{"internalType":"address","name":"newOwner","type":"address"}],"name":"transferOwnership","outputs":[],"stateMutability":"nonpayable","type":"function"},{"inputs":[],"name":"unpause","outputs":[],"stateMutability":"nonpayable","type":"function"}],"evm":{"bytecode":{"linkReferences":{},"object":"60a060405234801561001057600080fd5b5060405161173138038061173183398101604081905261002f916100c1565b6000805460ff1916905561004233610068565b6001600160a01b03166080526000805462ffffff60a81b1916600360a81b1790556100f1565b600080546001600160a01b03838116610100818102610100600160a81b0319851617855560405193049190911692909183917f8be0079c531659141344cd1fd0a4f28419497f9722a3daafe3b4186f6b6457e091a35050565b6000602082840312156100d357600080fd5b81516001600160a01b03811681146100ea57600080fd5b9392505050565b60805161160261012f600039600081816102730152818161038b015281816106d3015281816108a10152818161097a0152610b7101526116026000f3fe608060405234801561001057600080fd5b50600436106100f55760003560e01c80638456cb5911610097578063b02c43d011610066578063b02c43d0146101cf578063e61d22201461022a578063f2fde38b1461023d578063f8bb24141461025057600080fd5b80638456cb59146101765780638da5cb5b1461017e5780639ee679e8146101a7578063a8aa4b87146101ba57600080fd5b80633f4ba83a116100d35780633f4ba83a146101355780635c975abb1461013d5780636039508814610158578063715018a61461016e57600080fd5b80632104ebf1146100fa5780632244e1c71461010f5780633238778814610122575b600080fd5b61010d610108366004611397565b61025b565b005b61010d61011d3660046113cc565b6107d6565b61010d6101303660046113e7565b61081d565b61010d610c69565b60005460ff1660405190151581526020015b60405180910390f35b610160610c7b565b60405190815260200161014f565b61010d610c91565b61010d610ca3565b60005461010090046001600160a01b03166040516001600160a01b03909116815260200161014f565b61010d6101b5366004611397565b610cb3565b6101c2610d59565b60405161014f9190611411565b6101e26101dd366004611397565b610e15565b6040805161ffff90971687526001600160a01b03909516602087015263ffffffff938416948601949094529116606084015215156080830152151560a082015260c00161014f565b6101606102383660046114b3565b610e79565b61010d61024b3660046113cc565b610f40565b64012a05f200610160565b610263610fb9565b61026b611019565b64012a05f2007f00000000000000000000000000000000000000000000000000000000000000006001600160a01b031663dd62ed3e6102b86000546001600160a01b036101009091041690565b6040516001600160e01b031960e084901b1681526001600160a01b039091166004820152306024820152604401602060405180830381865afa158015610302573d6000803e3d6000fd5b505050506040513d601f19601f8201168201806040525081019061032691906114f5565b10156103835760405162461bcd60e51b815260206004820152602160248201527f4e6f7420656e6f75676820616c6c6f77616e636520746f2077697468647261776044820152601760f91b60648201526084015b60405180910390fd5b64012a05f2007f00000000000000000000000000000000000000000000000000000000000000006001600160a01b03166370a082316103d06000546001600160a01b036101009091041690565b6040516001600160e01b031960e084901b1681526001600160a01b039091166004820152602401602060405180830381865afa158015610414573d6000803e3d6000fd5b505050506040513d601f19601f8201168201806040525081019061043891906114f5565b10156104865760405162461bcd60e51b815260206004820152601d60248201527f4e6f7420656e6f7567682066756e647320746f2077697468647261772e000000604482015260640161037a565b60006001805480602002602001604051908101604052809291908181526020016000905b828210156105395760008481526020908190206040805160c0810182529185015461ffff811683526001600160a01b03620100008204168385015263ffffffff600160b01b8204811692840192909252600160d01b8104909116606083015260ff600160f01b8204811615156080840152600160f81b90910416151560a08201528252600190920191016104aa565b505050509050600061054b828461105f565b905060008282815181106105615761056161150e565b60200260200101519050600061059d61058e836040015163ffffffff1642610589919061153a565b6110c9565b83608001518460a00151610e79565b6105ac9064012a05f20061154d565b905083600185516105bd919061153a565b815181106105cd576105cd61150e565b6020026020010151600184815481106105e8576105e861150e565b60009182526020918290208351910180549284015160408501516060860151608087015160a09097015161ffff9095166001600160b01b031990961695909517620100006001600160a01b03909316929092029190911767ffffffffffffffff60b01b1916600160b01b63ffffffff9283160263ffffffff60d01b191617600160d01b9190941602929092176001600160f01b0316600160f01b931515939093026001600160f81b031692909217600160f81b9215159290920291909117905560018054806106b9576106b9611560565b6000828152602081208201600019908101919091550190557f00000000000000000000000000000000000000000000000000000000000000006001600160a01b03166323b872dd6107186000546001600160a01b036101009091041690565b60208501516040516001600160e01b031960e085901b1681526001600160a01b03928316600482015291166024820152604481018490526064016020604051808303816000875af1158015610771573d6000803e3d6000fd5b505050506040513d601f19601f820116820180604052508101906107959190611576565b5060408051868152602081018390527f676b8d9bce8758f26a3f18f775d02412a1b90f11055ae15f21c0f43b68ce5961910160405180910390a15050505050565b6107de610fb9565b6040516001600160a01b03821681527f9252f673a302383d6d82c79d6d2d359ef0eb704b0f92f240bf386db0327998f79060200160405180910390a150565b610825610fb9565b61082d611019565b6001546064116108755760405162461bcd60e51b815260206004820152601360248201527227379039b637ba399030bb30b4b630b136329760691b604482015260640161037a565b604051636eb1769f60e11b81526001600160a01b03838116600483015230602483015264012a05f200917f00000000000000000000000000000000000000000000000000000000000000009091169063dd62ed3e90604401602060405180830381865afa1580156108ea573d6000803e3d6000fd5b505050506040513d601f19601f8201168201806040525081019061090e91906114f5565b10156109545760405162461bcd60e51b81526020600482015260156024820152742737ba1032b737bab3b41030b63637bbb0b731b29760591b604482015260640161037a565b6040516370a0823160e01b81526001600160a01b03838116600483015264012a05f200917f0000000000000000000000000000000000000000000000000000000000000000909116906370a0823190602401602060405180830381865afa1580156109c3573d6000803e3d6000fd5b505050506040513d601f19601f820116820180604052508101906109e791906114f5565b1015610a2b5760405162461bcd60e51b81526020600482015260136024820152722737ba1032b737bab3b4103130b630b731b29760691b604482015260640161037a565b60008054600161ffff600160b01b8084048216929092018116820261ffff60b01b19909316929092178084550416905060016040518060c001604052808361ffff168152602001856001600160a01b031681526020014263ffffffff1681526020018463ffffffff168152602001610aa16110d8565b151581526000602091820181905283546001810185559381528181208351940180549284015160408501516060860151608087015160a09097015161ffff9098166001600160b01b031990961695909517620100006001600160a01b03938416021767ffffffffffffffff60b01b1916600160b01b63ffffffff9283160263ffffffff60d01b191617600160d01b9190951602939093176001600160f01b0316600160f01b941515949094026001600160f81b031693909317600160f81b941515949094029390931790915590547f00000000000000000000000000000000000000000000000000000000000000008216916323b872dd918691610100909104166040516001600160e01b031960e085901b1681526001600160a01b0392831660048201529116602482015264012a05f20060448201526064016020604051808303816000875af1158015610bfa573d6000803e3d6000fd5b505050506040513d601f19601f82011682018060405250810190610c1e9190611576565b50604080516001600160a01b038516815261ffff831660208201527f79000773ac921e1702f7f3d9d7416dfe1f2b07606ee63066874ac05a6a42973e910160405180910390a1505050565b610c71610fb9565b610c7961111c565b565b600154600090610c8c90606461153a565b905090565b610c99610fb9565b610c79600061116e565b610cab610fb9565b610c796111c7565b610cbb611019565b6000610cc682611204565b90506000610cf1826040015163ffffffff164262093a80610ce7919061154d565b610589919061153a565b90506000610d088284608001518560a00151610e79565b90507f622ec52892a9917a9f66bd872232d3bea677db12565dd6da5f4bfc14607ec1d784610d3b8364012a05f20061154d565b6040805192835260208301919091520160405180910390a150505050565b60606001805480602002602001604051908101604052809291908181526020016000905b82821015610e0c5760008481526020908190206040805160c0810182529185015461ffff811683526001600160a01b03620100008204168385015263ffffffff600160b01b8204811692840192909252600160d01b8104909116606083015260ff600160f01b8204811615156080840152600160f81b90910416151560a0820152825260019092019101610d7d565b50505050905090565b60018181548110610e2557600080fd5b60009182526020909120015461ffff811691506001600160a01b03620100008204169063ffffffff600160b01b8204811691600160d01b81049091169060ff600160f01b8204811691600160f81b90041686565b60008060b48511610e8e576000915050610f39565b61016d8511610e9f57506005610eec565b6102da8511610eb057506005610eec565b6104478511610ec157506006610eec565b6105b48511610ed257506007610eec565b6107218511610ee357506008610eec565b50610721935060095b8315610ef6576001015b828015610f05575061016d8510155b15610f0e576001015b618e9485610f218364012a05f200611593565b610f2b9190611593565b610f3591906115aa565b9150505b9392505050565b610f48610fb9565b6001600160a01b038116610fad5760405162461bcd60e51b815260206004820152602660248201527f4f776e61626c653a206e6577206f776e657220697320746865207a65726f206160448201526564647265737360d01b606482015260840161037a565b610fb68161116e565b50565b6000546001600160a01b03610100909104163314610c795760405162461bcd60e51b815260206004820181905260248201527f4f776e61626c653a2063616c6c6572206973206e6f7420746865206f776e6572604482015260640161037a565b60005460ff1615610c795760405162461bcd60e51b815260206004820152601060248201526f14185d5cd8589b194e881c185d5cd95960821b604482015260640161037a565b600082815b81518110156110a657838282815181106110805761108061150e565b60200260200101516000015161ffff160361109e5791506110c39050565b600101611064565b50604051631585bdab60e31b81526004810184905260240161037a565b92915050565b60006110c362015180836115aa565b60008054600160a81b900460ff161561111657506000805460001960ff600160a81b808404821692909201160260ff60a81b19909116179055600190565b50600090565b61112461134e565b6000805460ff191690557f5db9ee0a495bf2e6ff9c91a7834c1ba4fdd244a5e8aa4e537bd38aeae4b073aa335b6040516001600160a01b03909116815260200160405180910390a1565b600080546001600160a01b03838116610100818102610100600160a81b0319851617855560405193049190911692909183917f8be0079c531659141344cd1fd0a4f28419497f9722a3daafe3b4186f6b6457e091a35050565b6111cf611019565b6000805460ff191660011790557f62e78cea01bee320cd4e420270b5ea74000d11b0c9f74754ebdbfc544b05a2586111513390565b6040805160c081018252600080825260208201819052918101829052606081018290526080810182905260a081019190915260006001805480602002602001604051908101604052809291908181526020016000905b828210156112e95760008481526020908190206040805160c0810182529185015461ffff811683526001600160a01b03620100008204168385015263ffffffff600160b01b8204811692840192909252600160d01b8104909116606083015260ff600160f01b8204811615156080840152600160f81b90910416151560a082015282526001909201910161125a565b50505050905060005b81518110156110a6578382828151811061130e5761130e61150e565b60200260200101516000015161ffff1603611346578181815181106113355761133561150e565b602002602001015192505050919050565b6001016112f2565b60005460ff16610c795760405162461bcd60e51b815260206004820152601460248201527314185d5cd8589b194e881b9bdd081c185d5cd95960621b604482015260640161037a565b6000602082840312156113a957600080fd5b5035919050565b80356001600160a01b03811681146113c757600080fd5b919050565b6000602082840312156113de57600080fd5b610f39826113b0565b600080604083850312156113fa57600080fd5b611403836113b0565b946020939093013593505050565b602080825282518282018190526000919060409081850190868401855b82811015611498578151805161ffff168552868101516001600160a01b0316878601528581015163ffffffff908116878701526060808301519091169086015260808082015115159086015260a09081015115159085015260c0909301929085019060010161142e565b5091979650505050505050565b8015158114610fb657600080fd5b6000806000606084860312156114c857600080fd5b8335925060208401356114da816114a5565b915060408401356114ea816114a5565b809150509250925092565b60006020828403121561150757600080fd5b5051919050565b634e487b7160e01b600052603260045260246000fd5b634e487b7160e01b600052601160045260246000fd5b818103818111156110c3576110c3611524565b808201808211156110c3576110c3611524565b634e487b7160e01b600052603160045260246000fd5b60006020828403121561158857600080fd5b8151610f39816114a5565b80820281158282048414176110c3576110c3611524565b6000826115c757634e487b7160e01b600052601260045260246000fd5b50049056fea2646970667358221220b38a86d82e43b5084b33d71ed2d3d8b0a9706fd5229d4d3f53fb3749c336760a64736f6c63430008130033","opcodes":"PUSH1 0xA0 PUSH1 0x40 MSTORE CALLVALUE DUP1 ISZERO PUSH2 0x10 JUMPI PUSH1 0x0 DUP1 REVERT JUMPDEST POP PUSH1 0x40 MLOAD PUSH2 0x1731 CODESIZE SUB DUP1 PUSH2 0x1731 DUP4 CODECOPY DUP2 ADD PUSH1 0x40 DUP2 SWAP1 MSTORE PUSH2 0x2F SWAP2 PUSH2 0xC1 JUMP JUMPDEST PUSH1 0x0 DUP1 SLOAD PUSH1 0xFF NOT AND SWAP1 SSTORE PUSH2 0x42 CALLER PUSH2 0x68 JUMP JUMPDEST PUSH1 0x1 PUSH1 0x1 PUSH1 0xA0 SHL SUB AND PUSH1 0x80 MSTORE PUSH1 0x0 DUP1 SLOAD PUSH3 0xFFFFFF PUSH1 0xA8 SHL NOT AND PUSH1 0x3 PUSH1 0xA8 SHL OR SWAP1 SSTORE PUSH2 0xF1 JUMP JUMPDEST PUSH1 0x0 DUP1 SLOAD PUSH1 0x1 PUSH1 0x1 PUSH1 0xA0 SHL SUB DUP4 DUP2 AND PUSH2 0x100 DUP2 DUP2 MUL PUSH2 0x100 PUSH1 0x1 PUSH1 0xA8 SHL SUB NOT DUP6 AND OR DUP6 SSTORE PUSH1 0x40 MLOAD SWAP4 DIV SWAP2 SWAP1 SWAP2 AND SWAP3 SWAP1 SWAP2 DUP4 SWAP2 PUSH32 0x8BE0079C531659141344CD1FD0A4F28419497F9722A3DAAFE3B4186F6B6457E0 SWAP2 LOG3 POP POP JUMP JUMPDEST PUSH1 0x0 PUSH1 0x20 DUP3 DUP5 SUB SLT ISZERO PUSH2 0xD3 JUMPI PUSH1 0x0 DUP1 REVERT JUMPDEST DUP2 MLOAD PUSH1 0x1 PUSH1 0x1 PUSH1 0xA0 SHL SUB DUP2 AND DUP2 EQ PUSH2 0xEA JUMPI PUSH1 0x0 DUP1 REVERT JUMPDEST SWAP4 SWAP3 POP POP POP JUMP JUMPDEST PUSH1 0x80 MLOAD PUSH2 0x1602 PUSH2 0x12F PUSH1 0x0 CODECOPY PUSH1 0x0 DUP2 DUP2 PUSH2 0x273 ADD MSTORE DUP2 DUP2 PUSH2 0x38B ADD MSTORE DUP2 DUP2 PUSH2 0x6D3 ADD MSTORE DUP2 DUP2 PUSH2 0x8A1 ADD MSTORE DUP2 DUP2 PUSH2 0x97A ADD MSTORE PUSH2 0xB71 ADD MSTORE PUSH2 0x1602 PUSH1 0x0 RETURN INVALID PUSH1 0x80 PUSH1 0x40 MSTORE CALLVALUE DUP1 ISZERO PUSH2 0x10 JUMPI PUSH1 0x0 DUP1 REVERT JUMPDEST POP PUSH1 0x4 CALLDATASIZE LT PUSH2 0xF5 JUMPI PUSH1 0x0 CALLDATALOAD PUSH1 0xE0 SHR DUP1 PUSH4 0x8456CB59 GT PUSH2 0x97 JUMPI DUP1 PUSH4 0xB02C43D0 GT PUSH2 0x66 JUMPI DUP1 PUSH4 0xB02C43D0 EQ PUSH2 0x1CF JUMPI DUP1 PUSH4 0xE61D2220 EQ PUSH2 0x22A JUMPI DUP1 PUSH4 0xF2FDE38B EQ PUSH2 0x23D JUMPI DUP1 PUSH4 0xF8BB2414 EQ PUSH2 0x250 JUMPI PUSH1 0x0 DUP1 REVERT JUMPDEST DUP1 PUSH4 0x8456CB59 EQ PUSH2 0x176 JUMPI DUP1 PUSH4 0x8DA5CB5B EQ PUSH2 0x17E JUMPI DUP1 PUSH4 0x9EE679E8 EQ PUSH2 0x1A7 JUMPI DUP1 PUSH4 0xA8AA4B87 EQ PUSH2 0x1BA JUMPI PUSH1 0x0 DUP1 REVERT JUMPDEST DUP1 PUSH4 0x3F4BA83A GT PUSH2 0xD3 JUMPI DUP1 PUSH4 0x3F4BA83A EQ PUSH2 0x135 JUMPI DUP1 PUSH4 0x5C975ABB EQ PUSH2 0x13D JUMPI DUP1 PUSH4 0x60395088 EQ PUSH2 0x158 JUMPI DUP1 PUSH4 0x715018A6 EQ PUSH2 0x16E JUMPI PUSH1 0x0 DUP1 REVERT JUMPDEST DUP1 PUSH4 0x2104EBF1 EQ PUSH2 0xFA JUMPI DUP1 PUSH4 0x2244E1C7 EQ PUSH2 0x10F JUMPI DUP1 PUSH4 0x32387788 EQ PUSH2 0x122 JUMPI JUMPDEST PUSH1 0x0 DUP1 REVERT JUMPDEST PUSH2 0x10D PUSH2 0x108 CALLDATASIZE PUSH1 0x4 PUSH2 0x1397 JUMP JUMPDEST PUSH2 0x25B JUMP JUMPDEST STOP JUMPDEST PUSH2 0x10D PUSH2 0x11D CALLDATASIZE PUSH1 0x4 PUSH2 0x13CC JUMP JUMPDEST PUSH2 0x7D6 JUMP JUMPDEST PUSH2 0x10D PUSH2 0x130 CALLDATASIZE PUSH1 0x4 PUSH2 0x13E7 JUMP JUMPDEST PUSH2 0x81D JUMP JUMPDEST PUSH2 0x10D PUSH2 0xC69 JUMP JUMPDEST PUSH1 0x0 SLOAD PUSH1 0xFF AND PUSH1 0x40 MLOAD SWAP1 ISZERO ISZERO DUP2 MSTORE PUSH1 0x20 ADD JUMPDEST PUSH1 0x40 MLOAD DUP1 SWAP2 SUB SWAP1 RETURN JUMPDEST PUSH2 0x160 PUSH2 0xC7B JUMP JUMPDEST PUSH1 0x40 MLOAD SWAP1 DUP2 MSTORE PUSH1 0x20 ADD PUSH2 0x14F JUMP JUMPDEST PUSH2 0x10D PUSH2 0xC91 JUMP JUMPDEST PUSH2 0x10D PUSH2 0xCA3 JUMP JUMPDEST PUSH1 0x0 SLOAD PUSH2 0x100 SWAP1 DIV PUSH1 0x1 PUSH1 0x1 PUSH1 0xA0 SHL SUB AND PUSH1 0x40 MLOAD PUSH1 0x1 PUSH1 0x1 PUSH1 0xA0 SHL SUB SWAP1 SWAP2 AND DUP2 MSTORE PUSH1 0x20 ADD PUSH2 0x14F JUMP JUMPDEST PUSH2 0x10D PUSH2 0x1B5 CALLDATASIZE PUSH1 0x4 PUSH2 0x1397 JUMP JUMPDEST PUSH2 0xCB3 JUMP JUMPDEST PUSH2 0x1C2 PUSH2 0xD59 JUMP JUMPDEST PUSH1 0x40 MLOAD PUSH2 0x14F SWAP2 SWAP1 PUSH2 0x1411 JUMP JUMPDEST PUSH2 0x1E2 PUSH2 0x1DD CALLDATASIZE PUSH1 0x4 PUSH2 0x1397 JUMP JUMPDEST PUSH2 0xE15 JUMP JUMPDEST PUSH1 0x40 DUP1 MLOAD PUSH2 0xFFFF SWAP1 SWAP8 AND DUP8 MSTORE PUSH1 0x1 PUSH1 0x1 PUSH1 0xA0 SHL SUB SWAP1 SWAP6 AND PUSH1 0x20 DUP8 ADD MSTORE PUSH4 0xFFFFFFFF SWAP4 DUP5 AND SWAP5 DUP7 ADD SWAP5 SWAP1 SWAP5 MSTORE SWAP2 AND PUSH1 0x60 DUP5 ADD MSTORE ISZERO ISZERO PUSH1 0x80 DUP4 ADD MSTORE ISZERO ISZERO PUSH1 0xA0 DUP3 ADD MSTORE PUSH1 0xC0 ADD PUSH2 0x14F JUMP JUMPDEST PUSH2 0x160 PUSH2 0x238 CALLDATASIZE PUSH1 0x4 PUSH2 0x14B3 JUMP JUMPDEST PUSH2 0xE79 JUMP JUMPDEST PUSH2 0x10D PUSH2 0x24B CALLDATASIZE PUSH1 0x4 PUSH2 0x13CC JUMP JUMPDEST PUSH2 0xF40 JUMP JUMPDEST PUSH5 0x12A05F200 PUSH2 0x160 JUMP JUMPDEST PUSH2 0x263 PUSH2 0xFB9 JUMP JUMPDEST PUSH2 0x26B PUSH2 0x1019 JUMP JUMPDEST PUSH5 0x12A05F200 PUSH32 0x0 PUSH1 0x1 PUSH1 0x1 PUSH1 0xA0 SHL SUB AND PUSH4 0xDD62ED3E PUSH2 0x2B8 PUSH1 0x0 SLOAD PUSH1 0x1 PUSH1 0x1 PUSH1 0xA0 SHL SUB PUSH2 0x100 SWAP1 SWAP2 DIV AND SWAP1 JUMP JUMPDEST PUSH1 0x40 MLOAD PUSH1 0x1 PUSH1 0x1 PUSH1 0xE0 SHL SUB NOT PUSH1 0xE0 DUP5 SWAP1 SHL AND DUP2 MSTORE PUSH1 0x1 PUSH1 0x1 PUSH1 0xA0 SHL SUB SWAP1 SWAP2 AND PUSH1 0x4 DUP3 ADD MSTORE ADDRESS PUSH1 0x24 DUP3 ADD MSTORE PUSH1 0x44 ADD PUSH1 0x20 PUSH1 0x40 MLOAD DUP1 DUP4 SUB DUP2 DUP7 GAS STATICCALL ISZERO DUP1 ISZERO PUSH2 0x302 JUMPI RETURNDATASIZE PUSH1 0x0 DUP1 RETURNDATACOPY RETURNDATASIZE PUSH1 0x0 REVERT JUMPDEST POP POP POP POP PUSH1 0x40 MLOAD RETURNDATASIZE PUSH1 0x1F NOT PUSH1 0x1F DUP3 ADD AND DUP3 ADD DUP1 PUSH1 0x40 MSTORE POP DUP2 ADD SWAP1 PUSH2 0x326 SWAP2 SWAP1 PUSH2 0x14F5 JUMP JUMPDEST LT ISZERO PUSH2 0x383 JUMPI PUSH1 0x40 MLOAD PUSH3 0x461BCD PUSH1 0xE5 SHL DUP2 MSTORE PUSH1 0x20 PUSH1 0x4 DUP3 ADD MSTORE PUSH1 0x21 PUSH1 0x24 DUP3 ADD MSTORE PUSH32 0x4E6F7420656E6F75676820616C6C6F77616E636520746F207769746864726177 PUSH1 0x44 DUP3 ADD MSTORE PUSH1 0x17 PUSH1 0xF9 SHL PUSH1 0x64 DUP3 ADD MSTORE PUSH1 0x84 ADD JUMPDEST PUSH1 0x40 MLOAD DUP1 SWAP2 SUB SWAP1 REVERT JUMPDEST PUSH5 0x12A05F200 PUSH32 0x0 PUSH1 0x1 PUSH1 0x1 PUSH1 0xA0 SHL SUB AND PUSH4 0x70A08231 PUSH2 0x3D0 PUSH1 0x0 SLOAD PUSH1 0x1 PUSH1 0x1 PUSH1 0xA0 SHL SUB PUSH2 0x100 SWAP1 SWAP2 DIV AND SWAP1 JUMP JUMPDEST PUSH1 0x40 MLOAD PUSH1 0x1 PUSH1 0x1 PUSH1 0xE0 SHL SUB NOT PUSH1 0xE0 DUP5 SWAP1 SHL AND DUP2 MSTORE PUSH1 0x1 PUSH1 0x1 PUSH1 0xA0 SHL SUB SWAP1 SWAP2 AND PUSH1 0x4 DUP3 ADD MSTORE PUSH1 0x24 ADD PUSH1 0x20 PUSH1 0x40 MLOAD DUP1 DUP4 SUB DUP2 DUP7 GAS STATICCALL ISZERO DUP1 ISZERO PUSH2 0x414 JUMPI RETURNDATASIZE PUSH1 0x0 DUP1 RETURNDATACOPY RETURNDATASIZE PUSH1 0x0 REVERT JUMPDEST POP POP POP POP PUSH1 0x40 MLOAD RETURNDATASIZE PUSH1 0x1F NOT PUSH1 0x1F DUP3 ADD AND DUP3 ADD DUP1 PUSH1 0x40 MSTORE POP DUP2 ADD SWAP1 PUSH2 0x438 SWAP2 SWAP1 PUSH2 0x14F5 JUMP JUMPDEST LT ISZERO PUSH2 0x486 JUMPI PUSH1 0x40 MLOAD PUSH3 0x461BCD PUSH1 0xE5 SHL DUP2 MSTORE PUSH1 0x20 PUSH1 0x4 DUP3 ADD MSTORE PUSH1 0x1D PUSH1 0x24 DUP3 ADD MSTORE PUSH32 0x4E6F7420656E6F7567682066756E647320746F2077697468647261772E000000 PUSH1 0x44 DUP3 ADD MSTORE PUSH1 0x64 ADD PUSH2 0x37A JUMP JUMPDEST PUSH1 0x0 PUSH1 0x1 DUP1 SLOAD DUP1 PUSH1 0x20 MUL PUSH1 0x20 ADD PUSH1 0x40 MLOAD SWAP1 DUP2 ADD PUSH1 0x40 MSTORE DUP1 SWAP3 SWAP2 SWAP1 DUP2 DUP2 MSTORE PUSH1 0x20 ADD PUSH1 0x0 SWAP1 JUMPDEST DUP3 DUP3 LT ISZERO PUSH2 0x539 JUMPI PUSH1 0x0 DUP5 DUP2 MSTORE PUSH1 0x20 SWAP1 DUP2 SWAP1 KECCAK256 PUSH1 0x40 DUP1 MLOAD PUSH1 0xC0 DUP2 ADD DUP3 MSTORE SWAP2 DUP6 ADD SLOAD PUSH2 0xFFFF DUP2 AND DUP4 MSTORE PUSH1 0x1 PUSH1 0x1 PUSH1 0xA0 SHL SUB PUSH3 0x10000 DUP3 DIV AND DUP4 DUP6 ADD MSTORE PUSH4 0xFFFFFFFF PUSH1 0x1 PUSH1 0xB0 SHL DUP3 DIV DUP2 AND SWAP3 DUP5 ADD SWAP3 SWAP1 SWAP3 MSTORE PUSH1 0x1 PUSH1 0xD0 SHL DUP2 DIV SWAP1 SWAP2 AND PUSH1 0x60 DUP4 ADD MSTORE PUSH1 0xFF PUSH1 0x1 PUSH1 0xF0 SHL DUP3 DIV DUP2 AND ISZERO ISZERO PUSH1 0x80 DUP5 ADD MSTORE PUSH1 0x1 PUSH1 0xF8 SHL SWAP1 SWAP2 DIV AND ISZERO ISZERO PUSH1 0xA0 DUP3 ADD MSTORE DUP3 MSTORE PUSH1 0x1 SWAP1 SWAP3 ADD SWAP2 ADD PUSH2 0x4AA JUMP JUMPDEST POP POP POP POP SWAP1 POP PUSH1 0x0 PUSH2 0x54B DUP3 DUP5 PUSH2 0x105F JUMP JUMPDEST SWAP1 POP PUSH1 0x0 DUP3 DUP3 DUP2 MLOAD DUP2 LT PUSH2 0x561 JUMPI PUSH2 0x561 PUSH2 0x150E JUMP JUMPDEST PUSH1 0x20 MUL PUSH1 0x20 ADD ADD MLOAD SWAP1 POP PUSH1 0x0 PUSH2 0x59D PUSH2 0x58E DUP4 PUSH1 0x40 ADD MLOAD PUSH4 0xFFFFFFFF AND TIMESTAMP PUSH2 0x589 SWAP2 SWAP1 PUSH2 0x153A JUMP JUMPDEST PUSH2 0x10C9 JUMP JUMPDEST DUP4 PUSH1 0x80 ADD MLOAD DUP5 PUSH1 0xA0 ADD MLOAD PUSH2 0xE79 JUMP JUMPDEST PUSH2 0x5AC SWAP1 PUSH5 0x12A05F200 PUSH2 0x154D JUMP JUMPDEST SWAP1 POP DUP4 PUSH1 0x1 DUP6 MLOAD PUSH2 0x5BD SWAP2 SWAP1 PUSH2 0x153A JUMP JUMPDEST DUP2 MLOAD DUP2 LT PUSH2 0x5CD JUMPI PUSH2 0x5CD PUSH2 0x150E JUMP JUMPDEST PUSH1 0x20 MUL PUSH1 0x20 ADD ADD MLOAD PUSH1 0x1 DUP5 DUP2 SLOAD DUP2 LT PUSH2 0x5E8 JUMPI PUSH2 0x5E8 PUSH2 0x150E JUMP JUMPDEST PUSH1 0x0 SWAP2 DUP3 MSTORE PUSH1 0x20 SWAP2 DUP3 SWAP1 KECCAK256 DUP4 MLOAD SWAP2 ADD DUP1 SLOAD SWAP3 DUP5 ADD MLOAD PUSH1 0x40 DUP6 ADD MLOAD PUSH1 0x60 DUP7 ADD MLOAD PUSH1 0x80 DUP8 ADD MLOAD PUSH1 0xA0 SWAP1 SWAP8 ADD MLOAD PUSH2 0xFFFF SWAP1 SWAP6 AND PUSH1 0x1 PUSH1 0x1 PUSH1 0xB0 SHL SUB NOT SWAP1 SWAP7 AND SWAP6 SWAP1 SWAP6 OR PUSH3 0x10000 PUSH1 0x1 PUSH1 0x1 PUSH1 0xA0 SHL SUB SWAP1 SWAP4 AND SWAP3 SWAP1 SWAP3 MUL SWAP2 SWAP1 SWAP2 OR PUSH8 0xFFFFFFFFFFFFFFFF PUSH1 0xB0 SHL NOT AND PUSH1 0x1 PUSH1 0xB0 SHL PUSH4 0xFFFFFFFF SWAP3 DUP4 AND MUL PUSH4 0xFFFFFFFF PUSH1 0xD0 SHL NOT AND OR PUSH1 0x1 PUSH1 0xD0 SHL SWAP2 SWAP1 SWAP5 AND MUL SWAP3 SWAP1 SWAP3 OR PUSH1 0x1 PUSH1 0x1 PUSH1 0xF0 SHL SUB AND PUSH1 0x1 PUSH1 0xF0 SHL SWAP4 ISZERO ISZERO SWAP4 SWAP1 SWAP4 MUL PUSH1 0x1 PUSH1 0x1 PUSH1 0xF8 SHL SUB AND SWAP3 SWAP1 SWAP3 OR PUSH1 0x1 PUSH1 0xF8 SHL SWAP3 ISZERO ISZERO SWAP3 SWAP1 SWAP3 MUL SWAP2 SWAP1 SWAP2 OR SWAP1 SSTORE PUSH1 0x1 DUP1 SLOAD DUP1 PUSH2 0x6B9 JUMPI PUSH2 0x6B9 PUSH2 0x1560 JUMP JUMPDEST PUSH1 0x0 DUP3 DUP2 MSTORE PUSH1 0x20 DUP2 KECCAK256 DUP3 ADD PUSH1 0x0 NOT SWAP1 DUP2 ADD SWAP2 SWAP1 SWAP2 SSTORE ADD SWAP1 SSTORE PUSH32 0x0 PUSH1 0x1 PUSH1 0x1 PUSH1 0xA0 SHL SUB AND PUSH4 0x23B872DD PUSH2 0x718 PUSH1 0x0 SLOAD PUSH1 0x1 PUSH1 0x1 PUSH1 0xA0 SHL SUB PUSH2 0x100 SWAP1 SWAP2 DIV AND SWAP1 JUMP JUMPDEST PUSH1 0x20 DUP6 ADD MLOAD PUSH1 0x40 MLOAD PUSH1 0x1 PUSH1 0x1 PUSH1 0xE0 SHL SUB NOT PUSH1 0xE0 DUP6 SWAP1 SHL AND DUP2 MSTORE PUSH1 0x1 PUSH1 0x1 PUSH1 0xA0 SHL SUB SWAP3 DUP4 AND PUSH1 0x4 DUP3 ADD MSTORE SWAP2 AND PUSH1 0x24 DUP3 ADD MSTORE PUSH1 0x44 DUP2 ADD DUP5 SWAP1 MSTORE PUSH1 0x64 ADD PUSH1 0x20 PUSH1 0x40 MLOAD DUP1 DUP4 SUB DUP2 PUSH1 0x0 DUP8 GAS CALL ISZERO DUP1 ISZERO PUSH2 0x771 JUMPI RETURNDATASIZE PUSH1 0x0 DUP1 RETURNDATACOPY RETURNDATASIZE PUSH1 0x0 REVERT JUMPDEST POP POP POP POP PUSH1 0x40 MLOAD RETURNDATASIZE PUSH1 0x1F NOT PUSH1 0x1F DUP3 ADD AND DUP3 ADD DUP1 PUSH1 0x40 MSTORE POP DUP2 ADD SWAP1 PUSH2 0x795 SWAP2 SWAP1 PUSH2 0x1576 JUMP JUMPDEST POP PUSH1 0x40 DUP1 MLOAD DUP7 DUP2 MSTORE PUSH1 0x20 DUP2 ADD DUP4 SWAP1 MSTORE PUSH32 0x676B8D9BCE8758F26A3F18F775D02412A1B90F11055AE15F21C0F43B68CE5961 SWAP2 ADD PUSH1 0x40 MLOAD DUP1 SWAP2 SUB SWAP1 LOG1 POP POP POP POP POP JUMP JUMPDEST PUSH2 0x7DE PUSH2 0xFB9 JUMP JUMPDEST PUSH1 0x40 MLOAD PUSH1 0x1 PUSH1 0x1 PUSH1 0xA0 SHL SUB DUP3 AND DUP2 MSTORE PUSH32 0x9252F673A302383D6D82C79D6D2D359EF0EB704B0F92F240BF386DB0327998F7 SWAP1 PUSH1 0x20 ADD PUSH1 0x40 MLOAD DUP1 SWAP2 SUB SWAP1 LOG1 POP JUMP JUMPDEST PUSH2 0x825 PUSH2 0xFB9 JUMP JUMPDEST PUSH2 0x82D PUSH2 0x1019 JUMP JUMPDEST PUSH1 0x1 SLOAD PUSH1 0x64 GT PUSH2 0x875 JUMPI PUSH1 0x40 MLOAD PUSH3 0x461BCD PUSH1 0xE5 SHL DUP2 MSTORE PUSH1 0x20 PUSH1 0x4 DUP3 ADD MSTORE PUSH1 0x13 PUSH1 0x24 DUP3 ADD MSTORE PUSH19 0x27379039B637BA399030BB30B4B630B1363297 PUSH1 0x69 SHL PUSH1 0x44 DUP3 ADD MSTORE PUSH1 0x64 ADD PUSH2 0x37A JUMP JUMPDEST PUSH1 0x40 MLOAD PUSH4 0x6EB1769F PUSH1 0xE1 SHL DUP2 MSTORE PUSH1 0x1 PUSH1 0x1 PUSH1 0xA0 SHL SUB DUP4 DUP2 AND PUSH1 0x4 DUP4 ADD MSTORE ADDRESS PUSH1 0x24 DUP4 ADD MSTORE PUSH5 0x12A05F200 SWAP2 PUSH32 0x0 SWAP1 SWAP2 AND SWAP1 PUSH4 0xDD62ED3E SWAP1 PUSH1 0x44 ADD PUSH1 0x20 PUSH1 0x40 MLOAD DUP1 DUP4 SUB DUP2 DUP7 GAS STATICCALL ISZERO DUP1 ISZERO PUSH2 0x8EA JUMPI RETURNDATASIZE PUSH1 0x0 DUP1 RETURNDATACOPY RETURNDATASIZE PUSH1 0x0 REVERT JUMPDEST POP POP POP POP PUSH1 0x40 MLOAD RETURNDATASIZE PUSH1 0x1F NOT PUSH1 0x1F DUP3 ADD AND DUP3 ADD DUP1 PUSH1 0x40 MSTORE POP DUP2 ADD SWAP1 PUSH2 0x90E SWAP2 SWAP1 PUSH2 0x14F5 JUMP JUMPDEST LT ISZERO PUSH2 0x954 JUMPI PUSH1 0x40 MLOAD PUSH3 0x461BCD PUSH1 0xE5 SHL DUP2 MSTORE PUSH1 0x20 PUSH1 0x4 DUP3 ADD MSTORE PUSH1 0x15 PUSH1 0x24 DUP3 ADD MSTORE PUSH21 0x2737BA1032B737BAB3B41030B63637BBB0B731B297 PUSH1 0x59 SHL PUSH1 0x44 DUP3 ADD MSTORE PUSH1 0x64 ADD PUSH2 0x37A JUMP JUMPDEST PUSH1 0x40 MLOAD PUSH4 0x70A08231 PUSH1 0xE0 SHL DUP2 MSTORE PUSH1 0x1 PUSH1 0x1 PUSH1 0xA0 SHL SUB DUP4 DUP2 AND PUSH1 0x4 DUP4 ADD MSTORE PUSH5 0x12A05F200 SWAP2 PUSH32 0x0 SWAP1 SWAP2 AND SWAP1 PUSH4 0x70A08231 SWAP1 PUSH1 0x24 ADD PUSH1 0x20 PUSH1 0x40 MLOAD DUP1 DUP4 SUB DUP2 DUP7 GAS STATICCALL ISZERO DUP1 ISZERO PUSH2 0x9C3 JUMPI RETURNDATASIZE PUSH1 0x0 DUP1 RETURNDATACOPY RETURNDATASIZE PUSH1 0x0 REVERT JUMPDEST POP POP POP POP PUSH1 0x40 MLOAD RETURNDATASIZE PUSH1 0x1F NOT PUSH1 0x1F DUP3 ADD AND DUP3 ADD DUP1 PUSH1 0x40 MSTORE POP DUP2 ADD SWAP1 PUSH2 0x9E7 SWAP2 SWAP1 PUSH2 0x14F5 JUMP JUMPDEST LT ISZERO PUSH2 0xA2B JUMPI PUSH1 0x40 MLOAD PUSH3 0x461BCD PUSH1 0xE5 SHL DUP2 MSTORE PUSH1 0x20 PUSH1 0x4 DUP3 ADD MSTORE PUSH1 0x13 PUSH1 0x24 DUP3 ADD MSTORE PUSH19 0x2737BA1032B737BAB3B4103130B630B731B297 PUSH1 0x69 SHL PUSH1 0x44 DUP3 ADD MSTORE PUSH1 0x64 ADD PUSH2 0x37A JUMP JUMPDEST PUSH1 0x0 DUP1 SLOAD PUSH1 0x1 PUSH2 0xFFFF PUSH1 0x1 PUSH1 0xB0 SHL DUP1 DUP5 DIV DUP3 AND SWAP3 SWAP1 SWAP3 ADD DUP2 AND DUP3 MUL PUSH2 0xFFFF PUSH1 0xB0 SHL NOT SWAP1 SWAP4 AND SWAP3 SWAP1 SWAP3 OR DUP1 DUP5 SSTORE DIV AND SWAP1 POP PUSH1 0x1 PUSH1 0x40 MLOAD DUP1 PUSH1 0xC0 ADD PUSH1 0x40 MSTORE DUP1 DUP4 PUSH2 0xFFFF AND DUP2 MSTORE PUSH1 0x20 ADD DUP6 PUSH1 0x1 PUSH1 0x1 PUSH1 0xA0 SHL SUB AND DUP2 MSTORE PUSH1 0x20 ADD TIMESTAMP PUSH4 0xFFFFFFFF AND DUP2 MSTORE PUSH1 0x20 ADD DUP5 PUSH4 0xFFFFFFFF AND DUP2 MSTORE PUSH1 0x20 ADD PUSH2 0xAA1 PUSH2 0x10D8 JUMP JUMPDEST ISZERO ISZERO DUP2 MSTORE PUSH1 0x0 PUSH1 0x20 SWAP2 DUP3 ADD DUP2 SWAP1 MSTORE DUP4 SLOAD PUSH1 0x1 DUP2 ADD DUP6 SSTORE SWAP4 DUP2 MSTORE DUP2 DUP2 KECCAK256 DUP4 MLOAD SWAP5 ADD DUP1 SLOAD SWAP3 DUP5 ADD MLOAD PUSH1 0x40 DUP6 ADD MLOAD PUSH1 0x60 DUP7 ADD MLOAD PUSH1 0x80 DUP8 ADD MLOAD PUSH1 0xA0 SWAP1 SWAP8 ADD MLOAD PUSH2 0xFFFF SWAP1 SWAP9 AND PUSH1 0x1 PUSH1 0x1 PUSH1 0xB0 SHL SUB NOT SWAP1 SWAP7 AND SWAP6 SWAP1 SWAP6 OR PUSH3 0x10000 PUSH1 0x1 PUSH1 0x1 PUSH1 0xA0 SHL SUB SWAP4 DUP5 AND MUL OR PUSH8 0xFFFFFFFFFFFFFFFF PUSH1 0xB0 SHL NOT AND PUSH1 0x1 PUSH1 0xB0 SHL PUSH4 0xFFFFFFFF SWAP3 DUP4 AND MUL PUSH4 0xFFFFFFFF PUSH1 0xD0 SHL NOT AND OR PUSH1 0x1 PUSH1 0xD0 SHL SWAP2 SWAP1 SWAP6 AND MUL SWAP4 SWAP1 SWAP4 OR PUSH1 0x1 PUSH1 0x1 PUSH1 0xF0 SHL SUB AND PUSH1 0x1 PUSH1 0xF0 SHL SWAP5 ISZERO ISZERO SWAP5 SWAP1 SWAP5 MUL PUSH1 0x1 PUSH1 0x1 PUSH1 0xF8 SHL SUB AND SWAP4 SWAP1 SWAP4 OR PUSH1 0x1 PUSH1 0xF8 SHL SWAP5 ISZERO ISZERO SWAP5 SWAP1 SWAP5 MUL SWAP4 SWAP1 SWAP4 OR SWAP1 SWAP2 SSTORE SWAP1 SLOAD PUSH32 0x0 DUP3 AND SWAP2 PUSH4 0x23B872DD SWAP2 DUP7 SWAP2 PUSH2 0x100 SWAP1 SWAP2 DIV AND PUSH1 0x40 MLOAD PUSH1 0x1 PUSH1 0x1 PUSH1 0xE0 SHL SUB NOT PUSH1 0xE0 DUP6 SWAP1 SHL AND DUP2 MSTORE PUSH1 0x1 PUSH1 0x1 PUSH1 0xA0 SHL SUB SWAP3 DUP4 AND PUSH1 0x4 DUP3 ADD MSTORE SWAP2 AND PUSH1 0x24 DUP3 ADD MSTORE PUSH5 0x12A05F200 PUSH1 0x44 DUP3 ADD MSTORE PUSH1 0x64 ADD PUSH1 0x20 PUSH1 0x40 MLOAD DUP1 DUP4 SUB DUP2 PUSH1 0x0 DUP8 GAS CALL ISZERO DUP1 ISZERO PUSH2 0xBFA JUMPI RETURNDATASIZE PUSH1 0x0 DUP1 RETURNDATACOPY RETURNDATASIZE PUSH1 0x0 REVERT JUMPDEST POP POP POP POP PUSH1 0x40 MLOAD RETURNDATASIZE PUSH1 0x1F NOT PUSH1 0x1F DUP3 ADD AND DUP3 ADD DUP1 PUSH1 0x40 MSTORE POP DUP2 ADD SWAP1 PUSH2 0xC1E SWAP2 SWAP1 PUSH2 0x1576 JUMP JUMPDEST POP PUSH1 0x40 DUP1 MLOAD PUSH1 0x1 PUSH1 0x1 PUSH1 0xA0 SHL SUB DUP6 AND DUP2 MSTORE PUSH2 0xFFFF DUP4 AND PUSH1 0x20 DUP3 ADD MSTORE PUSH32 0x79000773AC921E1702F7F3D9D7416DFE1F2B07606EE63066874AC05A6A42973E SWAP2 ADD PUSH1 0x40 MLOAD DUP1 SWAP2 SUB SWAP1 LOG1 POP POP POP JUMP JUMPDEST PUSH2 0xC71 PUSH2 0xFB9 JUMP JUMPDEST PUSH2 0xC79 PUSH2 0x111C JUMP JUMPDEST JUMP JUMPDEST PUSH1 0x1 SLOAD PUSH1 0x0 SWAP1 PUSH2 0xC8C SWAP1 PUSH1 0x64 PUSH2 0x153A JUMP JUMPDEST SWAP1 POP SWAP1 JUMP JUMPDEST PUSH2 0xC99 PUSH2 0xFB9 JUMP JUMPDEST PUSH2 0xC79 PUSH1 0x0 PUSH2 0x116E JUMP JUMPDEST PUSH2 0xCAB PUSH2 0xFB9 JUMP JUMPDEST PUSH2 0xC79 PUSH2 0x11C7 JUMP JUMPDEST PUSH2 0xCBB PUSH2 0x1019 JUMP JUMPDEST PUSH1 0x0 PUSH2 0xCC6 DUP3 PUSH2 0x1204 JUMP JUMPDEST SWAP1 POP PUSH1 0x0 PUSH2 0xCF1 DUP3 PUSH1 0x40 ADD MLOAD PUSH4 0xFFFFFFFF AND TIMESTAMP PUSH3 0x93A80 PUSH2 0xCE7 SWAP2 SWAP1 PUSH2 0x154D JUMP JUMPDEST PUSH2 0x589 SWAP2 SWAP1 PUSH2 0x153A JUMP JUMPDEST SWAP1 POP PUSH1 0x0 PUSH2 0xD08 DUP3 DUP5 PUSH1 0x80 ADD MLOAD DUP6 PUSH1 0xA0 ADD MLOAD PUSH2 0xE79 JUMP JUMPDEST SWAP1 POP PUSH32 0x622EC52892A9917A9F66BD872232D3BEA677DB12565DD6DA5F4BFC14607EC1D7 DUP5 PUSH2 0xD3B DUP4 PUSH5 0x12A05F200 PUSH2 0x154D JUMP JUMPDEST PUSH1 0x40 DUP1 MLOAD SWAP3 DUP4 MSTORE PUSH1 0x20 DUP4 ADD SWAP2 SWAP1 SWAP2 MSTORE ADD PUSH1 0x40 MLOAD DUP1 SWAP2 SUB SWAP1 LOG1 POP POP POP POP JUMP JUMPDEST PUSH1 0x60 PUSH1 0x1 DUP1 SLOAD DUP1 PUSH1 0x20 MUL PUSH1 0x20 ADD PUSH1 0x40 MLOAD SWAP1 DUP2 ADD PUSH1 0x40 MSTORE DUP1 SWAP3 SWAP2 SWAP1 DUP2 DUP2 MSTORE PUSH1 0x20 ADD PUSH1 0x0 SWAP1 JUMPDEST DUP3 DUP3 LT ISZERO PUSH2 0xE0C JUMPI PUSH1 0x0 DUP5 DUP2 MSTORE PUSH1 0x20 SWAP1 DUP2 SWAP1 KECCAK256 PUSH1 0x40 DUP1 MLOAD PUSH1 0xC0 DUP2 ADD DUP3 MSTORE SWAP2 DUP6 ADD SLOAD PUSH2 0xFFFF DUP2 AND DUP4 MSTORE PUSH1 0x1 PUSH1 0x1 PUSH1 0xA0 SHL SUB PUSH3 0x10000 DUP3 DIV AND DUP4 DUP6 ADD MSTORE PUSH4 0xFFFFFFFF PUSH1 0x1 PUSH1 0xB0 SHL DUP3 DIV DUP2 AND SWAP3 DUP5 ADD SWAP3 SWAP1 SWAP3 MSTORE PUSH1 0x1 PUSH1 0xD0 SHL DUP2 DIV SWAP1 SWAP2 AND PUSH1 0x60 DUP4 ADD MSTORE PUSH1 0xFF PUSH1 0x1 PUSH1 0xF0 SHL DUP3 DIV DUP2 AND ISZERO ISZERO PUSH1 0x80 DUP5 ADD MSTORE PUSH1 0x1 PUSH1 0xF8 SHL SWAP1 SWAP2 DIV AND ISZERO ISZERO PUSH1 0xA0 DUP3 ADD MSTORE DUP3 MSTORE PUSH1 0x1 SWAP1 SWAP3 ADD SWAP2 ADD PUSH2 0xD7D JUMP JUMPDEST POP POP POP POP SWAP1 POP SWAP1 JUMP JUMPDEST PUSH1 0x1 DUP2 DUP2 SLOAD DUP2 LT PUSH2 0xE25 JUMPI PUSH1 0x0 DUP1 REVERT JUMPDEST PUSH1 0x0 SWAP2 DUP3 MSTORE PUSH1 0x20 SWAP1 SWAP2 KECCAK256 ADD SLOAD PUSH2 0xFFFF DUP2 AND SWAP2 POP PUSH1 0x1 PUSH1 0x1 PUSH1 0xA0 SHL SUB PUSH3 0x10000 DUP3 DIV AND SWAP1 PUSH4 0xFFFFFFFF PUSH1 0x1 PUSH1 0xB0 SHL DUP3 DIV DUP2 AND SWAP2 PUSH1 0x1 PUSH1 0xD0 SHL DUP2 DIV SWAP1 SWAP2 AND SWAP1 PUSH1 0xFF PUSH1 0x1 PUSH1 0xF0 SHL DUP3 DIV DUP2 AND SWAP2 PUSH1 0x1 PUSH1 0xF8 SHL SWAP1 DIV AND DUP7 JUMP JUMPDEST PUSH1 0x0 DUP1 PUSH1 0xB4 DUP6 GT PUSH2 0xE8E JUMPI PUSH1 0x0 SWAP2 POP POP PUSH2 0xF39 JUMP JUMPDEST PUSH2 0x16D DUP6 GT PUSH2 0xE9F JUMPI POP PUSH1 0x5 PUSH2 0xEEC JUMP JUMPDEST PUSH2 0x2DA DUP6 GT PUSH2 0xEB0 JUMPI POP PUSH1 0x5 PUSH2 0xEEC JUMP JUMPDEST PUSH2 0x447 DUP6 GT PUSH2 0xEC1 JUMPI POP PUSH1 0x6 PUSH2 0xEEC JUMP JUMPDEST PUSH2 0x5B4 DUP6 GT PUSH2 0xED2 JUMPI POP PUSH1 0x7 PUSH2 0xEEC JUMP JUMPDEST PUSH2 0x721 DUP6 GT PUSH2 0xEE3 JUMPI POP PUSH1 0x8 PUSH2 0xEEC JUMP JUMPDEST POP PUSH2 0x721 SWAP4 POP PUSH1 0x9 JUMPDEST DUP4 ISZERO PUSH2 0xEF6 JUMPI PUSH1 0x1 ADD JUMPDEST DUP3 DUP1 ISZERO PUSH2 0xF05 JUMPI POP PUSH2 0x16D DUP6 LT ISZERO JUMPDEST ISZERO PUSH2 0xF0E JUMPI PUSH1 0x1 ADD JUMPDEST PUSH2 0x8E94 DUP6 PUSH2 0xF21 DUP4 PUSH5 0x12A05F200 PUSH2 0x1593 JUMP JUMPDEST PUSH2 0xF2B SWAP2 SWAP1 PUSH2 0x1593 JUMP JUMPDEST PUSH2 0xF35 SWAP2 SWAP1 PUSH2 0x15AA JUMP JUMPDEST SWAP2 POP POP JUMPDEST SWAP4 SWAP3 POP POP POP JUMP JUMPDEST PUSH2 0xF48 PUSH2 0xFB9 JUMP JUMPDEST PUSH1 0x1 PUSH1 0x1 PUSH1 0xA0 SHL SUB DUP2 AND PUSH2 0xFAD JUMPI PUSH1 0x40 MLOAD PUSH3 0x461BCD PUSH1 0xE5 SHL DUP2 MSTORE PUSH1 0x20 PUSH1 0x4 DUP3 ADD MSTORE PUSH1 0x26 PUSH1 0x24 DUP3 ADD MSTORE PUSH32 0x4F776E61626C653A206E6577206F776E657220697320746865207A65726F2061 PUSH1 0x44 DUP3 ADD MSTORE PUSH6 0x646472657373 PUSH1 0xD0 SHL PUSH1 0x64 DUP3 ADD MSTORE PUSH1 0x84 ADD PUSH2 0x37A JUMP JUMPDEST PUSH2 0xFB6 DUP2 PUSH2 0x116E JUMP JUMPDEST POP JUMP JUMPDEST PUSH1 0x0 SLOAD PUSH1 0x1 PUSH1 0x1 PUSH1 0xA0 SHL SUB PUSH2 0x100 SWAP1 SWAP2 DIV AND CALLER EQ PUSH2 0xC79 JUMPI PUSH1 0x40 MLOAD PUSH3 0x461BCD PUSH1 0xE5 SHL DUP2 MSTORE PUSH1 0x20 PUSH1 0x4 DUP3 ADD DUP2 SWAP1 MSTORE PUSH1 0x24 DUP3 ADD MSTORE PUSH32 0x4F776E61626C653A2063616C6C6572206973206E6F7420746865206F776E6572 PUSH1 0x44 DUP3 ADD MSTORE PUSH1 0x64 ADD PUSH2 0x37A JUMP JUMPDEST PUSH1 0x0 SLOAD PUSH1 0xFF AND ISZERO PUSH2 0xC79 JUMPI PUSH1 0x40 MLOAD PUSH3 0x461BCD PUSH1 0xE5 SHL DUP2 MSTORE PUSH1 0x20 PUSH1 0x4 DUP3 ADD MSTORE PUSH1 0x10 PUSH1 0x24 DUP3 ADD MSTORE PUSH16 0x14185D5CD8589B194E881C185D5CD959 PUSH1 0x82 SHL PUSH1 0x44 DUP3 ADD MSTORE PUSH1 0x64 ADD PUSH2 0x37A JUMP JUMPDEST PUSH1 0x0 DUP3 DUP2 JUMPDEST DUP2 MLOAD DUP2 LT ISZERO PUSH2 0x10A6 JUMPI DUP4 DUP3 DUP3 DUP2 MLOAD DUP2 LT PUSH2 0x1080 JUMPI PUSH2 0x1080 PUSH2 0x150E JUMP JUMPDEST PUSH1 0x20 MUL PUSH1 0x20 ADD ADD MLOAD PUSH1 0x0 ADD MLOAD PUSH2 0xFFFF AND SUB PUSH2 0x109E JUMPI SWAP2 POP PUSH2 0x10C3 SWAP1 POP JUMP JUMPDEST PUSH1 0x1 ADD PUSH2 0x1064 JUMP JUMPDEST POP PUSH1 0x40 MLOAD PUSH4 0x1585BDAB PUSH1 0xE3 SHL DUP2 MSTORE PUSH1 0x4 DUP2 ADD DUP5 SWAP1 MSTORE PUSH1 0x24 ADD PUSH2 0x37A JUMP JUMPDEST SWAP3 SWAP2 POP POP JUMP JUMPDEST PUSH1 0x0 PUSH2 0x10C3 PUSH3 0x15180 DUP4 PUSH2 0x15AA JUMP JUMPDEST PUSH1 0x0 DUP1 SLOAD PUSH1 0x1 PUSH1 0xA8 SHL SWAP1 DIV PUSH1 0xFF AND ISZERO PUSH2 0x1116 JUMPI POP PUSH1 0x0 DUP1 SLOAD PUSH1 0x0 NOT PUSH1 0xFF PUSH1 0x1 PUSH1 0xA8 SHL DUP1 DUP5 DIV DUP3 AND SWAP3 SWAP1 SWAP3 ADD AND MUL PUSH1 0xFF PUSH1 0xA8 SHL NOT SWAP1 SWAP2 AND OR SWAP1 SSTORE PUSH1 0x1 SWAP1 JUMP JUMPDEST POP PUSH1 0x0 SWAP1 JUMP JUMPDEST PUSH2 0x1124 PUSH2 0x134E JUMP JUMPDEST PUSH1 0x0 DUP1 SLOAD PUSH1 0xFF NOT AND SWAP1 SSTORE PUSH32 0x5DB9EE0A495BF2E6FF9C91A7834C1BA4FDD244A5E8AA4E537BD38AEAE4B073AA CALLER JUMPDEST PUSH1 0x40 MLOAD PUSH1 0x1 PUSH1 0x1 PUSH1 0xA0 SHL SUB SWAP1 SWAP2 AND DUP2 MSTORE PUSH1 0x20 ADD PUSH1 0x40 MLOAD DUP1 SWAP2 SUB SWAP1 LOG1 JUMP JUMPDEST PUSH1 0x0 DUP1 SLOAD PUSH1 0x1 PUSH1 0x1 PUSH1 0xA0 SHL SUB DUP4 DUP2 AND PUSH2 0x100 DUP2 DUP2 MUL PUSH2 0x100 PUSH1 0x1 PUSH1 0xA8 SHL SUB NOT DUP6 AND OR DUP6 SSTORE PUSH1 0x40 MLOAD SWAP4 DIV SWAP2 SWAP1 SWAP2 AND SWAP3 SWAP1 SWAP2 DUP4 SWAP2 PUSH32 0x8BE0079C531659141344CD1FD0A4F28419497F9722A3DAAFE3B4186F6B6457E0 SWAP2 LOG3 POP POP JUMP JUMPDEST PUSH2 0x11CF PUSH2 0x1019 JUMP JUMPDEST PUSH1 0x0 DUP1 SLOAD PUSH1 0xFF NOT AND PUSH1 0x1 OR SWAP1 SSTORE PUSH32 0x62E78CEA01BEE320CD4E420270B5EA74000D11B0C9F74754EBDBFC544B05A258 PUSH2 0x1151 CALLER SWAP1 JUMP JUMPDEST PUSH1 0x40 DUP1 MLOAD PUSH1 0xC0 DUP2 ADD DUP3 MSTORE PUSH1 0x0 DUP1 DUP3 MSTORE PUSH1 0x20 DUP3 ADD DUP2 SWAP1 MSTORE SWAP2 DUP2 ADD DUP3 SWAP1 MSTORE PUSH1 0x60 DUP2 ADD DUP3 SWAP1 MSTORE PUSH1 0x80 DUP2 ADD DUP3 SWAP1 MSTORE PUSH1 0xA0 DUP2 ADD SWAP2 SWAP1 SWAP2 MSTORE PUSH1 0x0 PUSH1 0x1 DUP1 SLOAD DUP1 PUSH1 0x20 MUL PUSH1 0x20 ADD PUSH1 0x40 MLOAD SWAP1 DUP2 ADD PUSH1 0x40 MSTORE DUP1 SWAP3 SWAP2 SWAP1 DUP2 DUP2 MSTORE PUSH1 0x20 ADD PUSH1 0x0 SWAP1 JUMPDEST DUP3 DUP3 LT ISZERO PUSH2 0x12E9 JUMPI PUSH1 0x0 DUP5 DUP2 MSTORE PUSH1 0x20 SWAP1 DUP2 SWAP1 KECCAK256 PUSH1 0x40 DUP1 MLOAD PUSH1 0xC0 DUP2 ADD DUP3 MSTORE SWAP2 DUP6 ADD SLOAD PUSH2 0xFFFF DUP2 AND DUP4 MSTORE PUSH1 0x1 PUSH1 0x1 PUSH1 0xA0 SHL SUB PUSH3 0x10000 DUP3 DIV AND DUP4 DUP6 ADD MSTORE PUSH4 0xFFFFFFFF PUSH1 0x1 PUSH1 0xB0 SHL DUP3 DIV DUP2 AND SWAP3 DUP5 ADD SWAP3 SWAP1 SWAP3 MSTORE PUSH1 0x1 PUSH1 0xD0 SHL DUP2 DIV SWAP1 SWAP2 AND PUSH1 0x60 DUP4 ADD MSTORE PUSH1 0xFF PUSH1 0x1 PUSH1 0xF0 SHL DUP3 DIV DUP2 AND ISZERO ISZERO PUSH1 0x80 DUP5 ADD MSTORE PUSH1 0x1 PUSH1 0xF8 SHL SWAP1 SWAP2 DIV AND ISZERO ISZERO PUSH1 0xA0 DUP3 ADD MSTORE DUP3 MSTORE PUSH1 0x1 SWAP1 SWAP3 ADD SWAP2 ADD PUSH2 0x125A JUMP JUMPDEST POP POP POP POP SWAP1 POP PUSH1 0x0 JUMPDEST DUP2 MLOAD DUP2 LT ISZERO PUSH2 0x10A6 JUMPI DUP4 DUP3 DUP3 DUP2 MLOAD DUP2 LT PUSH2 0x130E JUMPI PUSH2 0x130E PUSH2 0x150E JUMP JUMPDEST PUSH1 0x20 MUL PUSH1 0x20 ADD ADD MLOAD PUSH1 0x0 ADD MLOAD PUSH2 0xFFFF AND SUB PUSH2 0x1346 JUMPI DUP2 DUP2 DUP2 MLOAD DUP2 LT PUSH2 0x1335 JUMPI PUSH2 0x1335 PUSH2 0x150E JUMP JUMPDEST PUSH1 0x20 MUL PUSH1 0x20 ADD ADD MLOAD SWAP3 POP POP POP SWAP2 SWAP1 POP JUMP JUMPDEST PUSH1 0x1 ADD PUSH2 0x12F2 JUMP JUMPDEST PUSH1 0x0 SLOAD PUSH1 0xFF AND PUSH2 0xC79 JUMPI PUSH1 0x40 MLOAD PUSH3 0x461BCD PUSH1 0xE5 SHL DUP2 MSTORE PUSH1 0x20 PUSH1 0x4 DUP3 ADD MSTORE PUSH1 0x14 PUSH1 0x24 DUP3 ADD MSTORE PUSH20 0x14185D5CD8589B194E881B9BDD081C185D5CD959 PUSH1 0x62 SHL PUSH1 0x44 DUP3 ADD MSTORE PUSH1 0x64 ADD PUSH2 0x37A JUMP JUMPDEST PUSH1 0x0 PUSH1 0x20 DUP3 DUP5 SUB SLT ISZERO PUSH2 0x13A9 JUMPI PUSH1 0x0 DUP1 REVERT JUMPDEST POP CALLDATALOAD SWAP2 SWAP1 POP JUMP JUMPDEST DUP1 CALLDATALOAD PUSH1 0x1 PUSH1 0x1 PUSH1 0xA0 SHL SUB DUP2 AND DUP2 EQ PUSH2 0x13C7 JUMPI PUSH1 0x0 DUP1 REVERT JUMPDEST SWAP2 SWAP1 POP JUMP JUMPDEST PUSH1 0x0 PUSH1 0x20 DUP3 DUP5 SUB SLT ISZERO PUSH2 0x13DE JUMPI PUSH1 0x0 DUP1 REVERT JUMPDEST PUSH2 0xF39 DUP3 PUSH2 0x13B0 JUMP JUMPDEST PUSH1 0x0 DUP1 PUSH1 0x40 DUP4 DUP6 SUB SLT ISZERO PUSH2 0x13FA JUMPI PUSH1 0x0 DUP1 REVERT JUMPDEST PUSH2 0x1403 DUP4 PUSH2 0x13B0 JUMP JUMPDEST SWAP5 PUSH1 0x20 SWAP4 SWAP1 SWAP4 ADD CALLDATALOAD SWAP4 POP POP POP JUMP JUMPDEST PUSH1 0x20 DUP1 DUP3 MSTORE DUP3 MLOAD DUP3 DUP3 ADD DUP2 SWAP1 MSTORE PUSH1 0x0 SWAP2 SWAP1 PUSH1 0x40 SWAP1 DUP2 DUP6 ADD SWAP1 DUP7 DUP5 ADD DUP6 JUMPDEST DUP3 DUP2 LT ISZERO PUSH2 0x1498 JUMPI DUP2 MLOAD DUP1 MLOAD PUSH2 0xFFFF AND DUP6 MSTORE DUP7 DUP2 ADD MLOAD PUSH1 0x1 PUSH1 0x1 PUSH1 0xA0 SHL SUB AND DUP8 DUP7 ADD MSTORE DUP6 DUP2 ADD MLOAD PUSH4 0xFFFFFFFF SWAP1 DUP2 AND DUP8 DUP8 ADD MSTORE PUSH1 0x60 DUP1 DUP4 ADD MLOAD SWAP1 SWAP2 AND SWAP1 DUP7 ADD MSTORE PUSH1 0x80 DUP1 DUP3 ADD MLOAD ISZERO ISZERO SWAP1 DUP7 ADD MSTORE PUSH1 0xA0 SWAP1 DUP2 ADD MLOAD ISZERO ISZERO SWAP1 DUP6 ADD MSTORE PUSH1 0xC0 SWAP1 SWAP4 ADD SWAP3 SWAP1 DUP6 ADD SWAP1 PUSH1 0x1 ADD PUSH2 0x142E JUMP JUMPDEST POP SWAP2 SWAP8 SWAP7 POP POP POP POP POP POP POP JUMP JUMPDEST DUP1 ISZERO ISZERO DUP2 EQ PUSH2 0xFB6 JUMPI PUSH1 0x0 DUP1 REVERT JUMPDEST PUSH1 0x0 DUP1 PUSH1 0x0 PUSH1 0x60 DUP5 DUP7 SUB SLT ISZERO PUSH2 0x14C8 JUMPI PUSH1 0x0 DUP1 REVERT JUMPDEST DUP4 CALLDATALOAD SWAP3 POP PUSH1 0x20 DUP5 ADD CALLDATALOAD PUSH2 0x14DA DUP2 PUSH2 0x14A5 JUMP JUMPDEST SWAP2 POP PUSH1 0x40 DUP5 ADD CALLDATALOAD PUSH2 0x14EA DUP2 PUSH2 0x14A5 JUMP JUMPDEST DUP1 SWAP2 POP POP SWAP3 POP SWAP3 POP SWAP3 JUMP JUMPDEST PUSH1 0x0 PUSH1 0x20 DUP3 DUP5 SUB SLT ISZERO PUSH2 0x1507 JUMPI PUSH1 0x0 DUP1 REVERT JUMPDEST POP MLOAD SWAP2 SWAP1 POP JUMP JUMPDEST PUSH4 0x4E487B71 PUSH1 0xE0 SHL PUSH1 0x0 MSTORE PUSH1 0x32 PUSH1 0x4 MSTORE PUSH1 0x24 PUSH1 0x0 REVERT JUMPDEST PUSH4 0x4E487B71 PUSH1 0xE0 SHL PUSH1 0x0 MSTORE PUSH1 0x11 PUSH1 0x4 MSTORE PUSH1 0x24 PUSH1 0x0 REVERT JUMPDEST DUP2 DUP2 SUB DUP2 DUP2 GT ISZERO PUSH2 0x10C3 JUMPI PUSH2 0x10C3 PUSH2 0x1524 JUMP JUMPDEST DUP1 DUP3 ADD DUP1 DUP3 GT ISZERO PUSH2 0x10C3 JUMPI PUSH2 0x10C3 PUSH2 0x1524 JUMP JUMPDEST PUSH4 0x4E487B71 PUSH1 0xE0 SHL PUSH1 0x0 MSTORE PUSH1 0x31 PUSH1 0x4 MSTORE PUSH1 0x24 PUSH1 0x0 REVERT JUMPDEST PUSH1 0x0 PUSH1 0x20 DUP3 DUP5 SUB SLT ISZERO PUSH2 0x1588 JUMPI PUSH1 0x0 DUP1 REVERT JUMPDEST DUP2 MLOAD PUSH2 0xF39 DUP2 PUSH2 0x14A5 JUMP JUMPDEST DUP1 DUP3 MUL DUP2 ISZERO DUP3 DUP3 DIV DUP5 EQ OR PUSH2 0x10C3 JUMPI PUSH2 0x10C3 PUSH2 0x1524 JUMP JUMPDEST PUSH1 0x0 DUP3 PUSH2 0x15C7 JUMPI PUSH4 0x4E487B71 PUSH1 0xE0 SHL PUSH1 0x0 MSTORE PUSH1 0x12 PUSH1 0x4 MSTORE PUSH1 0x24 PUSH1 0x0 REVERT JUMPDEST POP DIV SWAP1 JUMP INVALID LOG2 PUSH5 0x6970667358 0x22 SLT KECCAK256 0xB3 DUP11 DUP7 0xD8 0x2E NUMBER 0xB5 ADDMOD 0x4B CALLER 0xD7 0x1E 0xD2 0xD3 0xD8 0xB0 0xA9 PUSH17 0x6FD5229D4D3F53FB3749C336760A64736F PUSH13 0x63430008130033000000000000 "},"methodIdentifiers":{"approveDeposit(address,uint256)":"32387788","calculateYield(uint256,bool,bool)":"e61d2220","deposits(uint256)":"b02c43d0","executeWithdraw(uint256)":"2104ebf1","getAvailableSlotCount()":"60395088","getSlotValue()":"f8bb2414","getUsedSlots()":"a8aa4b87","owner()":"8da5cb5b","pause()":"8456cb59","paused()":"5c975abb","rejectDeposit(address)":"2244e1c7","renounceOwnership()":"715018a6","requestWithdrawal(uint256)":"9ee679e8","transferOwnership(address)":"f2fde38b","unpause()":"3f4ba83a"}},"storageLayout":{"storage":[{"astId":130,"contract":"contracts/KratosX.sol:KratosX","label":"_paused","offset":0,"slot":"0","type":"t_bool"},{"astId":7,"contract":"contracts/KratosX.sol:KratosX","label":"_owner","offset":1,"slot":"0","type":"t_address"},{"astId":999,"contract":"contracts/KratosX.sol:KratosX","label":"earlyAdoptBonus","offset":21,"slot":"0","type":"t_uint8"},{"astId":1001,"contract":"contracts/KratosX.sol:KratosX","label":"autoIncrementedId","offset":22,"slot":"0","type":"t_uint16"},{"astId":1005,"contract":"contracts/KratosX.sol:KratosX","label":"deposits","offset":0,"slot":"1","type":"t_array(t_struct(Deposit)988_storage)dyn_storage"}],"types":{"t_address":{"encoding":"inplace","label":"address","numberOfBytes":"20"},"t_array(t_struct(Deposit)988_storage)dyn_storage":{"base":"t_struct(Deposit)988_storage","encoding":"dynamic_array","label":"struct KratosX.Deposit[]","numberOfBytes":"32"},"t_bool":{"encoding":"inplace","label":"bool","numberOfBytes":"1"},"t_struct(Deposit)988_storage":{"encoding":"inplace","label":"struct KratosX.Deposit","members":[{"astId":977,"contract":"contracts/KratosX.sol:KratosX","label":"id","offset":0,"slot":"0","type":"t_uint16"},{"astId":979,"contract":"contracts/KratosX.sol:KratosX","label":"owner","offset":2,"slot":"0","type":"t_address"},{"astId":981,"contract":"contracts/KratosX.sol:KratosX","label":"approveTimestamp","offset":22,"slot":"0","type":"t_uint32"},{"astId":983,"contract":"contracts/KratosX.sol:KratosX","label":"lockingPeriod","offset":26,"slot":"0","type":"t_uint32"},{"astId":985,"contract":"contracts/KratosX.sol:KratosX","label":"hasEarlyAdoptBonus","offset":30,"slot":"0","type":"t_bool"},{"astId":987,"contract":"contracts/KratosX.sol:KratosX","label":"hasExtendPeriodBonus","offset":31,"slot":"0","type":"t_bool"}],"numberOfBytes":"32"},"t_uint16":{"encoding":"inplace","label":"uint16","numberOfBytes":"2"},"t_uint32":{"encoding":"inplace","label":"uint32","numberOfBytes":"4"},"t_uint8":{"encoding":"inplace","label":"uint8","numberOfBytes":"1"}}}}}}