{"contracts/KratosX.sol":{"KratosX":{"abi":[{"inputs":[{"internalType":"address","name":"token","type":"address"}],"stateMutability":"nonpayable","type":"constructor"},{"inputs":[{"internalType":"uint256","name":"id","type":"uint256"}],"name":"DepositNotFound","type":"error"},{"inputs":[],"name":"InvalidLockPeriod","type":"error"},{"anonymous":false,"inputs":[{"indexed":false,"internalType":"address","name":"owner","type":"address"},{"indexed":false,"internalType":"uint256","name":"id","type":"uint256"}],"name":"DepositApproved","type":"event"},{"anonymous":false,"inputs":[{"indexed":false,"internalType":"address","name":"depositor","type":"address"}],"name":"DepositRejected","type":"event"},{"anonymous":false,"inputs":[{"indexed":false,"internalType":"uint256","name":"id","type":"uint256"},{"indexed":false,"internalType":"address","name":"from","type":"address"}],"name":"DepositRequested","type":"event"},{"anonymous":false,"inputs":[{"indexed":true,"internalType":"address","name":"previousOwner","type":"address"},{"indexed":true,"internalType":"address","name":"newOwner","type":"address"}],"name":"OwnershipTransferred","type":"event"},{"anonymous":false,"inputs":[{"indexed":false,"internalType":"address","name":"account","type":"address"}],"name":"Paused","type":"event"},{"anonymous":false,"inputs":[{"indexed":false,"internalType":"address","name":"account","type":"address"}],"name":"Unpaused","type":"event"},{"anonymous":false,"inputs":[{"indexed":false,"internalType":"uint256","name":"id","type":"uint256"},{"indexed":false,"internalType":"uint256","name":"calculatedAmount","type":"uint256"}],"name":"WithdrawExecuted","type":"event"},{"anonymous":false,"inputs":[{"indexed":false,"internalType":"uint256","name":"id","type":"uint256"},{"indexed":false,"internalType":"uint256","name":"estimatedAmount","type":"uint256"}],"name":"WithdrawRequested","type":"event"},{"inputs":[{"internalType":"address","name":"depositor","type":"address"},{"internalType":"enum KratosX.LockPeriod","name":"lockPeriod","type":"uint8"}],"name":"approveDeposit","outputs":[],"stateMutability":"nonpayable","type":"function"},{"inputs":[{"internalType":"uint256","name":"dayCount","type":"uint256"},{"internalType":"bool","name":"hasEarlyAdoptBonus","type":"bool"},{"internalType":"bool","name":"hasExtendBonus","type":"bool"}],"name":"calculateYield","outputs":[{"internalType":"uint256","name":"","type":"uint256"}],"stateMutability":"pure","type":"function"},{"inputs":[{"internalType":"uint256","name":"","type":"uint256"}],"name":"deposits","outputs":[{"internalType":"uint16","name":"id","type":"uint16"},{"internalType":"address","name":"owner","type":"address"},{"internalType":"uint32","name":"approveTimestamp","type":"uint32"},{"internalType":"enum KratosX.LockPeriod","name":"lockPeriod","type":"uint8"},{"internalType":"bool","name":"hasEarlyAdoptBonus","type":"bool"},{"internalType":"bool","name":"hasExtendPeriodBonus","type":"bool"}],"stateMutability":"view","type":"function"},{"inputs":[{"internalType":"uint256","name":"id","type":"uint256"}],"name":"executeWithdraw","outputs":[],"stateMutability":"nonpayable","type":"function"},{"inputs":[{"internalType":"uint256","name":"id","type":"uint256"},{"internalType":"enum KratosX.LockPeriod","name":"lockPeriod","type":"uint8"}],"name":"extendLockPeriod","outputs":[],"stateMutability":"nonpayable","type":"function"},{"inputs":[],"name":"getAvailableSlotCount","outputs":[{"internalType":"uint256","name":"","type":"uint256"}],"stateMutability":"view","type":"function"},{"inputs":[],"name":"getSlotValue","outputs":[{"internalType":"uint256","name":"","type":"uint256"}],"stateMutability":"pure","type":"function"},{"inputs":[],"name":"getUsedSlots","outputs":[{"components":[{"internalType":"uint16","name":"id","type":"uint16"},{"internalType":"address","name":"owner","type":"address"},{"internalType":"uint32","name":"approveTimestamp","type":"uint32"},{"internalType":"enum KratosX.LockPeriod","name":"lockPeriod","type":"uint8"},{"internalType":"bool","name":"hasEarlyAdoptBonus","type":"bool"},{"internalType":"bool","name":"hasExtendPeriodBonus","type":"bool"}],"internalType":"struct KratosX.Deposit[]","name":"","type":"tuple[]"}],"stateMutability":"view","type":"function"},{"inputs":[],"name":"owner","outputs":[{"internalType":"address","name":"","type":"address"}],"stateMutability":"view","type":"function"},{"inputs":[],"name":"pause","outputs":[],"stateMutability":"nonpayable","type":"function"},{"inputs":[],"name":"paused","outputs":[{"internalType":"bool","name":"","type":"bool"}],"stateMutability":"view","type":"function"},{"inputs":[{"internalType":"address","name":"depositor","type":"address"}],"name":"rejectDeposit","outputs":[],"stateMutability":"nonpayable","type":"function"},{"inputs":[],"name":"renounceOwnership","outputs":[],"stateMutability":"nonpayable","type":"function"},{"inputs":[{"internalType":"uint256","name":"id","type":"uint256"}],"name":"requestWithdrawal","outputs":[],"stateMutability":"nonpayable","type":"function"},{"inputs":[{"internalType":"uint256","name":"slots","type":"uint256"}],"name":"setEarlyAdotpSlots","outputs":[],"stateMutability":"nonpayable","type":"function"},{"inputs":[{"internalType":"uint256","name":"timestamp","type":"uint256"}],"name":"setExtendLockPeriodBonus","outputs":[],"stateMutability":"nonpayable","type":"function"},{"inputs":[{"internalType":"address","name":"newOwner","type":"address"}],"name":"transferOwnership","outputs":[],"stateMutability":"nonpayable","type":"function"},{"inputs":[],"name":"unpause","outputs":[],"stateMutability":"nonpayable","type":"function"}],"evm":{"bytecode":{"linkReferences":{},"object":"60a06040523480156200001157600080fd5b5060405162001e3b38038062001e3b8339810160408190526200003491620000ff565b6000805460ff191690556200004933620000a6565b6001600160a01b0381166080526000805466ffff00000000ff60a81b1916600360a81b1790556200007f426301e1338062000131565b600060166101000a81548163ffffffff021916908363ffffffff1602179055505062000159565b600080546001600160a01b03838116610100818102610100600160a81b0319851617855560405193049190911692909183917f8be0079c531659141344cd1fd0a4f28419497f9722a3daafe3b4186f6b6457e091a35050565b6000602082840312156200011257600080fd5b81516001600160a01b03811681146200012a57600080fd5b9392505050565b808201808211156200015357634e487b7160e01b600052601160045260246000fd5b92915050565b608051611ca36200019860003960008181610297015281816103af0152818161074f01528181611004015281816110dd01526113030152611ca36000f3fe608060405234801561001057600080fd5b50600436106101165760003560e01c80638da5cb5b116100a2578063b02c43d011610071578063b02c43d014610216578063d479220d1461023b578063e61d22201461024e578063f2fde38b14610261578063f8bb24141461027457600080fd5b80638da5cb5b146101b2578063952f0417146101db5780639ee679e8146101ee578063a8aa4b871461020157600080fd5b806360395088116100e957806360395088146101665780636220e8191461017c578063715018a61461018f5780638456cb59146101975780638b57f7871461019f57600080fd5b80632104ebf11461011b5780632244e1c7146101305780633f4ba83a146101435780635c975abb1461014b575b600080fd5b61012e610129366004611974565b61027f565b005b61012e61013e3660046119a9565b610852565b61012e610899565b60005460ff1660405190151581526020015b60405180910390f35b61016e6108ab565b60405190815260200161015d565b61012e61018a3660046119d3565b6108c1565b61012e610c42565b61012e610c54565b61012e6101ad366004611974565b610c64565b60005461010090046001600160a01b03166040516001600160a01b03909116815260200161015d565b61012e6101e9366004611974565b610cf1565b61012e6101fc366004611974565b610d87565b610209610e2d565b60405161015d9190611a37565b610229610224366004611974565b610f1d565b60405161015d96959493929190611ad0565b61012e610249366004611b1c565b610f80565b61016e61025c366004611b54565b611408565b61012e61026f3660046119a9565b6114cf565b64012a05f20061016e565b610287611548565b61028f6115a8565b64012a05f2007f00000000000000000000000000000000000000000000000000000000000000006001600160a01b031663dd62ed3e6102dc6000546001600160a01b036101009091041690565b6040516001600160e01b031960e084901b1681526001600160a01b039091166004820152306024820152604401602060405180830381865afa158015610326573d6000803e3d6000fd5b505050506040513d601f19601f8201168201806040525081019061034a9190611b96565b10156103a75760405162461bcd60e51b815260206004820152602160248201527f4e6f7420656e6f75676820616c6c6f77616e636520746f2077697468647261776044820152601760f91b60648201526084015b60405180910390fd5b64012a05f2007f00000000000000000000000000000000000000000000000000000000000000006001600160a01b03166370a082316103f46000546001600160a01b036101009091041690565b6040516001600160e01b031960e084901b1681526001600160a01b039091166004820152602401602060405180830381865afa158015610438573d6000803e3d6000fd5b505050506040513d601f19601f8201168201806040525081019061045c9190611b96565b10156104aa5760405162461bcd60e51b815260206004820152601d60248201527f4e6f7420656e6f7567682066756e647320746f2077697468647261772e000000604482015260640161039e565b60006001805480602002602001604051908101604052809291908181526020016000905b828210156105915760008481526020908190206040805160c081018252918501805461ffff811684526201000081046001600160a01b031694840194909452600160b01b840463ffffffff169183019190915290916060830190600160d01b900460ff166005811115610543576105436119ff565b6005811115610554576105546119ff565b8152905460ff600160d81b820481161515602080850191909152600160e01b909204161515604090920191909152908252600190920191016104ce565b50505050905060006105a382846115ee565b905060008282815181106105b9576105b9611baf565b6020026020010151905060006105f56105e6836040015163ffffffff16426105e19190611bdb565b611655565b83608001518460a00151611408565b6106049064012a05f200611bee565b905083600185516106159190611bdb565b8151811061062557610625611baf565b60200260200101516001848154811061064057610640611baf565b600091825260209182902083519101805492840151604085015163ffffffff16600160b01b0263ffffffff60b01b196001600160a01b0390921662010000026001600160b01b031990951661ffff909416939093179390931792831682178155606084015190929091839160ff60d01b1990911664ffffffffff60b01b1990911617600160d01b8360058111156106d9576106d96119ff565b02179055506080820151815460a0909301511515600160e01b0260ff60e01b19911515600160d81b029190911661ffff60d81b1990931692909217919091179055600180548061072b5761072b611c01565b600082815260209020810160001990810180546001600160e81b03191690550190557f00000000000000000000000000000000000000000000000000000000000000006001600160a01b03166323b872dd6107946000546001600160a01b036101009091041690565b60208501516040516001600160e01b031960e085901b1681526001600160a01b03928316600482015291166024820152604481018490526064016020604051808303816000875af11580156107ed573d6000803e3d6000fd5b505050506040513d601f19601f820116820180604052508101906108119190611c17565b5060408051868152602081018390527f676b8d9bce8758f26a3f18f775d02412a1b90f11055ae15f21c0f43b68ce5961910160405180910390a15050505050565b61085a611548565b6040516001600160a01b03821681527f9252f673a302383d6d82c79d6d2d359ef0eb704b0f92f240bf386db0327998f79060200160405180910390a150565b6108a1611548565b6108a9611664565b565b6001546000906108bc906064611bdb565b905090565b6108c96115a8565b60008160058111156108dd576108dd6119ff565b116109425760405162461bcd60e51b815260206004820152602f60248201527f43616e206e6f742073657420746865206c6f636b696e6720706572696f64207760448201526e34ba34103a3434b9903b30b63ab29760891b606482015260840161039e565b60006001805480602002602001604051908101604052809291908181526020016000905b82821015610a295760008481526020908190206040805160c081018252918501805461ffff811684526201000081046001600160a01b031694840194909452600160b01b840463ffffffff169183019190915290916060830190600160d01b900460ff1660058111156109db576109db6119ff565b60058111156109ec576109ec6119ff565b8152905460ff600160d81b820481161515602080850191909152600160e01b90920416151560409092019190915290825260019092019101610966565b5050505090506000610a3b82856115ee565b90506000828281518110610a5157610a51611baf565b60200260200101519050836005811115610a6d57610a6d6119ff565b81606001516005811115610a8357610a836119ff565b10610ade5760405162461bcd60e51b815260206004820152602560248201527f43616e206f6e6c7920696e63726561736520746865206c6f636b696e672070656044820152643934b7b21760d91b606482015260840161039e565b60005442600160b01b90910463ffffffff1610801590610b135750600081606001516005811115610b1157610b116119ff565b145b15610b2057600160a08201525b60608101846005811115610b3657610b366119ff565b90816005811115610b4957610b496119ff565b815250508060018381548110610b6157610b61611baf565b600091825260209182902083519101805492840151604085015163ffffffff16600160b01b0263ffffffff60b01b196001600160a01b0390921662010000026001600160b01b031990951661ffff909416939093179390931792831682178155606084015190929091839160ff60d01b1990911664ffffffffff60b01b1990911617600160d01b836005811115610bfa57610bfa6119ff565b02179055506080820151815460a0909301511515600160e01b0260ff60e01b19911515600160d81b029190911661ffff60d81b19909316929092179190911790555050505050565b610c4a611548565b6108a960006116b6565b610c5c611548565b6108a961170f565b610c6c611548565b610c746115a8565b60ff811115610cd15760405162461bcd60e51b8152602060048201526024808201527f546f6f206d616e79206561726c792061646f7074696f6e20626f6e757320736c60448201526337ba399760e11b606482015260840161039e565b6000805460ff909216600160a81b0260ff60a81b19909216919091179055565b610cf9611548565b610d016115a8565b63ffffffff811115610d615760405162461bcd60e51b8152602060048201526024808201527f506572696f6420746f6f206c6f6e6720666f7220657874656e74696f6e20626f604482015263373ab99760e11b606482015260840161039e565b6000805463ffffffff909216600160b01b0263ffffffff60b01b19909216919091179055565b610d8f6115a8565b6000610d9a8261174c565b90506000610dc5826040015163ffffffff164262093a80610dbb9190611bee565b6105e19190611bdb565b90506000610ddc8284608001518560a00151611408565b90507f622ec52892a9917a9f66bd872232d3bea677db12565dd6da5f4bfc14607ec1d784610e0f8364012a05f200611bee565b6040805192835260208301919091520160405180910390a150505050565b60606001805480602002602001604051908101604052809291908181526020016000905b82821015610f145760008481526020908190206040805160c081018252918501805461ffff811684526201000081046001600160a01b031694840194909452600160b01b840463ffffffff169183019190915290916060830190600160d01b900460ff166005811115610ec657610ec66119ff565b6005811115610ed757610ed76119ff565b8152905460ff600160d81b820481161515602080850191909152600160e01b90920416151560409092019190915290825260019092019101610e51565b50505050905090565b60018181548110610f2d57600080fd5b60009182526020909120015461ffff811691506001600160a01b03620100008204169063ffffffff600160b01b8204169060ff600160d01b8204811691600160d81b8104821691600160e01b9091041686565b610f88611548565b610f906115a8565b600154606411610fd85760405162461bcd60e51b815260206004820152601360248201527227379039b637ba399030bb30b4b630b136329760691b604482015260640161039e565b604051636eb1769f60e11b81526001600160a01b03838116600483015230602483015264012a05f200917f00000000000000000000000000000000000000000000000000000000000000009091169063dd62ed3e90604401602060405180830381865afa15801561104d573d6000803e3d6000fd5b505050506040513d601f19601f820116820180604052508101906110719190611b96565b10156110b75760405162461bcd60e51b81526020600482015260156024820152742737ba1032b737bab3b41030b63637bbb0b731b29760591b604482015260640161039e565b6040516370a0823160e01b81526001600160a01b03838116600483015264012a05f200917f0000000000000000000000000000000000000000000000000000000000000000909116906370a0823190602401602060405180830381865afa158015611126573d6000803e3d6000fd5b505050506040513d601f19601f8201168201806040525081019061114a9190611b96565b101561118e5760405162461bcd60e51b81526020600482015260136024820152722737ba1032b737bab3b4103130b630b731b29760691b604482015260640161039e565b60008054600161ffff600160d01b8084048216929092018116820261ffff60d01b19909316929092178084550416905060016040518060c001604052808361ffff168152602001856001600160a01b031681526020014263ffffffff168152602001846005811115611202576112026119ff565b815260200161120f6118e7565b1515815260006020918201819052835460018101855593815281902082519301805491830151604084015163ffffffff16600160b01b0263ffffffff60b01b196001600160a01b0390921662010000026001600160b01b031990941661ffff90961695909517929092179182168417815560608301519293909291839160ff60d01b191664ffffffffff60b01b1990911617600160d01b8360058111156112b8576112b86119ff565b02179055506080820151815460a0909301511515600160e01b0260ff60e01b19911515600160d81b029190911661ffff60d81b19909316929092179190911790556001600160a01b037f0000000000000000000000000000000000000000000000000000000000000000166323b872dd846113416000546001600160a01b036101009091041690565b6040516001600160e01b031960e085901b1681526001600160a01b0392831660048201529116602482015264012a05f20060448201526064016020604051808303816000875af1158015611399573d6000803e3d6000fd5b505050506040513d601f19601f820116820180604052508101906113bd9190611c17565b50604080516001600160a01b038516815261ffff831660208201527f79000773ac921e1702f7f3d9d7416dfe1f2b07606ee63066874ac05a6a42973e910160405180910390a1505050565b60008060b4851161141d5760009150506114c8565b61016d851161142e5750600561147b565b6102da851161143f5750600561147b565b61044785116114505750600661147b565b6105b485116114615750600761147b565b61072185116114725750600861147b565b50610721935060095b8315611485576001015b828015611494575061016d8510155b1561149d576001015b618e94856114b08364012a05f200611c34565b6114ba9190611c34565b6114c49190611c4b565b9150505b9392505050565b6114d7611548565b6001600160a01b03811661153c5760405162461bcd60e51b815260206004820152602660248201527f4f776e61626c653a206e6577206f776e657220697320746865207a65726f206160448201526564647265737360d01b606482015260840161039e565b611545816116b6565b50565b6000546001600160a01b036101009091041633146108a95760405162461bcd60e51b815260206004820181905260248201527f4f776e61626c653a2063616c6c6572206973206e6f7420746865206f776e6572604482015260640161039e565b60005460ff16156108a95760405162461bcd60e51b815260206004820152601060248201526f14185d5cd8589b194e881c185d5cd95960821b604482015260640161039e565b6000805b8351811015611632578284828151811061160e5761160e611baf565b60200260200101516000015161ffff160361162a57905061164f565b6001016115f2565b50604051631585bdab60e31b81526004810183905260240161039e565b92915050565b600061164f6201518083611c4b565b61166c61192b565b6000805460ff191690557f5db9ee0a495bf2e6ff9c91a7834c1ba4fdd244a5e8aa4e537bd38aeae4b073aa335b6040516001600160a01b03909116815260200160405180910390a1565b600080546001600160a01b03838116610100818102610100600160a81b0319851617855560405193049190911692909183917f8be0079c531659141344cd1fd0a4f28419497f9722a3daafe3b4186f6b6457e091a35050565b6117176115a8565b6000805460ff191660011790557f62e78cea01bee320cd4e420270b5ea74000d11b0c9f74754ebdbfc544b05a2586116993390565b6040805160c081018252600080825260208201819052918101829052606081018290526080810182905260a081019190915260006001805480602002602001604051908101604052809291908181526020016000905b828210156118655760008481526020908190206040805160c081018252918501805461ffff811684526201000081046001600160a01b031694840194909452600160b01b840463ffffffff169183019190915290916060830190600160d01b900460ff166005811115611817576118176119ff565b6005811115611828576118286119ff565b8152905460ff600160d81b820481161515602080850191909152600160e01b909204161515604090920191909152908252600190920191016117a2565b50505050905060005b81518110156118ca578382828151811061188a5761188a611baf565b60200260200101516000015161ffff16036118c2578181815181106118b1576118b1611baf565b602002602001015192505050919050565b60010161186e565b50604051631585bdab60e31b81526004810184905260240161039e565b60008054600160a81b900460ff161561192557506000805460001960ff600160a81b808404821692909201160260ff60a81b19909116179055600190565b50600090565b60005460ff166108a95760405162461bcd60e51b815260206004820152601460248201527314185d5cd8589b194e881b9bdd081c185d5cd95960621b604482015260640161039e565b60006020828403121561198657600080fd5b5035919050565b80356001600160a01b03811681146119a457600080fd5b919050565b6000602082840312156119bb57600080fd5b6114c88261198d565b8035600681106119a457600080fd5b600080604083850312156119e657600080fd5b823591506119f6602084016119c4565b90509250929050565b634e487b7160e01b600052602160045260246000fd5b60068110611a3357634e487b7160e01b600052602160045260246000fd5b9052565b602080825282518282018190526000919060409081850190868401855b82811015611ac3578151805161ffff168552868101516001600160a01b0316878601528581015163ffffffff1686860152606080820151611a9782880182611a15565b505060808181015115159086015260a09081015115159085015260c09093019290850190600101611a54565b5091979650505050505050565b61ffff871681526001600160a01b038616602082015263ffffffff8516604082015260c08101611b036060830186611a15565b921515608082015290151560a090910152949350505050565b60008060408385031215611b2f57600080fd5b611b388361198d565b91506119f6602084016119c4565b801515811461154557600080fd5b600080600060608486031215611b6957600080fd5b833592506020840135611b7b81611b46565b91506040840135611b8b81611b46565b809150509250925092565b600060208284031215611ba857600080fd5b5051919050565b634e487b7160e01b600052603260045260246000fd5b634e487b7160e01b600052601160045260246000fd5b8181038181111561164f5761164f611bc5565b8082018082111561164f5761164f611bc5565b634e487b7160e01b600052603160045260246000fd5b600060208284031215611c2957600080fd5b81516114c881611b46565b808202811582820484141761164f5761164f611bc5565b600082611c6857634e487b7160e01b600052601260045260246000fd5b50049056fea2646970667358221220e77391e0df309af6810dea7966f67f97b8cc3dabd12dc28f7b596419717ff86164736f6c63430008130033","opcodes":"PUSH1 0xA0 PUSH1 0x40 MSTORE CALLVALUE DUP1 ISZERO PUSH3 0x11 JUMPI PUSH1 0x0 DUP1 REVERT JUMPDEST POP PUSH1 0x40 MLOAD PUSH3 0x1E3B CODESIZE SUB DUP1 PUSH3 0x1E3B DUP4 CODECOPY DUP2 ADD PUSH1 0x40 DUP2 SWAP1 MSTORE PUSH3 0x34 SWAP2 PUSH3 0xFF JUMP JUMPDEST PUSH1 0x0 DUP1 SLOAD PUSH1 0xFF NOT AND SWAP1 SSTORE PUSH3 0x49 CALLER PUSH3 0xA6 JUMP JUMPDEST PUSH1 0x1 PUSH1 0x1 PUSH1 0xA0 SHL SUB DUP2 AND PUSH1 0x80 MSTORE PUSH1 0x0 DUP1 SLOAD PUSH7 0xFFFF00000000FF PUSH1 0xA8 SHL NOT AND PUSH1 0x3 PUSH1 0xA8 SHL OR SWAP1 SSTORE PUSH3 0x7F TIMESTAMP PUSH4 0x1E13380 PUSH3 0x131 JUMP JUMPDEST PUSH1 0x0 PUSH1 0x16 PUSH2 0x100 EXP DUP2 SLOAD DUP2 PUSH4 0xFFFFFFFF MUL NOT AND SWAP1 DUP4 PUSH4 0xFFFFFFFF AND MUL OR SWAP1 SSTORE POP POP PUSH3 0x159 JUMP JUMPDEST PUSH1 0x0 DUP1 SLOAD PUSH1 0x1 PUSH1 0x1 PUSH1 0xA0 SHL SUB DUP4 DUP2 AND PUSH2 0x100 DUP2 DUP2 MUL PUSH2 0x100 PUSH1 0x1 PUSH1 0xA8 SHL SUB NOT DUP6 AND OR DUP6 SSTORE PUSH1 0x40 MLOAD SWAP4 DIV SWAP2 SWAP1 SWAP2 AND SWAP3 SWAP1 SWAP2 DUP4 SWAP2 PUSH32 0x8BE0079C531659141344CD1FD0A4F28419497F9722A3DAAFE3B4186F6B6457E0 SWAP2 LOG3 POP POP JUMP JUMPDEST PUSH1 0x0 PUSH1 0x20 DUP3 DUP5 SUB SLT ISZERO PUSH3 0x112 JUMPI PUSH1 0x0 DUP1 REVERT JUMPDEST DUP2 MLOAD PUSH1 0x1 PUSH1 0x1 PUSH1 0xA0 SHL SUB DUP2 AND DUP2 EQ PUSH3 0x12A JUMPI PUSH1 0x0 DUP1 REVERT JUMPDEST SWAP4 SWAP3 POP POP POP JUMP JUMPDEST DUP1 DUP3 ADD DUP1 DUP3 GT ISZERO PUSH3 0x153 JUMPI PUSH4 0x4E487B71 PUSH1 0xE0 SHL PUSH1 0x0 MSTORE PUSH1 0x11 PUSH1 0x4 MSTORE PUSH1 0x24 PUSH1 0x0 REVERT JUMPDEST SWAP3 SWAP2 POP POP JUMP JUMPDEST PUSH1 0x80 MLOAD PUSH2 0x1CA3 PUSH3 0x198 PUSH1 0x0 CODECOPY PUSH1 0x0 DUP2 DUP2 PUSH2 0x297 ADD MSTORE DUP2 DUP2 PUSH2 0x3AF ADD MSTORE DUP2 DUP2 PUSH2 0x74F ADD MSTORE DUP2 DUP2 PUSH2 0x1004 ADD MSTORE DUP2 DUP2 PUSH2 0x10DD ADD MSTORE PUSH2 0x1303 ADD MSTORE PUSH2 0x1CA3 PUSH1 0x0 RETURN INVALID PUSH1 0x80 PUSH1 0x40 MSTORE CALLVALUE DUP1 ISZERO PUSH2 0x10 JUMPI PUSH1 0x0 DUP1 REVERT JUMPDEST POP PUSH1 0x4 CALLDATASIZE LT PUSH2 0x116 JUMPI PUSH1 0x0 CALLDATALOAD PUSH1 0xE0 SHR DUP1 PUSH4 0x8DA5CB5B GT PUSH2 0xA2 JUMPI DUP1 PUSH4 0xB02C43D0 GT PUSH2 0x71 JUMPI DUP1 PUSH4 0xB02C43D0 EQ PUSH2 0x216 JUMPI DUP1 PUSH4 0xD479220D EQ PUSH2 0x23B JUMPI DUP1 PUSH4 0xE61D2220 EQ PUSH2 0x24E JUMPI DUP1 PUSH4 0xF2FDE38B EQ PUSH2 0x261 JUMPI DUP1 PUSH4 0xF8BB2414 EQ PUSH2 0x274 JUMPI PUSH1 0x0 DUP1 REVERT JUMPDEST DUP1 PUSH4 0x8DA5CB5B EQ PUSH2 0x1B2 JUMPI DUP1 PUSH4 0x952F0417 EQ PUSH2 0x1DB JUMPI DUP1 PUSH4 0x9EE679E8 EQ PUSH2 0x1EE JUMPI DUP1 PUSH4 0xA8AA4B87 EQ PUSH2 0x201 JUMPI PUSH1 0x0 DUP1 REVERT JUMPDEST DUP1 PUSH4 0x60395088 GT PUSH2 0xE9 JUMPI DUP1 PUSH4 0x60395088 EQ PUSH2 0x166 JUMPI DUP1 PUSH4 0x6220E819 EQ PUSH2 0x17C JUMPI DUP1 PUSH4 0x715018A6 EQ PUSH2 0x18F JUMPI DUP1 PUSH4 0x8456CB59 EQ PUSH2 0x197 JUMPI DUP1 PUSH4 0x8B57F787 EQ PUSH2 0x19F JUMPI PUSH1 0x0 DUP1 REVERT JUMPDEST DUP1 PUSH4 0x2104EBF1 EQ PUSH2 0x11B JUMPI DUP1 PUSH4 0x2244E1C7 EQ PUSH2 0x130 JUMPI DUP1 PUSH4 0x3F4BA83A EQ PUSH2 0x143 JUMPI DUP1 PUSH4 0x5C975ABB EQ PUSH2 0x14B JUMPI JUMPDEST PUSH1 0x0 DUP1 REVERT JUMPDEST PUSH2 0x12E PUSH2 0x129 CALLDATASIZE PUSH1 0x4 PUSH2 0x1974 JUMP JUMPDEST PUSH2 0x27F JUMP JUMPDEST STOP JUMPDEST PUSH2 0x12E PUSH2 0x13E CALLDATASIZE PUSH1 0x4 PUSH2 0x19A9 JUMP JUMPDEST PUSH2 0x852 JUMP JUMPDEST PUSH2 0x12E PUSH2 0x899 JUMP JUMPDEST PUSH1 0x0 SLOAD PUSH1 0xFF AND PUSH1 0x40 MLOAD SWAP1 ISZERO ISZERO DUP2 MSTORE PUSH1 0x20 ADD JUMPDEST PUSH1 0x40 MLOAD DUP1 SWAP2 SUB SWAP1 RETURN JUMPDEST PUSH2 0x16E PUSH2 0x8AB JUMP JUMPDEST PUSH1 0x40 MLOAD SWAP1 DUP2 MSTORE PUSH1 0x20 ADD PUSH2 0x15D JUMP JUMPDEST PUSH2 0x12E PUSH2 0x18A CALLDATASIZE PUSH1 0x4 PUSH2 0x19D3 JUMP JUMPDEST PUSH2 0x8C1 JUMP JUMPDEST PUSH2 0x12E PUSH2 0xC42 JUMP JUMPDEST PUSH2 0x12E PUSH2 0xC54 JUMP JUMPDEST PUSH2 0x12E PUSH2 0x1AD CALLDATASIZE PUSH1 0x4 PUSH2 0x1974 JUMP JUMPDEST PUSH2 0xC64 JUMP JUMPDEST PUSH1 0x0 SLOAD PUSH2 0x100 SWAP1 DIV PUSH1 0x1 PUSH1 0x1 PUSH1 0xA0 SHL SUB AND PUSH1 0x40 MLOAD PUSH1 0x1 PUSH1 0x1 PUSH1 0xA0 SHL SUB SWAP1 SWAP2 AND DUP2 MSTORE PUSH1 0x20 ADD PUSH2 0x15D JUMP JUMPDEST PUSH2 0x12E PUSH2 0x1E9 CALLDATASIZE PUSH1 0x4 PUSH2 0x1974 JUMP JUMPDEST PUSH2 0xCF1 JUMP JUMPDEST PUSH2 0x12E PUSH2 0x1FC CALLDATASIZE PUSH1 0x4 PUSH2 0x1974 JUMP JUMPDEST PUSH2 0xD87 JUMP JUMPDEST PUSH2 0x209 PUSH2 0xE2D JUMP JUMPDEST PUSH1 0x40 MLOAD PUSH2 0x15D SWAP2 SWAP1 PUSH2 0x1A37 JUMP JUMPDEST PUSH2 0x229 PUSH2 0x224 CALLDATASIZE PUSH1 0x4 PUSH2 0x1974 JUMP JUMPDEST PUSH2 0xF1D JUMP JUMPDEST PUSH1 0x40 MLOAD PUSH2 0x15D SWAP7 SWAP6 SWAP5 SWAP4 SWAP3 SWAP2 SWAP1 PUSH2 0x1AD0 JUMP JUMPDEST PUSH2 0x12E PUSH2 0x249 CALLDATASIZE PUSH1 0x4 PUSH2 0x1B1C JUMP JUMPDEST PUSH2 0xF80 JUMP JUMPDEST PUSH2 0x16E PUSH2 0x25C CALLDATASIZE PUSH1 0x4 PUSH2 0x1B54 JUMP JUMPDEST PUSH2 0x1408 JUMP JUMPDEST PUSH2 0x12E PUSH2 0x26F CALLDATASIZE PUSH1 0x4 PUSH2 0x19A9 JUMP JUMPDEST PUSH2 0x14CF JUMP JUMPDEST PUSH5 0x12A05F200 PUSH2 0x16E JUMP JUMPDEST PUSH2 0x287 PUSH2 0x1548 JUMP JUMPDEST PUSH2 0x28F PUSH2 0x15A8 JUMP JUMPDEST PUSH5 0x12A05F200 PUSH32 0x0 PUSH1 0x1 PUSH1 0x1 PUSH1 0xA0 SHL SUB AND PUSH4 0xDD62ED3E PUSH2 0x2DC PUSH1 0x0 SLOAD PUSH1 0x1 PUSH1 0x1 PUSH1 0xA0 SHL SUB PUSH2 0x100 SWAP1 SWAP2 DIV AND SWAP1 JUMP JUMPDEST PUSH1 0x40 MLOAD PUSH1 0x1 PUSH1 0x1 PUSH1 0xE0 SHL SUB NOT PUSH1 0xE0 DUP5 SWAP1 SHL AND DUP2 MSTORE PUSH1 0x1 PUSH1 0x1 PUSH1 0xA0 SHL SUB SWAP1 SWAP2 AND PUSH1 0x4 DUP3 ADD MSTORE ADDRESS PUSH1 0x24 DUP3 ADD MSTORE PUSH1 0x44 ADD PUSH1 0x20 PUSH1 0x40 MLOAD DUP1 DUP4 SUB DUP2 DUP7 GAS STATICCALL ISZERO DUP1 ISZERO PUSH2 0x326 JUMPI RETURNDATASIZE PUSH1 0x0 DUP1 RETURNDATACOPY RETURNDATASIZE PUSH1 0x0 REVERT JUMPDEST POP POP POP POP PUSH1 0x40 MLOAD RETURNDATASIZE PUSH1 0x1F NOT PUSH1 0x1F DUP3 ADD AND DUP3 ADD DUP1 PUSH1 0x40 MSTORE POP DUP2 ADD SWAP1 PUSH2 0x34A SWAP2 SWAP1 PUSH2 0x1B96 JUMP JUMPDEST LT ISZERO PUSH2 0x3A7 JUMPI PUSH1 0x40 MLOAD PUSH3 0x461BCD PUSH1 0xE5 SHL DUP2 MSTORE PUSH1 0x20 PUSH1 0x4 DUP3 ADD MSTORE PUSH1 0x21 PUSH1 0x24 DUP3 ADD MSTORE PUSH32 0x4E6F7420656E6F75676820616C6C6F77616E636520746F207769746864726177 PUSH1 0x44 DUP3 ADD MSTORE PUSH1 0x17 PUSH1 0xF9 SHL PUSH1 0x64 DUP3 ADD MSTORE PUSH1 0x84 ADD JUMPDEST PUSH1 0x40 MLOAD DUP1 SWAP2 SUB SWAP1 REVERT JUMPDEST PUSH5 0x12A05F200 PUSH32 0x0 PUSH1 0x1 PUSH1 0x1 PUSH1 0xA0 SHL SUB AND PUSH4 0x70A08231 PUSH2 0x3F4 PUSH1 0x0 SLOAD PUSH1 0x1 PUSH1 0x1 PUSH1 0xA0 SHL SUB PUSH2 0x100 SWAP1 SWAP2 DIV AND SWAP1 JUMP JUMPDEST PUSH1 0x40 MLOAD PUSH1 0x1 PUSH1 0x1 PUSH1 0xE0 SHL SUB NOT PUSH1 0xE0 DUP5 SWAP1 SHL AND DUP2 MSTORE PUSH1 0x1 PUSH1 0x1 PUSH1 0xA0 SHL SUB SWAP1 SWAP2 AND PUSH1 0x4 DUP3 ADD MSTORE PUSH1 0x24 ADD PUSH1 0x20 PUSH1 0x40 MLOAD DUP1 DUP4 SUB DUP2 DUP7 GAS STATICCALL ISZERO DUP1 ISZERO PUSH2 0x438 JUMPI RETURNDATASIZE PUSH1 0x0 DUP1 RETURNDATACOPY RETURNDATASIZE PUSH1 0x0 REVERT JUMPDEST POP POP POP POP PUSH1 0x40 MLOAD RETURNDATASIZE PUSH1 0x1F NOT PUSH1 0x1F DUP3 ADD AND DUP3 ADD DUP1 PUSH1 0x40 MSTORE POP DUP2 ADD SWAP1 PUSH2 0x45C SWAP2 SWAP1 PUSH2 0x1B96 JUMP JUMPDEST LT ISZERO PUSH2 0x4AA JUMPI PUSH1 0x40 MLOAD PUSH3 0x461BCD PUSH1 0xE5 SHL DUP2 MSTORE PUSH1 0x20 PUSH1 0x4 DUP3 ADD MSTORE PUSH1 0x1D PUSH1 0x24 DUP3 ADD MSTORE PUSH32 0x4E6F7420656E6F7567682066756E647320746F2077697468647261772E000000 PUSH1 0x44 DUP3 ADD MSTORE PUSH1 0x64 ADD PUSH2 0x39E JUMP JUMPDEST PUSH1 0x0 PUSH1 0x1 DUP1 SLOAD DUP1 PUSH1 0x20 MUL PUSH1 0x20 ADD PUSH1 0x40 MLOAD SWAP1 DUP2 ADD PUSH1 0x40 MSTORE DUP1 SWAP3 SWAP2 SWAP1 DUP2 DUP2 MSTORE PUSH1 0x20 ADD PUSH1 0x0 SWAP1 JUMPDEST DUP3 DUP3 LT ISZERO PUSH2 0x591 JUMPI PUSH1 0x0 DUP5 DUP2 MSTORE PUSH1 0x20 SWAP1 DUP2 SWAP1 KECCAK256 PUSH1 0x40 DUP1 MLOAD PUSH1 0xC0 DUP2 ADD DUP3 MSTORE SWAP2 DUP6 ADD DUP1 SLOAD PUSH2 0xFFFF DUP2 AND DUP5 MSTORE PUSH3 0x10000 DUP2 DIV PUSH1 0x1 PUSH1 0x1 PUSH1 0xA0 SHL SUB AND SWAP5 DUP5 ADD SWAP5 SWAP1 SWAP5 MSTORE PUSH1 0x1 PUSH1 0xB0 SHL DUP5 DIV PUSH4 0xFFFFFFFF AND SWAP2 DUP4 ADD SWAP2 SWAP1 SWAP2 MSTORE SWAP1 SWAP2 PUSH1 0x60 DUP4 ADD SWAP1 PUSH1 0x1 PUSH1 0xD0 SHL SWAP1 DIV PUSH1 0xFF AND PUSH1 0x5 DUP2 GT ISZERO PUSH2 0x543 JUMPI PUSH2 0x543 PUSH2 0x19FF JUMP JUMPDEST PUSH1 0x5 DUP2 GT ISZERO PUSH2 0x554 JUMPI PUSH2 0x554 PUSH2 0x19FF JUMP JUMPDEST DUP2 MSTORE SWAP1 SLOAD PUSH1 0xFF PUSH1 0x1 PUSH1 0xD8 SHL DUP3 DIV DUP2 AND ISZERO ISZERO PUSH1 0x20 DUP1 DUP6 ADD SWAP2 SWAP1 SWAP2 MSTORE PUSH1 0x1 PUSH1 0xE0 SHL SWAP1 SWAP3 DIV AND ISZERO ISZERO PUSH1 0x40 SWAP1 SWAP3 ADD SWAP2 SWAP1 SWAP2 MSTORE SWAP1 DUP3 MSTORE PUSH1 0x1 SWAP1 SWAP3 ADD SWAP2 ADD PUSH2 0x4CE JUMP JUMPDEST POP POP POP POP SWAP1 POP PUSH1 0x0 PUSH2 0x5A3 DUP3 DUP5 PUSH2 0x15EE JUMP JUMPDEST SWAP1 POP PUSH1 0x0 DUP3 DUP3 DUP2 MLOAD DUP2 LT PUSH2 0x5B9 JUMPI PUSH2 0x5B9 PUSH2 0x1BAF JUMP JUMPDEST PUSH1 0x20 MUL PUSH1 0x20 ADD ADD MLOAD SWAP1 POP PUSH1 0x0 PUSH2 0x5F5 PUSH2 0x5E6 DUP4 PUSH1 0x40 ADD MLOAD PUSH4 0xFFFFFFFF AND TIMESTAMP PUSH2 0x5E1 SWAP2 SWAP1 PUSH2 0x1BDB JUMP JUMPDEST PUSH2 0x1655 JUMP JUMPDEST DUP4 PUSH1 0x80 ADD MLOAD DUP5 PUSH1 0xA0 ADD MLOAD PUSH2 0x1408 JUMP JUMPDEST PUSH2 0x604 SWAP1 PUSH5 0x12A05F200 PUSH2 0x1BEE JUMP JUMPDEST SWAP1 POP DUP4 PUSH1 0x1 DUP6 MLOAD PUSH2 0x615 SWAP2 SWAP1 PUSH2 0x1BDB JUMP JUMPDEST DUP2 MLOAD DUP2 LT PUSH2 0x625 JUMPI PUSH2 0x625 PUSH2 0x1BAF JUMP JUMPDEST PUSH1 0x20 MUL PUSH1 0x20 ADD ADD MLOAD PUSH1 0x1 DUP5 DUP2 SLOAD DUP2 LT PUSH2 0x640 JUMPI PUSH2 0x640 PUSH2 0x1BAF JUMP JUMPDEST PUSH1 0x0 SWAP2 DUP3 MSTORE PUSH1 0x20 SWAP2 DUP3 SWAP1 KECCAK256 DUP4 MLOAD SWAP2 ADD DUP1 SLOAD SWAP3 DUP5 ADD MLOAD PUSH1 0x40 DUP6 ADD MLOAD PUSH4 0xFFFFFFFF AND PUSH1 0x1 PUSH1 0xB0 SHL MUL PUSH4 0xFFFFFFFF PUSH1 0xB0 SHL NOT PUSH1 0x1 PUSH1 0x1 PUSH1 0xA0 SHL SUB SWAP1 SWAP3 AND PUSH3 0x10000 MUL PUSH1 0x1 PUSH1 0x1 PUSH1 0xB0 SHL SUB NOT SWAP1 SWAP6 AND PUSH2 0xFFFF SWAP1 SWAP5 AND SWAP4 SWAP1 SWAP4 OR SWAP4 SWAP1 SWAP4 OR SWAP3 DUP4 AND DUP3 OR DUP2 SSTORE PUSH1 0x60 DUP5 ADD MLOAD SWAP1 SWAP3 SWAP1 SWAP2 DUP4 SWAP2 PUSH1 0xFF PUSH1 0xD0 SHL NOT SWAP1 SWAP2 AND PUSH5 0xFFFFFFFFFF PUSH1 0xB0 SHL NOT SWAP1 SWAP2 AND OR PUSH1 0x1 PUSH1 0xD0 SHL DUP4 PUSH1 0x5 DUP2 GT ISZERO PUSH2 0x6D9 JUMPI PUSH2 0x6D9 PUSH2 0x19FF JUMP JUMPDEST MUL OR SWAP1 SSTORE POP PUSH1 0x80 DUP3 ADD MLOAD DUP2 SLOAD PUSH1 0xA0 SWAP1 SWAP4 ADD MLOAD ISZERO ISZERO PUSH1 0x1 PUSH1 0xE0 SHL MUL PUSH1 0xFF PUSH1 0xE0 SHL NOT SWAP2 ISZERO ISZERO PUSH1 0x1 PUSH1 0xD8 SHL MUL SWAP2 SWAP1 SWAP2 AND PUSH2 0xFFFF PUSH1 0xD8 SHL NOT SWAP1 SWAP4 AND SWAP3 SWAP1 SWAP3 OR SWAP2 SWAP1 SWAP2 OR SWAP1 SSTORE PUSH1 0x1 DUP1 SLOAD DUP1 PUSH2 0x72B JUMPI PUSH2 0x72B PUSH2 0x1C01 JUMP JUMPDEST PUSH1 0x0 DUP3 DUP2 MSTORE PUSH1 0x20 SWAP1 KECCAK256 DUP2 ADD PUSH1 0x0 NOT SWAP1 DUP2 ADD DUP1 SLOAD PUSH1 0x1 PUSH1 0x1 PUSH1 0xE8 SHL SUB NOT AND SWAP1 SSTORE ADD SWAP1 SSTORE PUSH32 0x0 PUSH1 0x1 PUSH1 0x1 PUSH1 0xA0 SHL SUB AND PUSH4 0x23B872DD PUSH2 0x794 PUSH1 0x0 SLOAD PUSH1 0x1 PUSH1 0x1 PUSH1 0xA0 SHL SUB PUSH2 0x100 SWAP1 SWAP2 DIV AND SWAP1 JUMP JUMPDEST PUSH1 0x20 DUP6 ADD MLOAD PUSH1 0x40 MLOAD PUSH1 0x1 PUSH1 0x1 PUSH1 0xE0 SHL SUB NOT PUSH1 0xE0 DUP6 SWAP1 SHL AND DUP2 MSTORE PUSH1 0x1 PUSH1 0x1 PUSH1 0xA0 SHL SUB SWAP3 DUP4 AND PUSH1 0x4 DUP3 ADD MSTORE SWAP2 AND PUSH1 0x24 DUP3 ADD MSTORE PUSH1 0x44 DUP2 ADD DUP5 SWAP1 MSTORE PUSH1 0x64 ADD PUSH1 0x20 PUSH1 0x40 MLOAD DUP1 DUP4 SUB DUP2 PUSH1 0x0 DUP8 GAS CALL ISZERO DUP1 ISZERO PUSH2 0x7ED JUMPI RETURNDATASIZE PUSH1 0x0 DUP1 RETURNDATACOPY RETURNDATASIZE PUSH1 0x0 REVERT JUMPDEST POP POP POP POP PUSH1 0x40 MLOAD RETURNDATASIZE PUSH1 0x1F NOT PUSH1 0x1F DUP3 ADD AND DUP3 ADD DUP1 PUSH1 0x40 MSTORE POP DUP2 ADD SWAP1 PUSH2 0x811 SWAP2 SWAP1 PUSH2 0x1C17 JUMP JUMPDEST POP PUSH1 0x40 DUP1 MLOAD DUP7 DUP2 MSTORE PUSH1 0x20 DUP2 ADD DUP4 SWAP1 MSTORE PUSH32 0x676B8D9BCE8758F26A3F18F775D02412A1B90F11055AE15F21C0F43B68CE5961 SWAP2 ADD PUSH1 0x40 MLOAD DUP1 SWAP2 SUB SWAP1 LOG1 POP POP POP POP POP JUMP JUMPDEST PUSH2 0x85A PUSH2 0x1548 JUMP JUMPDEST PUSH1 0x40 MLOAD PUSH1 0x1 PUSH1 0x1 PUSH1 0xA0 SHL SUB DUP3 AND DUP2 MSTORE PUSH32 0x9252F673A302383D6D82C79D6D2D359EF0EB704B0F92F240BF386DB0327998F7 SWAP1 PUSH1 0x20 ADD PUSH1 0x40 MLOAD DUP1 SWAP2 SUB SWAP1 LOG1 POP JUMP JUMPDEST PUSH2 0x8A1 PUSH2 0x1548 JUMP JUMPDEST PUSH2 0x8A9 PUSH2 0x1664 JUMP JUMPDEST JUMP JUMPDEST PUSH1 0x1 SLOAD PUSH1 0x0 SWAP1 PUSH2 0x8BC SWAP1 PUSH1 0x64 PUSH2 0x1BDB JUMP JUMPDEST SWAP1 POP SWAP1 JUMP JUMPDEST PUSH2 0x8C9 PUSH2 0x15A8 JUMP JUMPDEST PUSH1 0x0 DUP2 PUSH1 0x5 DUP2 GT ISZERO PUSH2 0x8DD JUMPI PUSH2 0x8DD PUSH2 0x19FF JUMP JUMPDEST GT PUSH2 0x942 JUMPI PUSH1 0x40 MLOAD PUSH3 0x461BCD PUSH1 0xE5 SHL DUP2 MSTORE PUSH1 0x20 PUSH1 0x4 DUP3 ADD MSTORE PUSH1 0x2F PUSH1 0x24 DUP3 ADD MSTORE PUSH32 0x43616E206E6F742073657420746865206C6F636B696E6720706572696F642077 PUSH1 0x44 DUP3 ADD MSTORE PUSH15 0x34BA34103A3434B9903B30B63AB297 PUSH1 0x89 SHL PUSH1 0x64 DUP3 ADD MSTORE PUSH1 0x84 ADD PUSH2 0x39E JUMP JUMPDEST PUSH1 0x0 PUSH1 0x1 DUP1 SLOAD DUP1 PUSH1 0x20 MUL PUSH1 0x20 ADD PUSH1 0x40 MLOAD SWAP1 DUP2 ADD PUSH1 0x40 MSTORE DUP1 SWAP3 SWAP2 SWAP1 DUP2 DUP2 MSTORE PUSH1 0x20 ADD PUSH1 0x0 SWAP1 JUMPDEST DUP3 DUP3 LT ISZERO PUSH2 0xA29 JUMPI PUSH1 0x0 DUP5 DUP2 MSTORE PUSH1 0x20 SWAP1 DUP2 SWAP1 KECCAK256 PUSH1 0x40 DUP1 MLOAD PUSH1 0xC0 DUP2 ADD DUP3 MSTORE SWAP2 DUP6 ADD DUP1 SLOAD PUSH2 0xFFFF DUP2 AND DUP5 MSTORE PUSH3 0x10000 DUP2 DIV PUSH1 0x1 PUSH1 0x1 PUSH1 0xA0 SHL SUB AND SWAP5 DUP5 ADD SWAP5 SWAP1 SWAP5 MSTORE PUSH1 0x1 PUSH1 0xB0 SHL DUP5 DIV PUSH4 0xFFFFFFFF AND SWAP2 DUP4 ADD SWAP2 SWAP1 SWAP2 MSTORE SWAP1 SWAP2 PUSH1 0x60 DUP4 ADD SWAP1 PUSH1 0x1 PUSH1 0xD0 SHL SWAP1 DIV PUSH1 0xFF AND PUSH1 0x5 DUP2 GT ISZERO PUSH2 0x9DB JUMPI PUSH2 0x9DB PUSH2 0x19FF JUMP JUMPDEST PUSH1 0x5 DUP2 GT ISZERO PUSH2 0x9EC JUMPI PUSH2 0x9EC PUSH2 0x19FF JUMP JUMPDEST DUP2 MSTORE SWAP1 SLOAD PUSH1 0xFF PUSH1 0x1 PUSH1 0xD8 SHL DUP3 DIV DUP2 AND ISZERO ISZERO PUSH1 0x20 DUP1 DUP6 ADD SWAP2 SWAP1 SWAP2 MSTORE PUSH1 0x1 PUSH1 0xE0 SHL SWAP1 SWAP3 DIV AND ISZERO ISZERO PUSH1 0x40 SWAP1 SWAP3 ADD SWAP2 SWAP1 SWAP2 MSTORE SWAP1 DUP3 MSTORE PUSH1 0x1 SWAP1 SWAP3 ADD SWAP2 ADD PUSH2 0x966 JUMP JUMPDEST POP POP POP POP SWAP1 POP PUSH1 0x0 PUSH2 0xA3B DUP3 DUP6 PUSH2 0x15EE JUMP JUMPDEST SWAP1 POP PUSH1 0x0 DUP3 DUP3 DUP2 MLOAD DUP2 LT PUSH2 0xA51 JUMPI PUSH2 0xA51 PUSH2 0x1BAF JUMP JUMPDEST PUSH1 0x20 MUL PUSH1 0x20 ADD ADD MLOAD SWAP1 POP DUP4 PUSH1 0x5 DUP2 GT ISZERO PUSH2 0xA6D JUMPI PUSH2 0xA6D PUSH2 0x19FF JUMP JUMPDEST DUP2 PUSH1 0x60 ADD MLOAD PUSH1 0x5 DUP2 GT ISZERO PUSH2 0xA83 JUMPI PUSH2 0xA83 PUSH2 0x19FF JUMP JUMPDEST LT PUSH2 0xADE JUMPI PUSH1 0x40 MLOAD PUSH3 0x461BCD PUSH1 0xE5 SHL DUP2 MSTORE PUSH1 0x20 PUSH1 0x4 DUP3 ADD MSTORE PUSH1 0x25 PUSH1 0x24 DUP3 ADD MSTORE PUSH32 0x43616E206F6E6C7920696E63726561736520746865206C6F636B696E67207065 PUSH1 0x44 DUP3 ADD MSTORE PUSH5 0x3934B7B217 PUSH1 0xD9 SHL PUSH1 0x64 DUP3 ADD MSTORE PUSH1 0x84 ADD PUSH2 0x39E JUMP JUMPDEST PUSH1 0x0 SLOAD TIMESTAMP PUSH1 0x1 PUSH1 0xB0 SHL SWAP1 SWAP2 DIV PUSH4 0xFFFFFFFF AND LT DUP1 ISZERO SWAP1 PUSH2 0xB13 JUMPI POP PUSH1 0x0 DUP2 PUSH1 0x60 ADD MLOAD PUSH1 0x5 DUP2 GT ISZERO PUSH2 0xB11 JUMPI PUSH2 0xB11 PUSH2 0x19FF JUMP JUMPDEST EQ JUMPDEST ISZERO PUSH2 0xB20 JUMPI PUSH1 0x1 PUSH1 0xA0 DUP3 ADD MSTORE JUMPDEST PUSH1 0x60 DUP2 ADD DUP5 PUSH1 0x5 DUP2 GT ISZERO PUSH2 0xB36 JUMPI PUSH2 0xB36 PUSH2 0x19FF JUMP JUMPDEST SWAP1 DUP2 PUSH1 0x5 DUP2 GT ISZERO PUSH2 0xB49 JUMPI PUSH2 0xB49 PUSH2 0x19FF JUMP JUMPDEST DUP2 MSTORE POP POP DUP1 PUSH1 0x1 DUP4 DUP2 SLOAD DUP2 LT PUSH2 0xB61 JUMPI PUSH2 0xB61 PUSH2 0x1BAF JUMP JUMPDEST PUSH1 0x0 SWAP2 DUP3 MSTORE PUSH1 0x20 SWAP2 DUP3 SWAP1 KECCAK256 DUP4 MLOAD SWAP2 ADD DUP1 SLOAD SWAP3 DUP5 ADD MLOAD PUSH1 0x40 DUP6 ADD MLOAD PUSH4 0xFFFFFFFF AND PUSH1 0x1 PUSH1 0xB0 SHL MUL PUSH4 0xFFFFFFFF PUSH1 0xB0 SHL NOT PUSH1 0x1 PUSH1 0x1 PUSH1 0xA0 SHL SUB SWAP1 SWAP3 AND PUSH3 0x10000 MUL PUSH1 0x1 PUSH1 0x1 PUSH1 0xB0 SHL SUB NOT SWAP1 SWAP6 AND PUSH2 0xFFFF SWAP1 SWAP5 AND SWAP4 SWAP1 SWAP4 OR SWAP4 SWAP1 SWAP4 OR SWAP3 DUP4 AND DUP3 OR DUP2 SSTORE PUSH1 0x60 DUP5 ADD MLOAD SWAP1 SWAP3 SWAP1 SWAP2 DUP4 SWAP2 PUSH1 0xFF PUSH1 0xD0 SHL NOT SWAP1 SWAP2 AND PUSH5 0xFFFFFFFFFF PUSH1 0xB0 SHL NOT SWAP1 SWAP2 AND OR PUSH1 0x1 PUSH1 0xD0 SHL DUP4 PUSH1 0x5 DUP2 GT ISZERO PUSH2 0xBFA JUMPI PUSH2 0xBFA PUSH2 0x19FF JUMP JUMPDEST MUL OR SWAP1 SSTORE POP PUSH1 0x80 DUP3 ADD MLOAD DUP2 SLOAD PUSH1 0xA0 SWAP1 SWAP4 ADD MLOAD ISZERO ISZERO PUSH1 0x1 PUSH1 0xE0 SHL MUL PUSH1 0xFF PUSH1 0xE0 SHL NOT SWAP2 ISZERO ISZERO PUSH1 0x1 PUSH1 0xD8 SHL MUL SWAP2 SWAP1 SWAP2 AND PUSH2 0xFFFF PUSH1 0xD8 SHL NOT SWAP1 SWAP4 AND SWAP3 SWAP1 SWAP3 OR SWAP2 SWAP1 SWAP2 OR SWAP1 SSTORE POP POP POP POP POP JUMP JUMPDEST PUSH2 0xC4A PUSH2 0x1548 JUMP JUMPDEST PUSH2 0x8A9 PUSH1 0x0 PUSH2 0x16B6 JUMP JUMPDEST PUSH2 0xC5C PUSH2 0x1548 JUMP JUMPDEST PUSH2 0x8A9 PUSH2 0x170F JUMP JUMPDEST PUSH2 0xC6C PUSH2 0x1548 JUMP JUMPDEST PUSH2 0xC74 PUSH2 0x15A8 JUMP JUMPDEST PUSH1 0xFF DUP2 GT ISZERO PUSH2 0xCD1 JUMPI PUSH1 0x40 MLOAD PUSH3 0x461BCD PUSH1 0xE5 SHL DUP2 MSTORE PUSH1 0x20 PUSH1 0x4 DUP3 ADD MSTORE PUSH1 0x24 DUP1 DUP3 ADD MSTORE PUSH32 0x546F6F206D616E79206561726C792061646F7074696F6E20626F6E757320736C PUSH1 0x44 DUP3 ADD MSTORE PUSH4 0x37BA3997 PUSH1 0xE1 SHL PUSH1 0x64 DUP3 ADD MSTORE PUSH1 0x84 ADD PUSH2 0x39E JUMP JUMPDEST PUSH1 0x0 DUP1 SLOAD PUSH1 0xFF SWAP1 SWAP3 AND PUSH1 0x1 PUSH1 0xA8 SHL MUL PUSH1 0xFF PUSH1 0xA8 SHL NOT SWAP1 SWAP3 AND SWAP2 SWAP1 SWAP2 OR SWAP1 SSTORE JUMP JUMPDEST PUSH2 0xCF9 PUSH2 0x1548 JUMP JUMPDEST PUSH2 0xD01 PUSH2 0x15A8 JUMP JUMPDEST PUSH4 0xFFFFFFFF DUP2 GT ISZERO PUSH2 0xD61 JUMPI PUSH1 0x40 MLOAD PUSH3 0x461BCD PUSH1 0xE5 SHL DUP2 MSTORE PUSH1 0x20 PUSH1 0x4 DUP3 ADD MSTORE PUSH1 0x24 DUP1 DUP3 ADD MSTORE PUSH32 0x506572696F6420746F6F206C6F6E6720666F7220657874656E74696F6E20626F PUSH1 0x44 DUP3 ADD MSTORE PUSH4 0x373AB997 PUSH1 0xE1 SHL PUSH1 0x64 DUP3 ADD MSTORE PUSH1 0x84 ADD PUSH2 0x39E JUMP JUMPDEST PUSH1 0x0 DUP1 SLOAD PUSH4 0xFFFFFFFF SWAP1 SWAP3 AND PUSH1 0x1 PUSH1 0xB0 SHL MUL PUSH4 0xFFFFFFFF PUSH1 0xB0 SHL NOT SWAP1 SWAP3 AND SWAP2 SWAP1 SWAP2 OR SWAP1 SSTORE JUMP JUMPDEST PUSH2 0xD8F PUSH2 0x15A8 JUMP JUMPDEST PUSH1 0x0 PUSH2 0xD9A DUP3 PUSH2 0x174C JUMP JUMPDEST SWAP1 POP PUSH1 0x0 PUSH2 0xDC5 DUP3 PUSH1 0x40 ADD MLOAD PUSH4 0xFFFFFFFF AND TIMESTAMP PUSH3 0x93A80 PUSH2 0xDBB SWAP2 SWAP1 PUSH2 0x1BEE JUMP JUMPDEST PUSH2 0x5E1 SWAP2 SWAP1 PUSH2 0x1BDB JUMP JUMPDEST SWAP1 POP PUSH1 0x0 PUSH2 0xDDC DUP3 DUP5 PUSH1 0x80 ADD MLOAD DUP6 PUSH1 0xA0 ADD MLOAD PUSH2 0x1408 JUMP JUMPDEST SWAP1 POP PUSH32 0x622EC52892A9917A9F66BD872232D3BEA677DB12565DD6DA5F4BFC14607EC1D7 DUP5 PUSH2 0xE0F DUP4 PUSH5 0x12A05F200 PUSH2 0x1BEE JUMP JUMPDEST PUSH1 0x40 DUP1 MLOAD SWAP3 DUP4 MSTORE PUSH1 0x20 DUP4 ADD SWAP2 SWAP1 SWAP2 MSTORE ADD PUSH1 0x40 MLOAD DUP1 SWAP2 SUB SWAP1 LOG1 POP POP POP POP JUMP JUMPDEST PUSH1 0x60 PUSH1 0x1 DUP1 SLOAD DUP1 PUSH1 0x20 MUL PUSH1 0x20 ADD PUSH1 0x40 MLOAD SWAP1 DUP2 ADD PUSH1 0x40 MSTORE DUP1 SWAP3 SWAP2 SWAP1 DUP2 DUP2 MSTORE PUSH1 0x20 ADD PUSH1 0x0 SWAP1 JUMPDEST DUP3 DUP3 LT ISZERO PUSH2 0xF14 JUMPI PUSH1 0x0 DUP5 DUP2 MSTORE PUSH1 0x20 SWAP1 DUP2 SWAP1 KECCAK256 PUSH1 0x40 DUP1 MLOAD PUSH1 0xC0 DUP2 ADD DUP3 MSTORE SWAP2 DUP6 ADD DUP1 SLOAD PUSH2 0xFFFF DUP2 AND DUP5 MSTORE PUSH3 0x10000 DUP2 DIV PUSH1 0x1 PUSH1 0x1 PUSH1 0xA0 SHL SUB AND SWAP5 DUP5 ADD SWAP5 SWAP1 SWAP5 MSTORE PUSH1 0x1 PUSH1 0xB0 SHL DUP5 DIV PUSH4 0xFFFFFFFF AND SWAP2 DUP4 ADD SWAP2 SWAP1 SWAP2 MSTORE SWAP1 SWAP2 PUSH1 0x60 DUP4 ADD SWAP1 PUSH1 0x1 PUSH1 0xD0 SHL SWAP1 DIV PUSH1 0xFF AND PUSH1 0x5 DUP2 GT ISZERO PUSH2 0xEC6 JUMPI PUSH2 0xEC6 PUSH2 0x19FF JUMP JUMPDEST PUSH1 0x5 DUP2 GT ISZERO PUSH2 0xED7 JUMPI PUSH2 0xED7 PUSH2 0x19FF JUMP JUMPDEST DUP2 MSTORE SWAP1 SLOAD PUSH1 0xFF PUSH1 0x1 PUSH1 0xD8 SHL DUP3 DIV DUP2 AND ISZERO ISZERO PUSH1 0x20 DUP1 DUP6 ADD SWAP2 SWAP1 SWAP2 MSTORE PUSH1 0x1 PUSH1 0xE0 SHL SWAP1 SWAP3 DIV AND ISZERO ISZERO PUSH1 0x40 SWAP1 SWAP3 ADD SWAP2 SWAP1 SWAP2 MSTORE SWAP1 DUP3 MSTORE PUSH1 0x1 SWAP1 SWAP3 ADD SWAP2 ADD PUSH2 0xE51 JUMP JUMPDEST POP POP POP POP SWAP1 POP SWAP1 JUMP JUMPDEST PUSH1 0x1 DUP2 DUP2 SLOAD DUP2 LT PUSH2 0xF2D JUMPI PUSH1 0x0 DUP1 REVERT JUMPDEST PUSH1 0x0 SWAP2 DUP3 MSTORE PUSH1 0x20 SWAP1 SWAP2 KECCAK256 ADD SLOAD PUSH2 0xFFFF DUP2 AND SWAP2 POP PUSH1 0x1 PUSH1 0x1 PUSH1 0xA0 SHL SUB PUSH3 0x10000 DUP3 DIV AND SWAP1 PUSH4 0xFFFFFFFF PUSH1 0x1 PUSH1 0xB0 SHL DUP3 DIV AND SWAP1 PUSH1 0xFF PUSH1 0x1 PUSH1 0xD0 SHL DUP3 DIV DUP2 AND SWAP2 PUSH1 0x1 PUSH1 0xD8 SHL DUP2 DIV DUP3 AND SWAP2 PUSH1 0x1 PUSH1 0xE0 SHL SWAP1 SWAP2 DIV AND DUP7 JUMP JUMPDEST PUSH2 0xF88 PUSH2 0x1548 JUMP JUMPDEST PUSH2 0xF90 PUSH2 0x15A8 JUMP JUMPDEST PUSH1 0x1 SLOAD PUSH1 0x64 GT PUSH2 0xFD8 JUMPI PUSH1 0x40 MLOAD PUSH3 0x461BCD PUSH1 0xE5 SHL DUP2 MSTORE PUSH1 0x20 PUSH1 0x4 DUP3 ADD MSTORE PUSH1 0x13 PUSH1 0x24 DUP3 ADD MSTORE PUSH19 0x27379039B637BA399030BB30B4B630B1363297 PUSH1 0x69 SHL PUSH1 0x44 DUP3 ADD MSTORE PUSH1 0x64 ADD PUSH2 0x39E JUMP JUMPDEST PUSH1 0x40 MLOAD PUSH4 0x6EB1769F PUSH1 0xE1 SHL DUP2 MSTORE PUSH1 0x1 PUSH1 0x1 PUSH1 0xA0 SHL SUB DUP4 DUP2 AND PUSH1 0x4 DUP4 ADD MSTORE ADDRESS PUSH1 0x24 DUP4 ADD MSTORE PUSH5 0x12A05F200 SWAP2 PUSH32 0x0 SWAP1 SWAP2 AND SWAP1 PUSH4 0xDD62ED3E SWAP1 PUSH1 0x44 ADD PUSH1 0x20 PUSH1 0x40 MLOAD DUP1 DUP4 SUB DUP2 DUP7 GAS STATICCALL ISZERO DUP1 ISZERO PUSH2 0x104D JUMPI RETURNDATASIZE PUSH1 0x0 DUP1 RETURNDATACOPY RETURNDATASIZE PUSH1 0x0 REVERT JUMPDEST POP POP POP POP PUSH1 0x40 MLOAD RETURNDATASIZE PUSH1 0x1F NOT PUSH1 0x1F DUP3 ADD AND DUP3 ADD DUP1 PUSH1 0x40 MSTORE POP DUP2 ADD SWAP1 PUSH2 0x1071 SWAP2 SWAP1 PUSH2 0x1B96 JUMP JUMPDEST LT ISZERO PUSH2 0x10B7 JUMPI PUSH1 0x40 MLOAD PUSH3 0x461BCD PUSH1 0xE5 SHL DUP2 MSTORE PUSH1 0x20 PUSH1 0x4 DUP3 ADD MSTORE PUSH1 0x15 PUSH1 0x24 DUP3 ADD MSTORE PUSH21 0x2737BA1032B737BAB3B41030B63637BBB0B731B297 PUSH1 0x59 SHL PUSH1 0x44 DUP3 ADD MSTORE PUSH1 0x64 ADD PUSH2 0x39E JUMP JUMPDEST PUSH1 0x40 MLOAD PUSH4 0x70A08231 PUSH1 0xE0 SHL DUP2 MSTORE PUSH1 0x1 PUSH1 0x1 PUSH1 0xA0 SHL SUB DUP4 DUP2 AND PUSH1 0x4 DUP4 ADD MSTORE PUSH5 0x12A05F200 SWAP2 PUSH32 0x0 SWAP1 SWAP2 AND SWAP1 PUSH4 0x70A08231 SWAP1 PUSH1 0x24 ADD PUSH1 0x20 PUSH1 0x40 MLOAD DUP1 DUP4 SUB DUP2 DUP7 GAS STATICCALL ISZERO DUP1 ISZERO PUSH2 0x1126 JUMPI RETURNDATASIZE PUSH1 0x0 DUP1 RETURNDATACOPY RETURNDATASIZE PUSH1 0x0 REVERT JUMPDEST POP POP POP POP PUSH1 0x40 MLOAD RETURNDATASIZE PUSH1 0x1F NOT PUSH1 0x1F DUP3 ADD AND DUP3 ADD DUP1 PUSH1 0x40 MSTORE POP DUP2 ADD SWAP1 PUSH2 0x114A SWAP2 SWAP1 PUSH2 0x1B96 JUMP JUMPDEST LT ISZERO PUSH2 0x118E JUMPI PUSH1 0x40 MLOAD PUSH3 0x461BCD PUSH1 0xE5 SHL DUP2 MSTORE PUSH1 0x20 PUSH1 0x4 DUP3 ADD MSTORE PUSH1 0x13 PUSH1 0x24 DUP3 ADD MSTORE PUSH19 0x2737BA1032B737BAB3B4103130B630B731B297 PUSH1 0x69 SHL PUSH1 0x44 DUP3 ADD MSTORE PUSH1 0x64 ADD PUSH2 0x39E JUMP JUMPDEST PUSH1 0x0 DUP1 SLOAD PUSH1 0x1 PUSH2 0xFFFF PUSH1 0x1 PUSH1 0xD0 SHL DUP1 DUP5 DIV DUP3 AND SWAP3 SWAP1 SWAP3 ADD DUP2 AND DUP3 MUL PUSH2 0xFFFF PUSH1 0xD0 SHL NOT SWAP1 SWAP4 AND SWAP3 SWAP1 SWAP3 OR DUP1 DUP5 SSTORE DIV AND SWAP1 POP PUSH1 0x1 PUSH1 0x40 MLOAD DUP1 PUSH1 0xC0 ADD PUSH1 0x40 MSTORE DUP1 DUP4 PUSH2 0xFFFF AND DUP2 MSTORE PUSH1 0x20 ADD DUP6 PUSH1 0x1 PUSH1 0x1 PUSH1 0xA0 SHL SUB AND DUP2 MSTORE PUSH1 0x20 ADD TIMESTAMP PUSH4 0xFFFFFFFF AND DUP2 MSTORE PUSH1 0x20 ADD DUP5 PUSH1 0x5 DUP2 GT ISZERO PUSH2 0x1202 JUMPI PUSH2 0x1202 PUSH2 0x19FF JUMP JUMPDEST DUP2 MSTORE PUSH1 0x20 ADD PUSH2 0x120F PUSH2 0x18E7 JUMP JUMPDEST ISZERO ISZERO DUP2 MSTORE PUSH1 0x0 PUSH1 0x20 SWAP2 DUP3 ADD DUP2 SWAP1 MSTORE DUP4 SLOAD PUSH1 0x1 DUP2 ADD DUP6 SSTORE SWAP4 DUP2 MSTORE DUP2 SWAP1 KECCAK256 DUP3 MLOAD SWAP4 ADD DUP1 SLOAD SWAP2 DUP4 ADD MLOAD PUSH1 0x40 DUP5 ADD MLOAD PUSH4 0xFFFFFFFF AND PUSH1 0x1 PUSH1 0xB0 SHL MUL PUSH4 0xFFFFFFFF PUSH1 0xB0 SHL NOT PUSH1 0x1 PUSH1 0x1 PUSH1 0xA0 SHL SUB SWAP1 SWAP3 AND PUSH3 0x10000 MUL PUSH1 0x1 PUSH1 0x1 PUSH1 0xB0 SHL SUB NOT SWAP1 SWAP5 AND PUSH2 0xFFFF SWAP1 SWAP7 AND SWAP6 SWAP1 SWAP6 OR SWAP3 SWAP1 SWAP3 OR SWAP2 DUP3 AND DUP5 OR DUP2 SSTORE PUSH1 0x60 DUP4 ADD MLOAD SWAP3 SWAP4 SWAP1 SWAP3 SWAP2 DUP4 SWAP2 PUSH1 0xFF PUSH1 0xD0 SHL NOT AND PUSH5 0xFFFFFFFFFF PUSH1 0xB0 SHL NOT SWAP1 SWAP2 AND OR PUSH1 0x1 PUSH1 0xD0 SHL DUP4 PUSH1 0x5 DUP2 GT ISZERO PUSH2 0x12B8 JUMPI PUSH2 0x12B8 PUSH2 0x19FF JUMP JUMPDEST MUL OR SWAP1 SSTORE POP PUSH1 0x80 DUP3 ADD MLOAD DUP2 SLOAD PUSH1 0xA0 SWAP1 SWAP4 ADD MLOAD ISZERO ISZERO PUSH1 0x1 PUSH1 0xE0 SHL MUL PUSH1 0xFF PUSH1 0xE0 SHL NOT SWAP2 ISZERO ISZERO PUSH1 0x1 PUSH1 0xD8 SHL MUL SWAP2 SWAP1 SWAP2 AND PUSH2 0xFFFF PUSH1 0xD8 SHL NOT SWAP1 SWAP4 AND SWAP3 SWAP1 SWAP3 OR SWAP2 SWAP1 SWAP2 OR SWAP1 SSTORE PUSH1 0x1 PUSH1 0x1 PUSH1 0xA0 SHL SUB PUSH32 0x0 AND PUSH4 0x23B872DD DUP5 PUSH2 0x1341 PUSH1 0x0 SLOAD PUSH1 0x1 PUSH1 0x1 PUSH1 0xA0 SHL SUB PUSH2 0x100 SWAP1 SWAP2 DIV AND SWAP1 JUMP JUMPDEST PUSH1 0x40 MLOAD PUSH1 0x1 PUSH1 0x1 PUSH1 0xE0 SHL SUB NOT PUSH1 0xE0 DUP6 SWAP1 SHL AND DUP2 MSTORE PUSH1 0x1 PUSH1 0x1 PUSH1 0xA0 SHL SUB SWAP3 DUP4 AND PUSH1 0x4 DUP3 ADD MSTORE SWAP2 AND PUSH1 0x24 DUP3 ADD MSTORE PUSH5 0x12A05F200 PUSH1 0x44 DUP3 ADD MSTORE PUSH1 0x64 ADD PUSH1 0x20 PUSH1 0x40 MLOAD DUP1 DUP4 SUB DUP2 PUSH1 0x0 DUP8 GAS CALL ISZERO DUP1 ISZERO PUSH2 0x1399 JUMPI RETURNDATASIZE PUSH1 0x0 DUP1 RETURNDATACOPY RETURNDATASIZE PUSH1 0x0 REVERT JUMPDEST POP POP POP POP PUSH1 0x40 MLOAD RETURNDATASIZE PUSH1 0x1F NOT PUSH1 0x1F DUP3 ADD AND DUP3 ADD DUP1 PUSH1 0x40 MSTORE POP DUP2 ADD SWAP1 PUSH2 0x13BD SWAP2 SWAP1 PUSH2 0x1C17 JUMP JUMPDEST POP PUSH1 0x40 DUP1 MLOAD PUSH1 0x1 PUSH1 0x1 PUSH1 0xA0 SHL SUB DUP6 AND DUP2 MSTORE PUSH2 0xFFFF DUP4 AND PUSH1 0x20 DUP3 ADD MSTORE PUSH32 0x79000773AC921E1702F7F3D9D7416DFE1F2B07606EE63066874AC05A6A42973E SWAP2 ADD PUSH1 0x40 MLOAD DUP1 SWAP2 SUB SWAP1 LOG1 POP POP POP JUMP JUMPDEST PUSH1 0x0 DUP1 PUSH1 0xB4 DUP6 GT PUSH2 0x141D JUMPI PUSH1 0x0 SWAP2 POP POP PUSH2 0x14C8 JUMP JUMPDEST PUSH2 0x16D DUP6 GT PUSH2 0x142E JUMPI POP PUSH1 0x5 PUSH2 0x147B JUMP JUMPDEST PUSH2 0x2DA DUP6 GT PUSH2 0x143F JUMPI POP PUSH1 0x5 PUSH2 0x147B JUMP JUMPDEST PUSH2 0x447 DUP6 GT PUSH2 0x1450 JUMPI POP PUSH1 0x6 PUSH2 0x147B JUMP JUMPDEST PUSH2 0x5B4 DUP6 GT PUSH2 0x1461 JUMPI POP PUSH1 0x7 PUSH2 0x147B JUMP JUMPDEST PUSH2 0x721 DUP6 GT PUSH2 0x1472 JUMPI POP PUSH1 0x8 PUSH2 0x147B JUMP JUMPDEST POP PUSH2 0x721 SWAP4 POP PUSH1 0x9 JUMPDEST DUP4 ISZERO PUSH2 0x1485 JUMPI PUSH1 0x1 ADD JUMPDEST DUP3 DUP1 ISZERO PUSH2 0x1494 JUMPI POP PUSH2 0x16D DUP6 LT ISZERO JUMPDEST ISZERO PUSH2 0x149D JUMPI PUSH1 0x1 ADD JUMPDEST PUSH2 0x8E94 DUP6 PUSH2 0x14B0 DUP4 PUSH5 0x12A05F200 PUSH2 0x1C34 JUMP JUMPDEST PUSH2 0x14BA SWAP2 SWAP1 PUSH2 0x1C34 JUMP JUMPDEST PUSH2 0x14C4 SWAP2 SWAP1 PUSH2 0x1C4B JUMP JUMPDEST SWAP2 POP POP JUMPDEST SWAP4 SWAP3 POP POP POP JUMP JUMPDEST PUSH2 0x14D7 PUSH2 0x1548 JUMP JUMPDEST PUSH1 0x1 PUSH1 0x1 PUSH1 0xA0 SHL SUB DUP2 AND PUSH2 0x153C JUMPI PUSH1 0x40 MLOAD PUSH3 0x461BCD PUSH1 0xE5 SHL DUP2 MSTORE PUSH1 0x20 PUSH1 0x4 DUP3 ADD MSTORE PUSH1 0x26 PUSH1 0x24 DUP3 ADD MSTORE PUSH32 0x4F776E61626C653A206E6577206F776E657220697320746865207A65726F2061 PUSH1 0x44 DUP3 ADD MSTORE PUSH6 0x646472657373 PUSH1 0xD0 SHL PUSH1 0x64 DUP3 ADD MSTORE PUSH1 0x84 ADD PUSH2 0x39E JUMP JUMPDEST PUSH2 0x1545 DUP2 PUSH2 0x16B6 JUMP JUMPDEST POP JUMP JUMPDEST PUSH1 0x0 SLOAD PUSH1 0x1 PUSH1 0x1 PUSH1 0xA0 SHL SUB PUSH2 0x100 SWAP1 SWAP2 DIV AND CALLER EQ PUSH2 0x8A9 JUMPI PUSH1 0x40 MLOAD PUSH3 0x461BCD PUSH1 0xE5 SHL DUP2 MSTORE PUSH1 0x20 PUSH1 0x4 DUP3 ADD DUP2 SWAP1 MSTORE PUSH1 0x24 DUP3 ADD MSTORE PUSH32 0x4F776E61626C653A2063616C6C6572206973206E6F7420746865206F776E6572 PUSH1 0x44 DUP3 ADD MSTORE PUSH1 0x64 ADD PUSH2 0x39E JUMP JUMPDEST PUSH1 0x0 SLOAD PUSH1 0xFF AND ISZERO PUSH2 0x8A9 JUMPI PUSH1 0x40 MLOAD PUSH3 0x461BCD PUSH1 0xE5 SHL DUP2 MSTORE PUSH1 0x20 PUSH1 0x4 DUP3 ADD MSTORE PUSH1 0x10 PUSH1 0x24 DUP3 ADD MSTORE PUSH16 0x14185D5CD8589B194E881C185D5CD959 PUSH1 0x82 SHL PUSH1 0x44 DUP3 ADD MSTORE PUSH1 0x64 ADD PUSH2 0x39E JUMP JUMPDEST PUSH1 0x0 DUP1 JUMPDEST DUP4 MLOAD DUP2 LT ISZERO PUSH2 0x1632 JUMPI DUP3 DUP5 DUP3 DUP2 MLOAD DUP2 LT PUSH2 0x160E JUMPI PUSH2 0x160E PUSH2 0x1BAF JUMP JUMPDEST PUSH1 0x20 MUL PUSH1 0x20 ADD ADD MLOAD PUSH1 0x0 ADD MLOAD PUSH2 0xFFFF AND SUB PUSH2 0x162A JUMPI SWAP1 POP PUSH2 0x164F JUMP JUMPDEST PUSH1 0x1 ADD PUSH2 0x15F2 JUMP JUMPDEST POP PUSH1 0x40 MLOAD PUSH4 0x1585BDAB PUSH1 0xE3 SHL DUP2 MSTORE PUSH1 0x4 DUP2 ADD DUP4 SWAP1 MSTORE PUSH1 0x24 ADD PUSH2 0x39E JUMP JUMPDEST SWAP3 SWAP2 POP POP JUMP JUMPDEST PUSH1 0x0 PUSH2 0x164F PUSH3 0x15180 DUP4 PUSH2 0x1C4B JUMP JUMPDEST PUSH2 0x166C PUSH2 0x192B JUMP JUMPDEST PUSH1 0x0 DUP1 SLOAD PUSH1 0xFF NOT AND SWAP1 SSTORE PUSH32 0x5DB9EE0A495BF2E6FF9C91A7834C1BA4FDD244A5E8AA4E537BD38AEAE4B073AA CALLER JUMPDEST PUSH1 0x40 MLOAD PUSH1 0x1 PUSH1 0x1 PUSH1 0xA0 SHL SUB SWAP1 SWAP2 AND DUP2 MSTORE PUSH1 0x20 ADD PUSH1 0x40 MLOAD DUP1 SWAP2 SUB SWAP1 LOG1 JUMP JUMPDEST PUSH1 0x0 DUP1 SLOAD PUSH1 0x1 PUSH1 0x1 PUSH1 0xA0 SHL SUB DUP4 DUP2 AND PUSH2 0x100 DUP2 DUP2 MUL PUSH2 0x100 PUSH1 0x1 PUSH1 0xA8 SHL SUB NOT DUP6 AND OR DUP6 SSTORE PUSH1 0x40 MLOAD SWAP4 DIV SWAP2 SWAP1 SWAP2 AND SWAP3 SWAP1 SWAP2 DUP4 SWAP2 PUSH32 0x8BE0079C531659141344CD1FD0A4F28419497F9722A3DAAFE3B4186F6B6457E0 SWAP2 LOG3 POP POP JUMP JUMPDEST PUSH2 0x1717 PUSH2 0x15A8 JUMP JUMPDEST PUSH1 0x0 DUP1 SLOAD PUSH1 0xFF NOT AND PUSH1 0x1 OR SWAP1 SSTORE PUSH32 0x62E78CEA01BEE320CD4E420270B5EA74000D11B0C9F74754EBDBFC544B05A258 PUSH2 0x1699 CALLER SWAP1 JUMP JUMPDEST PUSH1 0x40 DUP1 MLOAD PUSH1 0xC0 DUP2 ADD DUP3 MSTORE PUSH1 0x0 DUP1 DUP3 MSTORE PUSH1 0x20 DUP3 ADD DUP2 SWAP1 MSTORE SWAP2 DUP2 ADD DUP3 SWAP1 MSTORE PUSH1 0x60 DUP2 ADD DUP3 SWAP1 MSTORE PUSH1 0x80 DUP2 ADD DUP3 SWAP1 MSTORE PUSH1 0xA0 DUP2 ADD SWAP2 SWAP1 SWAP2 MSTORE PUSH1 0x0 PUSH1 0x1 DUP1 SLOAD DUP1 PUSH1 0x20 MUL PUSH1 0x20 ADD PUSH1 0x40 MLOAD SWAP1 DUP2 ADD PUSH1 0x40 MSTORE DUP1 SWAP3 SWAP2 SWAP1 DUP2 DUP2 MSTORE PUSH1 0x20 ADD PUSH1 0x0 SWAP1 JUMPDEST DUP3 DUP3 LT ISZERO PUSH2 0x1865 JUMPI PUSH1 0x0 DUP5 DUP2 MSTORE PUSH1 0x20 SWAP1 DUP2 SWAP1 KECCAK256 PUSH1 0x40 DUP1 MLOAD PUSH1 0xC0 DUP2 ADD DUP3 MSTORE SWAP2 DUP6 ADD DUP1 SLOAD PUSH2 0xFFFF DUP2 AND DUP5 MSTORE PUSH3 0x10000 DUP2 DIV PUSH1 0x1 PUSH1 0x1 PUSH1 0xA0 SHL SUB AND SWAP5 DUP5 ADD SWAP5 SWAP1 SWAP5 MSTORE PUSH1 0x1 PUSH1 0xB0 SHL DUP5 DIV PUSH4 0xFFFFFFFF AND SWAP2 DUP4 ADD SWAP2 SWAP1 SWAP2 MSTORE SWAP1 SWAP2 PUSH1 0x60 DUP4 ADD SWAP1 PUSH1 0x1 PUSH1 0xD0 SHL SWAP1 DIV PUSH1 0xFF AND PUSH1 0x5 DUP2 GT ISZERO PUSH2 0x1817 JUMPI PUSH2 0x1817 PUSH2 0x19FF JUMP JUMPDEST PUSH1 0x5 DUP2 GT ISZERO PUSH2 0x1828 JUMPI PUSH2 0x1828 PUSH2 0x19FF JUMP JUMPDEST DUP2 MSTORE SWAP1 SLOAD PUSH1 0xFF PUSH1 0x1 PUSH1 0xD8 SHL DUP3 DIV DUP2 AND ISZERO ISZERO PUSH1 0x20 DUP1 DUP6 ADD SWAP2 SWAP1 SWAP2 MSTORE PUSH1 0x1 PUSH1 0xE0 SHL SWAP1 SWAP3 DIV AND ISZERO ISZERO PUSH1 0x40 SWAP1 SWAP3 ADD SWAP2 SWAP1 SWAP2 MSTORE SWAP1 DUP3 MSTORE PUSH1 0x1 SWAP1 SWAP3 ADD SWAP2 ADD PUSH2 0x17A2 JUMP JUMPDEST POP POP POP POP SWAP1 POP PUSH1 0x0 JUMPDEST DUP2 MLOAD DUP2 LT ISZERO PUSH2 0x18CA JUMPI DUP4 DUP3 DUP3 DUP2 MLOAD DUP2 LT PUSH2 0x188A JUMPI PUSH2 0x188A PUSH2 0x1BAF JUMP JUMPDEST PUSH1 0x20 MUL PUSH1 0x20 ADD ADD MLOAD PUSH1 0x0 ADD MLOAD PUSH2 0xFFFF AND SUB PUSH2 0x18C2 JUMPI DUP2 DUP2 DUP2 MLOAD DUP2 LT PUSH2 0x18B1 JUMPI PUSH2 0x18B1 PUSH2 0x1BAF JUMP JUMPDEST PUSH1 0x20 MUL PUSH1 0x20 ADD ADD MLOAD SWAP3 POP POP POP SWAP2 SWAP1 POP JUMP JUMPDEST PUSH1 0x1 ADD PUSH2 0x186E JUMP JUMPDEST POP PUSH1 0x40 MLOAD PUSH4 0x1585BDAB PUSH1 0xE3 SHL DUP2 MSTORE PUSH1 0x4 DUP2 ADD DUP5 SWAP1 MSTORE PUSH1 0x24 ADD PUSH2 0x39E JUMP JUMPDEST PUSH1 0x0 DUP1 SLOAD PUSH1 0x1 PUSH1 0xA8 SHL SWAP1 DIV PUSH1 0xFF AND ISZERO PUSH2 0x1925 JUMPI POP PUSH1 0x0 DUP1 SLOAD PUSH1 0x0 NOT PUSH1 0xFF PUSH1 0x1 PUSH1 0xA8 SHL DUP1 DUP5 DIV DUP3 AND SWAP3 SWAP1 SWAP3 ADD AND MUL PUSH1 0xFF PUSH1 0xA8 SHL NOT SWAP1 SWAP2 AND OR SWAP1 SSTORE PUSH1 0x1 SWAP1 JUMP JUMPDEST POP PUSH1 0x0 SWAP1 JUMP JUMPDEST PUSH1 0x0 SLOAD PUSH1 0xFF AND PUSH2 0x8A9 JUMPI PUSH1 0x40 MLOAD PUSH3 0x461BCD PUSH1 0xE5 SHL DUP2 MSTORE PUSH1 0x20 PUSH1 0x4 DUP3 ADD MSTORE PUSH1 0x14 PUSH1 0x24 DUP3 ADD MSTORE PUSH20 0x14185D5CD8589B194E881B9BDD081C185D5CD959 PUSH1 0x62 SHL PUSH1 0x44 DUP3 ADD MSTORE PUSH1 0x64 ADD PUSH2 0x39E JUMP JUMPDEST PUSH1 0x0 PUSH1 0x20 DUP3 DUP5 SUB SLT ISZERO PUSH2 0x1986 JUMPI PUSH1 0x0 DUP1 REVERT JUMPDEST POP CALLDATALOAD SWAP2 SWAP1 POP JUMP JUMPDEST DUP1 CALLDATALOAD PUSH1 0x1 PUSH1 0x1 PUSH1 0xA0 SHL SUB DUP2 AND DUP2 EQ PUSH2 0x19A4 JUMPI PUSH1 0x0 DUP1 REVERT JUMPDEST SWAP2 SWAP1 POP JUMP JUMPDEST PUSH1 0x0 PUSH1 0x20 DUP3 DUP5 SUB SLT ISZERO PUSH2 0x19BB JUMPI PUSH1 0x0 DUP1 REVERT JUMPDEST PUSH2 0x14C8 DUP3 PUSH2 0x198D JUMP JUMPDEST DUP1 CALLDATALOAD PUSH1 0x6 DUP2 LT PUSH2 0x19A4 JUMPI PUSH1 0x0 DUP1 REVERT JUMPDEST PUSH1 0x0 DUP1 PUSH1 0x40 DUP4 DUP6 SUB SLT ISZERO PUSH2 0x19E6 JUMPI PUSH1 0x0 DUP1 REVERT JUMPDEST DUP3 CALLDATALOAD SWAP2 POP PUSH2 0x19F6 PUSH1 0x20 DUP5 ADD PUSH2 0x19C4 JUMP JUMPDEST SWAP1 POP SWAP3 POP SWAP3 SWAP1 POP JUMP JUMPDEST PUSH4 0x4E487B71 PUSH1 0xE0 SHL PUSH1 0x0 MSTORE PUSH1 0x21 PUSH1 0x4 MSTORE PUSH1 0x24 PUSH1 0x0 REVERT JUMPDEST PUSH1 0x6 DUP2 LT PUSH2 0x1A33 JUMPI PUSH4 0x4E487B71 PUSH1 0xE0 SHL PUSH1 0x0 MSTORE PUSH1 0x21 PUSH1 0x4 MSTORE PUSH1 0x24 PUSH1 0x0 REVERT JUMPDEST SWAP1 MSTORE JUMP JUMPDEST PUSH1 0x20 DUP1 DUP3 MSTORE DUP3 MLOAD DUP3 DUP3 ADD DUP2 SWAP1 MSTORE PUSH1 0x0 SWAP2 SWAP1 PUSH1 0x40 SWAP1 DUP2 DUP6 ADD SWAP1 DUP7 DUP5 ADD DUP6 JUMPDEST DUP3 DUP2 LT ISZERO PUSH2 0x1AC3 JUMPI DUP2 MLOAD DUP1 MLOAD PUSH2 0xFFFF AND DUP6 MSTORE DUP7 DUP2 ADD MLOAD PUSH1 0x1 PUSH1 0x1 PUSH1 0xA0 SHL SUB AND DUP8 DUP7 ADD MSTORE DUP6 DUP2 ADD MLOAD PUSH4 0xFFFFFFFF AND DUP7 DUP7 ADD MSTORE PUSH1 0x60 DUP1 DUP3 ADD MLOAD PUSH2 0x1A97 DUP3 DUP9 ADD DUP3 PUSH2 0x1A15 JUMP JUMPDEST POP POP PUSH1 0x80 DUP2 DUP2 ADD MLOAD ISZERO ISZERO SWAP1 DUP7 ADD MSTORE PUSH1 0xA0 SWAP1 DUP2 ADD MLOAD ISZERO ISZERO SWAP1 DUP6 ADD MSTORE PUSH1 0xC0 SWAP1 SWAP4 ADD SWAP3 SWAP1 DUP6 ADD SWAP1 PUSH1 0x1 ADD PUSH2 0x1A54 JUMP JUMPDEST POP SWAP2 SWAP8 SWAP7 POP POP POP POP POP POP POP JUMP JUMPDEST PUSH2 0xFFFF DUP8 AND DUP2 MSTORE PUSH1 0x1 PUSH1 0x1 PUSH1 0xA0 SHL SUB DUP7 AND PUSH1 0x20 DUP3 ADD MSTORE PUSH4 0xFFFFFFFF DUP6 AND PUSH1 0x40 DUP3 ADD MSTORE PUSH1 0xC0 DUP2 ADD PUSH2 0x1B03 PUSH1 0x60 DUP4 ADD DUP7 PUSH2 0x1A15 JUMP JUMPDEST SWAP3 ISZERO ISZERO PUSH1 0x80 DUP3 ADD MSTORE SWAP1 ISZERO ISZERO PUSH1 0xA0 SWAP1 SWAP2 ADD MSTORE SWAP5 SWAP4 POP POP POP POP JUMP JUMPDEST PUSH1 0x0 DUP1 PUSH1 0x40 DUP4 DUP6 SUB SLT ISZERO PUSH2 0x1B2F JUMPI PUSH1 0x0 DUP1 REVERT JUMPDEST PUSH2 0x1B38 DUP4 PUSH2 0x198D JUMP JUMPDEST SWAP2 POP PUSH2 0x19F6 PUSH1 0x20 DUP5 ADD PUSH2 0x19C4 JUMP JUMPDEST DUP1 ISZERO ISZERO DUP2 EQ PUSH2 0x1545 JUMPI PUSH1 0x0 DUP1 REVERT JUMPDEST PUSH1 0x0 DUP1 PUSH1 0x0 PUSH1 0x60 DUP5 DUP7 SUB SLT ISZERO PUSH2 0x1B69 JUMPI PUSH1 0x0 DUP1 REVERT JUMPDEST DUP4 CALLDATALOAD SWAP3 POP PUSH1 0x20 DUP5 ADD CALLDATALOAD PUSH2 0x1B7B DUP2 PUSH2 0x1B46 JUMP JUMPDEST SWAP2 POP PUSH1 0x40 DUP5 ADD CALLDATALOAD PUSH2 0x1B8B DUP2 PUSH2 0x1B46 JUMP JUMPDEST DUP1 SWAP2 POP POP SWAP3 POP SWAP3 POP SWAP3 JUMP JUMPDEST PUSH1 0x0 PUSH1 0x20 DUP3 DUP5 SUB SLT ISZERO PUSH2 0x1BA8 JUMPI PUSH1 0x0 DUP1 REVERT JUMPDEST POP MLOAD SWAP2 SWAP1 POP JUMP JUMPDEST PUSH4 0x4E487B71 PUSH1 0xE0 SHL PUSH1 0x0 MSTORE PUSH1 0x32 PUSH1 0x4 MSTORE PUSH1 0x24 PUSH1 0x0 REVERT JUMPDEST PUSH4 0x4E487B71 PUSH1 0xE0 SHL PUSH1 0x0 MSTORE PUSH1 0x11 PUSH1 0x4 MSTORE PUSH1 0x24 PUSH1 0x0 REVERT JUMPDEST DUP2 DUP2 SUB DUP2 DUP2 GT ISZERO PUSH2 0x164F JUMPI PUSH2 0x164F PUSH2 0x1BC5 JUMP JUMPDEST DUP1 DUP3 ADD DUP1 DUP3 GT ISZERO PUSH2 0x164F JUMPI PUSH2 0x164F PUSH2 0x1BC5 JUMP JUMPDEST PUSH4 0x4E487B71 PUSH1 0xE0 SHL PUSH1 0x0 MSTORE PUSH1 0x31 PUSH1 0x4 MSTORE PUSH1 0x24 PUSH1 0x0 REVERT JUMPDEST PUSH1 0x0 PUSH1 0x20 DUP3 DUP5 SUB SLT ISZERO PUSH2 0x1C29 JUMPI PUSH1 0x0 DUP1 REVERT JUMPDEST DUP2 MLOAD PUSH2 0x14C8 DUP2 PUSH2 0x1B46 JUMP JUMPDEST DUP1 DUP3 MUL DUP2 ISZERO DUP3 DUP3 DIV DUP5 EQ OR PUSH2 0x164F JUMPI PUSH2 0x164F PUSH2 0x1BC5 JUMP JUMPDEST PUSH1 0x0 DUP3 PUSH2 0x1C68 JUMPI PUSH4 0x4E487B71 PUSH1 0xE0 SHL PUSH1 0x0 MSTORE PUSH1 0x12 PUSH1 0x4 MSTORE PUSH1 0x24 PUSH1 0x0 REVERT JUMPDEST POP DIV SWAP1 JUMP INVALID LOG2 PUSH5 0x6970667358 0x22 SLT KECCAK256 0xE7 PUSH20 0x91E0DF309AF6810DEA7966F67F97B8CC3DABD12D 0xC2 DUP16 PUSH28 0x596419717FF86164736F6C6343000813003300000000000000000000 "},"methodIdentifiers":{"approveDeposit(address,uint8)":"d479220d","calculateYield(uint256,bool,bool)":"e61d2220","deposits(uint256)":"b02c43d0","executeWithdraw(uint256)":"2104ebf1","extendLockPeriod(uint256,uint8)":"6220e819","getAvailableSlotCount()":"60395088","getSlotValue()":"f8bb2414","getUsedSlots()":"a8aa4b87","owner()":"8da5cb5b","pause()":"8456cb59","paused()":"5c975abb","rejectDeposit(address)":"2244e1c7","renounceOwnership()":"715018a6","requestWithdrawal(uint256)":"9ee679e8","setEarlyAdotpSlots(uint256)":"8b57f787","setExtendLockPeriodBonus(uint256)":"952f0417","transferOwnership(address)":"f2fde38b","unpause()":"3f4ba83a"}},"storageLayout":{"storage":[{"astId":130,"contract":"contracts/KratosX.sol:KratosX","label":"_paused","offset":0,"slot":"0","type":"t_bool"},{"astId":7,"contract":"contracts/KratosX.sol:KratosX","label":"_owner","offset":1,"slot":"0","type":"t_address"},{"astId":1027,"contract":"contracts/KratosX.sol:KratosX","label":"earlyAdoptBonus","offset":21,"slot":"0","type":"t_uint8"},{"astId":1029,"contract":"contracts/KratosX.sol:KratosX","label":"extendLockPeriodBonusLimit","offset":22,"slot":"0","type":"t_uint32"},{"astId":1031,"contract":"contracts/KratosX.sol:KratosX","label":"autoIncrementedId","offset":26,"slot":"0","type":"t_uint16"},{"astId":1035,"contract":"contracts/KratosX.sol:KratosX","label":"deposits","offset":0,"slot":"1","type":"t_array(t_struct(Deposit)1016_storage)dyn_storage"}],"types":{"t_address":{"encoding":"inplace","label":"address","numberOfBytes":"20"},"t_array(t_struct(Deposit)1016_storage)dyn_storage":{"base":"t_struct(Deposit)1016_storage","encoding":"dynamic_array","label":"struct KratosX.Deposit[]","numberOfBytes":"32"},"t_bool":{"encoding":"inplace","label":"bool","numberOfBytes":"1"},"t_enum(LockPeriod)968":{"encoding":"inplace","label":"enum KratosX.LockPeriod","numberOfBytes":"1"},"t_struct(Deposit)1016_storage":{"encoding":"inplace","label":"struct KratosX.Deposit","members":[{"astId":1004,"contract":"contracts/KratosX.sol:KratosX","label":"id","offset":0,"slot":"0","type":"t_uint16"},{"astId":1006,"contract":"contracts/KratosX.sol:KratosX","label":"owner","offset":2,"slot":"0","type":"t_address"},{"astId":1008,"contract":"contracts/KratosX.sol:KratosX","label":"approveTimestamp","offset":22,"slot":"0","type":"t_uint32"},{"astId":1011,"contract":"contracts/KratosX.sol:KratosX","label":"lockPeriod","offset":26,"slot":"0","type":"t_enum(LockPeriod)968"},{"astId":1013,"contract":"contracts/KratosX.sol:KratosX","label":"hasEarlyAdoptBonus","offset":27,"slot":"0","type":"t_bool"},{"astId":1015,"contract":"contracts/KratosX.sol:KratosX","label":"hasExtendPeriodBonus","offset":28,"slot":"0","type":"t_bool"}],"numberOfBytes":"32"},"t_uint16":{"encoding":"inplace","label":"uint16","numberOfBytes":"2"},"t_uint32":{"encoding":"inplace","label":"uint32","numberOfBytes":"4"},"t_uint8":{"encoding":"inplace","label":"uint8","numberOfBytes":"1"}}}}}}