{
  "_format": "hh-sol-artifact-1",
  "contractName": "KratosXDeposit",
  "sourceName": "contracts/KratosXDeposit.sol",
  "abi": [
    {
      "inputs": [
        {
          "internalType": "address",
          "name": "token",
          "type": "address"
        },
        {
          "internalType": "address",
          "name": "admin",
          "type": "address"
        },
        {
          "internalType": "address",
          "name": "operator",
          "type": "address"
        }
      ],
      "stateMutability": "nonpayable",
      "type": "constructor"
    },
    {
      "inputs": [],
      "name": "AccessControlBadConfirmation",
      "type": "error"
    },
    {
      "inputs": [
        {
          "internalType": "address",
          "name": "account",
          "type": "address"
        },
        {
          "internalType": "bytes32",
          "name": "neededRole",
          "type": "bytes32"
        }
      ],
      "name": "AccessControlUnauthorizedAccount",
      "type": "error"
    },
    {
      "inputs": [
        {
          "internalType": "address",
          "name": "sender",
          "type": "address"
        },
        {
          "internalType": "uint256",
          "name": "tokenId",
          "type": "uint256"
        },
        {
          "internalType": "address",
          "name": "owner",
          "type": "address"
        }
      ],
      "name": "ERC721IncorrectOwner",
      "type": "error"
    },
    {
      "inputs": [
        {
          "internalType": "address",
          "name": "operator",
          "type": "address"
        },
        {
          "internalType": "uint256",
          "name": "tokenId",
          "type": "uint256"
        }
      ],
      "name": "ERC721InsufficientApproval",
      "type": "error"
    },
    {
      "inputs": [
        {
          "internalType": "address",
          "name": "approver",
          "type": "address"
        }
      ],
      "name": "ERC721InvalidApprover",
      "type": "error"
    },
    {
      "inputs": [
        {
          "internalType": "address",
          "name": "operator",
          "type": "address"
        }
      ],
      "name": "ERC721InvalidOperator",
      "type": "error"
    },
    {
      "inputs": [
        {
          "internalType": "address",
          "name": "owner",
          "type": "address"
        }
      ],
      "name": "ERC721InvalidOwner",
      "type": "error"
    },
    {
      "inputs": [
        {
          "internalType": "address",
          "name": "receiver",
          "type": "address"
        }
      ],
      "name": "ERC721InvalidReceiver",
      "type": "error"
    },
    {
      "inputs": [
        {
          "internalType": "address",
          "name": "sender",
          "type": "address"
        }
      ],
      "name": "ERC721InvalidSender",
      "type": "error"
    },
    {
      "inputs": [
        {
          "internalType": "uint256",
          "name": "tokenId",
          "type": "uint256"
        }
      ],
      "name": "ERC721NonexistentToken",
      "type": "error"
    },
    {
      "inputs": [],
      "name": "SoulBoundToken",
      "type": "error"
    },
    {
      "anonymous": false,
      "inputs": [
        {
          "indexed": true,
          "internalType": "address",
          "name": "owner",
          "type": "address"
        },
        {
          "indexed": true,
          "internalType": "address",
          "name": "approved",
          "type": "address"
        },
        {
          "indexed": true,
          "internalType": "uint256",
          "name": "tokenId",
          "type": "uint256"
        }
      ],
      "name": "Approval",
      "type": "event"
    },
    {
      "anonymous": false,
      "inputs": [
        {
          "indexed": true,
          "internalType": "address",
          "name": "owner",
          "type": "address"
        },
        {
          "indexed": true,
          "internalType": "address",
          "name": "operator",
          "type": "address"
        },
        {
          "indexed": false,
          "internalType": "bool",
          "name": "approved",
          "type": "bool"
        }
      ],
      "name": "ApprovalForAll",
      "type": "event"
    },
    {
      "anonymous": false,
      "inputs": [
        {
          "indexed": false,
          "internalType": "uint256",
          "name": "_fromTokenId",
          "type": "uint256"
        },
        {
          "indexed": false,
          "internalType": "uint256",
          "name": "_toTokenId",
          "type": "uint256"
        }
      ],
      "name": "BatchMetadataUpdate",
      "type": "event"
    },
    {
      "anonymous": false,
      "inputs": [
        {
          "indexed": false,
          "internalType": "uint256",
          "name": "_tokenId",
          "type": "uint256"
        }
      ],
      "name": "MetadataUpdate",
      "type": "event"
    },
    {
      "anonymous": false,
      "inputs": [
        {
          "indexed": true,
          "internalType": "bytes32",
          "name": "role",
          "type": "bytes32"
        },
        {
          "indexed": true,
          "internalType": "bytes32",
          "name": "previousAdminRole",
          "type": "bytes32"
        },
        {
          "indexed": true,
          "internalType": "bytes32",
          "name": "newAdminRole",
          "type": "bytes32"
        }
      ],
      "name": "RoleAdminChanged",
      "type": "event"
    },
    {
      "anonymous": false,
      "inputs": [
        {
          "indexed": true,
          "internalType": "bytes32",
          "name": "role",
          "type": "bytes32"
        },
        {
          "indexed": true,
          "internalType": "address",
          "name": "account",
          "type": "address"
        },
        {
          "indexed": true,
          "internalType": "address",
          "name": "sender",
          "type": "address"
        }
      ],
      "name": "RoleGranted",
      "type": "event"
    },
    {
      "anonymous": false,
      "inputs": [
        {
          "indexed": true,
          "internalType": "bytes32",
          "name": "role",
          "type": "bytes32"
        },
        {
          "indexed": true,
          "internalType": "address",
          "name": "account",
          "type": "address"
        },
        {
          "indexed": true,
          "internalType": "address",
          "name": "sender",
          "type": "address"
        }
      ],
      "name": "RoleRevoked",
      "type": "event"
    },
    {
      "anonymous": false,
      "inputs": [
        {
          "indexed": true,
          "internalType": "address",
          "name": "from",
          "type": "address"
        },
        {
          "indexed": true,
          "internalType": "address",
          "name": "to",
          "type": "address"
        },
        {
          "indexed": true,
          "internalType": "uint256",
          "name": "tokenId",
          "type": "uint256"
        }
      ],
      "name": "Transfer",
      "type": "event"
    },
    {
      "inputs": [],
      "name": "DEFAULT_ADMIN_ROLE",
      "outputs": [
        {
          "internalType": "bytes32",
          "name": "",
          "type": "bytes32"
        }
      ],
      "stateMutability": "view",
      "type": "function"
    },
    {
      "inputs": [
        {
          "internalType": "address",
          "name": "to",
          "type": "address"
        },
        {
          "internalType": "uint256",
          "name": "tokenId",
          "type": "uint256"
        }
      ],
      "name": "approve",
      "outputs": [],
      "stateMutability": "nonpayable",
      "type": "function"
    },
    {
      "inputs": [
        {
          "internalType": "address",
          "name": "owner",
          "type": "address"
        }
      ],
      "name": "balanceOf",
      "outputs": [
        {
          "internalType": "uint256",
          "name": "",
          "type": "uint256"
        }
      ],
      "stateMutability": "view",
      "type": "function"
    },
    {
      "inputs": [
        {
          "internalType": "uint256",
          "name": "tokenId",
          "type": "uint256"
        }
      ],
      "name": "burn",
      "outputs": [],
      "stateMutability": "nonpayable",
      "type": "function"
    },
    {
      "inputs": [
        {
          "internalType": "uint256",
          "name": "tokenId",
          "type": "uint256"
        }
      ],
      "name": "depositData",
      "outputs": [
        {
          "internalType": "uint256",
          "name": "nominal",
          "type": "uint256"
        },
        {
          "internalType": "uint32",
          "name": "timestamp",
          "type": "uint32"
        },
        {
          "internalType": "bool",
          "name": "hasBonus",
          "type": "bool"
        }
      ],
      "stateMutability": "view",
      "type": "function"
    },
    {
      "inputs": [
        {
          "internalType": "uint256",
          "name": "tokenId",
          "type": "uint256"
        }
      ],
      "name": "getApproved",
      "outputs": [
        {
          "internalType": "address",
          "name": "",
          "type": "address"
        }
      ],
      "stateMutability": "view",
      "type": "function"
    },
    {
      "inputs": [
        {
          "internalType": "bytes32",
          "name": "role",
          "type": "bytes32"
        }
      ],
      "name": "getRoleAdmin",
      "outputs": [
        {
          "internalType": "bytes32",
          "name": "",
          "type": "bytes32"
        }
      ],
      "stateMutability": "view",
      "type": "function"
    },
    {
      "inputs": [
        {
          "internalType": "bytes32",
          "name": "role",
          "type": "bytes32"
        },
        {
          "internalType": "address",
          "name": "account",
          "type": "address"
        }
      ],
      "name": "grantRole",
      "outputs": [],
      "stateMutability": "nonpayable",
      "type": "function"
    },
    {
      "inputs": [
        {
          "internalType": "bytes32",
          "name": "role",
          "type": "bytes32"
        },
        {
          "internalType": "address",
          "name": "account",
          "type": "address"
        }
      ],
      "name": "hasRole",
      "outputs": [
        {
          "internalType": "bool",
          "name": "",
          "type": "bool"
        }
      ],
      "stateMutability": "view",
      "type": "function"
    },
    {
      "inputs": [
        {
          "internalType": "address",
          "name": "owner",
          "type": "address"
        },
        {
          "internalType": "address",
          "name": "operator",
          "type": "address"
        }
      ],
      "name": "isApprovedForAll",
      "outputs": [
        {
          "internalType": "bool",
          "name": "",
          "type": "bool"
        }
      ],
      "stateMutability": "view",
      "type": "function"
    },
    {
      "inputs": [],
      "name": "name",
      "outputs": [
        {
          "internalType": "string",
          "name": "",
          "type": "string"
        }
      ],
      "stateMutability": "view",
      "type": "function"
    },
    {
      "inputs": [
        {
          "internalType": "uint256",
          "name": "tokenId",
          "type": "uint256"
        }
      ],
      "name": "ownerOf",
      "outputs": [
        {
          "internalType": "address",
          "name": "",
          "type": "address"
        }
      ],
      "stateMutability": "view",
      "type": "function"
    },
    {
      "inputs": [
        {
          "internalType": "bytes32",
          "name": "role",
          "type": "bytes32"
        },
        {
          "internalType": "address",
          "name": "callerConfirmation",
          "type": "address"
        }
      ],
      "name": "renounceRole",
      "outputs": [],
      "stateMutability": "nonpayable",
      "type": "function"
    },
    {
      "inputs": [
        {
          "internalType": "bytes32",
          "name": "role",
          "type": "bytes32"
        },
        {
          "internalType": "address",
          "name": "account",
          "type": "address"
        }
      ],
      "name": "revokeRole",
      "outputs": [],
      "stateMutability": "nonpayable",
      "type": "function"
    },
    {
      "inputs": [
        {
          "internalType": "address",
          "name": "to",
          "type": "address"
        },
        {
          "internalType": "string",
          "name": "uri",
          "type": "string"
        },
        {
          "components": [
            {
              "internalType": "uint256",
              "name": "nominal",
              "type": "uint256"
            },
            {
              "internalType": "uint32",
              "name": "timestamp",
              "type": "uint32"
            },
            {
              "internalType": "bool",
              "name": "hasBonus",
              "type": "bool"
            }
          ],
          "internalType": "struct KratosXDeposit.Deposit",
          "name": "data",
          "type": "tuple"
        }
      ],
      "name": "safeMint",
      "outputs": [],
      "stateMutability": "nonpayable",
      "type": "function"
    },
    {
      "inputs": [
        {
          "internalType": "address",
          "name": "from",
          "type": "address"
        },
        {
          "internalType": "address",
          "name": "to",
          "type": "address"
        },
        {
          "internalType": "uint256",
          "name": "tokenId",
          "type": "uint256"
        }
      ],
      "name": "safeTransferFrom",
      "outputs": [],
      "stateMutability": "nonpayable",
      "type": "function"
    },
    {
      "inputs": [
        {
          "internalType": "address",
          "name": "from",
          "type": "address"
        },
        {
          "internalType": "address",
          "name": "to",
          "type": "address"
        },
        {
          "internalType": "uint256",
          "name": "tokenId",
          "type": "uint256"
        },
        {
          "internalType": "bytes",
          "name": "data",
          "type": "bytes"
        }
      ],
      "name": "safeTransferFrom",
      "outputs": [],
      "stateMutability": "nonpayable",
      "type": "function"
    },
    {
      "inputs": [
        {
          "internalType": "address",
          "name": "operator",
          "type": "address"
        },
        {
          "internalType": "bool",
          "name": "approved",
          "type": "bool"
        }
      ],
      "name": "setApprovalForAll",
      "outputs": [],
      "stateMutability": "nonpayable",
      "type": "function"
    },
    {
      "inputs": [
        {
          "internalType": "bytes4",
          "name": "interfaceId",
          "type": "bytes4"
        }
      ],
      "name": "supportsInterface",
      "outputs": [
        {
          "internalType": "bool",
          "name": "",
          "type": "bool"
        }
      ],
      "stateMutability": "view",
      "type": "function"
    },
    {
      "inputs": [],
      "name": "symbol",
      "outputs": [
        {
          "internalType": "string",
          "name": "",
          "type": "string"
        }
      ],
      "stateMutability": "view",
      "type": "function"
    },
    {
      "inputs": [
        {
          "internalType": "uint256",
          "name": "tokenId",
          "type": "uint256"
        }
      ],
      "name": "tokenURI",
      "outputs": [
        {
          "internalType": "string",
          "name": "",
          "type": "string"
        }
      ],
      "stateMutability": "view",
      "type": "function"
    },
    {
      "inputs": [
        {
          "internalType": "address",
          "name": "from",
          "type": "address"
        },
        {
          "internalType": "address",
          "name": "to",
          "type": "address"
        },
        {
          "internalType": "uint256",
          "name": "tokenId",
          "type": "uint256"
        }
      ],
      "name": "transferFrom",
      "outputs": [],
      "stateMutability": "nonpayable",
      "type": "function"
    },
    {
      "inputs": [],
      "name": "underlyingToken",
      "outputs": [
        {
          "internalType": "contract IERC20",
          "name": "",
          "type": "address"
        }
      ],
      "stateMutability": "view",
      "type": "function"
    }
  ],
  "bytecode": "0x60a060405234801562000010575f80fd5b5060405162001c2f38038062001c2f83398101604081905262000033916200023c565b6040518060400160405280600e81526020016d12dc985d1bdcd611195c1bdcda5d60921b8152506040518060400160405280600381526020016212d61160ea1b815250815f908162000086919062000323565b50600162000095828262000323565b5050506001600160a01b038316608052620000bf5f8051602062001c0f8339815191528362000126565b50620000da5f8051602062001bef8339815191528262000126565b50620000f55f8051602062001c0f83398151915280620001d6565b6200011d5f8051602062001bef8339815191525f8051602062001c0f833981519152620001d6565b505050620003eb565b5f8281526007602090815260408083206001600160a01b038516845290915281205460ff16620001cd575f8381526007602090815260408083206001600160a01b03861684529091529020805460ff19166001179055620001843390565b6001600160a01b0316826001600160a01b0316847f2f8788117e7eff1d82e926ec794901d17c78024a50270940304540a733656f0d60405160405180910390a4506001620001d0565b505f5b92915050565b5f82815260076020526040808220600101805490849055905190918391839186917fbd79b86ffe0ab8e8776151514217cd7cacd52c909f66475c3af44e129f0b00ff9190a4505050565b80516001600160a01b038116811462000237575f80fd5b919050565b5f805f606084860312156200024f575f80fd5b6200025a8462000220565b92506200026a6020850162000220565b91506200027a6040850162000220565b90509250925092565b634e487b7160e01b5f52604160045260245ffd5b600181811c90821680620002ac57607f821691505b602082108103620002cb57634e487b7160e01b5f52602260045260245ffd5b50919050565b601f8211156200031e575f81815260208120601f850160051c81016020861015620002f95750805b601f850160051c820191505b818110156200031a5782815560010162000305565b5050505b505050565b81516001600160401b038111156200033f576200033f62000283565b620003578162000350845462000297565b84620002d1565b602080601f8311600181146200038d575f8415620003755750858301515b5f19600386901b1c1916600185901b1785556200031a565b5f85815260208120601f198616915b82811015620003bd578886015182559484019460019091019084016200039c565b5085821015620003db57878501515f19600388901b60f8161c191681555b5050505050600190811b01905550565b6080516117eb620004045f395f61021101526117eb5ff3fe608060405234801561000f575f80fd5b5060043610610148575f3560e01c80636352211e116100bf578063a217fddf11610079578063a217fddf1461032e578063a22cb46514610335578063b88d4fde14610348578063c87b56dd1461035b578063d547741f1461036e578063e985e9c514610381575f80fd5b80636352211e1461027f57806370a08231146102925780638284bcfe146102a557806391d148541461030057806395d89b4114610313578063963763481461031b575f80fd5b8063248a9ca311610110578063248a9ca3146101dc5780632495a5991461020c5780632f2ff15d1461023357806336568abe1461024657806342842e0e1461025957806342966c681461026c575f80fd5b806301ffc9a71461014c57806306fdde0314610174578063081812fc14610189578063095ea7b3146101b457806323b872dd146101c9575b5f80fd5b61015f61015a366004611249565b610394565b60405190151581526020015b60405180910390f35b61017c6103a4565b60405161016b91906112b1565b61019c6101973660046112c3565b610433565b6040516001600160a01b03909116815260200161016b565b6101c76101c23660046112f5565b61045a565b005b6101c76101d736600461131d565b610469565b6101fe6101ea3660046112c3565b5f9081526007602052604090206001015490565b60405190815260200161016b565b61019c7f000000000000000000000000000000000000000000000000000000000000000081565b6101c7610241366004611356565b6104f7565b6101c7610254366004611356565b61051b565b6101c761026736600461131d565b610553565b6101c761027a3660046112c3565b61056d565b61019c61028d3660046112c3565b6105a0565b6101fe6102a0366004611380565b6105aa565b6102de6102b33660046112c3565b60096020525f90815260409020805460019091015463ffffffff811690640100000000900460ff1683565b6040805193845263ffffffff909216602084015215159082015260600161016b565b61015f61030e366004611356565b6105ef565b61017c610619565b6101c7610329366004611399565b610628565b6101fe5f81565b6101c761034336600461143c565b6106d5565b6101c7610356366004611485565b6106e0565b61017c6103693660046112c3565b6106f7565b6101c761037c366004611356565b610702565b61015f61038f36600461155a565b610726565b5f61039e82610753565b92915050565b60605f80546103b290611582565b80601f01602080910402602001604051908101604052809291908181526020018280546103de90611582565b80156104295780601f1061040057610100808354040283529160200191610429565b820191905f5260205f20905b81548152906001019060200180831161040c57829003601f168201915b5050505050905090565b5f61043d82610777565b505f828152600460205260409020546001600160a01b031661039e565b6104658282336107af565b5050565b6001600160a01b03821661049757604051633250574960e11b81525f60048201526024015b60405180910390fd5b5f6104a38383336107bc565b9050836001600160a01b0316816001600160a01b0316146104f1576040516364283d7b60e01b81526001600160a01b038086166004830152602482018490528216604482015260640161048e565b50505050565b5f828152600760205260409020600101546105118161080e565b6104f1838361081b565b6001600160a01b03811633146105445760405163334bd91960e11b815260040160405180910390fd5b61054e82826108ac565b505050565b61054e83838360405180602001604052805f8152506106e0565b7f97667070c54ef182b0f5858b034beac1b6f3089aa2d3188bb1e8929f4fa9b9296105978161080e565b61046582610917565b5f61039e82610777565b5f6001600160a01b0382166105d4576040516322718ad960e21b81525f600482015260240161048e565b506001600160a01b03165f9081526003602052604090205490565b5f9182526007602090815260408084206001600160a01b0393909316845291905290205460ff1690565b6060600180546103b290611582565b7f97667070c54ef182b0f5858b034beac1b6f3089aa2d3188bb1e8929f4fa9b9296106528161080e565b600880545f9182610662836115ba565b919050559050610672868261094f565b5f818152600960205260409020839061068b82826115de565b9050506106cd8186868080601f0160208091040260200160405190810160405280939291908181526020018383808284375f9201919091525061096892505050565b505050505050565b6104653383836109b7565b6106eb848484610469565b6104f184848484610a55565b606061039e82610b7b565b5f8281526007602052604090206001015461071c8161080e565b6104f183836108ac565b6001600160a01b039182165f90815260056020908152604080832093909416825291909152205460ff1690565b5f6001600160e01b03198216637965db0b60e01b148061039e575061039e82610c7e565b5f818152600260205260408120546001600160a01b03168061039e57604051637e27328960e01b81526004810184905260240161048e565b61054e8383836001610ca2565b5f6001600160a01b038216158015906107dd57506001600160a01b03841615155b156107fb5760405163185024ef60e31b815260040160405180910390fd5b610806848484610da6565b949350505050565b6108188133610e98565b50565b5f61082683836105ef565b6108a5575f8381526007602090815260408083206001600160a01b03861684529091529020805460ff1916600117905561085d3390565b6001600160a01b0316826001600160a01b0316847f2f8788117e7eff1d82e926ec794901d17c78024a50270940304540a733656f0d60405160405180910390a450600161039e565b505f61039e565b5f6108b783836105ef565b156108a5575f8381526007602090815260408083206001600160a01b0386168085529252808320805460ff1916905551339286917ff6391f5c32d9c69d2a47ea670b442974b53935d1edc7fd64eb21e047a839171b9190a450600161039e565b5f6109235f835f6107bc565b90506001600160a01b03811661046557604051637e27328960e01b81526004810183905260240161048e565b610465828260405180602001604052805f815250610ed1565b5f82815260066020526040902061097f8282611674565b506040518281527ff8e1a15aba9398e019f0b49df1a4fde98ee17ae345cb5f6b5e2c27f5033e8ce79060200160405180910390a15050565b6001600160a01b0382166109e957604051630b61174360e31b81526001600160a01b038316600482015260240161048e565b6001600160a01b038381165f81815260056020908152604080832094871680845294825291829020805460ff191686151590811790915591519182527f17307eab39ab6107e8899845ad3d59bd9653f200f220920489ca2b5937696c31910160405180910390a3505050565b6001600160a01b0383163b156104f157604051630a85bd0160e11b81526001600160a01b0384169063150b7a0290610a97903390889087908790600401611730565b6020604051808303815f875af1925050508015610ad1575060408051601f3d908101601f19168201909252610ace9181019061176c565b60015b610b38573d808015610afe576040519150601f19603f3d011682016040523d82523d5f602084013e610b03565b606091505b5080515f03610b3057604051633250574960e11b81526001600160a01b038516600482015260240161048e565b805181602001fd5b6001600160e01b03198116630a85bd0160e11b14610b7457604051633250574960e11b81526001600160a01b038516600482015260240161048e565b5050505050565b6060610b8682610777565b505f8281526006602052604081208054610b9f90611582565b80601f0160208091040260200160405190810160405280929190818152602001828054610bcb90611582565b8015610c165780601f10610bed57610100808354040283529160200191610c16565b820191905f5260205f20905b815481529060010190602001808311610bf957829003601f168201915b505050505090505f610c3260408051602081019091525f815290565b905080515f03610c43575092915050565b815115610c75578082604051602001610c5d929190611787565b60405160208183030381529060405292505050919050565b61080684610ee7565b5f6001600160e01b03198216632483248360e11b148061039e575061039e82610f58565b8080610cb657506001600160a01b03821615155b15610d77575f610cc584610777565b90506001600160a01b03831615801590610cf15750826001600160a01b0316816001600160a01b031614155b8015610d045750610d028184610726565b155b15610d2d5760405163a9fbf51f60e01b81526001600160a01b038416600482015260240161048e565b8115610d755783856001600160a01b0316826001600160a01b03167f8c5be1e5ebec7d5bd14f71427d1e84f3dd0314c0f7b2291e5b200ac8c7c3b92560405160405180910390a45b505b50505f90815260046020526040902080546001600160a01b0319166001600160a01b0392909216919091179055565b5f828152600260205260408120546001600160a01b0390811690831615610dd257610dd2818486610fa7565b6001600160a01b03811615610e0c57610ded5f855f80610ca2565b6001600160a01b0381165f90815260036020526040902080545f190190555b6001600160a01b03851615610e3a576001600160a01b0385165f908152600360205260409020805460010190555b5f8481526002602052604080822080546001600160a01b0319166001600160a01b0389811691821790925591518793918516917fddf252ad1be2c89b69c2b068fc378daa952ba7f163c4a11628f55a4df523b3ef91a4949350505050565b610ea282826105ef565b6104655760405163e2517d3f60e01b81526001600160a01b03821660048201526024810183905260440161048e565b610edb838361100b565b61054e5f848484610a55565b6060610ef282610777565b505f610f0860408051602081019091525f815290565b90505f815111610f265760405180602001604052805f815250610f51565b80610f308461106c565b604051602001610f41929190611787565b6040516020818303038152906040525b9392505050565b5f6001600160e01b031982166380ac58cd60e01b1480610f8857506001600160e01b03198216635b5e139f60e01b145b8061039e57506301ffc9a760e01b6001600160e01b031983161461039e565b610fb28383836110fc565b61054e576001600160a01b038316610fe057604051637e27328960e01b81526004810182905260240161048e565b60405163177e802f60e01b81526001600160a01b03831660048201526024810182905260440161048e565b6001600160a01b03821661103457604051633250574960e11b81525f600482015260240161048e565b5f61104083835f6107bc565b90506001600160a01b0381161561054e576040516339e3563760e11b81525f600482015260240161048e565b60605f6110788361115d565b60010190505f8167ffffffffffffffff81111561109757611097611471565b6040519080825280601f01601f1916602001820160405280156110c1576020820181803683370190505b5090508181016020015b5f19016f181899199a1a9b1b9c1cb0b131b232b360811b600a86061a8153600a85049450846110cb57509392505050565b5f6001600160a01b038316158015906108065750826001600160a01b0316846001600160a01b0316148061113557506111358484610726565b806108065750505f908152600460205260409020546001600160a01b03908116911614919050565b5f8072184f03e93ff9f4daa797ed6e38ed64bf6a1f0160401b831061119b5772184f03e93ff9f4daa797ed6e38ed64bf6a1f0160401b830492506040015b6d04ee2d6d415b85acef810000000083106111c7576d04ee2d6d415b85acef8100000000830492506020015b662386f26fc1000083106111e557662386f26fc10000830492506010015b6305f5e10083106111fd576305f5e100830492506008015b612710831061121157612710830492506004015b60648310611223576064830492506002015b600a831061039e5760010192915050565b6001600160e01b031981168114610818575f80fd5b5f60208284031215611259575f80fd5b8135610f5181611234565b5f5b8381101561127e578181015183820152602001611266565b50505f910152565b5f815180845261129d816020860160208601611264565b601f01601f19169290920160200192915050565b602081525f610f516020830184611286565b5f602082840312156112d3575f80fd5b5035919050565b80356001600160a01b03811681146112f0575f80fd5b919050565b5f8060408385031215611306575f80fd5b61130f836112da565b946020939093013593505050565b5f805f6060848603121561132f575f80fd5b611338846112da565b9250611346602085016112da565b9150604084013590509250925092565b5f8060408385031215611367575f80fd5b82359150611377602084016112da565b90509250929050565b5f60208284031215611390575f80fd5b610f51826112da565b5f805f8084860360a08112156113ad575f80fd5b6113b6866112da565b9450602086013567ffffffffffffffff808211156113d2575f80fd5b818801915088601f8301126113e5575f80fd5b8135818111156113f3575f80fd5b896020828501011115611404575f80fd5b6020929092019550909350506060603f1982011215611421575f80fd5b509295919450926040019150565b8015158114610818575f80fd5b5f806040838503121561144d575f80fd5b611456836112da565b915060208301356114668161142f565b809150509250929050565b634e487b7160e01b5f52604160045260245ffd5b5f805f8060808587031215611498575f80fd5b6114a1856112da565b93506114af602086016112da565b925060408501359150606085013567ffffffffffffffff808211156114d2575f80fd5b818701915087601f8301126114e5575f80fd5b8135818111156114f7576114f7611471565b604051601f8201601f19908116603f0116810190838211818310171561151f5761151f611471565b816040528281528a6020848701011115611537575f80fd5b826020860160208301375f60208483010152809550505050505092959194509250565b5f806040838503121561156b575f80fd5b611574836112da565b9150611377602084016112da565b600181811c9082168061159657607f821691505b6020821081036115b457634e487b7160e01b5f52602260045260245ffd5b50919050565b5f600182016115d757634e487b7160e01b5f52601160045260245ffd5b5060010190565b8135815560018101602083013563ffffffff81168082146115fd575f80fd5b82549150604085013561160f8161142f565b64ffffffffff19929092161790151560201b64ff00000000161790555050565b601f82111561054e575f81815260208120601f850160051c810160208610156116555750805b601f850160051c820191505b818110156106cd57828155600101611661565b815167ffffffffffffffff81111561168e5761168e611471565b6116a28161169c8454611582565b8461162f565b602080601f8311600181146116d5575f84156116be5750858301515b5f19600386901b1c1916600185901b1785556106cd565b5f85815260208120601f198616915b82811015611703578886015182559484019460019091019084016116e4565b508582101561172057878501515f19600388901b60f8161c191681555b5050505050600190811b01905550565b6001600160a01b03858116825284166020820152604081018390526080606082018190525f9061176290830184611286565b9695505050505050565b5f6020828403121561177c575f80fd5b8151610f5181611234565b5f8351611798818460208801611264565b8351908301906117ac818360208801611264565b0194935050505056fea26469706673582212204de2aba7a4048e21e9e3a053b7c7622929e63a4e2975145ae67f7896929ef25164736f6c6343000814003397667070c54ef182b0f5858b034beac1b6f3089aa2d3188bb1e8929f4fa9b929a49807205ce4d355092ef5a8a18f56e8913cf4a201fbe287825b095693c21775",
  "linkReferences": {},
  "deployedLinkReferences": {}
}