{
  "_format": "hh-sol-artifact-1",
  "contractName": "KratosX",
  "sourceName": "contracts/KratosX.sol",
  "abi": [
    {
      "inputs": [
        {
          "internalType": "address",
          "name": "token",
          "type": "address"
        }
      ],
      "stateMutability": "nonpayable",
      "type": "constructor"
    },
    {
      "inputs": [
        {
          "internalType": "uint256",
          "name": "id",
          "type": "uint256"
        }
      ],
      "name": "DepositNotFound",
      "type": "error"
    },
    {
      "inputs": [],
      "name": "InvalidLockPeriod",
      "type": "error"
    },
    {
      "anonymous": false,
      "inputs": [
        {
          "indexed": false,
          "internalType": "address",
          "name": "owner",
          "type": "address"
        },
        {
          "indexed": false,
          "internalType": "uint256",
          "name": "id",
          "type": "uint256"
        }
      ],
      "name": "DepositApproved",
      "type": "event"
    },
    {
      "anonymous": false,
      "inputs": [
        {
          "indexed": false,
          "internalType": "address",
          "name": "depositor",
          "type": "address"
        }
      ],
      "name": "DepositRejected",
      "type": "event"
    },
    {
      "anonymous": false,
      "inputs": [
        {
          "indexed": false,
          "internalType": "uint256",
          "name": "id",
          "type": "uint256"
        },
        {
          "indexed": false,
          "internalType": "address",
          "name": "from",
          "type": "address"
        }
      ],
      "name": "DepositRequested",
      "type": "event"
    },
    {
      "anonymous": false,
      "inputs": [
        {
          "indexed": true,
          "internalType": "address",
          "name": "previousOwner",
          "type": "address"
        },
        {
          "indexed": true,
          "internalType": "address",
          "name": "newOwner",
          "type": "address"
        }
      ],
      "name": "OwnershipTransferred",
      "type": "event"
    },
    {
      "anonymous": false,
      "inputs": [
        {
          "indexed": false,
          "internalType": "address",
          "name": "account",
          "type": "address"
        }
      ],
      "name": "Paused",
      "type": "event"
    },
    {
      "anonymous": false,
      "inputs": [
        {
          "indexed": false,
          "internalType": "address",
          "name": "account",
          "type": "address"
        }
      ],
      "name": "Unpaused",
      "type": "event"
    },
    {
      "anonymous": false,
      "inputs": [
        {
          "indexed": false,
          "internalType": "uint256",
          "name": "id",
          "type": "uint256"
        },
        {
          "indexed": false,
          "internalType": "uint256",
          "name": "calculatedAmount",
          "type": "uint256"
        }
      ],
      "name": "WithdrawalExecuted",
      "type": "event"
    },
    {
      "anonymous": false,
      "inputs": [
        {
          "indexed": false,
          "internalType": "uint256",
          "name": "id",
          "type": "uint256"
        },
        {
          "indexed": false,
          "internalType": "uint256",
          "name": "estimatedAmount",
          "type": "uint256"
        }
      ],
      "name": "WithdrawalRequested",
      "type": "event"
    },
    {
      "inputs": [
        {
          "internalType": "address",
          "name": "depositor",
          "type": "address"
        },
        {
          "internalType": "enum KratosX.LockPeriod",
          "name": "lockPeriod",
          "type": "uint8"
        }
      ],
      "name": "approveDeposit",
      "outputs": [],
      "stateMutability": "nonpayable",
      "type": "function"
    },
    {
      "inputs": [
        {
          "internalType": "address",
          "name": "depositor",
          "type": "address"
        },
        {
          "internalType": "enum KratosX.LockPeriod",
          "name": "lockPeriod",
          "type": "uint8"
        }
      ],
      "name": "approveDeposits",
      "outputs": [],
      "stateMutability": "nonpayable",
      "type": "function"
    },
    {
      "inputs": [
        {
          "internalType": "uint256",
          "name": "dayCount",
          "type": "uint256"
        },
        {
          "internalType": "bool",
          "name": "hasEarlyAdoptBonus",
          "type": "bool"
        },
        {
          "internalType": "bool",
          "name": "hasExtendBonus",
          "type": "bool"
        }
      ],
      "name": "calculateYield",
      "outputs": [
        {
          "internalType": "uint256",
          "name": "",
          "type": "uint256"
        }
      ],
      "stateMutability": "pure",
      "type": "function"
    },
    {
      "inputs": [
        {
          "internalType": "uint256",
          "name": "",
          "type": "uint256"
        }
      ],
      "name": "deposits",
      "outputs": [
        {
          "internalType": "uint16",
          "name": "id",
          "type": "uint16"
        },
        {
          "internalType": "address",
          "name": "owner",
          "type": "address"
        },
        {
          "internalType": "uint32",
          "name": "approveTimestamp",
          "type": "uint32"
        },
        {
          "internalType": "enum KratosX.LockPeriod",
          "name": "lockPeriod",
          "type": "uint8"
        },
        {
          "internalType": "bool",
          "name": "hasEarlyAdoptBonus",
          "type": "bool"
        },
        {
          "internalType": "bool",
          "name": "hasExtendPeriodBonus",
          "type": "bool"
        }
      ],
      "stateMutability": "view",
      "type": "function"
    },
    {
      "inputs": [
        {
          "internalType": "uint256",
          "name": "id",
          "type": "uint256"
        }
      ],
      "name": "executeWithdrawal",
      "outputs": [],
      "stateMutability": "nonpayable",
      "type": "function"
    },
    {
      "inputs": [
        {
          "internalType": "uint256[]",
          "name": "ids",
          "type": "uint256[]"
        }
      ],
      "name": "executeWithdrawals",
      "outputs": [],
      "stateMutability": "nonpayable",
      "type": "function"
    },
    {
      "inputs": [
        {
          "internalType": "uint256",
          "name": "id",
          "type": "uint256"
        },
        {
          "internalType": "enum KratosX.LockPeriod",
          "name": "lockPeriod",
          "type": "uint8"
        }
      ],
      "name": "extendLockPeriod",
      "outputs": [],
      "stateMutability": "nonpayable",
      "type": "function"
    },
    {
      "inputs": [],
      "name": "getAvailableSlotCount",
      "outputs": [
        {
          "internalType": "uint256",
          "name": "",
          "type": "uint256"
        }
      ],
      "stateMutability": "view",
      "type": "function"
    },
    {
      "inputs": [],
      "name": "getSlotValue",
      "outputs": [
        {
          "internalType": "uint256",
          "name": "",
          "type": "uint256"
        }
      ],
      "stateMutability": "pure",
      "type": "function"
    },
    {
      "inputs": [],
      "name": "getUsedSlots",
      "outputs": [
        {
          "components": [
            {
              "internalType": "uint16",
              "name": "id",
              "type": "uint16"
            },
            {
              "internalType": "address",
              "name": "owner",
              "type": "address"
            },
            {
              "internalType": "uint32",
              "name": "approveTimestamp",
              "type": "uint32"
            },
            {
              "internalType": "enum KratosX.LockPeriod",
              "name": "lockPeriod",
              "type": "uint8"
            },
            {
              "internalType": "bool",
              "name": "hasEarlyAdoptBonus",
              "type": "bool"
            },
            {
              "internalType": "bool",
              "name": "hasExtendPeriodBonus",
              "type": "bool"
            }
          ],
          "internalType": "struct KratosX.Deposit[]",
          "name": "",
          "type": "tuple[]"
        }
      ],
      "stateMutability": "view",
      "type": "function"
    },
    {
      "inputs": [],
      "name": "owner",
      "outputs": [
        {
          "internalType": "address",
          "name": "",
          "type": "address"
        }
      ],
      "stateMutability": "view",
      "type": "function"
    },
    {
      "inputs": [],
      "name": "pause",
      "outputs": [],
      "stateMutability": "nonpayable",
      "type": "function"
    },
    {
      "inputs": [],
      "name": "paused",
      "outputs": [
        {
          "internalType": "bool",
          "name": "",
          "type": "bool"
        }
      ],
      "stateMutability": "view",
      "type": "function"
    },
    {
      "inputs": [
        {
          "internalType": "address",
          "name": "depositor",
          "type": "address"
        }
      ],
      "name": "rejectDeposit",
      "outputs": [],
      "stateMutability": "nonpayable",
      "type": "function"
    },
    {
      "inputs": [],
      "name": "renounceOwnership",
      "outputs": [],
      "stateMutability": "nonpayable",
      "type": "function"
    },
    {
      "inputs": [
        {
          "internalType": "uint256",
          "name": "id",
          "type": "uint256"
        }
      ],
      "name": "requestWithdrawal",
      "outputs": [],
      "stateMutability": "nonpayable",
      "type": "function"
    },
    {
      "inputs": [
        {
          "internalType": "uint256[]",
          "name": "ids",
          "type": "uint256[]"
        }
      ],
      "name": "requestWithdrawals",
      "outputs": [],
      "stateMutability": "nonpayable",
      "type": "function"
    },
    {
      "inputs": [
        {
          "internalType": "uint256",
          "name": "slots",
          "type": "uint256"
        }
      ],
      "name": "setEarlyAdotpSlots",
      "outputs": [],
      "stateMutability": "nonpayable",
      "type": "function"
    },
    {
      "inputs": [
        {
          "internalType": "uint256",
          "name": "timestamp",
          "type": "uint256"
        }
      ],
      "name": "setExtendLockPeriodBonus",
      "outputs": [],
      "stateMutability": "nonpayable",
      "type": "function"
    },
    {
      "inputs": [
        {
          "internalType": "address",
          "name": "newOwner",
          "type": "address"
        }
      ],
      "name": "transferOwnership",
      "outputs": [],
      "stateMutability": "nonpayable",
      "type": "function"
    },
    {
      "inputs": [],
      "name": "unpause",
      "outputs": [],
      "stateMutability": "nonpayable",
      "type": "function"
    }
  ],
  "bytecode": "0x60a06040523480156200001157600080fd5b50604051620025dd380380620025dd8339810160408190526200003491620000ff565b6000805460ff191690556200004933620000a6565b6001600160a01b0381166080526000805466ffff00000000ff60a81b1916600360a81b1790556200007f426301e1338062000131565b600060166101000a81548163ffffffff021916908363ffffffff1602179055505062000159565b600080546001600160a01b03838116610100818102610100600160a81b0319851617855560405193049190911692909183917f8be0079c531659141344cd1fd0a4f28419497f9722a3daafe3b4186f6b6457e091a35050565b6000602082840312156200011257600080fd5b81516001600160a01b03811681146200012a57600080fd5b9392505050565b808201808211156200015357634e487b7160e01b600052601160045260246000fd5b92915050565b608051612430620001ad60003960008181610334015281816104550152818161086b015281816111cc015281816112a5015281816114a7015281816116f3015281816118430152611a6f01526124306000f3fe608060405234801561001057600080fd5b50600436106101375760003560e01c80638c395ef4116100b8578063b02c43d01161007c578063b02c43d01461025d578063d479220d14610282578063e61d222014610295578063f07bfcb7146102a8578063f2fde38b146102bb578063f8bb2414146102ce57600080fd5b80638c395ef4146101e65780638da5cb5b146101f9578063952f0417146102225780639ee679e814610235578063a8aa4b871461024857600080fd5b80636220e819116100ff5780636220e8191461019d578063715018a6146101b057806373e22c54146101b85780638456cb59146101cb5780638b57f787146101d357600080fd5b80632244e1c71461013c57806324f13a76146101515780633f4ba83a146101645780635c975abb1461016c5780636039508814610187575b600080fd5b61014f61014a366004612078565b6102d9565b005b61014f61015f366004612093565b610320565b61014f61096f565b60005460ff1660405190151581526020015b60405180910390f35b61018f610981565b60405190815260200161017e565b61014f6101ab3660046120bb565b610997565b61014f610d18565b61014f6101c63660046120e7565b610d2a565b61014f610d7b565b61014f6101e1366004612093565b610d8b565b61014f6101f43660046120e7565b610e18565b60005461010090046001600160a01b03166040516001600160a01b03909116815260200161017e565b61014f610230366004612093565b610e5c565b61014f610243366004612093565b610ef2565b610250610ff5565b60405161017e9190612194565b61027061026b366004612093565b6110e5565b60405161017e9695949392919061222d565b61014f610290366004612279565b611148565b61018f6102a33660046122b1565b6115ac565b61014f6102b6366004612279565b611673565b61014f6102c9366004612078565b611b86565b64012a05f20061018f565b6102e1611bff565b6040516001600160a01b03821681527f9252f673a302383d6d82c79d6d2d359ef0eb704b0f92f240bf386db0327998f79060200160405180910390a150565b610328611bff565b610330611c5f565b60007f00000000000000000000000000000000000000000000000000000000000000006001600160a01b031663dd62ed3e6103796000546001600160a01b036101009091041690565b6040516001600160e01b031960e084901b1681526001600160a01b039091166004820152306024820152604401602060405180830381865afa1580156103c3573d6000803e3d6000fd5b505050506040513d601f19601f820116820180604052508101906103e791906122f3565b905064012a05f20081101561044d5760405162461bcd60e51b815260206004820152602160248201527f4e6f7420656e6f75676820616c6c6f77616e636520746f2077697468647261776044820152601760f91b60648201526084015b60405180910390fd5b64012a05f2007f00000000000000000000000000000000000000000000000000000000000000006001600160a01b03166370a0823161049a6000546001600160a01b036101009091041690565b6040516001600160e01b031960e084901b1681526001600160a01b039091166004820152602401602060405180830381865afa1580156104de573d6000803e3d6000fd5b505050506040513d601f19601f8201168201806040525081019061050291906122f3565b10156105505760405162461bcd60e51b815260206004820152601d60248201527f4e6f7420656e6f7567682066756e647320746f2077697468647261772e0000006044820152606401610444565b60006001805480602002602001604051908101604052809291908181526020016000905b828210156106375760008481526020908190206040805160c081018252918501805461ffff811684526201000081046001600160a01b031694840194909452600160b01b840463ffffffff169183019190915290916060830190600160d01b900460ff1660058111156105e9576105e961215c565b60058111156105fa576105fa61215c565b8152905460ff600160d81b820481161515602080850191909152600160e01b90920416151560409092019190915290825260019092019101610574565b50505050905060006106498285611ca5565b9050600082828151811061065f5761065f61230c565b60200260200101519050600061069b61068c836040015163ffffffff16426106879190612338565b611d0c565b83608001518460a001516115ac565b6106aa9064012a05f20061234b565b9050808510156107225760405162461bcd60e51b815260206004820152603760248201527f4e6f7420656e6f75676820616c6c6f77616e63652061667465722063616c637560448201527f6c61746564207769746864726177616c2076616c75652e0000000000000000006064820152608401610444565b83600185516107319190612338565b815181106107415761074161230c565b60200260200101516001848154811061075c5761075c61230c565b600091825260209182902083519101805492840151604085015163ffffffff16600160b01b0263ffffffff60b01b196001600160a01b0390921662010000026001600160b01b031990951661ffff909416939093179390931792831682178155606084015190929091839160ff60d01b1990911664ffffffffff60b01b1990911617600160d01b8360058111156107f5576107f561215c565b02179055506080820151815460a0909301511515600160e01b0260ff60e01b19911515600160d81b029190911661ffff60d81b199093169290921791909117905560018054806108475761084761235e565b600082815260209020810160001990810180546001600160e81b03191690550190557f00000000000000000000000000000000000000000000000000000000000000006001600160a01b03166323b872dd6108b06000546001600160a01b036101009091041690565b60208501516040516001600160e01b031960e085901b1681526001600160a01b03928316600482015291166024820152604481018490526064016020604051808303816000875af1158015610909573d6000803e3d6000fd5b505050506040513d601f19601f8201168201806040525081019061092d9190612374565b5060408051878152602081018390527f31d3fb496634645407643eb204dae990bd803a7289718931990377e69fe48ce9910160405180910390a1505050505050565b610977611bff565b61097f611d1b565b565b600154600090610992906064612338565b905090565b61099f611c5f565b60008160058111156109b3576109b361215c565b11610a185760405162461bcd60e51b815260206004820152602f60248201527f43616e206e6f742073657420746865206c6f636b696e6720706572696f64207760448201526e34ba34103a3434b9903b30b63ab29760891b6064820152608401610444565b60006001805480602002602001604051908101604052809291908181526020016000905b82821015610aff5760008481526020908190206040805160c081018252918501805461ffff811684526201000081046001600160a01b031694840194909452600160b01b840463ffffffff169183019190915290916060830190600160d01b900460ff166005811115610ab157610ab161215c565b6005811115610ac257610ac261215c565b8152905460ff600160d81b820481161515602080850191909152600160e01b90920416151560409092019190915290825260019092019101610a3c565b5050505090506000610b118285611ca5565b90506000828281518110610b2757610b2761230c565b60200260200101519050836005811115610b4357610b4361215c565b81606001516005811115610b5957610b5961215c565b10610bb45760405162461bcd60e51b815260206004820152602560248201527f43616e206f6e6c7920696e63726561736520746865206c6f636b696e672070656044820152643934b7b21760d91b6064820152608401610444565b60005442600160b01b90910463ffffffff1610801590610be95750600081606001516005811115610be757610be761215c565b145b15610bf657600160a08201525b60608101846005811115610c0c57610c0c61215c565b90816005811115610c1f57610c1f61215c565b815250508060018381548110610c3757610c3761230c565b600091825260209182902083519101805492840151604085015163ffffffff16600160b01b0263ffffffff60b01b196001600160a01b0390921662010000026001600160b01b031990951661ffff909416939093179390931792831682178155606084015190929091839160ff60d01b1990911664ffffffffff60b01b1990911617600160d01b836005811115610cd057610cd061215c565b02179055506080820151815460a0909301511515600160e01b0260ff60e01b19911515600160d81b029190911661ffff60d81b19909316929092179190911790555050505050565b610d20611bff565b61097f6000611d6d565b610d32611bff565b610d3a611c5f565b60005b81811015610d7657610d66838383818110610d5a57610d5a61230c565b90506020020135610320565b610d6f81612391565b9050610d3d565b505050565b610d83611bff565b61097f611dc6565b610d93611bff565b610d9b611c5f565b60ff811115610df85760405162461bcd60e51b8152602060048201526024808201527f546f6f206d616e79206561726c792061646f7074696f6e20626f6e757320736c60448201526337ba399760e11b6064820152608401610444565b6000805460ff909216600160a81b0260ff60a81b19909216919091179055565b610e20611c5f565b60005b81811015610d7657610e4c838383818110610e4057610e4061230c565b90506020020135610ef2565b610e5581612391565b9050610e23565b610e64611bff565b610e6c611c5f565b63ffffffff811115610ecc5760405162461bcd60e51b8152602060048201526024808201527f506572696f6420746f6f206c6f6e6720666f7220657874656e74696f6e20626f604482015263373ab99760e11b6064820152608401610444565b6000805463ffffffff909216600160b01b0263ffffffff60b01b19909216919091179055565b610efa611c5f565b6000610f0582611e03565b60208101519091506001600160a01b03163314610f645760405162461bcd60e51b815260206004820152601e60248201527f596f7520617265206e6f7420746865206465706f736974206f776e65722e00006044820152606401610444565b6000610f8d826040015163ffffffff164262093a80610f83919061234b565b6106879190612338565b90506000610fa48284608001518560a001516115ac565b90507f6b19bb08027e5bee64cbe3f99bbbfb671c0e134643993f0ad046fd01d020b34284610fd78364012a05f20061234b565b6040805192835260208301919091520160405180910390a150505050565b60606001805480602002602001604051908101604052809291908181526020016000905b828210156110dc5760008481526020908190206040805160c081018252918501805461ffff811684526201000081046001600160a01b031694840194909452600160b01b840463ffffffff169183019190915290916060830190600160d01b900460ff16600581111561108e5761108e61215c565b600581111561109f5761109f61215c565b8152905460ff600160d81b820481161515602080850191909152600160e01b90920416151560409092019190915290825260019092019101611019565b50505050905090565b600181815481106110f557600080fd5b60009182526020909120015461ffff811691506001600160a01b03620100008204169063ffffffff600160b01b8204169060ff600160d01b8204811691600160d81b8104821691600160e01b9091041686565b611150611bff565b611158611c5f565b6001546064116111a05760405162461bcd60e51b815260206004820152601360248201527227379039b637ba399030bb30b4b630b136329760691b6044820152606401610444565b604051636eb1769f60e11b81526001600160a01b03838116600483015230602483015264012a05f200917f00000000000000000000000000000000000000000000000000000000000000009091169063dd62ed3e90604401602060405180830381865afa158015611215573d6000803e3d6000fd5b505050506040513d601f19601f8201168201806040525081019061123991906122f3565b101561127f5760405162461bcd60e51b81526020600482015260156024820152742737ba1032b737bab3b41030b63637bbb0b731b29760591b6044820152606401610444565b6040516370a0823160e01b81526001600160a01b03838116600483015264012a05f200917f0000000000000000000000000000000000000000000000000000000000000000909116906370a0823190602401602060405180830381865afa1580156112ee573d6000803e3d6000fd5b505050506040513d601f19601f8201168201806040525081019061131291906122f3565b10156113565760405162461bcd60e51b81526020600482015260136024820152722737ba1032b737bab3b4103130b630b731b29760691b6044820152606401610444565b6000611360611f9e565b905060016040518060c001604052808361ffff168152602001856001600160a01b031681526020014263ffffffff1681526020018460058111156113a6576113a661215c565b81526020016113b3611fcf565b1515815260006020918201819052835460018101855593815281902082519301805491830151604084015163ffffffff16600160b01b0263ffffffff60b01b196001600160a01b0390921662010000026001600160b01b031990941661ffff90961695909517929092179182168417815560608301519293909291839160ff60d01b191664ffffffffff60b01b1990911617600160d01b83600581111561145c5761145c61215c565b02179055506080820151815460a0909301511515600160e01b0260ff60e01b19911515600160d81b029190911661ffff60d81b19909316929092179190911790556001600160a01b037f0000000000000000000000000000000000000000000000000000000000000000166323b872dd846114e56000546001600160a01b036101009091041690565b6040516001600160e01b031960e085901b1681526001600160a01b0392831660048201529116602482015264012a05f20060448201526064016020604051808303816000875af115801561153d573d6000803e3d6000fd5b505050506040513d601f19601f820116820180604052508101906115619190612374565b50604080516001600160a01b038516815261ffff831660208201527f79000773ac921e1702f7f3d9d7416dfe1f2b07606ee63066874ac05a6a42973e910160405180910390a1505050565b60008060b485116115c157600091505061166c565b61016d85116115d25750600561161f565b6102da85116115e35750600561161f565b61044785116115f45750600661161f565b6105b485116116055750600761161f565b61072185116116165750600861161f565b50610721935060095b8315611629576001015b828015611638575061016d8510155b15611641576001015b618e94856116548364012a05f2006123aa565b61165e91906123aa565b61166891906123c1565b9150505b9392505050565b61167b611bff565b611683611c5f565b6001546064116116cb5760405162461bcd60e51b815260206004820152601360248201527227379039b637ba399030bb30b4b630b136329760691b6044820152606401610444565b604051636eb1769f60e11b81526001600160a01b0383811660048301523060248301526000917f00000000000000000000000000000000000000000000000000000000000000009091169063dd62ed3e90604401602060405180830381865afa15801561173c573d6000803e3d6000fd5b505050506040513d601f19601f8201168201806040525081019061176091906122f3565b9050600061177364012a05f200836123c1565b905060018110156117be5760405162461bcd60e51b81526020600482015260156024820152742737ba1032b737bab3b41030b63637bbb0b731b29760591b6044820152606401610444565b6117c6610981565b8111156118155760405162461bcd60e51b815260206004820152601b60248201527f4e6f7420656e6f75676820617661696c61626c6520736c6f74732e00000000006044820152606401610444565b61182464012a05f200826123aa565b6040516370a0823160e01b81526001600160a01b0386811660048301527f000000000000000000000000000000000000000000000000000000000000000016906370a0823190602401602060405180830381865afa15801561188a573d6000803e3d6000fd5b505050506040513d601f19601f820116820180604052508101906118ae91906122f3565b10156119165760405162461bcd60e51b815260206004820152603160248201527f4e6f7420656e6f7567682062616c616e63652e20506c65617365207265637469604482015270333c903a34329030b63637bbb0b731b29760791b6064820152608401610444565b60018110611b80576000611928611f9e565b905060016040518060c001604052808361ffff168152602001876001600160a01b031681526020014263ffffffff16815260200186600581111561196e5761196e61215c565b815260200161197b611fcf565b1515815260006020918201819052835460018101855593815281902082519301805491830151604084015163ffffffff16600160b01b0263ffffffff60b01b196001600160a01b0390921662010000026001600160b01b031990941661ffff90961695909517929092179182168417815560608301519293909291839160ff60d01b191664ffffffffff60b01b1990911617600160d01b836005811115611a2457611a2461215c565b02179055506080820151815460a0909301511515600160e01b0260ff60e01b19911515600160d81b029190911661ffff60d81b19909316929092179190911790556001600160a01b037f0000000000000000000000000000000000000000000000000000000000000000166323b872dd86611aad6000546001600160a01b036101009091041690565b6040516001600160e01b031960e085901b1681526001600160a01b0392831660048201529116602482015264012a05f20060448201526064016020604051808303816000875af1158015611b05573d6000803e3d6000fd5b505050506040513d601f19601f82011682018060405250810190611b299190612374565b50604080516001600160a01b038716815261ffff831660208201527f79000773ac921e1702f7f3d9d7416dfe1f2b07606ee63066874ac05a6a42973e910160405180910390a1611b78826123e3565b915050611916565b50505050565b611b8e611bff565b6001600160a01b038116611bf35760405162461bcd60e51b815260206004820152602660248201527f4f776e61626c653a206e6577206f776e657220697320746865207a65726f206160448201526564647265737360d01b6064820152608401610444565b611bfc81611d6d565b50565b6000546001600160a01b0361010090910416331461097f5760405162461bcd60e51b815260206004820181905260248201527f4f776e61626c653a2063616c6c6572206973206e6f7420746865206f776e65726044820152606401610444565b60005460ff161561097f5760405162461bcd60e51b815260206004820152601060248201526f14185d5cd8589b194e881c185d5cd95960821b6044820152606401610444565b6000805b8351811015611ce95782848281518110611cc557611cc561230c565b60200260200101516000015161ffff1603611ce1579050611d06565b600101611ca9565b50604051631585bdab60e31b815260048101839052602401610444565b92915050565b6000611d0662015180836123c1565b611d23612013565b6000805460ff191690557f5db9ee0a495bf2e6ff9c91a7834c1ba4fdd244a5e8aa4e537bd38aeae4b073aa335b6040516001600160a01b03909116815260200160405180910390a1565b600080546001600160a01b03838116610100818102610100600160a81b0319851617855560405193049190911692909183917f8be0079c531659141344cd1fd0a4f28419497f9722a3daafe3b4186f6b6457e091a35050565b611dce611c5f565b6000805460ff191660011790557f62e78cea01bee320cd4e420270b5ea74000d11b0c9f74754ebdbfc544b05a258611d503390565b6040805160c081018252600080825260208201819052918101829052606081018290526080810182905260a081019190915260006001805480602002602001604051908101604052809291908181526020016000905b82821015611f1c5760008481526020908190206040805160c081018252918501805461ffff811684526201000081046001600160a01b031694840194909452600160b01b840463ffffffff169183019190915290916060830190600160d01b900460ff166005811115611ece57611ece61215c565b6005811115611edf57611edf61215c565b8152905460ff600160d81b820481161515602080850191909152600160e01b90920416151560409092019190915290825260019092019101611e59565b50505050905060005b8151811015611f815783828281518110611f4157611f4161230c565b60200260200101516000015161ffff1603611f7957818181518110611f6857611f6861230c565b602002602001015192505050919050565b600101611f25565b50604051631585bdab60e31b815260048101849052602401610444565b6000805461ffff60d01b198116600160d01b9182900461ffff90811660010181168302919091179283905591041690565b60008054600160a81b900460ff161561200d57506000805460001960ff600160a81b808404821692909201160260ff60a81b19909116179055600190565b50600090565b60005460ff1661097f5760405162461bcd60e51b815260206004820152601460248201527314185d5cd8589b194e881b9bdd081c185d5cd95960621b6044820152606401610444565b80356001600160a01b038116811461207357600080fd5b919050565b60006020828403121561208a57600080fd5b61166c8261205c565b6000602082840312156120a557600080fd5b5035919050565b80356006811061207357600080fd5b600080604083850312156120ce57600080fd5b823591506120de602084016120ac565b90509250929050565b600080602083850312156120fa57600080fd5b823567ffffffffffffffff8082111561211257600080fd5b818501915085601f83011261212657600080fd5b81358181111561213557600080fd5b8660208260051b850101111561214a57600080fd5b60209290920196919550909350505050565b634e487b7160e01b600052602160045260246000fd5b6006811061219057634e487b7160e01b600052602160045260246000fd5b9052565b602080825282518282018190526000919060409081850190868401855b82811015612220578151805161ffff168552868101516001600160a01b0316878601528581015163ffffffff16868601526060808201516121f482880182612172565b505060808181015115159086015260a09081015115159085015260c090930192908501906001016121b1565b5091979650505050505050565b61ffff871681526001600160a01b038616602082015263ffffffff8516604082015260c081016122606060830186612172565b921515608082015290151560a090910152949350505050565b6000806040838503121561228c57600080fd5b6122958361205c565b91506120de602084016120ac565b8015158114611bfc57600080fd5b6000806000606084860312156122c657600080fd5b8335925060208401356122d8816122a3565b915060408401356122e8816122a3565b809150509250925092565b60006020828403121561230557600080fd5b5051919050565b634e487b7160e01b600052603260045260246000fd5b634e487b7160e01b600052601160045260246000fd5b81810381811115611d0657611d06612322565b80820180821115611d0657611d06612322565b634e487b7160e01b600052603160045260246000fd5b60006020828403121561238657600080fd5b815161166c816122a3565b6000600182016123a3576123a3612322565b5060010190565b8082028115828204841417611d0657611d06612322565b6000826123de57634e487b7160e01b600052601260045260246000fd5b500490565b6000816123f2576123f2612322565b50600019019056fea26469706673582212202ef137b0a0ad01486a5cf4bd158f7838c505052059fe10c6df6ae0b2b2cafe6464736f6c63430008130033",
  "linkReferences": {},
  "deployedLinkReferences": {}
}