{
  "_format": "hh-sol-artifact-1",
  "contractName": "KratosX",
  "sourceName": "contracts/KratosX.sol",
  "abi": [
    {
      "inputs": [
        {
          "internalType": "address",
          "name": "token",
          "type": "address"
        }
      ],
      "stateMutability": "nonpayable",
      "type": "constructor"
    },
    {
      "inputs": [
        {
          "internalType": "uint256",
          "name": "id",
          "type": "uint256"
        }
      ],
      "name": "DepositNotFound",
      "type": "error"
    },
    {
      "inputs": [],
      "name": "InvalidLockPeriod",
      "type": "error"
    },
    {
      "anonymous": false,
      "inputs": [
        {
          "indexed": false,
          "internalType": "address",
          "name": "owner",
          "type": "address"
        },
        {
          "indexed": false,
          "internalType": "uint256",
          "name": "id",
          "type": "uint256"
        }
      ],
      "name": "DepositApproved",
      "type": "event"
    },
    {
      "anonymous": false,
      "inputs": [
        {
          "indexed": false,
          "internalType": "address",
          "name": "depositor",
          "type": "address"
        }
      ],
      "name": "DepositRejected",
      "type": "event"
    },
    {
      "anonymous": false,
      "inputs": [
        {
          "indexed": false,
          "internalType": "uint256",
          "name": "id",
          "type": "uint256"
        },
        {
          "indexed": false,
          "internalType": "address",
          "name": "from",
          "type": "address"
        }
      ],
      "name": "DepositRequested",
      "type": "event"
    },
    {
      "anonymous": false,
      "inputs": [
        {
          "indexed": false,
          "internalType": "address",
          "name": "owner",
          "type": "address"
        }
      ],
      "name": "DepositsApproved",
      "type": "event"
    },
    {
      "anonymous": false,
      "inputs": [
        {
          "indexed": false,
          "internalType": "uint256[]",
          "name": "id",
          "type": "uint256[]"
        }
      ],
      "name": "MultipleWithdrawalsExecuted",
      "type": "event"
    },
    {
      "anonymous": false,
      "inputs": [
        {
          "indexed": false,
          "internalType": "uint256[]",
          "name": "ids",
          "type": "uint256[]"
        },
        {
          "indexed": false,
          "internalType": "uint256",
          "name": "estimatedAmount",
          "type": "uint256"
        }
      ],
      "name": "MultipleWithdrawalsRequested",
      "type": "event"
    },
    {
      "anonymous": false,
      "inputs": [
        {
          "indexed": true,
          "internalType": "address",
          "name": "previousOwner",
          "type": "address"
        },
        {
          "indexed": true,
          "internalType": "address",
          "name": "newOwner",
          "type": "address"
        }
      ],
      "name": "OwnershipTransferred",
      "type": "event"
    },
    {
      "anonymous": false,
      "inputs": [
        {
          "indexed": false,
          "internalType": "address",
          "name": "account",
          "type": "address"
        }
      ],
      "name": "Paused",
      "type": "event"
    },
    {
      "anonymous": false,
      "inputs": [
        {
          "indexed": false,
          "internalType": "address",
          "name": "account",
          "type": "address"
        }
      ],
      "name": "Unpaused",
      "type": "event"
    },
    {
      "anonymous": false,
      "inputs": [
        {
          "indexed": false,
          "internalType": "uint256",
          "name": "id",
          "type": "uint256"
        },
        {
          "indexed": false,
          "internalType": "uint256",
          "name": "calculatedAmount",
          "type": "uint256"
        }
      ],
      "name": "WithdrawalExecuted",
      "type": "event"
    },
    {
      "anonymous": false,
      "inputs": [
        {
          "indexed": false,
          "internalType": "uint256",
          "name": "id",
          "type": "uint256"
        },
        {
          "indexed": false,
          "internalType": "uint256",
          "name": "estimatedAmount",
          "type": "uint256"
        }
      ],
      "name": "WithdrawalRequested",
      "type": "event"
    },
    {
      "inputs": [
        {
          "internalType": "address",
          "name": "depositor",
          "type": "address"
        },
        {
          "internalType": "enum KratosX.LockPeriod",
          "name": "lockPeriod",
          "type": "uint8"
        }
      ],
      "name": "approveDeposit",
      "outputs": [],
      "stateMutability": "nonpayable",
      "type": "function"
    },
    {
      "inputs": [
        {
          "internalType": "address",
          "name": "depositor",
          "type": "address"
        },
        {
          "internalType": "enum KratosX.LockPeriod",
          "name": "lockPeriod",
          "type": "uint8"
        }
      ],
      "name": "approveDeposits",
      "outputs": [],
      "stateMutability": "nonpayable",
      "type": "function"
    },
    {
      "inputs": [
        {
          "internalType": "uint256",
          "name": "dayCount",
          "type": "uint256"
        },
        {
          "internalType": "bool",
          "name": "hasEarlyAdoptBonus",
          "type": "bool"
        },
        {
          "internalType": "bool",
          "name": "hasExtendBonus",
          "type": "bool"
        }
      ],
      "name": "calculateYield",
      "outputs": [
        {
          "internalType": "uint256",
          "name": "",
          "type": "uint256"
        }
      ],
      "stateMutability": "pure",
      "type": "function"
    },
    {
      "inputs": [
        {
          "internalType": "uint256",
          "name": "",
          "type": "uint256"
        }
      ],
      "name": "deposits",
      "outputs": [
        {
          "internalType": "uint16",
          "name": "id",
          "type": "uint16"
        },
        {
          "internalType": "address",
          "name": "owner",
          "type": "address"
        },
        {
          "internalType": "uint32",
          "name": "approveTimestamp",
          "type": "uint32"
        },
        {
          "internalType": "enum KratosX.LockPeriod",
          "name": "lockPeriod",
          "type": "uint8"
        },
        {
          "internalType": "bool",
          "name": "hasEarlyAdoptBonus",
          "type": "bool"
        },
        {
          "internalType": "bool",
          "name": "hasExtendPeriodBonus",
          "type": "bool"
        }
      ],
      "stateMutability": "view",
      "type": "function"
    },
    {
      "inputs": [
        {
          "internalType": "uint256",
          "name": "id",
          "type": "uint256"
        }
      ],
      "name": "executeWithdrawal",
      "outputs": [],
      "stateMutability": "nonpayable",
      "type": "function"
    },
    {
      "inputs": [
        {
          "internalType": "uint256[]",
          "name": "ids",
          "type": "uint256[]"
        }
      ],
      "name": "executeWithdrawals",
      "outputs": [],
      "stateMutability": "nonpayable",
      "type": "function"
    },
    {
      "inputs": [
        {
          "internalType": "uint256",
          "name": "id",
          "type": "uint256"
        },
        {
          "internalType": "enum KratosX.LockPeriod",
          "name": "lockPeriod",
          "type": "uint8"
        }
      ],
      "name": "extendLockPeriod",
      "outputs": [],
      "stateMutability": "nonpayable",
      "type": "function"
    },
    {
      "inputs": [],
      "name": "getAvailableSlotCount",
      "outputs": [
        {
          "internalType": "uint256",
          "name": "",
          "type": "uint256"
        }
      ],
      "stateMutability": "view",
      "type": "function"
    },
    {
      "inputs": [],
      "name": "getSlotValue",
      "outputs": [
        {
          "internalType": "uint256",
          "name": "",
          "type": "uint256"
        }
      ],
      "stateMutability": "pure",
      "type": "function"
    },
    {
      "inputs": [],
      "name": "getUsedSlots",
      "outputs": [
        {
          "components": [
            {
              "internalType": "uint16",
              "name": "id",
              "type": "uint16"
            },
            {
              "internalType": "address",
              "name": "owner",
              "type": "address"
            },
            {
              "internalType": "uint32",
              "name": "approveTimestamp",
              "type": "uint32"
            },
            {
              "internalType": "enum KratosX.LockPeriod",
              "name": "lockPeriod",
              "type": "uint8"
            },
            {
              "internalType": "bool",
              "name": "hasEarlyAdoptBonus",
              "type": "bool"
            },
            {
              "internalType": "bool",
              "name": "hasExtendPeriodBonus",
              "type": "bool"
            }
          ],
          "internalType": "struct KratosX.Deposit[]",
          "name": "",
          "type": "tuple[]"
        }
      ],
      "stateMutability": "view",
      "type": "function"
    },
    {
      "inputs": [],
      "name": "owner",
      "outputs": [
        {
          "internalType": "address",
          "name": "",
          "type": "address"
        }
      ],
      "stateMutability": "view",
      "type": "function"
    },
    {
      "inputs": [],
      "name": "pause",
      "outputs": [],
      "stateMutability": "nonpayable",
      "type": "function"
    },
    {
      "inputs": [],
      "name": "paused",
      "outputs": [
        {
          "internalType": "bool",
          "name": "",
          "type": "bool"
        }
      ],
      "stateMutability": "view",
      "type": "function"
    },
    {
      "inputs": [
        {
          "internalType": "address",
          "name": "depositor",
          "type": "address"
        }
      ],
      "name": "rejectDeposit",
      "outputs": [],
      "stateMutability": "nonpayable",
      "type": "function"
    },
    {
      "inputs": [],
      "name": "renounceOwnership",
      "outputs": [],
      "stateMutability": "nonpayable",
      "type": "function"
    },
    {
      "inputs": [
        {
          "internalType": "uint256",
          "name": "id",
          "type": "uint256"
        }
      ],
      "name": "requestWithdrawal",
      "outputs": [],
      "stateMutability": "nonpayable",
      "type": "function"
    },
    {
      "inputs": [
        {
          "internalType": "uint256[]",
          "name": "ids",
          "type": "uint256[]"
        }
      ],
      "name": "requestWithdrawals",
      "outputs": [],
      "stateMutability": "nonpayable",
      "type": "function"
    },
    {
      "inputs": [
        {
          "internalType": "uint256",
          "name": "slots",
          "type": "uint256"
        }
      ],
      "name": "setEarlyAdotpSlots",
      "outputs": [],
      "stateMutability": "nonpayable",
      "type": "function"
    },
    {
      "inputs": [
        {
          "internalType": "uint256",
          "name": "timestamp",
          "type": "uint256"
        }
      ],
      "name": "setExtendLockPeriodBonus",
      "outputs": [],
      "stateMutability": "nonpayable",
      "type": "function"
    },
    {
      "inputs": [
        {
          "internalType": "address",
          "name": "newOwner",
          "type": "address"
        }
      ],
      "name": "transferOwnership",
      "outputs": [],
      "stateMutability": "nonpayable",
      "type": "function"
    },
    {
      "inputs": [],
      "name": "unpause",
      "outputs": [],
      "stateMutability": "nonpayable",
      "type": "function"
    }
  ],
  "bytecode": "0x60a06040523480156200001157600080fd5b50604051620024a7380380620024a78339810160408190526200003491620000ff565b6000805460ff191690556200004933620000a6565b6001600160a01b0381166080526000805466ffff00000000ff60a81b1916600360a81b1790556200007f426301e1338062000131565b600060166101000a81548163ffffffff021916908363ffffffff1602179055505062000159565b600080546001600160a01b03838116610100818102610100600160a81b0319851617855560405193049190911692909183917f8be0079c531659141344cd1fd0a4f28419497f9722a3daafe3b4186f6b6457e091a35050565b6000602082840312156200011257600080fd5b81516001600160a01b03811681146200012a57600080fd5b9392505050565b808201808211156200015357634e487b7160e01b600052601160045260246000fd5b92915050565b6080516122fa620001ad600039600081816103340152818161041f015281816107df015281816110ef015281816111a0015281816113a2015281816115f40152818161171c015261193101526122fa6000f3fe608060405234801561001057600080fd5b50600436106101375760003560e01c80638c395ef4116100b8578063b02c43d01161007c578063b02c43d01461025d578063d479220d14610282578063e61d222014610295578063f07bfcb7146102a8578063f2fde38b146102bb578063f8bb2414146102ce57600080fd5b80638c395ef4146101e65780638da5cb5b146101f9578063952f0417146102225780639ee679e814610235578063a8aa4b871461024857600080fd5b80636220e819116100ff5780636220e8191461019d578063715018a6146101b057806373e22c54146101b85780638456cb59146101cb5780638b57f787146101d357600080fd5b80632244e1c71461013c57806324f13a76146101515780633f4ba83a146101645780635c975abb1461016c5780636039508814610187575b600080fd5b61014f61014a366004611f2a565b6102d9565b005b61014f61015f366004611f45565b610320565b61014f6108e3565b60005460ff1660405190151581526020015b60405180910390f35b61018f6108f5565b60405190815260200161017e565b61014f6101ab366004611f6d565b61090b565b61014f610c67565b61014f6101c6366004611f99565b610c79565b61014f610cca565b61014f6101e1366004611f45565b610cda565b61014f6101f4366004611f99565b610d53565b60005461010090046001600160a01b03166040516001600160a01b03909116815260200161017e565b61014f610230366004611f45565b610d97565b61014f610243366004611f45565b610e14565b610250610f18565b60405161017e9190612046565b61027061026b366004611f45565b611008565b60405161017e969594939291906120df565b61014f61029036600461212b565b61106b565b61018f6102a3366004612163565b6114a7565b61014f6102b636600461212b565b61156e565b61014f6102c9366004611f2a565b611a38565b64012a05f20061018f565b6102e1611ab1565b6040516001600160a01b03821681527f9252f673a302383d6d82c79d6d2d359ef0eb704b0f92f240bf386db0327998f79060200160405180910390a150565b610328611ab1565b610330611b11565b60007f00000000000000000000000000000000000000000000000000000000000000006001600160a01b031663dd62ed3e6103796000546001600160a01b036101009091041690565b6040516001600160e01b031960e084901b1681526001600160a01b039091166004820152306024820152604401602060405180830381865afa1580156103c3573d6000803e3d6000fd5b505050506040513d601f19601f820116820180604052508101906103e791906121a5565b905064012a05f2008110156104175760405162461bcd60e51b815260040161040e906121be565b60405180910390fd5b64012a05f2007f00000000000000000000000000000000000000000000000000000000000000006001600160a01b03166370a082316104646000546001600160a01b036101009091041690565b6040516001600160e01b031960e084901b1681526001600160a01b039091166004820152602401602060405180830381865afa1580156104a8573d6000803e3d6000fd5b505050506040513d601f19601f820116820180604052508101906104cc91906121a5565b101561051a5760405162461bcd60e51b815260206004820152601d60248201527f4e6f7420656e6f7567682066756e647320746f2077697468647261772e000000604482015260640161040e565b60006001805480602002602001604051908101604052809291908181526020016000905b828210156106015760008481526020908190206040805160c081018252918501805461ffff811684526201000081046001600160a01b031694840194909452600160b01b840463ffffffff169183019190915290916060830190600160d01b900460ff1660058111156105b3576105b361200e565b60058111156105c4576105c461200e565b8152905460ff600160d81b820481161515602080850191909152600160e01b9092041615156040909201919091529082526001909201910161053e565b50505050905060006106138285611b57565b90506000828281518110610629576106296121ed565b602002602001015190506000610665610656836040015163ffffffff16426106519190612219565b611bbe565b83608001518460a001516114a7565b6106749064012a05f20061222c565b9050808510156106965760405162461bcd60e51b815260040161040e906121be565b83600185516106a59190612219565b815181106106b5576106b56121ed565b6020026020010151600184815481106106d0576106d06121ed565b600091825260209182902083519101805492840151604085015163ffffffff16600160b01b0263ffffffff60b01b196001600160a01b0390921662010000026001600160b01b031990951661ffff909416939093179390931792831682178155606084015190929091839160ff60d01b1990911664ffffffffff60b01b1990911617600160d01b8360058111156107695761076961200e565b02179055506080820151815460a0909301511515600160e01b0260ff60e01b19911515600160d81b029190911661ffff60d81b199093169290921791909117905560018054806107bb576107bb61223f565b600082815260209020810160001990810180546001600160e81b03191690550190557f00000000000000000000000000000000000000000000000000000000000000006001600160a01b03166323b872dd6108246000546001600160a01b036101009091041690565b60208501516040516001600160e01b031960e085901b1681526001600160a01b03928316600482015291166024820152604481018490526064016020604051808303816000875af115801561087d573d6000803e3d6000fd5b505050506040513d601f19601f820116820180604052508101906108a19190612255565b5060408051878152602081018390527f31d3fb496634645407643eb204dae990bd803a7289718931990377e69fe48ce9910160405180910390a1505050505050565b6108eb611ab1565b6108f3611bcd565b565b600154600090610906906064612219565b905090565b610913611b11565b60008160058111156109275761092761200e565b116109745760405162461bcd60e51b815260206004820152601d60248201527f496e76616c6964206c6f636b696e6720706572696f642076616c75652e000000604482015260640161040e565b60006001805480602002602001604051908101604052809291908181526020016000905b82821015610a5b5760008481526020908190206040805160c081018252918501805461ffff811684526201000081046001600160a01b031694840194909452600160b01b840463ffffffff169183019190915290916060830190600160d01b900460ff166005811115610a0d57610a0d61200e565b6005811115610a1e57610a1e61200e565b8152905460ff600160d81b820481161515602080850191909152600160e01b90920416151560409092019190915290825260019092019101610998565b5050505090506000610a6d8285611b57565b90506000828281518110610a8357610a836121ed565b6020026020010151905080606001516005811115610aa357610aa361200e565b846005811115610ab557610ab561200e565b1015610b035760405162461bcd60e51b815260206004820152601d60248201527f496e76616c6964206c6f636b696e6720706572696f642076616c75652e000000604482015260640161040e565b60005442600160b01b90910463ffffffff1610801590610b385750600081606001516005811115610b3657610b3661200e565b145b15610b4557600160a08201525b60608101846005811115610b5b57610b5b61200e565b90816005811115610b6e57610b6e61200e565b815250508060018381548110610b8657610b866121ed565b600091825260209182902083519101805492840151604085015163ffffffff16600160b01b0263ffffffff60b01b196001600160a01b0390921662010000026001600160b01b031990951661ffff909416939093179390931792831682178155606084015190929091839160ff60d01b1990911664ffffffffff60b01b1990911617600160d01b836005811115610c1f57610c1f61200e565b02179055506080820151815460a0909301511515600160e01b0260ff60e01b19911515600160d81b029190911661ffff60d81b19909316929092179190911790555050505050565b610c6f611ab1565b6108f36000611c1f565b610c81611ab1565b610c89611b11565b60005b81811015610cc557610cb5838383818110610ca957610ca96121ed565b90506020020135610320565b610cbe81612272565b9050610c8c565b505050565b610cd2611ab1565b6108f3611c78565b610ce2611ab1565b610cea611b11565b60ff811115610d335760405162461bcd60e51b81526020600482015260156024820152742a37b79036b0b73c903137b73ab99039b637ba399760591b604482015260640161040e565b6000805460ff909216600160a81b0260ff60a81b19909216919091179055565b610d5b611b11565b60005b81811015610cc557610d87838383818110610d7b57610d7b6121ed565b90506020020135610e14565b610d9081612272565b9050610d5e565b610d9f611ab1565b610da7611b11565b63ffffffff811115610dee5760405162461bcd60e51b815260206004820152601060248201526f2832b934b7b2103a37b7903637b7339760811b604482015260640161040e565b6000805463ffffffff909216600160b01b0263ffffffff60b01b19909216919091179055565b610e1c611b11565b6000610e2782611cb5565b60208101519091506001600160a01b03163314610e865760405162461bcd60e51b815260206004820152601e60248201527f596f7520617265206e6f7420746865206465706f736974206f776e65722e0000604482015260640161040e565b6000610eaf826040015163ffffffff164262093a80610ea5919061222c565b6106519190612219565b90506000610ec68284608001518560a001516114a7565b90507f6b19bb08027e5bee64cbe3f99bbbfb671c0e134643993f0ad046fd01d020b34284610ef98364012a05f20061222c565b604080519283526020830191909152015b60405180910390a150505050565b60606001805480602002602001604051908101604052809291908181526020016000905b82821015610fff5760008481526020908190206040805160c081018252918501805461ffff811684526201000081046001600160a01b031694840194909452600160b01b840463ffffffff169183019190915290916060830190600160d01b900460ff166005811115610fb157610fb161200e565b6005811115610fc257610fc261200e565b8152905460ff600160d81b820481161515602080850191909152600160e01b90920416151560409092019190915290825260019092019101610f3c565b50505050905090565b6001818154811061101857600080fd5b60009182526020909120015461ffff811691506001600160a01b03620100008204169063ffffffff600160b01b8204169060ff600160d01b8204811691600160d81b8104821691600160e01b9091041686565b611073611ab1565b61107b611b11565b6001546064116110c35760405162461bcd60e51b815260206004820152601360248201527227379039b637ba399030bb30b4b630b136329760691b604482015260640161040e565b604051636eb1769f60e11b81526001600160a01b03838116600483015230602483015264012a05f200917f00000000000000000000000000000000000000000000000000000000000000009091169063dd62ed3e90604401602060405180830381865afa158015611138573d6000803e3d6000fd5b505050506040513d601f19601f8201168201806040525081019061115c91906121a5565b101561117a5760405162461bcd60e51b815260040161040e906121be565b6040516370a0823160e01b81526001600160a01b03838116600483015264012a05f200917f0000000000000000000000000000000000000000000000000000000000000000909116906370a0823190602401602060405180830381865afa1580156111e9573d6000803e3d6000fd5b505050506040513d601f19601f8201168201806040525081019061120d91906121a5565b10156112515760405162461bcd60e51b81526020600482015260136024820152722737ba1032b737bab3b4103130b630b731b29760691b604482015260640161040e565b600061125b611e50565b905060016040518060c001604052808361ffff168152602001856001600160a01b031681526020014263ffffffff1681526020018460058111156112a1576112a161200e565b81526020016112ae611e81565b1515815260006020918201819052835460018101855593815281902082519301805491830151604084015163ffffffff16600160b01b0263ffffffff60b01b196001600160a01b0390921662010000026001600160b01b031990941661ffff90961695909517929092179182168417815560608301519293909291839160ff60d01b191664ffffffffff60b01b1990911617600160d01b8360058111156113575761135761200e565b02179055506080820151815460a0909301511515600160e01b0260ff60e01b19911515600160d81b029190911661ffff60d81b19909316929092179190911790556001600160a01b037f0000000000000000000000000000000000000000000000000000000000000000166323b872dd846113e06000546001600160a01b036101009091041690565b6040516001600160e01b031960e085901b1681526001600160a01b0392831660048201529116602482015264012a05f20060448201526064016020604051808303816000875af1158015611438573d6000803e3d6000fd5b505050506040513d601f19601f8201168201806040525081019061145c9190612255565b50604080516001600160a01b038516815261ffff831660208201527f79000773ac921e1702f7f3d9d7416dfe1f2b07606ee63066874ac05a6a42973e910160405180910390a1505050565b60008060b485116114bc576000915050611567565b61016d85116114cd5750600561151a565b6102da85116114de5750600561151a565b61044785116114ef5750600661151a565b6105b485116115005750600761151a565b61072185116115115750600861151a565b50610721935060095b8315611524576001015b828015611533575061016d8510155b1561153c576001015b618e948561154f8364012a05f20061228b565b611559919061228b565b61156391906122a2565b9150505b9392505050565b611576611ab1565b61157e611b11565b60016115886108f5565b10156115cc5760405162461bcd60e51b815260206004820152601360248201527227379039b637ba399030bb30b4b630b136329760691b604482015260640161040e565b604051636eb1769f60e11b81526001600160a01b0383811660048301523060248301526000917f00000000000000000000000000000000000000000000000000000000000000009091169063dd62ed3e90604401602060405180830381865afa15801561163d573d6000803e3d6000fd5b505050506040513d601f19601f8201168201806040525081019061166191906121a5565b9050600061167464012a05f200836122a2565b905060018110156116975760405162461bcd60e51b815260040161040e906121be565b61169f6108f5565b8111156116ee5760405162461bcd60e51b815260206004820152601b60248201527f4e6f7420656e6f75676820617661696c61626c6520736c6f74732e0000000000604482015260640161040e565b6116fd64012a05f2008261228b565b6040516370a0823160e01b81526001600160a01b0386811660048301527f000000000000000000000000000000000000000000000000000000000000000016906370a0823190602401602060405180830381865afa158015611763573d6000803e3d6000fd5b505050506040513d601f19601f8201168201806040525081019061178791906121a5565b10156117cb5760405162461bcd60e51b81526020600482015260136024820152722737ba1032b737bab3b4103130b630b731b29760691b604482015260640161040e565b60005b8181101561192e5760006117e0611e50565b905060016040518060c001604052808361ffff168152602001886001600160a01b031681526020014263ffffffff1681526020018760058111156118265761182661200e565b8152602001611833611e81565b1515815260006020918201819052835460018101855593815281902082519301805491830151604084015163ffffffff16600160b01b0263ffffffff60b01b196001600160a01b0390921662010000026001600160b01b031990941661ffff90961695909517929092179182168417815560608301519293909291839160ff60d01b191664ffffffffff60b01b1990911617600160d01b8360058111156118dc576118dc61200e565b02179055506080820151815460a0909301511515600160e01b0260ff60e01b19911515600160d81b029190911661ffff60d81b19909316929092179190911790555061192781612272565b90506117ce565b507f00000000000000000000000000000000000000000000000000000000000000006001600160a01b03166323b872dd856119776000546001600160a01b036101009091041690565b61198664012a05f2008661228b565b6040516001600160e01b031960e086901b1681526001600160a01b03938416600482015292909116602483015260448201526064016020604051808303816000875af11580156119da573d6000803e3d6000fd5b505050506040513d601f19601f820116820180604052508101906119fe9190612255565b506040516001600160a01b03851681527fb6f7b064071ea7b1dc8d327ef5e519931e7e4933ed9ed3156c42fce7b4be323a90602001610f0a565b611a40611ab1565b6001600160a01b038116611aa55760405162461bcd60e51b815260206004820152602660248201527f4f776e61626c653a206e6577206f776e657220697320746865207a65726f206160448201526564647265737360d01b606482015260840161040e565b611aae81611c1f565b50565b6000546001600160a01b036101009091041633146108f35760405162461bcd60e51b815260206004820181905260248201527f4f776e61626c653a2063616c6c6572206973206e6f7420746865206f776e6572604482015260640161040e565b60005460ff16156108f35760405162461bcd60e51b815260206004820152601060248201526f14185d5cd8589b194e881c185d5cd95960821b604482015260640161040e565b6000805b8351811015611b9b5782848281518110611b7757611b776121ed565b60200260200101516000015161ffff1603611b93579050611bb8565b600101611b5b565b50604051631585bdab60e31b81526004810183905260240161040e565b92915050565b6000611bb862015180836122a2565b611bd5611ec5565b6000805460ff191690557f5db9ee0a495bf2e6ff9c91a7834c1ba4fdd244a5e8aa4e537bd38aeae4b073aa335b6040516001600160a01b03909116815260200160405180910390a1565b600080546001600160a01b03838116610100818102610100600160a81b0319851617855560405193049190911692909183917f8be0079c531659141344cd1fd0a4f28419497f9722a3daafe3b4186f6b6457e091a35050565b611c80611b11565b6000805460ff191660011790557f62e78cea01bee320cd4e420270b5ea74000d11b0c9f74754ebdbfc544b05a258611c023390565b6040805160c081018252600080825260208201819052918101829052606081018290526080810182905260a081019190915260006001805480602002602001604051908101604052809291908181526020016000905b82821015611dce5760008481526020908190206040805160c081018252918501805461ffff811684526201000081046001600160a01b031694840194909452600160b01b840463ffffffff169183019190915290916060830190600160d01b900460ff166005811115611d8057611d8061200e565b6005811115611d9157611d9161200e565b8152905460ff600160d81b820481161515602080850191909152600160e01b90920416151560409092019190915290825260019092019101611d0b565b50505050905060005b8151811015611e335783828281518110611df357611df36121ed565b60200260200101516000015161ffff1603611e2b57818181518110611e1a57611e1a6121ed565b602002602001015192505050919050565b600101611dd7565b50604051631585bdab60e31b81526004810184905260240161040e565b6000805461ffff60d01b198116600160d01b9182900461ffff90811660010181168302919091179283905591041690565b60008054600160a81b900460ff1615611ebf57506000805460001960ff600160a81b808404821692909201160260ff60a81b19909116179055600190565b50600090565b60005460ff166108f35760405162461bcd60e51b815260206004820152601460248201527314185d5cd8589b194e881b9bdd081c185d5cd95960621b604482015260640161040e565b80356001600160a01b0381168114611f2557600080fd5b919050565b600060208284031215611f3c57600080fd5b61156782611f0e565b600060208284031215611f5757600080fd5b5035919050565b803560068110611f2557600080fd5b60008060408385031215611f8057600080fd5b82359150611f9060208401611f5e565b90509250929050565b60008060208385031215611fac57600080fd5b823567ffffffffffffffff80821115611fc457600080fd5b818501915085601f830112611fd857600080fd5b813581811115611fe757600080fd5b8660208260051b8501011115611ffc57600080fd5b60209290920196919550909350505050565b634e487b7160e01b600052602160045260246000fd5b6006811061204257634e487b7160e01b600052602160045260246000fd5b9052565b602080825282518282018190526000919060409081850190868401855b828110156120d2578151805161ffff168552868101516001600160a01b0316878601528581015163ffffffff16868601526060808201516120a682880182612024565b505060808181015115159086015260a09081015115159085015260c09093019290850190600101612063565b5091979650505050505050565b61ffff871681526001600160a01b038616602082015263ffffffff8516604082015260c081016121126060830186612024565b921515608082015290151560a090910152949350505050565b6000806040838503121561213e57600080fd5b61214783611f0e565b9150611f9060208401611f5e565b8015158114611aae57600080fd5b60008060006060848603121561217857600080fd5b83359250602084013561218a81612155565b9150604084013561219a81612155565b809150509250925092565b6000602082840312156121b757600080fd5b5051919050565b6020808252601590820152742737ba1032b737bab3b41030b63637bbb0b731b29760591b604082015260600190565b634e487b7160e01b600052603260045260246000fd5b634e487b7160e01b600052601160045260246000fd5b81810381811115611bb857611bb8612203565b80820180821115611bb857611bb8612203565b634e487b7160e01b600052603160045260246000fd5b60006020828403121561226757600080fd5b815161156781612155565b60006001820161228457612284612203565b5060010190565b8082028115828204841417611bb857611bb8612203565b6000826122bf57634e487b7160e01b600052601260045260246000fd5b50049056fea2646970667358221220caf498a6e3d915470c54e589d857943cba4d9774a77aa4fcf4b7f78c9996fb0e64736f6c63430008130033",
  "linkReferences": {},
  "deployedLinkReferences": {}
}