{
  "_format": "hh-sol-artifact-1",
  "contractName": "KratosX",
  "sourceName": "contracts/KratosX.sol",
  "abi": [
    {
      "inputs": [
        {
          "internalType": "address",
          "name": "token",
          "type": "address"
        }
      ],
      "stateMutability": "nonpayable",
      "type": "constructor"
    },
    {
      "inputs": [
        {
          "internalType": "address",
          "name": "target",
          "type": "address"
        }
      ],
      "name": "AddressEmptyCode",
      "type": "error"
    },
    {
      "inputs": [
        {
          "internalType": "address",
          "name": "account",
          "type": "address"
        }
      ],
      "name": "AddressInsufficientBalance",
      "type": "error"
    },
    {
      "inputs": [
        {
          "internalType": "uint256",
          "name": "id",
          "type": "uint256"
        }
      ],
      "name": "DepositNotFound",
      "type": "error"
    },
    {
      "inputs": [],
      "name": "EnforcedPause",
      "type": "error"
    },
    {
      "inputs": [],
      "name": "ExpectedPause",
      "type": "error"
    },
    {
      "inputs": [],
      "name": "FailedInnerCall",
      "type": "error"
    },
    {
      "inputs": [],
      "name": "InvalidLockPeriod",
      "type": "error"
    },
    {
      "inputs": [],
      "name": "NotDepositOwner",
      "type": "error"
    },
    {
      "inputs": [],
      "name": "NotEnoughAllowance",
      "type": "error"
    },
    {
      "inputs": [],
      "name": "NotEnoughBalance",
      "type": "error"
    },
    {
      "inputs": [],
      "name": "NotEnoughFundsToWithdraw",
      "type": "error"
    },
    {
      "inputs": [],
      "name": "NotEnoughSlotsAvailable",
      "type": "error"
    },
    {
      "inputs": [
        {
          "internalType": "address",
          "name": "owner",
          "type": "address"
        }
      ],
      "name": "OwnableInvalidOwner",
      "type": "error"
    },
    {
      "inputs": [
        {
          "internalType": "address",
          "name": "account",
          "type": "address"
        }
      ],
      "name": "OwnableUnauthorizedAccount",
      "type": "error"
    },
    {
      "inputs": [
        {
          "internalType": "address",
          "name": "token",
          "type": "address"
        }
      ],
      "name": "SafeERC20FailedOperation",
      "type": "error"
    },
    {
      "anonymous": false,
      "inputs": [
        {
          "indexed": false,
          "internalType": "address",
          "name": "owner",
          "type": "address"
        },
        {
          "indexed": false,
          "internalType": "uint256",
          "name": "id",
          "type": "uint256"
        }
      ],
      "name": "DepositApproved",
      "type": "event"
    },
    {
      "anonymous": false,
      "inputs": [
        {
          "indexed": false,
          "internalType": "address",
          "name": "depositor",
          "type": "address"
        }
      ],
      "name": "DepositRejected",
      "type": "event"
    },
    {
      "anonymous": false,
      "inputs": [
        {
          "indexed": false,
          "internalType": "uint256",
          "name": "id",
          "type": "uint256"
        },
        {
          "indexed": false,
          "internalType": "address",
          "name": "from",
          "type": "address"
        }
      ],
      "name": "DepositRequested",
      "type": "event"
    },
    {
      "anonymous": false,
      "inputs": [
        {
          "indexed": false,
          "internalType": "address",
          "name": "owner",
          "type": "address"
        }
      ],
      "name": "DepositsApproved",
      "type": "event"
    },
    {
      "anonymous": false,
      "inputs": [
        {
          "indexed": false,
          "internalType": "uint256[]",
          "name": "id",
          "type": "uint256[]"
        }
      ],
      "name": "MultipleWithdrawalsExecuted",
      "type": "event"
    },
    {
      "anonymous": false,
      "inputs": [
        {
          "indexed": false,
          "internalType": "uint256[]",
          "name": "ids",
          "type": "uint256[]"
        },
        {
          "indexed": false,
          "internalType": "uint256",
          "name": "estimatedAmount",
          "type": "uint256"
        }
      ],
      "name": "MultipleWithdrawalsRequested",
      "type": "event"
    },
    {
      "anonymous": false,
      "inputs": [
        {
          "indexed": true,
          "internalType": "address",
          "name": "previousOwner",
          "type": "address"
        },
        {
          "indexed": true,
          "internalType": "address",
          "name": "newOwner",
          "type": "address"
        }
      ],
      "name": "OwnershipTransferred",
      "type": "event"
    },
    {
      "anonymous": false,
      "inputs": [
        {
          "indexed": false,
          "internalType": "address",
          "name": "account",
          "type": "address"
        }
      ],
      "name": "Paused",
      "type": "event"
    },
    {
      "anonymous": false,
      "inputs": [
        {
          "indexed": false,
          "internalType": "address",
          "name": "account",
          "type": "address"
        }
      ],
      "name": "Unpaused",
      "type": "event"
    },
    {
      "anonymous": false,
      "inputs": [
        {
          "indexed": false,
          "internalType": "uint256",
          "name": "id",
          "type": "uint256"
        },
        {
          "indexed": false,
          "internalType": "uint256",
          "name": "calculatedAmount",
          "type": "uint256"
        }
      ],
      "name": "WithdrawalExecuted",
      "type": "event"
    },
    {
      "anonymous": false,
      "inputs": [
        {
          "indexed": false,
          "internalType": "uint256",
          "name": "id",
          "type": "uint256"
        },
        {
          "indexed": false,
          "internalType": "uint256",
          "name": "estimatedAmount",
          "type": "uint256"
        }
      ],
      "name": "WithdrawalRequested",
      "type": "event"
    },
    {
      "inputs": [
        {
          "internalType": "address",
          "name": "depositor",
          "type": "address"
        },
        {
          "internalType": "enum KratosX.LockPeriod",
          "name": "lockPeriod",
          "type": "uint8"
        }
      ],
      "name": "approveDeposit",
      "outputs": [],
      "stateMutability": "nonpayable",
      "type": "function"
    },
    {
      "inputs": [
        {
          "internalType": "address",
          "name": "depositor",
          "type": "address"
        },
        {
          "internalType": "enum KratosX.LockPeriod",
          "name": "lockPeriod",
          "type": "uint8"
        }
      ],
      "name": "approveDeposits",
      "outputs": [],
      "stateMutability": "nonpayable",
      "type": "function"
    },
    {
      "inputs": [
        {
          "internalType": "uint256",
          "name": "dayCount",
          "type": "uint256"
        },
        {
          "internalType": "bool",
          "name": "hasEarlyAdoptBonus",
          "type": "bool"
        },
        {
          "internalType": "bool",
          "name": "hasExtendBonus",
          "type": "bool"
        }
      ],
      "name": "calculateYield",
      "outputs": [
        {
          "internalType": "uint256",
          "name": "",
          "type": "uint256"
        }
      ],
      "stateMutability": "pure",
      "type": "function"
    },
    {
      "inputs": [
        {
          "internalType": "uint256",
          "name": "",
          "type": "uint256"
        }
      ],
      "name": "deposits",
      "outputs": [
        {
          "internalType": "uint16",
          "name": "id",
          "type": "uint16"
        },
        {
          "internalType": "address",
          "name": "owner",
          "type": "address"
        },
        {
          "internalType": "uint32",
          "name": "approveTimestamp",
          "type": "uint32"
        },
        {
          "internalType": "enum KratosX.LockPeriod",
          "name": "lockPeriod",
          "type": "uint8"
        },
        {
          "internalType": "bool",
          "name": "hasEarlyAdoptBonus",
          "type": "bool"
        },
        {
          "internalType": "bool",
          "name": "hasExtendPeriodBonus",
          "type": "bool"
        }
      ],
      "stateMutability": "view",
      "type": "function"
    },
    {
      "inputs": [
        {
          "internalType": "uint256",
          "name": "id",
          "type": "uint256"
        }
      ],
      "name": "executeWithdrawal",
      "outputs": [],
      "stateMutability": "nonpayable",
      "type": "function"
    },
    {
      "inputs": [
        {
          "internalType": "uint256[]",
          "name": "ids",
          "type": "uint256[]"
        }
      ],
      "name": "executeWithdrawals",
      "outputs": [],
      "stateMutability": "nonpayable",
      "type": "function"
    },
    {
      "inputs": [
        {
          "internalType": "uint256",
          "name": "id",
          "type": "uint256"
        },
        {
          "internalType": "enum KratosX.LockPeriod",
          "name": "lockPeriod",
          "type": "uint8"
        }
      ],
      "name": "extendLockPeriod",
      "outputs": [],
      "stateMutability": "nonpayable",
      "type": "function"
    },
    {
      "inputs": [],
      "name": "getAvailableSlotCount",
      "outputs": [
        {
          "internalType": "uint256",
          "name": "",
          "type": "uint256"
        }
      ],
      "stateMutability": "view",
      "type": "function"
    },
    {
      "inputs": [],
      "name": "getSlotValue",
      "outputs": [
        {
          "internalType": "uint256",
          "name": "",
          "type": "uint256"
        }
      ],
      "stateMutability": "pure",
      "type": "function"
    },
    {
      "inputs": [],
      "name": "getUsedSlots",
      "outputs": [
        {
          "components": [
            {
              "internalType": "uint16",
              "name": "id",
              "type": "uint16"
            },
            {
              "internalType": "address",
              "name": "owner",
              "type": "address"
            },
            {
              "internalType": "uint32",
              "name": "approveTimestamp",
              "type": "uint32"
            },
            {
              "internalType": "enum KratosX.LockPeriod",
              "name": "lockPeriod",
              "type": "uint8"
            },
            {
              "internalType": "bool",
              "name": "hasEarlyAdoptBonus",
              "type": "bool"
            },
            {
              "internalType": "bool",
              "name": "hasExtendPeriodBonus",
              "type": "bool"
            }
          ],
          "internalType": "struct KratosX.Deposit[]",
          "name": "",
          "type": "tuple[]"
        }
      ],
      "stateMutability": "view",
      "type": "function"
    },
    {
      "inputs": [],
      "name": "owner",
      "outputs": [
        {
          "internalType": "address",
          "name": "",
          "type": "address"
        }
      ],
      "stateMutability": "view",
      "type": "function"
    },
    {
      "inputs": [],
      "name": "pause",
      "outputs": [],
      "stateMutability": "nonpayable",
      "type": "function"
    },
    {
      "inputs": [],
      "name": "paused",
      "outputs": [
        {
          "internalType": "bool",
          "name": "",
          "type": "bool"
        }
      ],
      "stateMutability": "view",
      "type": "function"
    },
    {
      "inputs": [
        {
          "internalType": "address",
          "name": "depositor",
          "type": "address"
        }
      ],
      "name": "rejectDeposit",
      "outputs": [],
      "stateMutability": "nonpayable",
      "type": "function"
    },
    {
      "inputs": [],
      "name": "renounceOwnership",
      "outputs": [],
      "stateMutability": "nonpayable",
      "type": "function"
    },
    {
      "inputs": [
        {
          "internalType": "uint256",
          "name": "id",
          "type": "uint256"
        }
      ],
      "name": "requestWithdrawal",
      "outputs": [],
      "stateMutability": "nonpayable",
      "type": "function"
    },
    {
      "inputs": [
        {
          "internalType": "uint256[]",
          "name": "ids",
          "type": "uint256[]"
        }
      ],
      "name": "requestWithdrawals",
      "outputs": [],
      "stateMutability": "nonpayable",
      "type": "function"
    },
    {
      "inputs": [
        {
          "internalType": "uint8",
          "name": "slots",
          "type": "uint8"
        }
      ],
      "name": "setEarlyAdoptSlots",
      "outputs": [],
      "stateMutability": "nonpayable",
      "type": "function"
    },
    {
      "inputs": [
        {
          "internalType": "uint32",
          "name": "timestamp",
          "type": "uint32"
        }
      ],
      "name": "setExtendLockPeriodBonus",
      "outputs": [],
      "stateMutability": "nonpayable",
      "type": "function"
    },
    {
      "inputs": [
        {
          "internalType": "address",
          "name": "newOwner",
          "type": "address"
        }
      ],
      "name": "transferOwnership",
      "outputs": [],
      "stateMutability": "nonpayable",
      "type": "function"
    },
    {
      "inputs": [],
      "name": "unpause",
      "outputs": [],
      "stateMutability": "nonpayable",
      "type": "function"
    }
  ],
  "bytecode": "0x60a060405234801562000010575f80fd5b5060405162001f6938038062001f69833981016040819052620000339162000121565b5f805460ff1916905533806200006257604051631e4fbdf760e01b81525f600482015260240160405180910390fd5b6200006d81620000c9565b506001600160a01b0381166080525f805466ffff00000000ff60a81b1916600360a81b179055620000a3426301e1338062000150565b5f60166101000a81548163ffffffff021916908363ffffffff1602179055505062000176565b5f80546001600160a01b03838116610100818102610100600160a81b0319851617855560405193049190911692909183917f8be0079c531659141344cd1fd0a4f28419497f9722a3daafe3b4186f6b6457e091a35050565b5f6020828403121562000132575f80fd5b81516001600160a01b038116811462000149575f80fd5b9392505050565b808201808211156200017057634e487b7160e01b5f52601160045260245ffd5b92915050565b608051611db7620001b25f395f818161062001528181610d0601528181610db601528181610faa0152818161111d01526113780152611db75ff3fe608060405234801561000f575f80fd5b5060043610610132575f3560e01c80638c395ef4116100b4578063b02c43d011610079578063b02c43d014610255578063d479220d1461027a578063e61d22201461028d578063f07bfcb7146102a0578063f2fde38b146102b3578063f8bb2414146102c6575f80fd5b80638c395ef4146101df5780638da5cb5b146101f25780639ee679e81461021a578063a871bd631461022d578063a8aa4b8714610240575f80fd5b806360395088116100fa57806360395088146101935780636220e819146101a9578063715018a6146101bc57806373e22c54146101c45780638456cb59146101d7575f80fd5b806313522198146101365780632244e1c71461014b57806324f13a761461015e5780633f4ba83a146101715780635c975abb14610179575b5f80fd5b6101496101443660046119b2565b6102d1565b005b6101496101593660046119f0565b610306565b61014961016c366004611a09565b61034d565b610149610688565b5f5460ff1660405190151581526020015b60405180910390f35b61019b61069a565b60405190815260200161018a565b6101496101b7366004611a2e565b6106af565b6101496109a4565b6101496101d2366004611a58565b6109b5565b610149610a05565b6101496101ed366004611a58565b610a15565b5f5461010090046001600160a01b03166040516001600160a01b03909116815260200161018a565b610149610228366004611a09565b610a58565b61014961023b366004611ac7565b610b2a565b610248610b59565b60405161018a9190611b1b565b610268610263366004611a09565b610c47565b60405161018a96959493929190611bb3565b610149610288366004611bff565b610ca8565b61019b61029b366004611c34565b611021565b6101496102ae366004611bff565b6110e6565b6101496102c13660046119f0565b6113d9565b64012a05f20061019b565b6102d961141b565b6102e161144d565b5f805463ffffffff909216600160b01b0263ffffffff60b01b19909216919091179055565b61030e61141b565b6040516001600160a01b03821681527f9252f673a302383d6d82c79d6d2d359ef0eb704b0f92f240bf386db0327998f79060200160405180910390a150565b61035561141b565b61035d61144d565b5f6001805480602002602001604051908101604052809291908181526020015f905b82821015610441575f8481526020908190206040805160c081018252918501805461ffff811684526201000081046001600160a01b031694840194909452600160b01b840463ffffffff169183019190915290916060830190600160d01b900460ff1660058111156103f3576103f3611ae7565b600581111561040457610404611ae7565b8152905460ff600160d81b820481161515602080850191909152600160e01b9092041615156040909201919091529082526001909201910161037f565b5050505090505f6104528284611470565b90505f82828151811061046757610467611c73565b602002602001015190505f6104a2610493836040015163ffffffff164261048e9190611c9b565b6114d5565b83608001518460a00151611021565b6104b19064012a05f200611cae565b905083600185516104c29190611c9b565b815181106104d2576104d2611c73565b6020026020010151600184815481106104ed576104ed611c73565b5f91825260209182902083519101805492840151604085015163ffffffff16600160b01b0263ffffffff60b01b196001600160a01b0390921662010000026001600160b01b031990951661ffff909416939093179390931792831682178155606084015190929091839160ff60d01b1990911664ffffffffff60b01b1990911617600160d01b83600581111561058557610585611ae7565b02179055506080820151815460a0909301511515600160e01b0260ff60e01b19911515600160d81b029190911661ffff60d81b199093169290921791909117905560018054806105d7576105d7611cc1565b5f8281526020902081015f1990810180546001600160e81b03191690550190556106486106115f546001600160a01b036101009091041690565b60208401516001600160a01b037f0000000000000000000000000000000000000000000000000000000000000000169190846114e3565b60408051868152602081018390527f31d3fb496634645407643eb204dae990bd803a7289718931990377e69fe48ce9910160405180910390a15050505050565b61069061141b565b610698611543565b565b6001545f906106aa906064611c9b565b905090565b6106b761144d565b5f8160058111156106ca576106ca611ae7565b116106e857604051632a82a34f60e01b815260040160405180910390fd5b5f6001805480602002602001604051908101604052809291908181526020015f905b828210156107cc575f8481526020908190206040805160c081018252918501805461ffff811684526201000081046001600160a01b031694840194909452600160b01b840463ffffffff169183019190915290916060830190600160d01b900460ff16600581111561077e5761077e611ae7565b600581111561078f5761078f611ae7565b8152905460ff600160d81b820481161515602080850191909152600160e01b9092041615156040909201919091529082526001909201910161070a565b5050505090505f6107dd8285611470565b90505f8282815181106107f2576107f2611c73565b602002602001015190508060600151600581111561081257610812611ae7565b84600581111561082457610824611ae7565b101561084357604051632a82a34f60e01b815260040160405180910390fd5b5f5442600160b01b90910463ffffffff161080159061087657505f8160600151600581111561087457610874611ae7565b145b1561088357600160a08201525b6060810184600581111561089957610899611ae7565b908160058111156108ac576108ac611ae7565b8152505080600183815481106108c4576108c4611c73565b5f91825260209182902083519101805492840151604085015163ffffffff16600160b01b0263ffffffff60b01b196001600160a01b0390921662010000026001600160b01b031990951661ffff909416939093179390931792831682178155606084015190929091839160ff60d01b1990911664ffffffffff60b01b1990911617600160d01b83600581111561095c5761095c611ae7565b02179055506080820151815460a0909301511515600160e01b0260ff60e01b19911515600160d81b029190911661ffff60d81b19909316929092179190911790555050505050565b6109ac61141b565b6106985f611594565b6109bd61141b565b6109c561144d565b5f5b81811015610a00576109f08383838181106109e4576109e4611c73565b9050602002013561034d565b6109f981611cd5565b90506109c7565b505050565b610a0d61141b565b6106986115ec565b610a1d61144d565b5f5b81811015610a0057610a48838383818110610a3c57610a3c611c73565b90506020020135610a58565b610a5181611cd5565b9050610a1f565b610a6061144d565b5f610a6a82611628565b60208101519091506001600160a01b03163314610a9a5760405163c74ecfa160e01b815260040160405180910390fd5b5f610ac2826040015163ffffffff164262093a80610ab89190611cae565b61048e9190611c9b565b90505f610ad88284608001518560a00151611021565b90507f6b19bb08027e5bee64cbe3f99bbbfb671c0e134643993f0ad046fd01d020b34284610b0b8364012a05f200611cae565b604080519283526020830191909152015b60405180910390a150505050565b610b3261141b565b610b3a61144d565b5f805460ff909216600160a81b0260ff60a81b19909216919091179055565b60606001805480602002602001604051908101604052809291908181526020015f905b82821015610c3e575f8481526020908190206040805160c081018252918501805461ffff811684526201000081046001600160a01b031694840194909452600160b01b840463ffffffff169183019190915290916060830190600160d01b900460ff166005811115610bf057610bf0611ae7565b6005811115610c0157610c01611ae7565b8152905460ff600160d81b820481161515602080850191909152600160e01b90920416151560409092019190915290825260019092019101610b7c565b50505050905090565b60018181548110610c56575f80fd5b5f9182526020909120015461ffff811691506001600160a01b03620100008204169063ffffffff600160b01b8204169060ff600160d01b8204811691600160d81b8104821691600160e01b9091041686565b610cb061141b565b610cb861144d565b600154606411610cda5760405162e7d56b60e11b815260040160405180910390fd5b604051636eb1769f60e11b81526001600160a01b03838116600483015230602483015264012a05f200917f00000000000000000000000000000000000000000000000000000000000000009091169063dd62ed3e90604401602060405180830381865afa158015610d4d573d5f803e3d5ffd5b505050506040513d601f19601f82011682018060405250810190610d719190611ced565b1015610d9057604051634fd3af0760e01b815260040160405180910390fd5b6040516370a0823160e01b81526001600160a01b03838116600483015264012a05f200917f0000000000000000000000000000000000000000000000000000000000000000909116906370a0823190602401602060405180830381865afa158015610dfd573d5f803e3d5ffd5b505050506040513d601f19601f82011682018060405250810190610e219190611ced565b1015610e405760405163569d45cf60e11b815260040160405180910390fd5b5f610e496117bd565b905060016040518060c001604052808361ffff168152602001856001600160a01b031681526020014263ffffffff168152602001846005811115610e8f57610e8f611ae7565b8152602001610e9c6117ed565b151581525f6020918201819052835460018101855593815281902082519301805491830151604084015163ffffffff16600160b01b0263ffffffff60b01b196001600160a01b0390921662010000026001600160b01b031990941661ffff90961695909517929092179182168417815560608301519293909291839160ff60d01b191664ffffffffff60b01b1990911617600160d01b836005811115610f4457610f44611ae7565b02179055506080820151815460a0909301511515600160e01b0260ff60e01b19911515600160d81b029190911661ffff60d81b1990931692909217919091179055610fd783610fa05f546001600160a01b036101009091041690565b6001600160a01b037f000000000000000000000000000000000000000000000000000000000000000016919064012a05f2006114e3565b604080516001600160a01b038516815261ffff831660208201527f79000773ac921e1702f7f3d9d7416dfe1f2b07606ee63066874ac05a6a42973e910160405180910390a1505050565b5f8060b48511611034575f9150506110df565b61016d851161104557506005611092565b6102da851161105657506005611092565b610447851161106757506006611092565b6105b4851161107857506007611092565b610721851161108957506008611092565b50610721935060095b831561109c576001015b8280156110ab575061016d8510155b156110b4576001015b618e94856110c78364012a05f200611d04565b6110d19190611d04565b6110db9190611d1b565b9150505b9392505050565b6110ee61141b565b6110f661144d565b604051636eb1769f60e11b81526001600160a01b0383811660048301523060248301525f917f00000000000000000000000000000000000000000000000000000000000000009091169063dd62ed3e90604401602060405180830381865afa158015611164573d5f803e3d5ffd5b505050506040513d601f19601f820116820180604052508101906111889190611ced565b90505f61119a64012a05f20083611d1b565b9050805f036111bc57604051634fd3af0760e01b815260040160405180910390fd5b6111c461069a565b8111156111e35760405162e7d56b60e11b815260040160405180910390fd5b5f5b81811015611343575f6111f66117bd565b905060016040518060c001604052808361ffff168152602001886001600160a01b031681526020014263ffffffff16815260200187600581111561123c5761123c611ae7565b81526020016112496117ed565b151581525f6020918201819052835460018101855593815281902082519301805491830151604084015163ffffffff16600160b01b0263ffffffff60b01b196001600160a01b0390921662010000026001600160b01b031990941661ffff90961695909517929092179182168417815560608301519293909291839160ff60d01b191664ffffffffff60b01b1990911617600160d01b8360058111156112f1576112f1611ae7565b02179055506080820151815460a0909301511515600160e01b0260ff60e01b19911515600160d81b029190911661ffff60d81b19909316929092179190911790555061133c81611cd5565b90506111e5565b506113a08461135f5f546001600160a01b036101009091041690565b61136e64012a05f20085611d04565b6001600160a01b037f0000000000000000000000000000000000000000000000000000000000000000169291906114e3565b6040516001600160a01b03851681527fb6f7b064071ea7b1dc8d327ef5e519931e7e4933ed9ed3156c42fce7b4be323a90602001610b1c565b6113e161141b565b6001600160a01b03811661140f57604051631e4fbdf760e01b81525f60048201526024015b60405180910390fd5b61141881611594565b50565b5f546001600160a01b036101009091041633146106985760405163118cdaa760e01b8152336004820152602401611406565b5f5460ff16156106985760405163d93c066560e01b815260040160405180910390fd5b5f805b83518110156114b2578284828151811061148f5761148f611c73565b60200260200101515f015161ffff16036114aa5790506114cf565b600101611473565b50604051631585bdab60e31b815260048101839052602401611406565b92915050565b5f6114cf6201518083611d1b565b604080516001600160a01b0385811660248301528416604482015260648082018490528251808303909101815260849091019091526020810180516001600160e01b03166323b872dd60e01b17905261153d90859061182d565b50505050565b61154b61188e565b5f805460ff191690557f5db9ee0a495bf2e6ff9c91a7834c1ba4fdd244a5e8aa4e537bd38aeae4b073aa335b6040516001600160a01b03909116815260200160405180910390a1565b5f80546001600160a01b03838116610100818102610100600160a81b0319851617855560405193049190911692909183917f8be0079c531659141344cd1fd0a4f28419497f9722a3daafe3b4186f6b6457e091a35050565b6115f461144d565b5f805460ff191660011790557f62e78cea01bee320cd4e420270b5ea74000d11b0c9f74754ebdbfc544b05a2586115773390565b6040805160c0810182525f80825260208201819052918101829052606081018290526080810182905260a08101919091525f6001805480602002602001604051908101604052809291908181526020015f905b8282101561173d575f8481526020908190206040805160c081018252918501805461ffff811684526201000081046001600160a01b031694840194909452600160b01b840463ffffffff169183019190915290916060830190600160d01b900460ff1660058111156116ef576116ef611ae7565b600581111561170057611700611ae7565b8152905460ff600160d81b820481161515602080850191909152600160e01b9092041615156040909201919091529082526001909201910161167b565b5050505090505f5b81518110156117a0578382828151811061176157611761611c73565b60200260200101515f015161ffff16036117985781818151811061178757611787611c73565b602002602001015192505050919050565b600101611745565b50604051631585bdab60e31b815260048101849052602401611406565b5f805461ffff60d01b198116600160d01b9182900461ffff90811660010181168302919091179283905591041690565b5f8054600160a81b900460ff161561182857505f80545f1960ff600160a81b808404821692909201160260ff60a81b19909116179055600190565b505f90565b5f6118416001600160a01b038416836118b0565b905080515f141580156118655750808060200190518101906118639190611d3a565b155b15610a0057604051635274afe760e01b81526001600160a01b0384166004820152602401611406565b5f5460ff1661069857604051638dfc202b60e01b815260040160405180910390fd5b60606110df83835f845f80856001600160a01b031684866040516118d49190611d55565b5f6040518083038185875af1925050503d805f811461190e576040519150601f19603f3d011682016040523d82523d5f602084013e611913565b606091505b509150915061192386838361192d565b9695505050505050565b6060826119425761193d82611989565b6110df565b815115801561195957506001600160a01b0384163b155b1561198257604051639996b31560e01b81526001600160a01b0385166004820152602401611406565b50806110df565b8051156119995780518082602001fd5b604051630a12f52160e11b815260040160405180910390fd5b5f602082840312156119c2575f80fd5b813563ffffffff811681146110df575f80fd5b80356001600160a01b03811681146119eb575f80fd5b919050565b5f60208284031215611a00575f80fd5b6110df826119d5565b5f60208284031215611a19575f80fd5b5035919050565b8035600681106119eb575f80fd5b5f8060408385031215611a3f575f80fd5b82359150611a4f60208401611a20565b90509250929050565b5f8060208385031215611a69575f80fd5b823567ffffffffffffffff80821115611a80575f80fd5b818501915085601f830112611a93575f80fd5b813581811115611aa1575f80fd5b8660208260051b8501011115611ab5575f80fd5b60209290920196919550909350505050565b5f60208284031215611ad7575f80fd5b813560ff811681146110df575f80fd5b634e487b7160e01b5f52602160045260245ffd5b60068110611b1757634e487b7160e01b5f52602160045260245ffd5b9052565b602080825282518282018190525f919060409081850190868401855b82811015611ba6578151805161ffff168552868101516001600160a01b0316878601528581015163ffffffff1686860152606080820151611b7a82880182611afb565b505060808181015115159086015260a09081015115159085015260c09093019290850190600101611b37565b5091979650505050505050565b61ffff871681526001600160a01b038616602082015263ffffffff8516604082015260c08101611be66060830186611afb565b921515608082015290151560a090910152949350505050565b5f8060408385031215611c10575f80fd5b611c19836119d5565b9150611a4f60208401611a20565b8015158114611418575f80fd5b5f805f60608486031215611c46575f80fd5b833592506020840135611c5881611c27565b91506040840135611c6881611c27565b809150509250925092565b634e487b7160e01b5f52603260045260245ffd5b634e487b7160e01b5f52601160045260245ffd5b818103818111156114cf576114cf611c87565b808201808211156114cf576114cf611c87565b634e487b7160e01b5f52603160045260245ffd5b5f60018201611ce657611ce6611c87565b5060010190565b5f60208284031215611cfd575f80fd5b5051919050565b80820281158282048414176114cf576114cf611c87565b5f82611d3557634e487b7160e01b5f52601260045260245ffd5b500490565b5f60208284031215611d4a575f80fd5b81516110df81611c27565b5f82515f5b81811015611d745760208186018101518583015201611d5a565b505f92019182525091905056fea264697066735822122096299079caca836514574f46bcf69432d023fbabe45d55a3c42739f89448e42064736f6c63430008140033",
  "linkReferences": {},
  "deployedLinkReferences": {}
}