{
  "_format": "hh-sol-artifact-1",
  "contractName": "KratosX",
  "sourceName": "contracts/KratosX.sol",
  "abi": [
    {
      "inputs": [
        {
          "internalType": "address",
          "name": "token",
          "type": "address"
        }
      ],
      "stateMutability": "nonpayable",
      "type": "constructor"
    },
    {
      "inputs": [
        {
          "internalType": "uint256",
          "name": "id",
          "type": "uint256"
        }
      ],
      "name": "DepositNotFound",
      "type": "error"
    },
    {
      "inputs": [],
      "name": "InvalidLockPeriod",
      "type": "error"
    },
    {
      "anonymous": false,
      "inputs": [
        {
          "indexed": false,
          "internalType": "address",
          "name": "owner",
          "type": "address"
        },
        {
          "indexed": false,
          "internalType": "uint256",
          "name": "id",
          "type": "uint256"
        }
      ],
      "name": "DepositApproved",
      "type": "event"
    },
    {
      "anonymous": false,
      "inputs": [
        {
          "indexed": false,
          "internalType": "address",
          "name": "depositor",
          "type": "address"
        }
      ],
      "name": "DepositRejected",
      "type": "event"
    },
    {
      "anonymous": false,
      "inputs": [
        {
          "indexed": false,
          "internalType": "uint256",
          "name": "id",
          "type": "uint256"
        },
        {
          "indexed": false,
          "internalType": "address",
          "name": "from",
          "type": "address"
        }
      ],
      "name": "DepositRequested",
      "type": "event"
    },
    {
      "anonymous": false,
      "inputs": [
        {
          "indexed": true,
          "internalType": "address",
          "name": "previousOwner",
          "type": "address"
        },
        {
          "indexed": true,
          "internalType": "address",
          "name": "newOwner",
          "type": "address"
        }
      ],
      "name": "OwnershipTransferred",
      "type": "event"
    },
    {
      "anonymous": false,
      "inputs": [
        {
          "indexed": false,
          "internalType": "address",
          "name": "account",
          "type": "address"
        }
      ],
      "name": "Paused",
      "type": "event"
    },
    {
      "anonymous": false,
      "inputs": [
        {
          "indexed": false,
          "internalType": "address",
          "name": "account",
          "type": "address"
        }
      ],
      "name": "Unpaused",
      "type": "event"
    },
    {
      "anonymous": false,
      "inputs": [
        {
          "indexed": false,
          "internalType": "uint256",
          "name": "id",
          "type": "uint256"
        },
        {
          "indexed": false,
          "internalType": "uint256",
          "name": "calculatedAmount",
          "type": "uint256"
        }
      ],
      "name": "WithdrawExecuted",
      "type": "event"
    },
    {
      "anonymous": false,
      "inputs": [
        {
          "indexed": false,
          "internalType": "uint256",
          "name": "id",
          "type": "uint256"
        },
        {
          "indexed": false,
          "internalType": "uint256",
          "name": "estimatedAmount",
          "type": "uint256"
        }
      ],
      "name": "WithdrawRequested",
      "type": "event"
    },
    {
      "inputs": [
        {
          "internalType": "address",
          "name": "depositor",
          "type": "address"
        },
        {
          "internalType": "enum KratosX.LockPeriod",
          "name": "lockPeriod",
          "type": "uint8"
        }
      ],
      "name": "approveDeposit",
      "outputs": [],
      "stateMutability": "nonpayable",
      "type": "function"
    },
    {
      "inputs": [
        {
          "internalType": "uint256",
          "name": "dayCount",
          "type": "uint256"
        },
        {
          "internalType": "bool",
          "name": "hasEarlyAdoptBonus",
          "type": "bool"
        },
        {
          "internalType": "bool",
          "name": "hasExtendBonus",
          "type": "bool"
        }
      ],
      "name": "calculateYield",
      "outputs": [
        {
          "internalType": "uint256",
          "name": "",
          "type": "uint256"
        }
      ],
      "stateMutability": "pure",
      "type": "function"
    },
    {
      "inputs": [
        {
          "internalType": "uint256",
          "name": "",
          "type": "uint256"
        }
      ],
      "name": "deposits",
      "outputs": [
        {
          "internalType": "uint16",
          "name": "id",
          "type": "uint16"
        },
        {
          "internalType": "address",
          "name": "owner",
          "type": "address"
        },
        {
          "internalType": "uint32",
          "name": "approveTimestamp",
          "type": "uint32"
        },
        {
          "internalType": "enum KratosX.LockPeriod",
          "name": "lockPeriod",
          "type": "uint8"
        },
        {
          "internalType": "bool",
          "name": "hasEarlyAdoptBonus",
          "type": "bool"
        },
        {
          "internalType": "bool",
          "name": "hasExtendPeriodBonus",
          "type": "bool"
        }
      ],
      "stateMutability": "view",
      "type": "function"
    },
    {
      "inputs": [
        {
          "internalType": "uint256",
          "name": "id",
          "type": "uint256"
        }
      ],
      "name": "executeWithdraw",
      "outputs": [],
      "stateMutability": "nonpayable",
      "type": "function"
    },
    {
      "inputs": [
        {
          "internalType": "uint256",
          "name": "id",
          "type": "uint256"
        },
        {
          "internalType": "enum KratosX.LockPeriod",
          "name": "lockPeriod",
          "type": "uint8"
        }
      ],
      "name": "extendLockPeriod",
      "outputs": [],
      "stateMutability": "nonpayable",
      "type": "function"
    },
    {
      "inputs": [],
      "name": "getAvailableSlotCount",
      "outputs": [
        {
          "internalType": "uint256",
          "name": "",
          "type": "uint256"
        }
      ],
      "stateMutability": "view",
      "type": "function"
    },
    {
      "inputs": [],
      "name": "getSlotValue",
      "outputs": [
        {
          "internalType": "uint256",
          "name": "",
          "type": "uint256"
        }
      ],
      "stateMutability": "pure",
      "type": "function"
    },
    {
      "inputs": [],
      "name": "getUsedSlots",
      "outputs": [
        {
          "components": [
            {
              "internalType": "uint16",
              "name": "id",
              "type": "uint16"
            },
            {
              "internalType": "address",
              "name": "owner",
              "type": "address"
            },
            {
              "internalType": "uint32",
              "name": "approveTimestamp",
              "type": "uint32"
            },
            {
              "internalType": "enum KratosX.LockPeriod",
              "name": "lockPeriod",
              "type": "uint8"
            },
            {
              "internalType": "bool",
              "name": "hasEarlyAdoptBonus",
              "type": "bool"
            },
            {
              "internalType": "bool",
              "name": "hasExtendPeriodBonus",
              "type": "bool"
            }
          ],
          "internalType": "struct KratosX.Deposit[]",
          "name": "",
          "type": "tuple[]"
        }
      ],
      "stateMutability": "view",
      "type": "function"
    },
    {
      "inputs": [],
      "name": "owner",
      "outputs": [
        {
          "internalType": "address",
          "name": "",
          "type": "address"
        }
      ],
      "stateMutability": "view",
      "type": "function"
    },
    {
      "inputs": [],
      "name": "pause",
      "outputs": [],
      "stateMutability": "nonpayable",
      "type": "function"
    },
    {
      "inputs": [],
      "name": "paused",
      "outputs": [
        {
          "internalType": "bool",
          "name": "",
          "type": "bool"
        }
      ],
      "stateMutability": "view",
      "type": "function"
    },
    {
      "inputs": [
        {
          "internalType": "address",
          "name": "depositor",
          "type": "address"
        }
      ],
      "name": "rejectDeposit",
      "outputs": [],
      "stateMutability": "nonpayable",
      "type": "function"
    },
    {
      "inputs": [],
      "name": "renounceOwnership",
      "outputs": [],
      "stateMutability": "nonpayable",
      "type": "function"
    },
    {
      "inputs": [
        {
          "internalType": "uint256",
          "name": "id",
          "type": "uint256"
        }
      ],
      "name": "requestWithdrawal",
      "outputs": [],
      "stateMutability": "nonpayable",
      "type": "function"
    },
    {
      "inputs": [
        {
          "internalType": "uint256",
          "name": "slots",
          "type": "uint256"
        }
      ],
      "name": "setEarlyAdotpSlots",
      "outputs": [],
      "stateMutability": "nonpayable",
      "type": "function"
    },
    {
      "inputs": [
        {
          "internalType": "uint256",
          "name": "timestamp",
          "type": "uint256"
        }
      ],
      "name": "setExtendLockPeriodBonus",
      "outputs": [],
      "stateMutability": "nonpayable",
      "type": "function"
    },
    {
      "inputs": [
        {
          "internalType": "address",
          "name": "newOwner",
          "type": "address"
        }
      ],
      "name": "transferOwnership",
      "outputs": [],
      "stateMutability": "nonpayable",
      "type": "function"
    },
    {
      "inputs": [],
      "name": "unpause",
      "outputs": [],
      "stateMutability": "nonpayable",
      "type": "function"
    }
  ],
  "bytecode": "0x60a06040523480156200001157600080fd5b5060405162001e3b38038062001e3b8339810160408190526200003491620000ff565b6000805460ff191690556200004933620000a6565b6001600160a01b0381166080526000805466ffff00000000ff60a81b1916600360a81b1790556200007f426301e1338062000131565b600060166101000a81548163ffffffff021916908363ffffffff1602179055505062000159565b600080546001600160a01b03838116610100818102610100600160a81b0319851617855560405193049190911692909183917f8be0079c531659141344cd1fd0a4f28419497f9722a3daafe3b4186f6b6457e091a35050565b6000602082840312156200011257600080fd5b81516001600160a01b03811681146200012a57600080fd5b9392505050565b808201808211156200015357634e487b7160e01b600052601160045260246000fd5b92915050565b608051611ca36200019860003960008181610297015281816103af0152818161074f01528181611004015281816110dd01526113030152611ca36000f3fe608060405234801561001057600080fd5b50600436106101165760003560e01c80638da5cb5b116100a2578063b02c43d011610071578063b02c43d014610216578063d479220d1461023b578063e61d22201461024e578063f2fde38b14610261578063f8bb24141461027457600080fd5b80638da5cb5b146101b2578063952f0417146101db5780639ee679e8146101ee578063a8aa4b871461020157600080fd5b806360395088116100e957806360395088146101665780636220e8191461017c578063715018a61461018f5780638456cb59146101975780638b57f7871461019f57600080fd5b80632104ebf11461011b5780632244e1c7146101305780633f4ba83a146101435780635c975abb1461014b575b600080fd5b61012e610129366004611974565b61027f565b005b61012e61013e3660046119a9565b610852565b61012e610899565b60005460ff1660405190151581526020015b60405180910390f35b61016e6108ab565b60405190815260200161015d565b61012e61018a3660046119d3565b6108c1565b61012e610c42565b61012e610c54565b61012e6101ad366004611974565b610c64565b60005461010090046001600160a01b03166040516001600160a01b03909116815260200161015d565b61012e6101e9366004611974565b610cf1565b61012e6101fc366004611974565b610d87565b610209610e2d565b60405161015d9190611a37565b610229610224366004611974565b610f1d565b60405161015d96959493929190611ad0565b61012e610249366004611b1c565b610f80565b61016e61025c366004611b54565b611408565b61012e61026f3660046119a9565b6114cf565b64012a05f20061016e565b610287611548565b61028f6115a8565b64012a05f2007f00000000000000000000000000000000000000000000000000000000000000006001600160a01b031663dd62ed3e6102dc6000546001600160a01b036101009091041690565b6040516001600160e01b031960e084901b1681526001600160a01b039091166004820152306024820152604401602060405180830381865afa158015610326573d6000803e3d6000fd5b505050506040513d601f19601f8201168201806040525081019061034a9190611b96565b10156103a75760405162461bcd60e51b815260206004820152602160248201527f4e6f7420656e6f75676820616c6c6f77616e636520746f2077697468647261776044820152601760f91b60648201526084015b60405180910390fd5b64012a05f2007f00000000000000000000000000000000000000000000000000000000000000006001600160a01b03166370a082316103f46000546001600160a01b036101009091041690565b6040516001600160e01b031960e084901b1681526001600160a01b039091166004820152602401602060405180830381865afa158015610438573d6000803e3d6000fd5b505050506040513d601f19601f8201168201806040525081019061045c9190611b96565b10156104aa5760405162461bcd60e51b815260206004820152601d60248201527f4e6f7420656e6f7567682066756e647320746f2077697468647261772e000000604482015260640161039e565b60006001805480602002602001604051908101604052809291908181526020016000905b828210156105915760008481526020908190206040805160c081018252918501805461ffff811684526201000081046001600160a01b031694840194909452600160b01b840463ffffffff169183019190915290916060830190600160d01b900460ff166005811115610543576105436119ff565b6005811115610554576105546119ff565b8152905460ff600160d81b820481161515602080850191909152600160e01b909204161515604090920191909152908252600190920191016104ce565b50505050905060006105a382846115ee565b905060008282815181106105b9576105b9611baf565b6020026020010151905060006105f56105e6836040015163ffffffff16426105e19190611bdb565b611655565b83608001518460a00151611408565b6106049064012a05f200611bee565b905083600185516106159190611bdb565b8151811061062557610625611baf565b60200260200101516001848154811061064057610640611baf565b600091825260209182902083519101805492840151604085015163ffffffff16600160b01b0263ffffffff60b01b196001600160a01b0390921662010000026001600160b01b031990951661ffff909416939093179390931792831682178155606084015190929091839160ff60d01b1990911664ffffffffff60b01b1990911617600160d01b8360058111156106d9576106d96119ff565b02179055506080820151815460a0909301511515600160e01b0260ff60e01b19911515600160d81b029190911661ffff60d81b1990931692909217919091179055600180548061072b5761072b611c01565b600082815260209020810160001990810180546001600160e81b03191690550190557f00000000000000000000000000000000000000000000000000000000000000006001600160a01b03166323b872dd6107946000546001600160a01b036101009091041690565b60208501516040516001600160e01b031960e085901b1681526001600160a01b03928316600482015291166024820152604481018490526064016020604051808303816000875af11580156107ed573d6000803e3d6000fd5b505050506040513d601f19601f820116820180604052508101906108119190611c17565b5060408051868152602081018390527f676b8d9bce8758f26a3f18f775d02412a1b90f11055ae15f21c0f43b68ce5961910160405180910390a15050505050565b61085a611548565b6040516001600160a01b03821681527f9252f673a302383d6d82c79d6d2d359ef0eb704b0f92f240bf386db0327998f79060200160405180910390a150565b6108a1611548565b6108a9611664565b565b6001546000906108bc906064611bdb565b905090565b6108c96115a8565b60008160058111156108dd576108dd6119ff565b116109425760405162461bcd60e51b815260206004820152602f60248201527f43616e206e6f742073657420746865206c6f636b696e6720706572696f64207760448201526e34ba34103a3434b9903b30b63ab29760891b606482015260840161039e565b60006001805480602002602001604051908101604052809291908181526020016000905b82821015610a295760008481526020908190206040805160c081018252918501805461ffff811684526201000081046001600160a01b031694840194909452600160b01b840463ffffffff169183019190915290916060830190600160d01b900460ff1660058111156109db576109db6119ff565b60058111156109ec576109ec6119ff565b8152905460ff600160d81b820481161515602080850191909152600160e01b90920416151560409092019190915290825260019092019101610966565b5050505090506000610a3b82856115ee565b90506000828281518110610a5157610a51611baf565b60200260200101519050836005811115610a6d57610a6d6119ff565b81606001516005811115610a8357610a836119ff565b10610ade5760405162461bcd60e51b815260206004820152602560248201527f43616e206f6e6c7920696e63726561736520746865206c6f636b696e672070656044820152643934b7b21760d91b606482015260840161039e565b60005442600160b01b90910463ffffffff1610801590610b135750600081606001516005811115610b1157610b116119ff565b145b15610b2057600160a08201525b60608101846005811115610b3657610b366119ff565b90816005811115610b4957610b496119ff565b815250508060018381548110610b6157610b61611baf565b600091825260209182902083519101805492840151604085015163ffffffff16600160b01b0263ffffffff60b01b196001600160a01b0390921662010000026001600160b01b031990951661ffff909416939093179390931792831682178155606084015190929091839160ff60d01b1990911664ffffffffff60b01b1990911617600160d01b836005811115610bfa57610bfa6119ff565b02179055506080820151815460a0909301511515600160e01b0260ff60e01b19911515600160d81b029190911661ffff60d81b19909316929092179190911790555050505050565b610c4a611548565b6108a960006116b6565b610c5c611548565b6108a961170f565b610c6c611548565b610c746115a8565b60ff811115610cd15760405162461bcd60e51b8152602060048201526024808201527f546f6f206d616e79206561726c792061646f7074696f6e20626f6e757320736c60448201526337ba399760e11b606482015260840161039e565b6000805460ff909216600160a81b0260ff60a81b19909216919091179055565b610cf9611548565b610d016115a8565b63ffffffff811115610d615760405162461bcd60e51b8152602060048201526024808201527f506572696f6420746f6f206c6f6e6720666f7220657874656e74696f6e20626f604482015263373ab99760e11b606482015260840161039e565b6000805463ffffffff909216600160b01b0263ffffffff60b01b19909216919091179055565b610d8f6115a8565b6000610d9a8261174c565b90506000610dc5826040015163ffffffff164262093a80610dbb9190611bee565b6105e19190611bdb565b90506000610ddc8284608001518560a00151611408565b90507f622ec52892a9917a9f66bd872232d3bea677db12565dd6da5f4bfc14607ec1d784610e0f8364012a05f200611bee565b6040805192835260208301919091520160405180910390a150505050565b60606001805480602002602001604051908101604052809291908181526020016000905b82821015610f145760008481526020908190206040805160c081018252918501805461ffff811684526201000081046001600160a01b031694840194909452600160b01b840463ffffffff169183019190915290916060830190600160d01b900460ff166005811115610ec657610ec66119ff565b6005811115610ed757610ed76119ff565b8152905460ff600160d81b820481161515602080850191909152600160e01b90920416151560409092019190915290825260019092019101610e51565b50505050905090565b60018181548110610f2d57600080fd5b60009182526020909120015461ffff811691506001600160a01b03620100008204169063ffffffff600160b01b8204169060ff600160d01b8204811691600160d81b8104821691600160e01b9091041686565b610f88611548565b610f906115a8565b600154606411610fd85760405162461bcd60e51b815260206004820152601360248201527227379039b637ba399030bb30b4b630b136329760691b604482015260640161039e565b604051636eb1769f60e11b81526001600160a01b03838116600483015230602483015264012a05f200917f00000000000000000000000000000000000000000000000000000000000000009091169063dd62ed3e90604401602060405180830381865afa15801561104d573d6000803e3d6000fd5b505050506040513d601f19601f820116820180604052508101906110719190611b96565b10156110b75760405162461bcd60e51b81526020600482015260156024820152742737ba1032b737bab3b41030b63637bbb0b731b29760591b604482015260640161039e565b6040516370a0823160e01b81526001600160a01b03838116600483015264012a05f200917f0000000000000000000000000000000000000000000000000000000000000000909116906370a0823190602401602060405180830381865afa158015611126573d6000803e3d6000fd5b505050506040513d601f19601f8201168201806040525081019061114a9190611b96565b101561118e5760405162461bcd60e51b81526020600482015260136024820152722737ba1032b737bab3b4103130b630b731b29760691b604482015260640161039e565b60008054600161ffff600160d01b8084048216929092018116820261ffff60d01b19909316929092178084550416905060016040518060c001604052808361ffff168152602001856001600160a01b031681526020014263ffffffff168152602001846005811115611202576112026119ff565b815260200161120f6118e7565b1515815260006020918201819052835460018101855593815281902082519301805491830151604084015163ffffffff16600160b01b0263ffffffff60b01b196001600160a01b0390921662010000026001600160b01b031990941661ffff90961695909517929092179182168417815560608301519293909291839160ff60d01b191664ffffffffff60b01b1990911617600160d01b8360058111156112b8576112b86119ff565b02179055506080820151815460a0909301511515600160e01b0260ff60e01b19911515600160d81b029190911661ffff60d81b19909316929092179190911790556001600160a01b037f0000000000000000000000000000000000000000000000000000000000000000166323b872dd846113416000546001600160a01b036101009091041690565b6040516001600160e01b031960e085901b1681526001600160a01b0392831660048201529116602482015264012a05f20060448201526064016020604051808303816000875af1158015611399573d6000803e3d6000fd5b505050506040513d601f19601f820116820180604052508101906113bd9190611c17565b50604080516001600160a01b038516815261ffff831660208201527f79000773ac921e1702f7f3d9d7416dfe1f2b07606ee63066874ac05a6a42973e910160405180910390a1505050565b60008060b4851161141d5760009150506114c8565b61016d851161142e5750600561147b565b6102da851161143f5750600561147b565b61044785116114505750600661147b565b6105b485116114615750600761147b565b61072185116114725750600861147b565b50610721935060095b8315611485576001015b828015611494575061016d8510155b1561149d576001015b618e94856114b08364012a05f200611c34565b6114ba9190611c34565b6114c49190611c4b565b9150505b9392505050565b6114d7611548565b6001600160a01b03811661153c5760405162461bcd60e51b815260206004820152602660248201527f4f776e61626c653a206e6577206f776e657220697320746865207a65726f206160448201526564647265737360d01b606482015260840161039e565b611545816116b6565b50565b6000546001600160a01b036101009091041633146108a95760405162461bcd60e51b815260206004820181905260248201527f4f776e61626c653a2063616c6c6572206973206e6f7420746865206f776e6572604482015260640161039e565b60005460ff16156108a95760405162461bcd60e51b815260206004820152601060248201526f14185d5cd8589b194e881c185d5cd95960821b604482015260640161039e565b6000805b8351811015611632578284828151811061160e5761160e611baf565b60200260200101516000015161ffff160361162a57905061164f565b6001016115f2565b50604051631585bdab60e31b81526004810183905260240161039e565b92915050565b600061164f6201518083611c4b565b61166c61192b565b6000805460ff191690557f5db9ee0a495bf2e6ff9c91a7834c1ba4fdd244a5e8aa4e537bd38aeae4b073aa335b6040516001600160a01b03909116815260200160405180910390a1565b600080546001600160a01b03838116610100818102610100600160a81b0319851617855560405193049190911692909183917f8be0079c531659141344cd1fd0a4f28419497f9722a3daafe3b4186f6b6457e091a35050565b6117176115a8565b6000805460ff191660011790557f62e78cea01bee320cd4e420270b5ea74000d11b0c9f74754ebdbfc544b05a2586116993390565b6040805160c081018252600080825260208201819052918101829052606081018290526080810182905260a081019190915260006001805480602002602001604051908101604052809291908181526020016000905b828210156118655760008481526020908190206040805160c081018252918501805461ffff811684526201000081046001600160a01b031694840194909452600160b01b840463ffffffff169183019190915290916060830190600160d01b900460ff166005811115611817576118176119ff565b6005811115611828576118286119ff565b8152905460ff600160d81b820481161515602080850191909152600160e01b909204161515604090920191909152908252600190920191016117a2565b50505050905060005b81518110156118ca578382828151811061188a5761188a611baf565b60200260200101516000015161ffff16036118c2578181815181106118b1576118b1611baf565b602002602001015192505050919050565b60010161186e565b50604051631585bdab60e31b81526004810184905260240161039e565b60008054600160a81b900460ff161561192557506000805460001960ff600160a81b808404821692909201160260ff60a81b19909116179055600190565b50600090565b60005460ff166108a95760405162461bcd60e51b815260206004820152601460248201527314185d5cd8589b194e881b9bdd081c185d5cd95960621b604482015260640161039e565b60006020828403121561198657600080fd5b5035919050565b80356001600160a01b03811681146119a457600080fd5b919050565b6000602082840312156119bb57600080fd5b6114c88261198d565b8035600681106119a457600080fd5b600080604083850312156119e657600080fd5b823591506119f6602084016119c4565b90509250929050565b634e487b7160e01b600052602160045260246000fd5b60068110611a3357634e487b7160e01b600052602160045260246000fd5b9052565b602080825282518282018190526000919060409081850190868401855b82811015611ac3578151805161ffff168552868101516001600160a01b0316878601528581015163ffffffff1686860152606080820151611a9782880182611a15565b505060808181015115159086015260a09081015115159085015260c09093019290850190600101611a54565b5091979650505050505050565b61ffff871681526001600160a01b038616602082015263ffffffff8516604082015260c08101611b036060830186611a15565b921515608082015290151560a090910152949350505050565b60008060408385031215611b2f57600080fd5b611b388361198d565b91506119f6602084016119c4565b801515811461154557600080fd5b600080600060608486031215611b6957600080fd5b833592506020840135611b7b81611b46565b91506040840135611b8b81611b46565b809150509250925092565b600060208284031215611ba857600080fd5b5051919050565b634e487b7160e01b600052603260045260246000fd5b634e487b7160e01b600052601160045260246000fd5b8181038181111561164f5761164f611bc5565b8082018082111561164f5761164f611bc5565b634e487b7160e01b600052603160045260246000fd5b600060208284031215611c2957600080fd5b81516114c881611b46565b808202811582820484141761164f5761164f611bc5565b600082611c6857634e487b7160e01b600052601260045260246000fd5b50049056fea2646970667358221220e77391e0df309af6810dea7966f67f97b8cc3dabd12dc28f7b596419717ff86164736f6c63430008130033",
  "linkReferences": {},
  "deployedLinkReferences": {}
}