{
  "_format": "hh-sol-artifact-1",
  "contractName": "AteayaWhitelist",
  "sourceName": "contracts/AteayaWhitelist.sol",
  "abi": [
    {
      "inputs": [
        {
          "internalType": "address",
          "name": "admin",
          "type": "address"
        },
        {
          "internalType": "address",
          "name": "operator",
          "type": "address"
        }
      ],
      "stateMutability": "nonpayable",
      "type": "constructor"
    },
    {
      "inputs": [],
      "name": "AccessControlBadConfirmation",
      "type": "error"
    },
    {
      "inputs": [
        {
          "internalType": "address",
          "name": "account",
          "type": "address"
        },
        {
          "internalType": "bytes32",
          "name": "neededRole",
          "type": "bytes32"
        }
      ],
      "name": "AccessControlUnauthorizedAccount",
      "type": "error"
    },
    {
      "inputs": [],
      "name": "EnforcedPause",
      "type": "error"
    },
    {
      "inputs": [],
      "name": "ExpectedPause",
      "type": "error"
    },
    {
      "anonymous": false,
      "inputs": [
        {
          "indexed": false,
          "internalType": "address",
          "name": "account",
          "type": "address"
        }
      ],
      "name": "Paused",
      "type": "event"
    },
    {
      "anonymous": false,
      "inputs": [
        {
          "indexed": true,
          "internalType": "bytes32",
          "name": "role",
          "type": "bytes32"
        },
        {
          "indexed": true,
          "internalType": "bytes32",
          "name": "previousAdminRole",
          "type": "bytes32"
        },
        {
          "indexed": true,
          "internalType": "bytes32",
          "name": "newAdminRole",
          "type": "bytes32"
        }
      ],
      "name": "RoleAdminChanged",
      "type": "event"
    },
    {
      "anonymous": false,
      "inputs": [
        {
          "indexed": true,
          "internalType": "bytes32",
          "name": "role",
          "type": "bytes32"
        },
        {
          "indexed": true,
          "internalType": "address",
          "name": "account",
          "type": "address"
        },
        {
          "indexed": true,
          "internalType": "address",
          "name": "sender",
          "type": "address"
        }
      ],
      "name": "RoleGranted",
      "type": "event"
    },
    {
      "anonymous": false,
      "inputs": [
        {
          "indexed": true,
          "internalType": "bytes32",
          "name": "role",
          "type": "bytes32"
        },
        {
          "indexed": true,
          "internalType": "address",
          "name": "account",
          "type": "address"
        },
        {
          "indexed": true,
          "internalType": "address",
          "name": "sender",
          "type": "address"
        }
      ],
      "name": "RoleRevoked",
      "type": "event"
    },
    {
      "anonymous": false,
      "inputs": [
        {
          "indexed": false,
          "internalType": "address",
          "name": "account",
          "type": "address"
        }
      ],
      "name": "Unpaused",
      "type": "event"
    },
    {
      "anonymous": false,
      "inputs": [
        {
          "indexed": false,
          "internalType": "uint256",
          "name": "hash",
          "type": "uint256"
        },
        {
          "indexed": false,
          "internalType": "bool",
          "name": "enabled",
          "type": "bool"
        }
      ],
      "name": "Updated",
      "type": "event"
    },
    {
      "inputs": [],
      "name": "DEFAULT_ADMIN_ROLE",
      "outputs": [
        {
          "internalType": "bytes32",
          "name": "",
          "type": "bytes32"
        }
      ],
      "stateMutability": "view",
      "type": "function"
    },
    {
      "inputs": [
        {
          "internalType": "bytes32",
          "name": "role",
          "type": "bytes32"
        }
      ],
      "name": "getRoleAdmin",
      "outputs": [
        {
          "internalType": "bytes32",
          "name": "",
          "type": "bytes32"
        }
      ],
      "stateMutability": "view",
      "type": "function"
    },
    {
      "inputs": [
        {
          "internalType": "bytes32",
          "name": "role",
          "type": "bytes32"
        },
        {
          "internalType": "address",
          "name": "account",
          "type": "address"
        }
      ],
      "name": "grantRole",
      "outputs": [],
      "stateMutability": "nonpayable",
      "type": "function"
    },
    {
      "inputs": [
        {
          "internalType": "bytes32",
          "name": "role",
          "type": "bytes32"
        },
        {
          "internalType": "address",
          "name": "account",
          "type": "address"
        }
      ],
      "name": "hasRole",
      "outputs": [
        {
          "internalType": "bool",
          "name": "",
          "type": "bool"
        }
      ],
      "stateMutability": "view",
      "type": "function"
    },
    {
      "inputs": [
        {
          "internalType": "uint256",
          "name": "hash",
          "type": "uint256"
        }
      ],
      "name": "isWhitelisted",
      "outputs": [
        {
          "internalType": "bool",
          "name": "",
          "type": "bool"
        }
      ],
      "stateMutability": "view",
      "type": "function"
    },
    {
      "inputs": [],
      "name": "pause",
      "outputs": [],
      "stateMutability": "nonpayable",
      "type": "function"
    },
    {
      "inputs": [],
      "name": "paused",
      "outputs": [
        {
          "internalType": "bool",
          "name": "",
          "type": "bool"
        }
      ],
      "stateMutability": "view",
      "type": "function"
    },
    {
      "inputs": [
        {
          "internalType": "bytes32",
          "name": "role",
          "type": "bytes32"
        },
        {
          "internalType": "address",
          "name": "callerConfirmation",
          "type": "address"
        }
      ],
      "name": "renounceRole",
      "outputs": [],
      "stateMutability": "nonpayable",
      "type": "function"
    },
    {
      "inputs": [
        {
          "internalType": "bytes32",
          "name": "role",
          "type": "bytes32"
        },
        {
          "internalType": "address",
          "name": "account",
          "type": "address"
        }
      ],
      "name": "revokeRole",
      "outputs": [],
      "stateMutability": "nonpayable",
      "type": "function"
    },
    {
      "inputs": [
        {
          "internalType": "bytes4",
          "name": "interfaceId",
          "type": "bytes4"
        }
      ],
      "name": "supportsInterface",
      "outputs": [
        {
          "internalType": "bool",
          "name": "",
          "type": "bool"
        }
      ],
      "stateMutability": "view",
      "type": "function"
    },
    {
      "inputs": [],
      "name": "unpause",
      "outputs": [],
      "stateMutability": "nonpayable",
      "type": "function"
    },
    {
      "inputs": [
        {
          "internalType": "uint256",
          "name": "hash",
          "type": "uint256"
        },
        {
          "internalType": "bool",
          "name": "whitelist",
          "type": "bool"
        }
      ],
      "name": "update",
      "outputs": [],
      "stateMutability": "nonpayable",
      "type": "function"
    },
    {
      "inputs": [
        {
          "internalType": "uint256[]",
          "name": "hashes",
          "type": "uint256[]"
        },
        {
          "internalType": "bool",
          "name": "whitelist",
          "type": "bool"
        }
      ],
      "name": "updateMulti",
      "outputs": [],
      "stateMutability": "nonpayable",
      "type": "function"
    }
  ],
  "bytecode": "0x608060405234801561000f575f80fd5b50604051610a18380380610a1883398101604081905261002e916101a2565b5f805460ff1916905561004e5f805160206109f8833981519152836100a9565b506100665f805160206109d8833981519152826100a9565b5061007e5f805160206109f88339815191528061013b565b6100a25f805160206109d88339815191525f805160206109f883398151915261013b565b50506101d3565b5f8281526001602090815260408083206001600160a01b038516845290915281205460ff16610132575f8381526001602081815260408084206001600160a01b0387168086529252808420805460ff19169093179092559051339286917f2f8788117e7eff1d82e926ec794901d17c78024a50270940304540a733656f0d9190a4506001610135565b505f5b92915050565b5f828152600160208190526040808320909101805490849055905190918391839186917fbd79b86ffe0ab8e8776151514217cd7cacd52c909f66475c3af44e129f0b00ff9190a4505050565b80516001600160a01b038116811461019d575f80fd5b919050565b5f80604083850312156101b3575f80fd5b6101bc83610187565b91506101ca60208401610187565b90509250929050565b6107f8806101e05f395ff3fe608060405234801561000f575f80fd5b50600436106100cb575f3560e01c80635c975abb1161008857806391d148541161006357806391d148541461019f578063a217fddf146101b2578063b60d5704146101b9578063d547741f146101cc575f80fd5b80635c975abb1461016b578063751b02c2146101755780638456cb5914610197575f80fd5b806301ffc9a7146100cf578063248a9ca3146100f75780632f2ff15d1461012857806336568abe1461013d5780633f4ba83a1461015057806348284b6214610158575b5f80fd5b6100e26100dd3660046105ef565b6101df565b60405190151581526020015b60405180910390f35b61011a61010536600461061d565b5f908152600160208190526040909120015490565b6040519081526020016100ee565b61013b610136366004610634565b610215565b005b61013b61014b366004610634565b610240565b61013b610278565b61013b610166366004610681565b6102ad565b5f5460ff166100e2565b6100e261018336600461061d565b60026020525f908152604090205460ff1681565b61013b610330565b6100e26101ad366004610634565b610362565b61011a5f81565b61013b6101c73660046106bf565b61038c565b61013b6101da366004610634565b6103ca565b5f6001600160e01b03198216637965db0b60e01b148061020f57506301ffc9a760e01b6001600160e01b03198316145b92915050565b5f8281526001602081905260409091200154610230816103ef565b61023a83836103f9565b50505050565b6001600160a01b03811633146102695760405163334bd91960e11b815260040160405180910390fd5b610273828261046f565b505050565b7fa49807205ce4d355092ef5a8a18f56e8913cf4a201fbe287825b095693c217756102a2816103ef565b6102aa6104da565b50565b7f97667070c54ef182b0f5858b034beac1b6f3089aa2d3188bb1e8929f4fa9b9296102d7816103ef565b5f83815260026020908152604091829020805460ff19168515159081179091558251868152918201527f88b8a458de0aaf94fb69c2a85e2aa8cc40b1a0f59a18ba817a570bb88a06a726910160405180910390a1505050565b7fa49807205ce4d355092ef5a8a18f56e8913cf4a201fbe287825b095693c2177561035a816103ef565b6102aa61052b565b5f9182526001602090815260408084206001600160a01b0393909316845291905290205460ff1690565b5f5b8251811015610273576103ba8382815181106103ac576103ac61078a565b6020026020010151836102ad565b6103c38161079e565b905061038e565b5f82815260016020819052604090912001546103e5816103ef565b61023a838361046f565b6102aa8133610567565b5f6104048383610362565b610468575f8381526001602081815260408084206001600160a01b0387168086529252808420805460ff19169093179092559051339286917f2f8788117e7eff1d82e926ec794901d17c78024a50270940304540a733656f0d9190a450600161020f565b505f61020f565b5f61047a8383610362565b15610468575f8381526001602090815260408083206001600160a01b0386168085529252808320805460ff1916905551339286917ff6391f5c32d9c69d2a47ea670b442974b53935d1edc7fd64eb21e047a839171b9190a450600161020f565b6104e26105a8565b5f805460ff191690557f5db9ee0a495bf2e6ff9c91a7834c1ba4fdd244a5e8aa4e537bd38aeae4b073aa335b6040516001600160a01b03909116815260200160405180910390a1565b6105336105cc565b5f805460ff191660011790557f62e78cea01bee320cd4e420270b5ea74000d11b0c9f74754ebdbfc544b05a25861050e3390565b6105718282610362565b6105a45760405163e2517d3f60e01b81526001600160a01b03821660048201526024810183905260440160405180910390fd5b5050565b5f5460ff166105ca57604051638dfc202b60e01b815260040160405180910390fd5b565b5f5460ff16156105ca5760405163d93c066560e01b815260040160405180910390fd5b5f602082840312156105ff575f80fd5b81356001600160e01b031981168114610616575f80fd5b9392505050565b5f6020828403121561062d575f80fd5b5035919050565b5f8060408385031215610645575f80fd5b8235915060208301356001600160a01b0381168114610662575f80fd5b809150509250929050565b8035801515811461067c575f80fd5b919050565b5f8060408385031215610692575f80fd5b823591506106a26020840161066d565b90509250929050565b634e487b7160e01b5f52604160045260245ffd5b5f80604083850312156106d0575f80fd5b823567ffffffffffffffff808211156106e7575f80fd5b818501915085601f8301126106fa575f80fd5b813560208282111561070e5761070e6106ab565b8160051b604051601f19603f83011681018181108682111715610733576107336106ab565b604052928352818301935084810182019289841115610750575f80fd5b948201945b8386101561076e57853585529482019493820193610755565b965061077d905087820161066d565b9450505050509250929050565b634e487b7160e01b5f52603260045260245ffd5b5f600182016107bb57634e487b7160e01b5f52601160045260245ffd5b506001019056fea264697066735822122052d5b321262d268cb4e14c202fc98dbb3defcf68764fd41b0095ff19c288a03264736f6c6343000814003397667070c54ef182b0f5858b034beac1b6f3089aa2d3188bb1e8929f4fa9b929a49807205ce4d355092ef5a8a18f56e8913cf4a201fbe287825b095693c21775",
  "linkReferences": {},
  "deployedLinkReferences": {}
}