{
  "_format": "hh-sol-artifact-1",
  "contractName": "AteayaWhitelist",
  "sourceName": "contracts/AteayaWhitelist.sol",
  "abi": [
    {
      "inputs": [
        {
          "internalType": "address",
          "name": "admin",
          "type": "address"
        },
        {
          "internalType": "address",
          "name": "operator",
          "type": "address"
        }
      ],
      "stateMutability": "nonpayable",
      "type": "constructor"
    },
    {
      "inputs": [],
      "name": "AccessControlBadConfirmation",
      "type": "error"
    },
    {
      "inputs": [
        {
          "internalType": "address",
          "name": "account",
          "type": "address"
        },
        {
          "internalType": "bytes32",
          "name": "neededRole",
          "type": "bytes32"
        }
      ],
      "name": "AccessControlUnauthorizedAccount",
      "type": "error"
    },
    {
      "inputs": [],
      "name": "EnforcedPause",
      "type": "error"
    },
    {
      "inputs": [],
      "name": "ExpectedPause",
      "type": "error"
    },
    {
      "anonymous": false,
      "inputs": [
        {
          "indexed": false,
          "internalType": "address",
          "name": "account",
          "type": "address"
        }
      ],
      "name": "Paused",
      "type": "event"
    },
    {
      "anonymous": false,
      "inputs": [
        {
          "indexed": true,
          "internalType": "bytes32",
          "name": "role",
          "type": "bytes32"
        },
        {
          "indexed": true,
          "internalType": "bytes32",
          "name": "previousAdminRole",
          "type": "bytes32"
        },
        {
          "indexed": true,
          "internalType": "bytes32",
          "name": "newAdminRole",
          "type": "bytes32"
        }
      ],
      "name": "RoleAdminChanged",
      "type": "event"
    },
    {
      "anonymous": false,
      "inputs": [
        {
          "indexed": true,
          "internalType": "bytes32",
          "name": "role",
          "type": "bytes32"
        },
        {
          "indexed": true,
          "internalType": "address",
          "name": "account",
          "type": "address"
        },
        {
          "indexed": true,
          "internalType": "address",
          "name": "sender",
          "type": "address"
        }
      ],
      "name": "RoleGranted",
      "type": "event"
    },
    {
      "anonymous": false,
      "inputs": [
        {
          "indexed": true,
          "internalType": "bytes32",
          "name": "role",
          "type": "bytes32"
        },
        {
          "indexed": true,
          "internalType": "address",
          "name": "account",
          "type": "address"
        },
        {
          "indexed": true,
          "internalType": "address",
          "name": "sender",
          "type": "address"
        }
      ],
      "name": "RoleRevoked",
      "type": "event"
    },
    {
      "anonymous": false,
      "inputs": [
        {
          "indexed": false,
          "internalType": "address",
          "name": "account",
          "type": "address"
        }
      ],
      "name": "Unpaused",
      "type": "event"
    },
    {
      "anonymous": false,
      "inputs": [
        {
          "indexed": false,
          "internalType": "uint256",
          "name": "hash",
          "type": "uint256"
        },
        {
          "indexed": false,
          "internalType": "bool",
          "name": "enabled",
          "type": "bool"
        }
      ],
      "name": "Updated",
      "type": "event"
    },
    {
      "inputs": [],
      "name": "ADMIN_ROLE",
      "outputs": [
        {
          "internalType": "bytes32",
          "name": "",
          "type": "bytes32"
        }
      ],
      "stateMutability": "view",
      "type": "function"
    },
    {
      "inputs": [],
      "name": "DEFAULT_ADMIN_ROLE",
      "outputs": [
        {
          "internalType": "bytes32",
          "name": "",
          "type": "bytes32"
        }
      ],
      "stateMutability": "view",
      "type": "function"
    },
    {
      "inputs": [],
      "name": "OPERATOR_ROLE",
      "outputs": [
        {
          "internalType": "bytes32",
          "name": "",
          "type": "bytes32"
        }
      ],
      "stateMutability": "view",
      "type": "function"
    },
    {
      "inputs": [
        {
          "internalType": "bytes32",
          "name": "role",
          "type": "bytes32"
        }
      ],
      "name": "getRoleAdmin",
      "outputs": [
        {
          "internalType": "bytes32",
          "name": "",
          "type": "bytes32"
        }
      ],
      "stateMutability": "view",
      "type": "function"
    },
    {
      "inputs": [
        {
          "internalType": "bytes32",
          "name": "role",
          "type": "bytes32"
        },
        {
          "internalType": "address",
          "name": "account",
          "type": "address"
        }
      ],
      "name": "grantRole",
      "outputs": [],
      "stateMutability": "nonpayable",
      "type": "function"
    },
    {
      "inputs": [
        {
          "internalType": "bytes32",
          "name": "role",
          "type": "bytes32"
        },
        {
          "internalType": "address",
          "name": "account",
          "type": "address"
        }
      ],
      "name": "hasRole",
      "outputs": [
        {
          "internalType": "bool",
          "name": "",
          "type": "bool"
        }
      ],
      "stateMutability": "view",
      "type": "function"
    },
    {
      "inputs": [
        {
          "internalType": "uint256",
          "name": "hash",
          "type": "uint256"
        }
      ],
      "name": "isWhitelisted",
      "outputs": [
        {
          "internalType": "bool",
          "name": "",
          "type": "bool"
        }
      ],
      "stateMutability": "view",
      "type": "function"
    },
    {
      "inputs": [],
      "name": "pause",
      "outputs": [],
      "stateMutability": "nonpayable",
      "type": "function"
    },
    {
      "inputs": [],
      "name": "paused",
      "outputs": [
        {
          "internalType": "bool",
          "name": "",
          "type": "bool"
        }
      ],
      "stateMutability": "view",
      "type": "function"
    },
    {
      "inputs": [
        {
          "internalType": "bytes32",
          "name": "role",
          "type": "bytes32"
        },
        {
          "internalType": "address",
          "name": "callerConfirmation",
          "type": "address"
        }
      ],
      "name": "renounceRole",
      "outputs": [],
      "stateMutability": "nonpayable",
      "type": "function"
    },
    {
      "inputs": [
        {
          "internalType": "bytes32",
          "name": "role",
          "type": "bytes32"
        },
        {
          "internalType": "address",
          "name": "account",
          "type": "address"
        }
      ],
      "name": "revokeRole",
      "outputs": [],
      "stateMutability": "nonpayable",
      "type": "function"
    },
    {
      "inputs": [
        {
          "internalType": "bytes4",
          "name": "interfaceId",
          "type": "bytes4"
        }
      ],
      "name": "supportsInterface",
      "outputs": [
        {
          "internalType": "bool",
          "name": "",
          "type": "bool"
        }
      ],
      "stateMutability": "view",
      "type": "function"
    },
    {
      "inputs": [],
      "name": "unpause",
      "outputs": [],
      "stateMutability": "nonpayable",
      "type": "function"
    },
    {
      "inputs": [
        {
          "internalType": "uint256",
          "name": "hash",
          "type": "uint256"
        },
        {
          "internalType": "bool",
          "name": "whitelist",
          "type": "bool"
        }
      ],
      "name": "update",
      "outputs": [],
      "stateMutability": "nonpayable",
      "type": "function"
    },
    {
      "inputs": [
        {
          "internalType": "uint256[]",
          "name": "hashes",
          "type": "uint256[]"
        },
        {
          "internalType": "bool",
          "name": "whitelist",
          "type": "bool"
        }
      ],
      "name": "updateMulti",
      "outputs": [],
      "stateMutability": "nonpayable",
      "type": "function"
    }
  ],
  "bytecode": "0x608060405234801561000f575f80fd5b50604051610a8b380380610a8b83398101604081905261002e916101a2565b5f805460ff1916905561004e5f80516020610a6b833981519152836100a9565b506100665f80516020610a4b833981519152826100a9565b5061007e5f80516020610a6b8339815191528061013b565b6100a25f80516020610a4b8339815191525f80516020610a6b83398151915261013b565b50506101d3565b5f8281526001602090815260408083206001600160a01b038516845290915281205460ff16610132575f8381526001602081815260408084206001600160a01b0387168086529252808420805460ff19169093179092559051339286917f2f8788117e7eff1d82e926ec794901d17c78024a50270940304540a733656f0d9190a4506001610135565b505f5b92915050565b5f828152600160208190526040808320909101805490849055905190918391839186917fbd79b86ffe0ab8e8776151514217cd7cacd52c909f66475c3af44e129f0b00ff9190a4505050565b80516001600160a01b038116811461019d575f80fd5b919050565b5f80604083850312156101b3575f80fd5b6101bc83610187565b91506101ca60208401610187565b90509250929050565b61086b806101e05f395ff3fe608060405234801561000f575f80fd5b50600436106100f0575f3560e01c8063751b02c211610093578063a217fddf11610063578063a217fddf146101fe578063b60d570414610205578063d547741f14610218578063f5b541a61461022b575f80fd5b8063751b02c21461019a57806375b238fc146101bc5780638456cb59146101e357806391d14854146101eb575f80fd5b806336568abe116100ce57806336568abe146101625780633f4ba83a1461017557806348284b621461017d5780635c975abb14610190575f80fd5b806301ffc9a7146100f4578063248a9ca31461011c5780632f2ff15d1461014d575b5f80fd5b610107610102366004610662565b610252565b60405190151581526020015b60405180910390f35b61013f61012a366004610690565b5f908152600160208190526040909120015490565b604051908152602001610113565b61016061015b3660046106a7565b610288565b005b6101606101703660046106a7565b6102b3565b6101606102eb565b61016061018b3660046106f4565b610320565b5f5460ff16610107565b6101076101a8366004610690565b60026020525f908152604090205460ff1681565b61013f7fa49807205ce4d355092ef5a8a18f56e8913cf4a201fbe287825b095693c2177581565b6101606103a3565b6101076101f93660046106a7565b6103d5565b61013f5f81565b610160610213366004610732565b6103ff565b6101606102263660046106a7565b61043d565b61013f7f97667070c54ef182b0f5858b034beac1b6f3089aa2d3188bb1e8929f4fa9b92981565b5f6001600160e01b03198216637965db0b60e01b148061028257506301ffc9a760e01b6001600160e01b03198316145b92915050565b5f82815260016020819052604090912001546102a381610462565b6102ad838361046c565b50505050565b6001600160a01b03811633146102dc5760405163334bd91960e11b815260040160405180910390fd5b6102e682826104e2565b505050565b7fa49807205ce4d355092ef5a8a18f56e8913cf4a201fbe287825b095693c2177561031581610462565b61031d61054d565b50565b7f97667070c54ef182b0f5858b034beac1b6f3089aa2d3188bb1e8929f4fa9b92961034a81610462565b5f83815260026020908152604091829020805460ff19168515159081179091558251868152918201527f88b8a458de0aaf94fb69c2a85e2aa8cc40b1a0f59a18ba817a570bb88a06a726910160405180910390a1505050565b7fa49807205ce4d355092ef5a8a18f56e8913cf4a201fbe287825b095693c217756103cd81610462565b61031d61059e565b5f9182526001602090815260408084206001600160a01b0393909316845291905290205460ff1690565b5f5b82518110156102e65761042d83828151811061041f5761041f6107fd565b602002602001015183610320565b61043681610811565b9050610401565b5f828152600160208190526040909120015461045881610462565b6102ad83836104e2565b61031d81336105da565b5f61047783836103d5565b6104db575f8381526001602081815260408084206001600160a01b0387168086529252808420805460ff19169093179092559051339286917f2f8788117e7eff1d82e926ec794901d17c78024a50270940304540a733656f0d9190a4506001610282565b505f610282565b5f6104ed83836103d5565b156104db575f8381526001602090815260408083206001600160a01b0386168085529252808320805460ff1916905551339286917ff6391f5c32d9c69d2a47ea670b442974b53935d1edc7fd64eb21e047a839171b9190a4506001610282565b61055561061b565b5f805460ff191690557f5db9ee0a495bf2e6ff9c91a7834c1ba4fdd244a5e8aa4e537bd38aeae4b073aa335b6040516001600160a01b03909116815260200160405180910390a1565b6105a661063f565b5f805460ff191660011790557f62e78cea01bee320cd4e420270b5ea74000d11b0c9f74754ebdbfc544b05a2586105813390565b6105e482826103d5565b6106175760405163e2517d3f60e01b81526001600160a01b03821660048201526024810183905260440160405180910390fd5b5050565b5f5460ff1661063d57604051638dfc202b60e01b815260040160405180910390fd5b565b5f5460ff161561063d5760405163d93c066560e01b815260040160405180910390fd5b5f60208284031215610672575f80fd5b81356001600160e01b031981168114610689575f80fd5b9392505050565b5f602082840312156106a0575f80fd5b5035919050565b5f80604083850312156106b8575f80fd5b8235915060208301356001600160a01b03811681146106d5575f80fd5b809150509250929050565b803580151581146106ef575f80fd5b919050565b5f8060408385031215610705575f80fd5b82359150610715602084016106e0565b90509250929050565b634e487b7160e01b5f52604160045260245ffd5b5f8060408385031215610743575f80fd5b823567ffffffffffffffff8082111561075a575f80fd5b818501915085601f83011261076d575f80fd5b81356020828211156107815761078161071e565b8160051b604051601f19603f830116810181811086821117156107a6576107a661071e565b6040529283528183019350848101820192898411156107c3575f80fd5b948201945b838610156107e1578535855294820194938201936107c8565b96506107f090508782016106e0565b9450505050509250929050565b634e487b7160e01b5f52603260045260245ffd5b5f6001820161082e57634e487b7160e01b5f52601160045260245ffd5b506001019056fea264697066735822122071c9e1a4fc40c5d762a6d7e5ecff1a11e83289a7c248d546332ec78f0225e09c64736f6c6343000814003397667070c54ef182b0f5858b034beac1b6f3089aa2d3188bb1e8929f4fa9b929a49807205ce4d355092ef5a8a18f56e8913cf4a201fbe287825b095693c21775",
  "linkReferences": {},
  "deployedLinkReferences": {}
}