{
  "_format": "hh-sol-artifact-1",
  "contractName": "AteayaWhitelist",
  "sourceName": "contracts/AteayaWhitelist.sol",
  "abi": [
    {
      "inputs": [
        {
          "internalType": "address",
          "name": "admin",
          "type": "address"
        },
        {
          "internalType": "address",
          "name": "operator",
          "type": "address"
        }
      ],
      "stateMutability": "nonpayable",
      "type": "constructor"
    },
    {
      "inputs": [],
      "name": "AccessControlBadConfirmation",
      "type": "error"
    },
    {
      "inputs": [
        {
          "internalType": "address",
          "name": "account",
          "type": "address"
        },
        {
          "internalType": "bytes32",
          "name": "neededRole",
          "type": "bytes32"
        }
      ],
      "name": "AccessControlUnauthorizedAccount",
      "type": "error"
    },
    {
      "inputs": [],
      "name": "EnforcedPause",
      "type": "error"
    },
    {
      "inputs": [],
      "name": "ExpectedPause",
      "type": "error"
    },
    {
      "anonymous": false,
      "inputs": [
        {
          "indexed": false,
          "internalType": "address",
          "name": "account",
          "type": "address"
        }
      ],
      "name": "Paused",
      "type": "event"
    },
    {
      "anonymous": false,
      "inputs": [
        {
          "indexed": true,
          "internalType": "bytes32",
          "name": "role",
          "type": "bytes32"
        },
        {
          "indexed": true,
          "internalType": "bytes32",
          "name": "previousAdminRole",
          "type": "bytes32"
        },
        {
          "indexed": true,
          "internalType": "bytes32",
          "name": "newAdminRole",
          "type": "bytes32"
        }
      ],
      "name": "RoleAdminChanged",
      "type": "event"
    },
    {
      "anonymous": false,
      "inputs": [
        {
          "indexed": true,
          "internalType": "bytes32",
          "name": "role",
          "type": "bytes32"
        },
        {
          "indexed": true,
          "internalType": "address",
          "name": "account",
          "type": "address"
        },
        {
          "indexed": true,
          "internalType": "address",
          "name": "sender",
          "type": "address"
        }
      ],
      "name": "RoleGranted",
      "type": "event"
    },
    {
      "anonymous": false,
      "inputs": [
        {
          "indexed": true,
          "internalType": "bytes32",
          "name": "role",
          "type": "bytes32"
        },
        {
          "indexed": true,
          "internalType": "address",
          "name": "account",
          "type": "address"
        },
        {
          "indexed": true,
          "internalType": "address",
          "name": "sender",
          "type": "address"
        }
      ],
      "name": "RoleRevoked",
      "type": "event"
    },
    {
      "anonymous": false,
      "inputs": [
        {
          "indexed": false,
          "internalType": "address",
          "name": "account",
          "type": "address"
        }
      ],
      "name": "Unpaused",
      "type": "event"
    },
    {
      "anonymous": false,
      "inputs": [
        {
          "indexed": false,
          "internalType": "address",
          "name": "wallet",
          "type": "address"
        },
        {
          "indexed": false,
          "internalType": "bool",
          "name": "enabled",
          "type": "bool"
        }
      ],
      "name": "Updated",
      "type": "event"
    },
    {
      "inputs": [],
      "name": "ADMIN_ROLE",
      "outputs": [
        {
          "internalType": "bytes32",
          "name": "",
          "type": "bytes32"
        }
      ],
      "stateMutability": "view",
      "type": "function"
    },
    {
      "inputs": [],
      "name": "DEFAULT_ADMIN_ROLE",
      "outputs": [
        {
          "internalType": "bytes32",
          "name": "",
          "type": "bytes32"
        }
      ],
      "stateMutability": "view",
      "type": "function"
    },
    {
      "inputs": [],
      "name": "OPERATOR_ROLE",
      "outputs": [
        {
          "internalType": "bytes32",
          "name": "",
          "type": "bytes32"
        }
      ],
      "stateMutability": "view",
      "type": "function"
    },
    {
      "inputs": [
        {
          "internalType": "bytes32",
          "name": "role",
          "type": "bytes32"
        }
      ],
      "name": "getRoleAdmin",
      "outputs": [
        {
          "internalType": "bytes32",
          "name": "",
          "type": "bytes32"
        }
      ],
      "stateMutability": "view",
      "type": "function"
    },
    {
      "inputs": [
        {
          "internalType": "bytes32",
          "name": "role",
          "type": "bytes32"
        },
        {
          "internalType": "address",
          "name": "account",
          "type": "address"
        }
      ],
      "name": "grantRole",
      "outputs": [],
      "stateMutability": "nonpayable",
      "type": "function"
    },
    {
      "inputs": [
        {
          "internalType": "bytes32",
          "name": "role",
          "type": "bytes32"
        },
        {
          "internalType": "address",
          "name": "account",
          "type": "address"
        }
      ],
      "name": "hasRole",
      "outputs": [
        {
          "internalType": "bool",
          "name": "",
          "type": "bool"
        }
      ],
      "stateMutability": "view",
      "type": "function"
    },
    {
      "inputs": [
        {
          "internalType": "address",
          "name": "",
          "type": "address"
        }
      ],
      "name": "isWhitelisted",
      "outputs": [
        {
          "internalType": "bool",
          "name": "",
          "type": "bool"
        }
      ],
      "stateMutability": "view",
      "type": "function"
    },
    {
      "inputs": [],
      "name": "pause",
      "outputs": [],
      "stateMutability": "nonpayable",
      "type": "function"
    },
    {
      "inputs": [],
      "name": "paused",
      "outputs": [
        {
          "internalType": "bool",
          "name": "",
          "type": "bool"
        }
      ],
      "stateMutability": "view",
      "type": "function"
    },
    {
      "inputs": [
        {
          "internalType": "bytes32",
          "name": "role",
          "type": "bytes32"
        },
        {
          "internalType": "address",
          "name": "callerConfirmation",
          "type": "address"
        }
      ],
      "name": "renounceRole",
      "outputs": [],
      "stateMutability": "nonpayable",
      "type": "function"
    },
    {
      "inputs": [
        {
          "internalType": "bytes32",
          "name": "role",
          "type": "bytes32"
        },
        {
          "internalType": "address",
          "name": "account",
          "type": "address"
        }
      ],
      "name": "revokeRole",
      "outputs": [],
      "stateMutability": "nonpayable",
      "type": "function"
    },
    {
      "inputs": [
        {
          "internalType": "bytes4",
          "name": "interfaceId",
          "type": "bytes4"
        }
      ],
      "name": "supportsInterface",
      "outputs": [
        {
          "internalType": "bool",
          "name": "",
          "type": "bool"
        }
      ],
      "stateMutability": "view",
      "type": "function"
    },
    {
      "inputs": [],
      "name": "unpause",
      "outputs": [],
      "stateMutability": "nonpayable",
      "type": "function"
    },
    {
      "inputs": [
        {
          "internalType": "address",
          "name": "wallet",
          "type": "address"
        },
        {
          "internalType": "bool",
          "name": "whitelist",
          "type": "bool"
        }
      ],
      "name": "update",
      "outputs": [],
      "stateMutability": "nonpayable",
      "type": "function"
    },
    {
      "inputs": [
        {
          "internalType": "address[]",
          "name": "wallets",
          "type": "address[]"
        },
        {
          "internalType": "bool",
          "name": "whitelist",
          "type": "bool"
        }
      ],
      "name": "updateMulti",
      "outputs": [],
      "stateMutability": "nonpayable",
      "type": "function"
    }
  ],
  "bytecode": "0x608060405234801561000f575f80fd5b50604051610aba380380610aba83398101604081905261002e916101a2565b5f805460ff1916905561004e5f80516020610a9a833981519152836100a9565b506100665f80516020610a7a833981519152826100a9565b5061007e5f80516020610a9a8339815191528061013b565b6100a25f80516020610a7a8339815191525f80516020610a9a83398151915261013b565b50506101d3565b5f8281526001602090815260408083206001600160a01b038516845290915281205460ff16610132575f8381526001602081815260408084206001600160a01b0387168086529252808420805460ff19169093179092559051339286917f2f8788117e7eff1d82e926ec794901d17c78024a50270940304540a733656f0d9190a4506001610135565b505f5b92915050565b5f828152600160208190526040808320909101805490849055905190918391839186917fbd79b86ffe0ab8e8776151514217cd7cacd52c909f66475c3af44e129f0b00ff9190a4505050565b80516001600160a01b038116811461019d575f80fd5b919050565b5f80604083850312156101b3575f80fd5b6101bc83610187565b91506101ca60208401610187565b90509250929050565b61089a806101e05f395ff3fe608060405234801561000f575f80fd5b50600436106100f0575f3560e01c80635c975abb11610093578063a217fddf11610063578063a217fddf146101fe578063d547741f14610205578063ea84bfee14610218578063f5b541a61461022b575f80fd5b80635c975abb146101b257806375b238fc146101bc5780638456cb59146101e357806391d14854146101eb575f80fd5b80632f2ff15d116100ce5780632f2ff15d1461016257806336568abe146101755780633af32abf146101885780633f4ba83a146101aa575f80fd5b806301ffc9a7146100f457806309fed5891461011c578063248a9ca314610131575b5f80fd5b61010761010236600461066c565b610252565b60405190151581526020015b60405180910390f35b61012f61012a3660046106d8565b610288565b005b61015461013f3660046107aa565b5f908152600160208190526040909120015490565b604051908152602001610113565b61012f6101703660046107c1565b6102cb565b61012f6101833660046107c1565b6102f6565b6101076101963660046107eb565b60026020525f908152604090205460ff1681565b61012f610329565b5f5460ff16610107565b6101547fa49807205ce4d355092ef5a8a18f56e8913cf4a201fbe287825b095693c2177581565b61012f61035e565b6101076101f93660046107c1565b610390565b6101545f81565b61012f6102133660046107c1565b6103ba565b61012f610226366004610804565b6103df565b6101547f97667070c54ef182b0f5858b034beac1b6f3089aa2d3188bb1e8929f4fa9b92981565b5f6001600160e01b03198216637965db0b60e01b148061028257506301ffc9a760e01b6001600160e01b03198316145b92915050565b5f5b82518110156102c6576102b68382815181106102a8576102a861082c565b6020026020010151836103df565b6102bf81610840565b905061028a565b505050565b5f82815260016020819052604090912001546102e68161046c565b6102f08383610476565b50505050565b6001600160a01b038116331461031f5760405163334bd91960e11b815260040160405180910390fd5b6102c682826104ec565b7fa49807205ce4d355092ef5a8a18f56e8913cf4a201fbe287825b095693c217756103538161046c565b61035b610557565b50565b7fa49807205ce4d355092ef5a8a18f56e8913cf4a201fbe287825b095693c217756103888161046c565b61035b6105a8565b5f9182526001602090815260408084206001600160a01b0393909316845291905290205460ff1690565b5f82815260016020819052604090912001546103d58161046c565b6102f083836104ec565b7f97667070c54ef182b0f5858b034beac1b6f3089aa2d3188bb1e8929f4fa9b9296104098161046c565b6001600160a01b0383165f81815260026020908152604091829020805460ff19168615159081179091558251938452908301527f77a2bd93e54d795f98f48969f52454e03269e35c7a5b51596f51b3a9293698f9910160405180910390a1505050565b61035b81336105e4565b5f6104818383610390565b6104e5575f8381526001602081815260408084206001600160a01b0387168086529252808420805460ff19169093179092559051339286917f2f8788117e7eff1d82e926ec794901d17c78024a50270940304540a733656f0d9190a4506001610282565b505f610282565b5f6104f78383610390565b156104e5575f8381526001602090815260408083206001600160a01b0386168085529252808320805460ff1916905551339286917ff6391f5c32d9c69d2a47ea670b442974b53935d1edc7fd64eb21e047a839171b9190a4506001610282565b61055f610625565b5f805460ff191690557f5db9ee0a495bf2e6ff9c91a7834c1ba4fdd244a5e8aa4e537bd38aeae4b073aa335b6040516001600160a01b03909116815260200160405180910390a1565b6105b0610649565b5f805460ff191660011790557f62e78cea01bee320cd4e420270b5ea74000d11b0c9f74754ebdbfc544b05a25861058b3390565b6105ee8282610390565b6106215760405163e2517d3f60e01b81526001600160a01b03821660048201526024810183905260440160405180910390fd5b5050565b5f5460ff1661064757604051638dfc202b60e01b815260040160405180910390fd5b565b5f5460ff16156106475760405163d93c066560e01b815260040160405180910390fd5b5f6020828403121561067c575f80fd5b81356001600160e01b031981168114610693575f80fd5b9392505050565b634e487b7160e01b5f52604160045260245ffd5b80356001600160a01b03811681146106c4575f80fd5b919050565b803580151581146106c4575f80fd5b5f80604083850312156106e9575f80fd5b823567ffffffffffffffff80821115610700575f80fd5b818501915085601f830112610713575f80fd5b81356020828211156107275761072761069a565b8160051b604051601f19603f8301168101818110868211171561074c5761074c61069a565b604052928352818301935084810182019289841115610769575f80fd5b948201945b8386101561078e5761077f866106ae565b8552948201949382019361076e565b965061079d90508782016106c9565b9450505050509250929050565b5f602082840312156107ba575f80fd5b5035919050565b5f80604083850312156107d2575f80fd5b823591506107e2602084016106ae565b90509250929050565b5f602082840312156107fb575f80fd5b610693826106ae565b5f8060408385031215610815575f80fd5b61081e836106ae565b91506107e2602084016106c9565b634e487b7160e01b5f52603260045260245ffd5b5f6001820161085d57634e487b7160e01b5f52601160045260245ffd5b506001019056fea2646970667358221220b6a9bb08c267710911442a2c12f7c2ac1ea7cbd259cc6f3b1a8bc362ab84dab264736f6c6343000814003397667070c54ef182b0f5858b034beac1b6f3089aa2d3188bb1e8929f4fa9b929a49807205ce4d355092ef5a8a18f56e8913cf4a201fbe287825b095693c21775",
  "linkReferences": {},
  "deployedLinkReferences": {}
}