{
  "_format": "hh-sol-artifact-1",
  "contractName": "KratosXNFT",
  "sourceName": "contracts/KratosXNFT.sol",
  "abi": [
    {
      "inputs": [
        {
          "internalType": "address",
          "name": "admin",
          "type": "address"
        },
        {
          "internalType": "address",
          "name": "minter",
          "type": "address"
        }
      ],
      "stateMutability": "nonpayable",
      "type": "constructor"
    },
    {
      "inputs": [],
      "name": "AccessControlBadConfirmation",
      "type": "error"
    },
    {
      "inputs": [
        {
          "internalType": "address",
          "name": "account",
          "type": "address"
        },
        {
          "internalType": "bytes32",
          "name": "neededRole",
          "type": "bytes32"
        }
      ],
      "name": "AccessControlUnauthorizedAccount",
      "type": "error"
    },
    {
      "inputs": [
        {
          "internalType": "address",
          "name": "sender",
          "type": "address"
        },
        {
          "internalType": "uint256",
          "name": "tokenId",
          "type": "uint256"
        },
        {
          "internalType": "address",
          "name": "owner",
          "type": "address"
        }
      ],
      "name": "ERC721IncorrectOwner",
      "type": "error"
    },
    {
      "inputs": [
        {
          "internalType": "address",
          "name": "operator",
          "type": "address"
        },
        {
          "internalType": "uint256",
          "name": "tokenId",
          "type": "uint256"
        }
      ],
      "name": "ERC721InsufficientApproval",
      "type": "error"
    },
    {
      "inputs": [
        {
          "internalType": "address",
          "name": "approver",
          "type": "address"
        }
      ],
      "name": "ERC721InvalidApprover",
      "type": "error"
    },
    {
      "inputs": [
        {
          "internalType": "address",
          "name": "operator",
          "type": "address"
        }
      ],
      "name": "ERC721InvalidOperator",
      "type": "error"
    },
    {
      "inputs": [
        {
          "internalType": "address",
          "name": "owner",
          "type": "address"
        }
      ],
      "name": "ERC721InvalidOwner",
      "type": "error"
    },
    {
      "inputs": [
        {
          "internalType": "address",
          "name": "receiver",
          "type": "address"
        }
      ],
      "name": "ERC721InvalidReceiver",
      "type": "error"
    },
    {
      "inputs": [
        {
          "internalType": "address",
          "name": "sender",
          "type": "address"
        }
      ],
      "name": "ERC721InvalidSender",
      "type": "error"
    },
    {
      "inputs": [
        {
          "internalType": "uint256",
          "name": "tokenId",
          "type": "uint256"
        }
      ],
      "name": "ERC721NonexistentToken",
      "type": "error"
    },
    {
      "anonymous": false,
      "inputs": [
        {
          "indexed": true,
          "internalType": "address",
          "name": "owner",
          "type": "address"
        },
        {
          "indexed": true,
          "internalType": "address",
          "name": "approved",
          "type": "address"
        },
        {
          "indexed": true,
          "internalType": "uint256",
          "name": "tokenId",
          "type": "uint256"
        }
      ],
      "name": "Approval",
      "type": "event"
    },
    {
      "anonymous": false,
      "inputs": [
        {
          "indexed": true,
          "internalType": "address",
          "name": "owner",
          "type": "address"
        },
        {
          "indexed": true,
          "internalType": "address",
          "name": "operator",
          "type": "address"
        },
        {
          "indexed": false,
          "internalType": "bool",
          "name": "approved",
          "type": "bool"
        }
      ],
      "name": "ApprovalForAll",
      "type": "event"
    },
    {
      "anonymous": false,
      "inputs": [
        {
          "indexed": false,
          "internalType": "uint256",
          "name": "_fromTokenId",
          "type": "uint256"
        },
        {
          "indexed": false,
          "internalType": "uint256",
          "name": "_toTokenId",
          "type": "uint256"
        }
      ],
      "name": "BatchMetadataUpdate",
      "type": "event"
    },
    {
      "anonymous": false,
      "inputs": [
        {
          "indexed": false,
          "internalType": "uint256",
          "name": "_tokenId",
          "type": "uint256"
        }
      ],
      "name": "MetadataUpdate",
      "type": "event"
    },
    {
      "anonymous": false,
      "inputs": [
        {
          "indexed": true,
          "internalType": "bytes32",
          "name": "role",
          "type": "bytes32"
        },
        {
          "indexed": true,
          "internalType": "bytes32",
          "name": "previousAdminRole",
          "type": "bytes32"
        },
        {
          "indexed": true,
          "internalType": "bytes32",
          "name": "newAdminRole",
          "type": "bytes32"
        }
      ],
      "name": "RoleAdminChanged",
      "type": "event"
    },
    {
      "anonymous": false,
      "inputs": [
        {
          "indexed": true,
          "internalType": "bytes32",
          "name": "role",
          "type": "bytes32"
        },
        {
          "indexed": true,
          "internalType": "address",
          "name": "account",
          "type": "address"
        },
        {
          "indexed": true,
          "internalType": "address",
          "name": "sender",
          "type": "address"
        }
      ],
      "name": "RoleGranted",
      "type": "event"
    },
    {
      "anonymous": false,
      "inputs": [
        {
          "indexed": true,
          "internalType": "bytes32",
          "name": "role",
          "type": "bytes32"
        },
        {
          "indexed": true,
          "internalType": "address",
          "name": "account",
          "type": "address"
        },
        {
          "indexed": true,
          "internalType": "address",
          "name": "sender",
          "type": "address"
        }
      ],
      "name": "RoleRevoked",
      "type": "event"
    },
    {
      "anonymous": false,
      "inputs": [
        {
          "indexed": true,
          "internalType": "address",
          "name": "from",
          "type": "address"
        },
        {
          "indexed": true,
          "internalType": "address",
          "name": "to",
          "type": "address"
        },
        {
          "indexed": true,
          "internalType": "uint256",
          "name": "tokenId",
          "type": "uint256"
        }
      ],
      "name": "Transfer",
      "type": "event"
    },
    {
      "inputs": [],
      "name": "ADMIN_ROLE",
      "outputs": [
        {
          "internalType": "bytes32",
          "name": "",
          "type": "bytes32"
        }
      ],
      "stateMutability": "view",
      "type": "function"
    },
    {
      "inputs": [],
      "name": "DEFAULT_ADMIN_ROLE",
      "outputs": [
        {
          "internalType": "bytes32",
          "name": "",
          "type": "bytes32"
        }
      ],
      "stateMutability": "view",
      "type": "function"
    },
    {
      "inputs": [],
      "name": "MINTER_ROLE",
      "outputs": [
        {
          "internalType": "bytes32",
          "name": "",
          "type": "bytes32"
        }
      ],
      "stateMutability": "view",
      "type": "function"
    },
    {
      "inputs": [
        {
          "internalType": "address",
          "name": "to",
          "type": "address"
        },
        {
          "internalType": "uint256",
          "name": "tokenId",
          "type": "uint256"
        }
      ],
      "name": "approve",
      "outputs": [],
      "stateMutability": "nonpayable",
      "type": "function"
    },
    {
      "inputs": [
        {
          "internalType": "address",
          "name": "owner",
          "type": "address"
        }
      ],
      "name": "balanceOf",
      "outputs": [
        {
          "internalType": "uint256",
          "name": "",
          "type": "uint256"
        }
      ],
      "stateMutability": "view",
      "type": "function"
    },
    {
      "inputs": [
        {
          "internalType": "uint256",
          "name": "tokenId",
          "type": "uint256"
        }
      ],
      "name": "getApproved",
      "outputs": [
        {
          "internalType": "address",
          "name": "",
          "type": "address"
        }
      ],
      "stateMutability": "view",
      "type": "function"
    },
    {
      "inputs": [
        {
          "internalType": "bytes32",
          "name": "role",
          "type": "bytes32"
        }
      ],
      "name": "getRoleAdmin",
      "outputs": [
        {
          "internalType": "bytes32",
          "name": "",
          "type": "bytes32"
        }
      ],
      "stateMutability": "view",
      "type": "function"
    },
    {
      "inputs": [
        {
          "internalType": "bytes32",
          "name": "role",
          "type": "bytes32"
        },
        {
          "internalType": "address",
          "name": "account",
          "type": "address"
        }
      ],
      "name": "grantRole",
      "outputs": [],
      "stateMutability": "nonpayable",
      "type": "function"
    },
    {
      "inputs": [
        {
          "internalType": "bytes32",
          "name": "role",
          "type": "bytes32"
        },
        {
          "internalType": "address",
          "name": "account",
          "type": "address"
        }
      ],
      "name": "hasRole",
      "outputs": [
        {
          "internalType": "bool",
          "name": "",
          "type": "bool"
        }
      ],
      "stateMutability": "view",
      "type": "function"
    },
    {
      "inputs": [
        {
          "internalType": "address",
          "name": "owner",
          "type": "address"
        },
        {
          "internalType": "address",
          "name": "operator",
          "type": "address"
        }
      ],
      "name": "isApprovedForAll",
      "outputs": [
        {
          "internalType": "bool",
          "name": "",
          "type": "bool"
        }
      ],
      "stateMutability": "view",
      "type": "function"
    },
    {
      "inputs": [],
      "name": "name",
      "outputs": [
        {
          "internalType": "string",
          "name": "",
          "type": "string"
        }
      ],
      "stateMutability": "view",
      "type": "function"
    },
    {
      "inputs": [
        {
          "internalType": "uint256",
          "name": "tokenId",
          "type": "uint256"
        }
      ],
      "name": "ownerOf",
      "outputs": [
        {
          "internalType": "address",
          "name": "",
          "type": "address"
        }
      ],
      "stateMutability": "view",
      "type": "function"
    },
    {
      "inputs": [
        {
          "internalType": "bytes32",
          "name": "role",
          "type": "bytes32"
        },
        {
          "internalType": "address",
          "name": "callerConfirmation",
          "type": "address"
        }
      ],
      "name": "renounceRole",
      "outputs": [],
      "stateMutability": "nonpayable",
      "type": "function"
    },
    {
      "inputs": [
        {
          "internalType": "bytes32",
          "name": "role",
          "type": "bytes32"
        },
        {
          "internalType": "address",
          "name": "account",
          "type": "address"
        }
      ],
      "name": "revokeRole",
      "outputs": [],
      "stateMutability": "nonpayable",
      "type": "function"
    },
    {
      "inputs": [
        {
          "internalType": "address",
          "name": "to",
          "type": "address"
        },
        {
          "internalType": "string",
          "name": "uri",
          "type": "string"
        }
      ],
      "name": "safeMint",
      "outputs": [],
      "stateMutability": "nonpayable",
      "type": "function"
    },
    {
      "inputs": [
        {
          "internalType": "address",
          "name": "from",
          "type": "address"
        },
        {
          "internalType": "address",
          "name": "to",
          "type": "address"
        },
        {
          "internalType": "uint256",
          "name": "tokenId",
          "type": "uint256"
        }
      ],
      "name": "safeTransferFrom",
      "outputs": [],
      "stateMutability": "nonpayable",
      "type": "function"
    },
    {
      "inputs": [
        {
          "internalType": "address",
          "name": "from",
          "type": "address"
        },
        {
          "internalType": "address",
          "name": "to",
          "type": "address"
        },
        {
          "internalType": "uint256",
          "name": "tokenId",
          "type": "uint256"
        },
        {
          "internalType": "bytes",
          "name": "data",
          "type": "bytes"
        }
      ],
      "name": "safeTransferFrom",
      "outputs": [],
      "stateMutability": "nonpayable",
      "type": "function"
    },
    {
      "inputs": [
        {
          "internalType": "address",
          "name": "operator",
          "type": "address"
        },
        {
          "internalType": "bool",
          "name": "approved",
          "type": "bool"
        }
      ],
      "name": "setApprovalForAll",
      "outputs": [],
      "stateMutability": "nonpayable",
      "type": "function"
    },
    {
      "inputs": [
        {
          "internalType": "bytes4",
          "name": "interfaceId",
          "type": "bytes4"
        }
      ],
      "name": "supportsInterface",
      "outputs": [
        {
          "internalType": "bool",
          "name": "",
          "type": "bool"
        }
      ],
      "stateMutability": "view",
      "type": "function"
    },
    {
      "inputs": [],
      "name": "symbol",
      "outputs": [
        {
          "internalType": "string",
          "name": "",
          "type": "string"
        }
      ],
      "stateMutability": "view",
      "type": "function"
    },
    {
      "inputs": [
        {
          "internalType": "uint256",
          "name": "tokenId",
          "type": "uint256"
        }
      ],
      "name": "tokenURI",
      "outputs": [
        {
          "internalType": "string",
          "name": "",
          "type": "string"
        }
      ],
      "stateMutability": "view",
      "type": "function"
    },
    {
      "inputs": [
        {
          "internalType": "address",
          "name": "from",
          "type": "address"
        },
        {
          "internalType": "address",
          "name": "to",
          "type": "address"
        },
        {
          "internalType": "uint256",
          "name": "tokenId",
          "type": "uint256"
        }
      ],
      "name": "transferFrom",
      "outputs": [],
      "stateMutability": "nonpayable",
      "type": "function"
    }
  ],
  "bytecode": "0x608060405234801562000010575f80fd5b5060405162001a3238038062001a32833981016040819052620000339162000230565b6040518060400160405280600a81526020016912dc985d1bdcd613919560b21b8152506040518060400160405280600381526020016225ac2760e91b815250815f908162000082919062000306565b50600162000091828262000306565b505050620000b45f8051602062001a12833981519152836200011a60201b60201c565b50620000cf5f80516020620019f2833981519152826200011a565b50620000ea5f8051602062001a1283398151915280620001ca565b620001125f80516020620019f28339815191525f8051602062001a12833981519152620001ca565b5050620003ce565b5f8281526007602090815260408083206001600160a01b038516845290915281205460ff16620001c1575f8381526007602090815260408083206001600160a01b03861684529091529020805460ff19166001179055620001783390565b6001600160a01b0316826001600160a01b0316847f2f8788117e7eff1d82e926ec794901d17c78024a50270940304540a733656f0d60405160405180910390a4506001620001c4565b505f5b92915050565b5f82815260076020526040808220600101805490849055905190918391839186917fbd79b86ffe0ab8e8776151514217cd7cacd52c909f66475c3af44e129f0b00ff9190a4505050565b80516001600160a01b03811681146200022b575f80fd5b919050565b5f806040838503121562000242575f80fd5b6200024d8362000214565b91506200025d6020840162000214565b90509250929050565b634e487b7160e01b5f52604160045260245ffd5b600181811c908216806200028f57607f821691505b602082108103620002ae57634e487b7160e01b5f52602260045260245ffd5b50919050565b601f82111562000301575f81815260208120601f850160051c81016020861015620002dc5750805b601f850160051c820191505b81811015620002fd57828155600101620002e8565b5050505b505050565b81516001600160401b0381111562000322576200032262000266565b6200033a816200033384546200027a565b84620002b4565b602080601f83116001811462000370575f8415620003585750858301515b5f19600386901b1c1916600185901b178555620002fd565b5f85815260208120601f198616915b82811015620003a0578886015182559484019460019091019084016200037f565b5085821015620003be57878501515f19600388901b60f8161c191681555b5050505050600190811b01905550565b61161680620003dc5f395ff3fe608060405234801561000f575f80fd5b506004361061013d575f3560e01c806375b238fc116100b4578063b88d4fde11610079578063b88d4fde146102bc578063c87b56dd146102cf578063d204c45e146102e2578063d5391393146102f5578063d547741f1461031c578063e985e9c51461032f575f80fd5b806375b238fc1461026057806391d148541461028757806395d89b411461029a578063a217fddf146102a2578063a22cb465146102a9575f80fd5b8063248a9ca311610105578063248a9ca3146101d15780632f2ff15d1461020157806336568abe1461021457806342842e0e146102275780636352211e1461023a57806370a082311461024d575f80fd5b806301ffc9a71461014157806306fdde0314610169578063081812fc1461017e578063095ea7b3146101a957806323b872dd146101be575b5f80fd5b61015461014f3660046110e9565b610342565b60405190151581526020015b60405180910390f35b610171610352565b6040516101609190611151565b61019161018c366004611163565b6103e1565b6040516001600160a01b039091168152602001610160565b6101bc6101b7366004611195565b610408565b005b6101bc6101cc3660046111bd565b610417565b6101f36101df366004611163565b5f9081526007602052604090206001015490565b604051908152602001610160565b6101bc61020f3660046111f6565b6104a5565b6101bc6102223660046111f6565b6104c9565b6101bc6102353660046111bd565b610501565b610191610248366004611163565b61051b565b6101f361025b366004611220565b610525565b6101f37fa49807205ce4d355092ef5a8a18f56e8913cf4a201fbe287825b095693c2177581565b6101546102953660046111f6565b61056a565b610171610594565b6101f35f81565b6101bc6102b7366004611239565b6105a3565b6101bc6102ca3660046112f9565b6105ae565b6101716102dd366004611163565b6105c5565b6101bc6102f0366004611370565b6105d0565b6101f37f9f2df0fed2c77648de5860a4cc508cd0818c85b8b8a1ab4ceeef8d981c8956a681565b6101bc61032a3660046111f6565b610624565b61015461033d3660046113ce565b610648565b5f61034c82610675565b92915050565b60605f8054610360906113f6565b80601f016020809104026020016040519081016040528092919081815260200182805461038c906113f6565b80156103d75780601f106103ae576101008083540402835291602001916103d7565b820191905f5260205f20905b8154815290600101906020018083116103ba57829003601f168201915b5050505050905090565b5f6103eb82610699565b505f828152600460205260409020546001600160a01b031661034c565b6104138282336106d1565b5050565b6001600160a01b03821661044557604051633250574960e11b81525f60048201526024015b60405180910390fd5b5f6104518383336106de565b9050836001600160a01b0316816001600160a01b03161461049f576040516364283d7b60e01b81526001600160a01b038086166004830152602482018490528216604482015260640161043c565b50505050565b5f828152600760205260409020600101546104bf816107d0565b61049f83836107dd565b6001600160a01b03811633146104f25760405163334bd91960e11b815260040160405180910390fd5b6104fc828261086e565b505050565b6104fc83838360405180602001604052805f8152506105ae565b5f61034c82610699565b5f6001600160a01b03821661054f576040516322718ad960e21b81525f600482015260240161043c565b506001600160a01b03165f9081526003602052604090205490565b5f9182526007602090815260408084206001600160a01b0393909316845291905290205460ff1690565b606060018054610360906113f6565b6104133383836108d9565b6105b9848484610417565b61049f84848484610977565b606061034c82610a9d565b7f9f2df0fed2c77648de5860a4cc508cd0818c85b8b8a1ab4ceeef8d981c8956a66105fa816107d0565b600880545f918261060a8361142e565b91905055905061061a8482610ba8565b61049f8184610bc1565b5f8281526007602052604090206001015461063e816107d0565b61049f838361086e565b6001600160a01b039182165f90815260056020908152604080832093909416825291909152205460ff1690565b5f6001600160e01b03198216637965db0b60e01b148061034c575061034c82610c10565b5f818152600260205260408120546001600160a01b03168061034c57604051637e27328960e01b81526004810184905260240161043c565b6104fc8383836001610c34565b5f828152600260205260408120546001600160a01b039081169083161561070a5761070a818486610d38565b6001600160a01b03811615610744576107255f855f80610c34565b6001600160a01b0381165f90815260036020526040902080545f190190555b6001600160a01b03851615610772576001600160a01b0385165f908152600360205260409020805460010190555b5f8481526002602052604080822080546001600160a01b0319166001600160a01b0389811691821790925591518793918516917fddf252ad1be2c89b69c2b068fc378daa952ba7f163c4a11628f55a4df523b3ef91a4949350505050565b6107da8133610d9c565b50565b5f6107e8838361056a565b610867575f8381526007602090815260408083206001600160a01b03861684529091529020805460ff1916600117905561081f3390565b6001600160a01b0316826001600160a01b0316847f2f8788117e7eff1d82e926ec794901d17c78024a50270940304540a733656f0d60405160405180910390a450600161034c565b505f61034c565b5f610879838361056a565b15610867575f8381526007602090815260408083206001600160a01b0386168085529252808320805460ff1916905551339286917ff6391f5c32d9c69d2a47ea670b442974b53935d1edc7fd64eb21e047a839171b9190a450600161034c565b6001600160a01b03821661090b57604051630b61174360e31b81526001600160a01b038316600482015260240161043c565b6001600160a01b038381165f81815260056020908152604080832094871680845294825291829020805460ff191686151590811790915591519182527f17307eab39ab6107e8899845ad3d59bd9653f200f220920489ca2b5937696c31910160405180910390a3505050565b6001600160a01b0383163b1561049f57604051630a85bd0160e11b81526001600160a01b0384169063150b7a02906109b9903390889087908790600401611452565b6020604051808303815f875af19250505080156109f3575060408051601f3d908101601f191682019092526109f09181019061148e565b60015b610a5a573d808015610a20576040519150601f19603f3d011682016040523d82523d5f602084013e610a25565b606091505b5080515f03610a5257604051633250574960e11b81526001600160a01b038516600482015260240161043c565b805181602001fd5b6001600160e01b03198116630a85bd0160e11b14610a9657604051633250574960e11b81526001600160a01b038516600482015260240161043c565b5050505050565b6060610aa882610699565b505f8281526006602052604081208054610ac1906113f6565b80601f0160208091040260200160405190810160405280929190818152602001828054610aed906113f6565b8015610b385780601f10610b0f57610100808354040283529160200191610b38565b820191905f5260205f20905b815481529060010190602001808311610b1b57829003601f168201915b505050505090505f610b5460408051602081019091525f815290565b905080515f03610b65575092915050565b815115610b97578082604051602001610b7f9291906114a9565b60405160208183030381529060405292505050919050565b610ba084610dd5565b949350505050565b610413828260405180602001604052805f815250610e46565b5f828152600660205260409020610bd88282611524565b506040518281527ff8e1a15aba9398e019f0b49df1a4fde98ee17ae345cb5f6b5e2c27f5033e8ce79060200160405180910390a15050565b5f6001600160e01b03198216632483248360e11b148061034c575061034c82610e5c565b8080610c4857506001600160a01b03821615155b15610d09575f610c5784610699565b90506001600160a01b03831615801590610c835750826001600160a01b0316816001600160a01b031614155b8015610c965750610c948184610648565b155b15610cbf5760405163a9fbf51f60e01b81526001600160a01b038416600482015260240161043c565b8115610d075783856001600160a01b0316826001600160a01b03167f8c5be1e5ebec7d5bd14f71427d1e84f3dd0314c0f7b2291e5b200ac8c7c3b92560405160405180910390a45b505b50505f90815260046020526040902080546001600160a01b0319166001600160a01b0392909216919091179055565b610d43838383610eab565b6104fc576001600160a01b038316610d7157604051637e27328960e01b81526004810182905260240161043c565b60405163177e802f60e01b81526001600160a01b03831660048201526024810182905260440161043c565b610da6828261056a565b6104135760405163e2517d3f60e01b81526001600160a01b03821660048201526024810183905260440161043c565b6060610de082610699565b505f610df660408051602081019091525f815290565b90505f815111610e145760405180602001604052805f815250610e3f565b80610e1e84610f0c565b604051602001610e2f9291906114a9565b6040516020818303038152906040525b9392505050565b610e508383610f9c565b6104fc5f848484610977565b5f6001600160e01b031982166380ac58cd60e01b1480610e8c57506001600160e01b03198216635b5e139f60e01b145b8061034c57506301ffc9a760e01b6001600160e01b031983161461034c565b5f6001600160a01b03831615801590610ba05750826001600160a01b0316846001600160a01b03161480610ee45750610ee48484610648565b80610ba05750505f908152600460205260409020546001600160a01b03908116911614919050565b60605f610f1883610ffd565b60010190505f8167ffffffffffffffff811115610f3757610f37611272565b6040519080825280601f01601f191660200182016040528015610f61576020820181803683370190505b5090508181016020015b5f19016f181899199a1a9b1b9c1cb0b131b232b360811b600a86061a8153600a8504945084610f6b57509392505050565b6001600160a01b038216610fc557604051633250574960e11b81525f600482015260240161043c565b5f610fd183835f6106de565b90506001600160a01b038116156104fc576040516339e3563760e11b81525f600482015260240161043c565b5f8072184f03e93ff9f4daa797ed6e38ed64bf6a1f0160401b831061103b5772184f03e93ff9f4daa797ed6e38ed64bf6a1f0160401b830492506040015b6d04ee2d6d415b85acef81000000008310611067576d04ee2d6d415b85acef8100000000830492506020015b662386f26fc10000831061108557662386f26fc10000830492506010015b6305f5e100831061109d576305f5e100830492506008015b61271083106110b157612710830492506004015b606483106110c3576064830492506002015b600a831061034c5760010192915050565b6001600160e01b0319811681146107da575f80fd5b5f602082840312156110f9575f80fd5b8135610e3f816110d4565b5f5b8381101561111e578181015183820152602001611106565b50505f910152565b5f815180845261113d816020860160208601611104565b601f01601f19169290920160200192915050565b602081525f610e3f6020830184611126565b5f60208284031215611173575f80fd5b5035919050565b80356001600160a01b0381168114611190575f80fd5b919050565b5f80604083850312156111a6575f80fd5b6111af8361117a565b946020939093013593505050565b5f805f606084860312156111cf575f80fd5b6111d88461117a565b92506111e66020850161117a565b9150604084013590509250925092565b5f8060408385031215611207575f80fd5b823591506112176020840161117a565b90509250929050565b5f60208284031215611230575f80fd5b610e3f8261117a565b5f806040838503121561124a575f80fd5b6112538361117a565b915060208301358015158114611267575f80fd5b809150509250929050565b634e487b7160e01b5f52604160045260245ffd5b5f67ffffffffffffffff808411156112a0576112a0611272565b604051601f8501601f19908116603f011681019082821181831017156112c8576112c8611272565b816040528093508581528686860111156112e0575f80fd5b858560208301375f602087830101525050509392505050565b5f805f806080858703121561130c575f80fd5b6113158561117a565b93506113236020860161117a565b925060408501359150606085013567ffffffffffffffff811115611345575f80fd5b8501601f81018713611355575f80fd5b61136487823560208401611286565b91505092959194509250565b5f8060408385031215611381575f80fd5b61138a8361117a565b9150602083013567ffffffffffffffff8111156113a5575f80fd5b8301601f810185136113b5575f80fd5b6113c485823560208401611286565b9150509250929050565b5f80604083850312156113df575f80fd5b6113e88361117a565b91506112176020840161117a565b600181811c9082168061140a57607f821691505b60208210810361142857634e487b7160e01b5f52602260045260245ffd5b50919050565b5f6001820161144b57634e487b7160e01b5f52601160045260245ffd5b5060010190565b6001600160a01b03858116825284166020820152604081018390526080606082018190525f9061148490830184611126565b9695505050505050565b5f6020828403121561149e575f80fd5b8151610e3f816110d4565b5f83516114ba818460208801611104565b8351908301906114ce818360208801611104565b01949350505050565b601f8211156104fc575f81815260208120601f850160051c810160208610156114fd5750805b601f850160051c820191505b8181101561151c57828155600101611509565b505050505050565b815167ffffffffffffffff81111561153e5761153e611272565b6115528161154c84546113f6565b846114d7565b602080601f831160018114611585575f841561156e5750858301515b5f19600386901b1c1916600185901b17855561151c565b5f85815260208120601f198616915b828110156115b357888601518255948401946001909101908401611594565b50858210156115d057878501515f19600388901b60f8161c191681555b5050505050600190811b0190555056fea2646970667358221220bbdf025170ab1d150616c24bd8e8a23ef4efe3267f8029f8bc64491fc326857864736f6c634300081400339f2df0fed2c77648de5860a4cc508cd0818c85b8b8a1ab4ceeef8d981c8956a6a49807205ce4d355092ef5a8a18f56e8913cf4a201fbe287825b095693c21775",
  "linkReferences": {},
  "deployedLinkReferences": {}
}