{
  "_format": "hh-sol-artifact-1",
  "contractName": "KratosXNFT",
  "sourceName": "contracts/KratosXNFT.sol",
  "abi": [
    {
      "inputs": [
        {
          "internalType": "address",
          "name": "admin",
          "type": "address"
        },
        {
          "internalType": "address",
          "name": "operator",
          "type": "address"
        }
      ],
      "stateMutability": "nonpayable",
      "type": "constructor"
    },
    {
      "inputs": [],
      "name": "AccessControlBadConfirmation",
      "type": "error"
    },
    {
      "inputs": [
        {
          "internalType": "address",
          "name": "account",
          "type": "address"
        },
        {
          "internalType": "bytes32",
          "name": "neededRole",
          "type": "bytes32"
        }
      ],
      "name": "AccessControlUnauthorizedAccount",
      "type": "error"
    },
    {
      "inputs": [
        {
          "internalType": "address",
          "name": "sender",
          "type": "address"
        },
        {
          "internalType": "uint256",
          "name": "tokenId",
          "type": "uint256"
        },
        {
          "internalType": "address",
          "name": "owner",
          "type": "address"
        }
      ],
      "name": "ERC721IncorrectOwner",
      "type": "error"
    },
    {
      "inputs": [
        {
          "internalType": "address",
          "name": "operator",
          "type": "address"
        },
        {
          "internalType": "uint256",
          "name": "tokenId",
          "type": "uint256"
        }
      ],
      "name": "ERC721InsufficientApproval",
      "type": "error"
    },
    {
      "inputs": [
        {
          "internalType": "address",
          "name": "approver",
          "type": "address"
        }
      ],
      "name": "ERC721InvalidApprover",
      "type": "error"
    },
    {
      "inputs": [
        {
          "internalType": "address",
          "name": "operator",
          "type": "address"
        }
      ],
      "name": "ERC721InvalidOperator",
      "type": "error"
    },
    {
      "inputs": [
        {
          "internalType": "address",
          "name": "owner",
          "type": "address"
        }
      ],
      "name": "ERC721InvalidOwner",
      "type": "error"
    },
    {
      "inputs": [
        {
          "internalType": "address",
          "name": "receiver",
          "type": "address"
        }
      ],
      "name": "ERC721InvalidReceiver",
      "type": "error"
    },
    {
      "inputs": [
        {
          "internalType": "address",
          "name": "sender",
          "type": "address"
        }
      ],
      "name": "ERC721InvalidSender",
      "type": "error"
    },
    {
      "inputs": [
        {
          "internalType": "uint256",
          "name": "tokenId",
          "type": "uint256"
        }
      ],
      "name": "ERC721NonexistentToken",
      "type": "error"
    },
    {
      "inputs": [],
      "name": "SoulBoundToken",
      "type": "error"
    },
    {
      "anonymous": false,
      "inputs": [
        {
          "indexed": true,
          "internalType": "address",
          "name": "owner",
          "type": "address"
        },
        {
          "indexed": true,
          "internalType": "address",
          "name": "approved",
          "type": "address"
        },
        {
          "indexed": true,
          "internalType": "uint256",
          "name": "tokenId",
          "type": "uint256"
        }
      ],
      "name": "Approval",
      "type": "event"
    },
    {
      "anonymous": false,
      "inputs": [
        {
          "indexed": true,
          "internalType": "address",
          "name": "owner",
          "type": "address"
        },
        {
          "indexed": true,
          "internalType": "address",
          "name": "operator",
          "type": "address"
        },
        {
          "indexed": false,
          "internalType": "bool",
          "name": "approved",
          "type": "bool"
        }
      ],
      "name": "ApprovalForAll",
      "type": "event"
    },
    {
      "anonymous": false,
      "inputs": [
        {
          "indexed": false,
          "internalType": "uint256",
          "name": "_fromTokenId",
          "type": "uint256"
        },
        {
          "indexed": false,
          "internalType": "uint256",
          "name": "_toTokenId",
          "type": "uint256"
        }
      ],
      "name": "BatchMetadataUpdate",
      "type": "event"
    },
    {
      "anonymous": false,
      "inputs": [
        {
          "indexed": false,
          "internalType": "uint256",
          "name": "_tokenId",
          "type": "uint256"
        }
      ],
      "name": "MetadataUpdate",
      "type": "event"
    },
    {
      "anonymous": false,
      "inputs": [
        {
          "indexed": true,
          "internalType": "bytes32",
          "name": "role",
          "type": "bytes32"
        },
        {
          "indexed": true,
          "internalType": "bytes32",
          "name": "previousAdminRole",
          "type": "bytes32"
        },
        {
          "indexed": true,
          "internalType": "bytes32",
          "name": "newAdminRole",
          "type": "bytes32"
        }
      ],
      "name": "RoleAdminChanged",
      "type": "event"
    },
    {
      "anonymous": false,
      "inputs": [
        {
          "indexed": true,
          "internalType": "bytes32",
          "name": "role",
          "type": "bytes32"
        },
        {
          "indexed": true,
          "internalType": "address",
          "name": "account",
          "type": "address"
        },
        {
          "indexed": true,
          "internalType": "address",
          "name": "sender",
          "type": "address"
        }
      ],
      "name": "RoleGranted",
      "type": "event"
    },
    {
      "anonymous": false,
      "inputs": [
        {
          "indexed": true,
          "internalType": "bytes32",
          "name": "role",
          "type": "bytes32"
        },
        {
          "indexed": true,
          "internalType": "address",
          "name": "account",
          "type": "address"
        },
        {
          "indexed": true,
          "internalType": "address",
          "name": "sender",
          "type": "address"
        }
      ],
      "name": "RoleRevoked",
      "type": "event"
    },
    {
      "anonymous": false,
      "inputs": [
        {
          "indexed": true,
          "internalType": "address",
          "name": "from",
          "type": "address"
        },
        {
          "indexed": true,
          "internalType": "address",
          "name": "to",
          "type": "address"
        },
        {
          "indexed": true,
          "internalType": "uint256",
          "name": "tokenId",
          "type": "uint256"
        }
      ],
      "name": "Transfer",
      "type": "event"
    },
    {
      "inputs": [],
      "name": "ADMIN_ROLE",
      "outputs": [
        {
          "internalType": "bytes32",
          "name": "",
          "type": "bytes32"
        }
      ],
      "stateMutability": "view",
      "type": "function"
    },
    {
      "inputs": [],
      "name": "DEFAULT_ADMIN_ROLE",
      "outputs": [
        {
          "internalType": "bytes32",
          "name": "",
          "type": "bytes32"
        }
      ],
      "stateMutability": "view",
      "type": "function"
    },
    {
      "inputs": [],
      "name": "OPERATOR_ROLE",
      "outputs": [
        {
          "internalType": "bytes32",
          "name": "",
          "type": "bytes32"
        }
      ],
      "stateMutability": "view",
      "type": "function"
    },
    {
      "inputs": [
        {
          "internalType": "address",
          "name": "to",
          "type": "address"
        },
        {
          "internalType": "uint256",
          "name": "tokenId",
          "type": "uint256"
        }
      ],
      "name": "approve",
      "outputs": [],
      "stateMutability": "nonpayable",
      "type": "function"
    },
    {
      "inputs": [
        {
          "internalType": "address",
          "name": "owner",
          "type": "address"
        }
      ],
      "name": "balanceOf",
      "outputs": [
        {
          "internalType": "uint256",
          "name": "",
          "type": "uint256"
        }
      ],
      "stateMutability": "view",
      "type": "function"
    },
    {
      "inputs": [
        {
          "internalType": "uint256",
          "name": "tokenId",
          "type": "uint256"
        }
      ],
      "name": "burn",
      "outputs": [],
      "stateMutability": "nonpayable",
      "type": "function"
    },
    {
      "inputs": [
        {
          "internalType": "uint256",
          "name": "tokenId",
          "type": "uint256"
        }
      ],
      "name": "getApproved",
      "outputs": [
        {
          "internalType": "address",
          "name": "",
          "type": "address"
        }
      ],
      "stateMutability": "view",
      "type": "function"
    },
    {
      "inputs": [
        {
          "internalType": "bytes32",
          "name": "role",
          "type": "bytes32"
        }
      ],
      "name": "getRoleAdmin",
      "outputs": [
        {
          "internalType": "bytes32",
          "name": "",
          "type": "bytes32"
        }
      ],
      "stateMutability": "view",
      "type": "function"
    },
    {
      "inputs": [
        {
          "internalType": "bytes32",
          "name": "role",
          "type": "bytes32"
        },
        {
          "internalType": "address",
          "name": "account",
          "type": "address"
        }
      ],
      "name": "grantRole",
      "outputs": [],
      "stateMutability": "nonpayable",
      "type": "function"
    },
    {
      "inputs": [
        {
          "internalType": "bytes32",
          "name": "role",
          "type": "bytes32"
        },
        {
          "internalType": "address",
          "name": "account",
          "type": "address"
        }
      ],
      "name": "hasRole",
      "outputs": [
        {
          "internalType": "bool",
          "name": "",
          "type": "bool"
        }
      ],
      "stateMutability": "view",
      "type": "function"
    },
    {
      "inputs": [
        {
          "internalType": "address",
          "name": "owner",
          "type": "address"
        },
        {
          "internalType": "address",
          "name": "operator",
          "type": "address"
        }
      ],
      "name": "isApprovedForAll",
      "outputs": [
        {
          "internalType": "bool",
          "name": "",
          "type": "bool"
        }
      ],
      "stateMutability": "view",
      "type": "function"
    },
    {
      "inputs": [],
      "name": "name",
      "outputs": [
        {
          "internalType": "string",
          "name": "",
          "type": "string"
        }
      ],
      "stateMutability": "view",
      "type": "function"
    },
    {
      "inputs": [
        {
          "internalType": "uint256",
          "name": "tokenId",
          "type": "uint256"
        }
      ],
      "name": "ownerOf",
      "outputs": [
        {
          "internalType": "address",
          "name": "",
          "type": "address"
        }
      ],
      "stateMutability": "view",
      "type": "function"
    },
    {
      "inputs": [
        {
          "internalType": "bytes32",
          "name": "role",
          "type": "bytes32"
        },
        {
          "internalType": "address",
          "name": "callerConfirmation",
          "type": "address"
        }
      ],
      "name": "renounceRole",
      "outputs": [],
      "stateMutability": "nonpayable",
      "type": "function"
    },
    {
      "inputs": [
        {
          "internalType": "bytes32",
          "name": "role",
          "type": "bytes32"
        },
        {
          "internalType": "address",
          "name": "account",
          "type": "address"
        }
      ],
      "name": "revokeRole",
      "outputs": [],
      "stateMutability": "nonpayable",
      "type": "function"
    },
    {
      "inputs": [
        {
          "internalType": "address",
          "name": "to",
          "type": "address"
        },
        {
          "internalType": "string",
          "name": "uri",
          "type": "string"
        }
      ],
      "name": "safeMint",
      "outputs": [],
      "stateMutability": "nonpayable",
      "type": "function"
    },
    {
      "inputs": [
        {
          "internalType": "address",
          "name": "from",
          "type": "address"
        },
        {
          "internalType": "address",
          "name": "to",
          "type": "address"
        },
        {
          "internalType": "uint256",
          "name": "tokenId",
          "type": "uint256"
        }
      ],
      "name": "safeTransferFrom",
      "outputs": [],
      "stateMutability": "nonpayable",
      "type": "function"
    },
    {
      "inputs": [
        {
          "internalType": "address",
          "name": "from",
          "type": "address"
        },
        {
          "internalType": "address",
          "name": "to",
          "type": "address"
        },
        {
          "internalType": "uint256",
          "name": "tokenId",
          "type": "uint256"
        },
        {
          "internalType": "bytes",
          "name": "data",
          "type": "bytes"
        }
      ],
      "name": "safeTransferFrom",
      "outputs": [],
      "stateMutability": "nonpayable",
      "type": "function"
    },
    {
      "inputs": [
        {
          "internalType": "address",
          "name": "operator",
          "type": "address"
        },
        {
          "internalType": "bool",
          "name": "approved",
          "type": "bool"
        }
      ],
      "name": "setApprovalForAll",
      "outputs": [],
      "stateMutability": "nonpayable",
      "type": "function"
    },
    {
      "inputs": [
        {
          "internalType": "bytes4",
          "name": "interfaceId",
          "type": "bytes4"
        }
      ],
      "name": "supportsInterface",
      "outputs": [
        {
          "internalType": "bool",
          "name": "",
          "type": "bool"
        }
      ],
      "stateMutability": "view",
      "type": "function"
    },
    {
      "inputs": [],
      "name": "symbol",
      "outputs": [
        {
          "internalType": "string",
          "name": "",
          "type": "string"
        }
      ],
      "stateMutability": "view",
      "type": "function"
    },
    {
      "inputs": [
        {
          "internalType": "uint256",
          "name": "tokenId",
          "type": "uint256"
        }
      ],
      "name": "tokenURI",
      "outputs": [
        {
          "internalType": "string",
          "name": "",
          "type": "string"
        }
      ],
      "stateMutability": "view",
      "type": "function"
    },
    {
      "inputs": [
        {
          "internalType": "address",
          "name": "from",
          "type": "address"
        },
        {
          "internalType": "address",
          "name": "to",
          "type": "address"
        },
        {
          "internalType": "uint256",
          "name": "tokenId",
          "type": "uint256"
        }
      ],
      "name": "transferFrom",
      "outputs": [],
      "stateMutability": "nonpayable",
      "type": "function"
    }
  ],
  "bytecode": "0x608060405234801562000010575f80fd5b5060405162001b0538038062001b05833981016040819052620000339162000230565b6040518060400160405280600a81526020016912dc985d1bdcd613919560b21b8152506040518060400160405280600381526020016225ac2760e91b815250815f908162000082919062000306565b50600162000091828262000306565b505050620000b45f8051602062001ae5833981519152836200011a60201b60201c565b50620000cf5f8051602062001ac5833981519152826200011a565b50620000ea5f8051602062001ae583398151915280620001ca565b620001125f8051602062001ac58339815191525f8051602062001ae5833981519152620001ca565b5050620003ce565b5f8281526007602090815260408083206001600160a01b038516845290915281205460ff16620001c1575f8381526007602090815260408083206001600160a01b03861684529091529020805460ff19166001179055620001783390565b6001600160a01b0316826001600160a01b0316847f2f8788117e7eff1d82e926ec794901d17c78024a50270940304540a733656f0d60405160405180910390a4506001620001c4565b505f5b92915050565b5f82815260076020526040808220600101805490849055905190918391839186917fbd79b86ffe0ab8e8776151514217cd7cacd52c909f66475c3af44e129f0b00ff9190a4505050565b80516001600160a01b03811681146200022b575f80fd5b919050565b5f806040838503121562000242575f80fd5b6200024d8362000214565b91506200025d6020840162000214565b90509250929050565b634e487b7160e01b5f52604160045260245ffd5b600181811c908216806200028f57607f821691505b602082108103620002ae57634e487b7160e01b5f52602260045260245ffd5b50919050565b601f82111562000301575f81815260208120601f850160051c81016020861015620002dc5750805b601f850160051c820191505b81811015620002fd57828155600101620002e8565b5050505b505050565b81516001600160401b0381111562000322576200032262000266565b6200033a816200033384546200027a565b84620002b4565b602080601f83116001811462000370575f8415620003585750858301515b5f19600386901b1c1916600185901b178555620002fd565b5f85815260208120601f198616915b82811015620003a0578886015182559484019460019091019084016200037f565b5085821015620003be57878501515f19600388901b60f8161c191681555b5050505050600190811b01905550565b6116e980620003dc5f395ff3fe608060405234801561000f575f80fd5b5060043610610148575f3560e01c806370a08231116100bf578063b88d4fde11610079578063b88d4fde146102da578063c87b56dd146102ed578063d204c45e14610300578063d547741f14610313578063e985e9c514610326578063f5b541a614610339575f80fd5b806370a082311461026b57806375b238fc1461027e57806391d14854146102a557806395d89b41146102b8578063a217fddf146102c0578063a22cb465146102c7575f80fd5b8063248a9ca311610110578063248a9ca3146101dc5780632f2ff15d1461020c57806336568abe1461021f57806342842e0e1461023257806342966c68146102455780636352211e14610258575f80fd5b806301ffc9a71461014c57806306fdde0314610174578063081812fc14610189578063095ea7b3146101b457806323b872dd146101c9575b5f80fd5b61015f61015a3660046111bc565b610360565b60405190151581526020015b60405180910390f35b61017c610370565b60405161016b9190611224565b61019c610197366004611236565b6103ff565b6040516001600160a01b03909116815260200161016b565b6101c76101c2366004611268565b610426565b005b6101c76101d7366004611290565b610435565b6101fe6101ea366004611236565b5f9081526007602052604090206001015490565b60405190815260200161016b565b6101c761021a3660046112c9565b6104c3565b6101c761022d3660046112c9565b6104e7565b6101c7610240366004611290565b61051f565b6101c7610253366004611236565b610539565b61019c610266366004611236565b61056c565b6101fe6102793660046112f3565b610576565b6101fe7fa49807205ce4d355092ef5a8a18f56e8913cf4a201fbe287825b095693c2177581565b61015f6102b33660046112c9565b6105bb565b61017c6105e5565b6101fe5f81565b6101c76102d536600461130c565b6105f4565b6101c76102e83660046113cc565b6105ff565b61017c6102fb366004611236565b610616565b6101c761030e366004611443565b610621565b6101c76103213660046112c9565b610675565b61015f6103343660046114a1565b610699565b6101fe7f97667070c54ef182b0f5858b034beac1b6f3089aa2d3188bb1e8929f4fa9b92981565b5f61036a826106c6565b92915050565b60605f805461037e906114c9565b80601f01602080910402602001604051908101604052809291908181526020018280546103aa906114c9565b80156103f55780601f106103cc576101008083540402835291602001916103f5565b820191905f5260205f20905b8154815290600101906020018083116103d857829003601f168201915b5050505050905090565b5f610409826106ea565b505f828152600460205260409020546001600160a01b031661036a565b610431828233610722565b5050565b6001600160a01b03821661046357604051633250574960e11b81525f60048201526024015b60405180910390fd5b5f61046f83833361072f565b9050836001600160a01b0316816001600160a01b0316146104bd576040516364283d7b60e01b81526001600160a01b038086166004830152602482018490528216604482015260640161045a565b50505050565b5f828152600760205260409020600101546104dd81610781565b6104bd838361078e565b6001600160a01b03811633146105105760405163334bd91960e11b815260040160405180910390fd5b61051a828261081f565b505050565b61051a83838360405180602001604052805f8152506105ff565b7f97667070c54ef182b0f5858b034beac1b6f3089aa2d3188bb1e8929f4fa9b92961056381610781565b6104318261088a565b5f61036a826106ea565b5f6001600160a01b0382166105a0576040516322718ad960e21b81525f600482015260240161045a565b506001600160a01b03165f9081526003602052604090205490565b5f9182526007602090815260408084206001600160a01b0393909316845291905290205460ff1690565b60606001805461037e906114c9565b6104313383836108c2565b61060a848484610435565b6104bd84848484610960565b606061036a82610a86565b7f97667070c54ef182b0f5858b034beac1b6f3089aa2d3188bb1e8929f4fa9b92961064b81610781565b600880545f918261065b83611501565b91905055905061066b8482610b89565b6104bd8184610ba2565b5f8281526007602052604090206001015461068f81610781565b6104bd838361081f565b6001600160a01b039182165f90815260056020908152604080832093909416825291909152205460ff1690565b5f6001600160e01b03198216637965db0b60e01b148061036a575061036a82610bf1565b5f818152600260205260408120546001600160a01b03168061036a57604051637e27328960e01b81526004810184905260240161045a565b61051a8383836001610c15565b5f6001600160a01b0382161580159061075057506001600160a01b03841615155b1561076e5760405163185024ef60e31b815260040160405180910390fd5b610779848484610d19565b949350505050565b61078b8133610e0b565b50565b5f61079983836105bb565b610818575f8381526007602090815260408083206001600160a01b03861684529091529020805460ff191660011790556107d03390565b6001600160a01b0316826001600160a01b0316847f2f8788117e7eff1d82e926ec794901d17c78024a50270940304540a733656f0d60405160405180910390a450600161036a565b505f61036a565b5f61082a83836105bb565b15610818575f8381526007602090815260408083206001600160a01b0386168085529252808320805460ff1916905551339286917ff6391f5c32d9c69d2a47ea670b442974b53935d1edc7fd64eb21e047a839171b9190a450600161036a565b5f6108965f835f61072f565b90506001600160a01b03811661043157604051637e27328960e01b81526004810183905260240161045a565b6001600160a01b0382166108f457604051630b61174360e31b81526001600160a01b038316600482015260240161045a565b6001600160a01b038381165f81815260056020908152604080832094871680845294825291829020805460ff191686151590811790915591519182527f17307eab39ab6107e8899845ad3d59bd9653f200f220920489ca2b5937696c31910160405180910390a3505050565b6001600160a01b0383163b156104bd57604051630a85bd0160e11b81526001600160a01b0384169063150b7a02906109a2903390889087908790600401611525565b6020604051808303815f875af19250505080156109dc575060408051601f3d908101601f191682019092526109d991810190611561565b60015b610a43573d808015610a09576040519150601f19603f3d011682016040523d82523d5f602084013e610a0e565b606091505b5080515f03610a3b57604051633250574960e11b81526001600160a01b038516600482015260240161045a565b805181602001fd5b6001600160e01b03198116630a85bd0160e11b14610a7f57604051633250574960e11b81526001600160a01b038516600482015260240161045a565b5050505050565b6060610a91826106ea565b505f8281526006602052604081208054610aaa906114c9565b80601f0160208091040260200160405190810160405280929190818152602001828054610ad6906114c9565b8015610b215780601f10610af857610100808354040283529160200191610b21565b820191905f5260205f20905b815481529060010190602001808311610b0457829003601f168201915b505050505090505f610b3d60408051602081019091525f815290565b905080515f03610b4e575092915050565b815115610b80578082604051602001610b6892919061157c565b60405160208183030381529060405292505050919050565b61077984610e44565b610431828260405180602001604052805f815250610eb5565b5f828152600660205260409020610bb982826115f7565b506040518281527ff8e1a15aba9398e019f0b49df1a4fde98ee17ae345cb5f6b5e2c27f5033e8ce79060200160405180910390a15050565b5f6001600160e01b03198216632483248360e11b148061036a575061036a82610ecb565b8080610c2957506001600160a01b03821615155b15610cea575f610c38846106ea565b90506001600160a01b03831615801590610c645750826001600160a01b0316816001600160a01b031614155b8015610c775750610c758184610699565b155b15610ca05760405163a9fbf51f60e01b81526001600160a01b038416600482015260240161045a565b8115610ce85783856001600160a01b0316826001600160a01b03167f8c5be1e5ebec7d5bd14f71427d1e84f3dd0314c0f7b2291e5b200ac8c7c3b92560405160405180910390a45b505b50505f90815260046020526040902080546001600160a01b0319166001600160a01b0392909216919091179055565b5f828152600260205260408120546001600160a01b0390811690831615610d4557610d45818486610f1a565b6001600160a01b03811615610d7f57610d605f855f80610c15565b6001600160a01b0381165f90815260036020526040902080545f190190555b6001600160a01b03851615610dad576001600160a01b0385165f908152600360205260409020805460010190555b5f8481526002602052604080822080546001600160a01b0319166001600160a01b0389811691821790925591518793918516917fddf252ad1be2c89b69c2b068fc378daa952ba7f163c4a11628f55a4df523b3ef91a4949350505050565b610e1582826105bb565b6104315760405163e2517d3f60e01b81526001600160a01b03821660048201526024810183905260440161045a565b6060610e4f826106ea565b505f610e6560408051602081019091525f815290565b90505f815111610e835760405180602001604052805f815250610eae565b80610e8d84610f7e565b604051602001610e9e92919061157c565b6040516020818303038152906040525b9392505050565b610ebf838361100e565b61051a5f848484610960565b5f6001600160e01b031982166380ac58cd60e01b1480610efb57506001600160e01b03198216635b5e139f60e01b145b8061036a57506301ffc9a760e01b6001600160e01b031983161461036a565b610f2583838361106f565b61051a576001600160a01b038316610f5357604051637e27328960e01b81526004810182905260240161045a565b60405163177e802f60e01b81526001600160a01b03831660048201526024810182905260440161045a565b60605f610f8a836110d0565b60010190505f8167ffffffffffffffff811115610fa957610fa9611345565b6040519080825280601f01601f191660200182016040528015610fd3576020820181803683370190505b5090508181016020015b5f19016f181899199a1a9b1b9c1cb0b131b232b360811b600a86061a8153600a8504945084610fdd57509392505050565b6001600160a01b03821661103757604051633250574960e11b81525f600482015260240161045a565b5f61104383835f61072f565b90506001600160a01b0381161561051a576040516339e3563760e11b81525f600482015260240161045a565b5f6001600160a01b038316158015906107795750826001600160a01b0316846001600160a01b031614806110a857506110a88484610699565b806107795750505f908152600460205260409020546001600160a01b03908116911614919050565b5f8072184f03e93ff9f4daa797ed6e38ed64bf6a1f0160401b831061110e5772184f03e93ff9f4daa797ed6e38ed64bf6a1f0160401b830492506040015b6d04ee2d6d415b85acef8100000000831061113a576d04ee2d6d415b85acef8100000000830492506020015b662386f26fc10000831061115857662386f26fc10000830492506010015b6305f5e1008310611170576305f5e100830492506008015b612710831061118457612710830492506004015b60648310611196576064830492506002015b600a831061036a5760010192915050565b6001600160e01b03198116811461078b575f80fd5b5f602082840312156111cc575f80fd5b8135610eae816111a7565b5f5b838110156111f15781810151838201526020016111d9565b50505f910152565b5f81518084526112108160208601602086016111d7565b601f01601f19169290920160200192915050565b602081525f610eae60208301846111f9565b5f60208284031215611246575f80fd5b5035919050565b80356001600160a01b0381168114611263575f80fd5b919050565b5f8060408385031215611279575f80fd5b6112828361124d565b946020939093013593505050565b5f805f606084860312156112a2575f80fd5b6112ab8461124d565b92506112b96020850161124d565b9150604084013590509250925092565b5f80604083850312156112da575f80fd5b823591506112ea6020840161124d565b90509250929050565b5f60208284031215611303575f80fd5b610eae8261124d565b5f806040838503121561131d575f80fd5b6113268361124d565b91506020830135801515811461133a575f80fd5b809150509250929050565b634e487b7160e01b5f52604160045260245ffd5b5f67ffffffffffffffff8084111561137357611373611345565b604051601f8501601f19908116603f0116810190828211818310171561139b5761139b611345565b816040528093508581528686860111156113b3575f80fd5b858560208301375f602087830101525050509392505050565b5f805f80608085870312156113df575f80fd5b6113e88561124d565b93506113f66020860161124d565b925060408501359150606085013567ffffffffffffffff811115611418575f80fd5b8501601f81018713611428575f80fd5b61143787823560208401611359565b91505092959194509250565b5f8060408385031215611454575f80fd5b61145d8361124d565b9150602083013567ffffffffffffffff811115611478575f80fd5b8301601f81018513611488575f80fd5b61149785823560208401611359565b9150509250929050565b5f80604083850312156114b2575f80fd5b6114bb8361124d565b91506112ea6020840161124d565b600181811c908216806114dd57607f821691505b6020821081036114fb57634e487b7160e01b5f52602260045260245ffd5b50919050565b5f6001820161151e57634e487b7160e01b5f52601160045260245ffd5b5060010190565b6001600160a01b03858116825284166020820152604081018390526080606082018190525f90611557908301846111f9565b9695505050505050565b5f60208284031215611571575f80fd5b8151610eae816111a7565b5f835161158d8184602088016111d7565b8351908301906115a18183602088016111d7565b01949350505050565b601f82111561051a575f81815260208120601f850160051c810160208610156115d05750805b601f850160051c820191505b818110156115ef578281556001016115dc565b505050505050565b815167ffffffffffffffff81111561161157611611611345565b6116258161161f84546114c9565b846115aa565b602080601f831160018114611658575f84156116415750858301515b5f19600386901b1c1916600185901b1785556115ef565b5f85815260208120601f198616915b8281101561168657888601518255948401946001909101908401611667565b50858210156116a357878501515f19600388901b60f8161c191681555b5050505050600190811b0190555056fea264697066735822122004fb1a814c435e3eb06870c27da69a268a3876868a78fc0ddbf18e0f74b81db964736f6c6343000814003397667070c54ef182b0f5858b034beac1b6f3089aa2d3188bb1e8929f4fa9b929a49807205ce4d355092ef5a8a18f56e8913cf4a201fbe287825b095693c21775",
  "linkReferences": {},
  "deployedLinkReferences": {}
}